:020000040800F2
:10000000B804002001010008351300082D13000872
:100010003113000855020008AD130008000000006D
:100020000000000000000000000000003D13000878
:1000300059020008000000003913000841130008AD
:100040001B0100081B0100081B0100081B01000820
:100050001B0100081B0100081B0100081B01000810
:100060001B0100081B0100081B0100081B01000800
:100070001B0100081B0100081B0100081B010008F0
:100080001B0100081B0100081B0100081B010008E0
:100090001B0100081B0100081B0100081B010008D0
:1000A0001B0100081B0100081B0100081B010008C0
:1000B0001B0100081B0100081B0100081B010008B0
:1000C0001B0100081B0100081B0100081B010008A0
:1000D0001B010008A11300081B0100081B010008F8
:1000E0001B0100081B0100081B010008DFF80CD0F1
:1000F00000F078F800480047D1130008B804002049
:100100000648804706480047FEE7FEE7FEE7FEE7B1
:10011000FEE7FEE7FEE7FEE7FEE7FEE74513000821
:10012000ED000008D2B201E000F8012B491EFBD21D
:1001300070470022F6E710B513460A4604461946F2
:10014000FFF7F0FF204610BD421C10F8011B0029EC
:10015000FBD1801A704730B504460020034600E00A
:100160005B1C934203D2E05CCD5C401BF8D030BDF9
:10017000034611F8012B00F8012B002AF9D118468B
:1001800070472DE9F05F0546002092469B46884661
:100190000646814640241BE0284641464746224603
:1001A00000F047F853465A46C01A914110D3114601
:1001B0001846224600F02EF82D1A67EB01084F462C
:1001C00022460120002100F025F817EB00094E41DE
:1001D000201EA4F10104DFDC484631462A4643468E
:1001E000BDE8F09F1CB509480090094801900546FC
:1001F000009C06E0E06840F0010394E8070098479F
:100200001034AC42F6D3FFF775FF0000D02500088C
:10021000F0250008202A04DB203A00FA02F1002031
:1002200070479140C2F1200320FA03F31943904034
:100230007047202A04DB203A21FA02F0002170479F
:1002400021FA02F3D040C2F120029140084319463E
:1002500070470000FEE700007047000090F8211092
:10026000022923D1026840F2040C1168C4F2020C86
:1002700021F00E01116013682F21C4F202018A429D
:1002800023F00103136015DD3023C4F202039A4208
:100290001CD04423C4F202039A421BD05823C4F258
:1002A00002039A421CD14FF4803321E00421816380
:1002B000012070470823C4F202039A420ED01C2387
:1002C000C4F202039A420BD1102311E04FF4807361
:1002D0000EE000BF4FF480530AE000BF012307E0A7
:1002E0000CF168014FF080738A4208BF4FF480130D
:1002F000CCF80030416B4FF480720029028404BFB7
:100300000020704780B58847002080BDB0B5044606
:1003100000F020F9054640F20400C2F20000007827
:10032000611C18BF044400BF00F014F9401BA04238
:10033000FAD3B0BD2DE9F04F82B00E68002E00F068
:10034000FF8040F20C4C40F2004E41F20042C4F2F9
:10035000010CC4F2010EC4F201020427002401239F
:100360004FF0000A4FF00009904208BF03270097A2
:1003700049E000BF41F20002C4F20102009F904236
:1003800008BF022704F00C030F229A402BEA020256
:1003900007FA03F34FEA9A051A4346F825204E68F8
:1003A000F203DEF8002054BF22EA080242EA080203
:1003B000CEF80020DEF80420B30354BF22EA08027E
:1003C00042EA0802CEF80420F302DEF8082054BF07
:1003D00022EA080242EA0802B302CEF80820DCF85A
:1003E00000204FF0010354BF22EA080242EA08024B
:1003F000CCF800200E680AF1010A36FA0AF204F17C
:10040000040400F09D8003FA0AFB16EA0B08F1D001
:100410004E684FF6FF72C1F21002964212DC122EA5
:1004200056D8DFE806F0350B4D495555555555550D
:100430005555555555555545510000BFD1F80C90AF
:1004400046E000BF4FF6FF72C1F2210296420FDC78
:100450000022C1F2110296421AD00022C1F2120209
:10046000964215D00022C1F22102964210D02FE010
:100470000022C1F2220296420AD00022C1F23102C9
:10048000964205D00022C1F23202964220D100BF2E
:100490008A684AB1012A14BFC0F814B0C0F810B07D
:1004A0004FF0080914E000BF4FF0040910E000BF4E
:1004B000CA6802F104090BE04FF0000908E000BF30
:1004C000CA6802F1080903E0CA6802F10C0900BF1A
:1004D00002462646B8F5807F24BF0432203E1768C6
:1004E0000F25B54027EA050509FA06F635431560DC
:1004F000CA79D2067FF57EAF41F21803C4F2020337
:100500001A68AEF57E7642F001021A601A6802F0AF
:1005100001020192019A2AF0030256F802B040F655
:100520000002C4F20102904208D040F60042C4F238
:10053000010290427FF41EAF012723E7002721E745
:1005400002B0BDE8F08F00008068084018BF0120AD
:100550007047000040F2B000C2F20000006870472F
:1005600040F2040040F2B001C2F20000C2F2000109
:1005700000780A68104408607047000080B542F2B5
:100580000000C4F20200016841F010010160032084
:1005900000F08CF80F2000F005F800F027F800209C
:1005A00080BD000070B540F20406C2F2000640F2C1
:1005B0000C013278C2F200014FF47A730968B3FB80
:1005C000F2F20446B1FBF2F1084600F085FB0F2C75
:1005D0004FF0010508D838B94FF0FF30214600220E
:1005E000002500F037F87460284670BD82B041F2F3
:1005F0001800C4F202000168022241F0010101600A
:10060000016801F0010101910199416841F08051B7
:100610004160406800F08050009000980420C4F2CF
:100620000100016862F31A61016002B070470000C6
:10063000002848BF704700F01F01012202FA01F1B3
:100640001C2202EAD0004EF20012CEF200028150CB
:100650007047000010B54EF60C5CCEF2000CDCF8D2
:100660000030C3F3022E8EF00704042C28BF0424AC
:10067000BEF103034FF0FF3E0EFA04F438BF00232F
:10068000A14399400EFA03F39A43114300F00F027D
:1006900000F160430901043A03F564436244002811
:1006A00048BF02F10C03197010BD00004EF60C514A
:1006B000CEF200010A684FF6FF031A4060F30A22E7
:1006C00042F0806040F0FD7008607047002804BF71
:1006D000012070472DE9F04381B042F20008C4F2D6
:1006E00002080446D8F800000D4600F007008142D9
:1006F0000CD9D8F8000020F007002843C8F8000003
:10070000D8F8000000F00700A8426CD1206841F240
:1007100004098107C4F2020917D5410705D5D9F8A4
:10072000001041F4E061C9F80010010705D5D9F8BF
:10073000001041F46051C9F80010D9F80010A26807
:1007400021F0F0011143C9F80010C00742D1D8F8D8
:10075000000000F0070085420CD2D8F8000020F01D
:1007600007002843C8F80000D8F8000000F0070090
:10077000A84238D12068410707D5D9F80010E268AF
:1007800021F4E0611143C9F80010000708D5D9F839
:100790000000216920F4605040EAC100C9F800005F
:1007A000D9F8002002F00C00082841F20020C0F225
:1007B0007A004DD141F6FD73C2F38341C0F60003C8
:1007C000595CD20338D440F60010C0F23D004843D3
:1007D0003EE000BF606859F8041C022808D00128D8
:1007E00026D1890306D4012001B0BDE8F08300BF03
:1007F0008901F8D5D9F8001021F003010843C9F8A0
:100800000000FFF7A7FE064641F28837D9F800003E
:10081000616800F00C00B0EB810F98D0FFF79AFEF2
:10082000801BB842F2D9032001B0BDE8F08300BFBD
:100830008907D8D5DEE700BFD9F8002041F6D87384
:10084000C2F34042C0F600039A5C4843B0FBF2F0AA
:10085000D9F8001041F6DA72C1F30311C0F60002B4
:10086000515C40F20C0220FA01F140F20800C2F2A1
:1008700000000068C2F200021160FFF793FE002042
:1008800001B0BDE8F083000040F20C0041F2040129
:10089000C2F20000C4F202010068096841F6EA727F
:1008A000C1F30221C0F60002515CC840704700004D
:1008B00040F20C0041F20401C2F20000C4F2020155
:1008C0000068096841F6EA72C1F3C221C0F600026D
:1008D000515CC84070470000002804BF01207047E9
:1008E0002DE9F04182B00446007841F20006C007CD
:1008F000C4F202060CD0706800F00C00042840F02E
:1009000081803068800303D56068002800F046814C
:10091000207880071BD5706810F00C0F09D0706824
:1009200000F00C00082840F087807068C00300F1D8
:1009300083803068800703D52069012840F02E812C
:100940003068616920F0F80040EAC100306020782A
:10095000000713D4207840072CD4E569002D00F05F
:100960001881706800F00C00082840F0A780012D65
:1009700040F00481012002B0BDE8F081A0690028A8
:1009800000F084800020C4F242200121C0F88014CD
:10099000FFF7E0FD054600BF706A800700F1B280F6
:1009A000FFF7D8FD401B0228F6D9032002B0BDE8AE
:1009B000F08100BFF0695FEAC00808D4F06940F038
:1009C0008050F061F06900F080500090009847F28C
:1009D0000007C4F200073868C00549D4386840F4FD
:1009E00080703860FFF7B6FD054600BF3868C00567
:1009F0003ED4FFF7AFFD401B6428F7D9032002B0B7
:100A0000BDE8F081706800F00C00082803D1706820
:100A1000C0033FF576AF61683068002900F00C81B3
:100A2000B1F5A02F00F00081B1F5803F40F01A81B0
:100A300040F480301CE100BF2069002840F2000033
:100A4000C4F2422000F0888001210160FFF782FD9E
:100A5000054600BF306880073FF572AFFFF77AFDAB
:100A6000401B0228F6D9032002B0BDE8F08100BF88
:100A7000E168306A002900F09D80052900F092802D
:100A8000012940F0AF8040F00100B1E00020C4F245
:100A900042200021C0F88014FFF75CFD054600BF2E
:100AA000706A80077FF556AFFFF754FD401B0228A0
:100AB000F6D9032002B0BDE8F08100BF0027C4F2E0
:100AC000422700203866FFF745FD022D05460DD16F
:100AD0003068800140F1DE80FFF73CFD401B0228BA
:100AE0004FF00300F4D902B0BDE8F0813068800116
:100AF0004FD5FFF72FFD401B02284FF00300F5D91B
:100B0000F1E700BF40F20C00C2F20000006844F6BA
:100B1000D351C1F26201A0FB0101480A019000BF5C
:100B200000BF0198411E002801913FF413AF00BFA0
:100B30000198411E002801913FF40CAF00BF0198BD
:100B4000411E002801913FF405AF00BF0198411EEE
:100B500000280191E4D1FDE600210160FFF7FAFCD5
:100B6000054600BF306880077FF5F1AEFFF7F2FC65
:100B7000401B02284FF00300F4D9B4E77068216AE3
:100B800000F480328A4209D1616A00F47010884210
:100B900004D1002002B0BDE8F08100BF012002B006
:100BA000BDE8F08140F004003062306A40F001009E
:100BB0001EE000BF20F001003062306A20F0040027
:100BC0003062FFF7C7FC054641F28837306A80077C
:100BD00020D5FFF7BFFC401BB8424FF00300F5D90A
:100BE00081E700BF20F001003062306A20F004008D
:100BF0003062FFF7AFFC054641F28837306A800764
:100C000008D4FFF7A7FC401BB842F7D9032002B075
:100C1000BDE8F081B8F1000F3FF59FAEF06920F01C
:100C20008050F06199E600BF40F480203060306869
:100C300040F480301CE000BF20F480303060306829
:100C400020F480203060FFF785FC05463068800383
:100C50007FF55EAEFFF77EFC401B64284FF003007B
:100C6000F4D940E720F480303060306820F48020F0
:100C70003060FFF76FFC0546306880033FF548AEF3
:100C8000FFF768FC401B6428F6D9032002B0BDE8DA
:100C9000F08100BF206AB0F5803F05D17168A2687D
:100CA00021F40031114371607168626A21F474119A
:100CB00011430843706001203866FFF74BFC04467F
:100CC000306880013FF565AFFFF744FC001B022848
:100CD0004FF00300F4D906E7411E0020B0EB116F7E
:100CE0001CBF012070474EF21002CEF2000251608C
:100CF0004EF62351CEF20001F0230B7007219060D5
:100D00001160704770470000B0B501680A68CC6890
:100D10004B6902F02F05202D04F0200512D18DB172
:100D200090F83A20222A40F017818268B2F5805F5D
:100D30003ED10369826A4968002B61D0C9B222F8AA
:100D4000011B61E05FEA027C1EBF03F0010E04F4A8
:100D5000907313EB0E0337D1130617D514F08003ED
:100D600014D090F83920212A40F0F6808368026A76
:100D7000B3F5805F30D113886FF35F234B60036955
:100D8000002B14BF01320232026229E0520640F108
:100D9000E38014F0400208BFB0BDCA6822F04002F0
:100DA000CA60202180F83910BDE8B04000F0BCBA1C
:100DB00002694968002A826A18BF01F07F01531C4A
:100DC0008362117021E000BFD30718BF14F4807351
:100DD00036D153073AD440E0531C036212784A607C
:100DE000C28C013A1304C28440F0B680C86820F077
:100DF0008000C860C86840F04000C860B0BD00BF57
:100E00006FF35F2122F8021B8262C18D01390A044F
:100E1000C18540F0A1800168CA6822F02002CA6042
:100E2000CA6822F48072CA604A6922F001024A61EB
:100E3000202180F83A10BDE8B04000F07BB900BF37
:100E4000C36B43F00103C363530706D5BEF1000F24
:100E500003D0C36B43F00203C363930706D5BEF10F
:100E6000000F03D0C36B43F00403C363BCF1000F56
:100E700006D5BEF1000F03D0C36B43F00803C36374
:100E8000C36B002B68D092063BD5D5B390F83A20BF
:100E9000222A36D18268B2F5805F07D10369826A5F
:100EA00049687BB1C9B222F8011B0FE002694968A9
:100EB000002A826A18BF01F07F01531C83621170FF
:100EC00005E000BF6FF35F2122F8021B8262C18D33
:100ED0004A1EC2850168120413D1CA68044622F072
:100EE0002002CA60CA6822F48072CA604A6922F08D
:100EF00001024A61202180F83A1000F01BF92168B4
:100F000020464A69C36B02F0400203F00803D2187E
:100F100024D0CA6822F49072CA604A6922F00102A1
:100F20004A61202280F83A204A6952061CD54A6953
:100F300022F040024A61416BB1B141F29532C0F6F4
:100F40000002044608464A63FFF788F920B1606B47
:100F5000416BBDE8B0400847B0BD00BF0446FFF795
:100F6000D1FE0020E063B0BDBDE8B040FFF7CABECF
:100F7000002804BF0120704710B5044690F83900DE
:100F800028B9002084F83800204600F061F82420B9
:100F900084F839002068D4E90212C36823F40053AE
:100FA000C360036923F440531A430261D4E9042364
:100FB0001143C268194341F20C639A431143C16063
:100FC0004169A26921F44071114343F60002C4F261
:100FD00001029042416103D0FFF756FC02E000BFDE
:100FE000FFF766FCD4E90023192148439900B0FBC0
:100FF000F1F048F21F5CC5F2EB1CA0FB0C314FF680
:101000009C734909C0F6FF7301FB0300322303EB15
:101010000010A0FB0C03F02000EA531000EB0110BD
:10102000C3F34311084490601069202120F49040DC
:101030001061506920F02A005061D06840F40050DF
:10104000D0600020E06384F8391084F83A1010BDB5
:1010500070B586B040F60004C4F20104006804F5DF
:101060004051002688420596CDE90366029601D0DC
:1010700006B070BD41F21800C4F20200016802AD72
:1010800041F480410160016801F4804101910199BE
:10109000016841F0040101600068294600F0040085
:1010A000019001984FF400700290022003900320F9
:1010B00005902046FFF73EF94FF48060CDE9020627
:1010C000204629460496FFF735F925200021002205
:1010D000FFF7C0FA2520FFF7ABFA06B070BD00009D
:1010E000034690F83A0020280AD100294FF0010069
:1010F00018BF002A00D1704793F83800012801D1A9
:10110000022070479962002022219A85DA85D863EF
:1011100083F83A10196883F83800CA6842F480727C
:10112000CA604A6942F001024A61CA6842F020027C
:10113000CA607047006843F60001C4F201018842AA
:1011400018BF704710B540F21004C2F20004E078F6
:101150000D2801D00A2811D160780021204480F8A0
:101160002C100120A07040F27000E11CC2F20000BF
:101170000122BDE81040FFF7B3BF00BF61783029FE
:10118000F1D84A1C214481F82C0040F270006270B2
:10119000E11CC2F2000001220A2300F001F8E2E79C
:1011A0002DE9F041044690F8390020280CD10E4674
:1011B00000294FF0010018BF002A01D1BDE8F081DD
:1011C00094F83800012803D10220BDE8F08100BF67
:1011D000012084F838000020E06321201D4684F8B7
:1011E00039001746FFF7B6F9A784E784E18C074674
:1011F00000295FD005F1010806E000BF16F8011BC9
:101200004160E18C002956D0E08C0138E0842068F0
:10121000A1680268B1F5805F4FEA02611CD1002924
:101220000DD4B8F1000F29D0002D6AD0FFF792F944
:10123000C11B2068A94264D801680906F6D5318827
:101240006FF35F2141602169002914BF0136023626
:10125000E18C0029D8D12EE00029CFD4B8F1000FBD
:101260001AD0002D4DD000BFFFF774F9C11B2068C4
:10127000A94246D801680906F6D5BFE70168090604
:10128000DDD4016809065CBF01685FEA0161D6D45C
:1012900001680906F2D5D2E701680906AED40168F3
:1012A00009065CBF01685FEA0161A7D4016809060D
:1012B000F2D5A3E72068016849060FD40DB3691C75
:1012C00019D10168490609D4016849065CBF016863
:1012D0005FEA416102D401684906F2D5202084F812
:1012E00039000020002184F83810BDE8F08100BFEB
:1012F00000684006F2D4FFF72DF9C11B2068A9420F
:10130000F6D9C16821F4D071C160416921F00101B1
:101310004161202084F8390084F83A00032000213C
:1013200084F83810BDE8F08170470000FEE7000047
:10133000FEE70000FEE70000704700007047000075
:10134000FFF70EB941F20000C4F20200016800226A
:1013500041F0010101604168CFF6FF021140416098
:1013600001684FF6FF72CFF6F66211400160016826
:1013700021F480210160416821F4FE0141604FF4B5
:101380001F0181604EF60850CEF200004FF0006160
:1013900001607047406A0021C185C184FFF7B2BC7B
:1013A00040F27000C2F20000FFF7AEBCFEE70000A2
:1013B00080B582B0019040F27000C2F2000001A935
:1013C00001224FF6FF73FFF7EBFE019802B080BDDC
:1013D00090B0FFF7D3F806AC201D2421FEF7A9FE3C
:1013E0000220069001200A9010200B900025204634
:1013F0000D95FFF771FA28B1EFF3108072B600BFB8
:10140000FEE700BF0F20CDE901054FF48060CDE974
:10141000040501A800210395FFF758F920B1EFF367
:10142000108072B6FEE700BF002441F21800CDE93B
:101430000844CDE90644C4F20200016840F6000504
:1014400041F0040101600068C4F2010500F00400ED
:10145000019001984FF0010A06A92846CDF818A07E
:10146000FEF768FF40F2700005F54051C2F200003F
:101470000C234FF4165280E81600C0E90344C0E97B
:101480000534C461FFF774FD20B1EFF3108072B62C
:10149000FEE700BF40F21005C2F2000540F2700006
:1014A000E91CC2F200000122FFF71AFE42F2EA48EC
:1014B00042F2DD4905F12C06C0F60008C0F600092D
:1014C0004FF0080B03E000BF3220FEF71FFF287823
:1014D0000928F9D8DFE810F012005001E800F00008
:1014E00034009801A0010A00DC019800484600F091
:1014F0000FFBAC70A5F800B0E6E700BF42F2DF20BA
:10150000C0F6000000F056FD42F29700C0F6000061
:1015100000F050FD42F2CD00C0F6000000F04AFDA0
:1015200042F2B900C0F6000000F044FD42F23C4037
:10153000C0F6000000F0ECFAAC70A5F800A0C3E71C
:10154000A8780028C0D03046AC70FEF7FDFD012819
:1015500034DA95F82C00A0F13101032900F2208241
:1015600042F2600042F2B12AC0F60000C0F6000A62
:10157000DFE811F008020400EC010C0240F6000064
:10158000C4F201000221FEF7DFFF012842F21E0033
:1015900042F23501C0F60000C0F6000142F23E2AD8
:1015A00008BF0846C0F6000A42F26E21C0F60001EC
:1015B000E6E100BF043881F82840CAD0291891F824
:1015C0002B200D2A01D00A2AC3D1022881F82B40F2
:1015D000BFDB91F82A200D2A01D00A2AB9D10228AE
:1015E00081F82A40B5D091F829200D2A01D00A2A85
:1015F000AFD1042881F82940ABD391F828200D2AD7
:10160000D8D00A2AD6D0A4E7A87800283FF45CAF47
:101610003046AC70FEF798FD01281FDA95F82C00D3
:10162000A0F13101042900F2EF810FF294400FF292
:101630005C47DFE811F0D9010500CD01D701C701F2
:1016400042F2473042F21127C0F60000C0F6000710
:10165000CAE100BF043881F82840DFD0291891F88A
:101660002B200D2A01D00A2AD8D1022881F82B403C
:10167000D4DB91F82A200D2A01D00A2ACED10228E3
:1016800081F82A40CAD091F829200D2A01D00A2ACF
:10169000C4D1042881F82940C0D391F828200D2A0C
:1016A000D8D00A2AD6D0B9E742F2AC40C0F6000042
:1016B00000F02EFA0320ABE0A87800283FF404AF36
:1016C0003046AC70FEF740FD01282FDA281D314668
:1016D000FEF74EFD42F24F50C0F6000000F018FA3F
:1016E00042F2A550C0F60000314600F011FA42F275
:1016F0000B30C0F6000000F05DFC42F20B10C0F6AB
:10170000000000F057FC42F29430C0F6000000F0F8
:1017100051FC42F24050C0F6000000F0F9F90420FC
:101720002870D1E6043881F82840CFD0291891F8E4
:101730002B200D2A01D00A2AC8D1022881F82B407B
:10174000C4DB91F82A200D2A01D00A2ABED1022832
:1017500081F82A40BAD091F829200D2A01D00A2A0E
:10176000B4D1042881F82940B0D391F828200D2A5B
:10177000D8D00A2AD6D0A9E7A87800283FF4A4AE8A
:101780003046AC70FEF7E0FC012817DAA88D31284E
:1017900000F0D480A88D322800F0D480A88D3328A2
:1017A00000F0388142F22250C0F6000000F0B0F99B
:1017B0006C7089E6043881F82840E7D0291891F840
:1017C0002B200D2A01D00A2AE0D1022881F82B40D3
:1017D000DCDB91F82A200D2A01D00A2AD6D1022872
:1017E00081F82A40D2D091F829200D2A01D00A2A66
:1017F000CCD1042881F82940C8D391F828200D2A9B
:10180000D8D00A2AD6D0C1E7404600F081F9062098
:10181000AC70288058E600BFA87800283FF454AE8A
:101820003046AC70FEF790FC01280BDA281D3146DB
:10183000FEF79EFC0720287046E600BF043881F8BA
:101840002840F3D0291891F82B200D2A01D00A2A1C
:10185000ECD1022881F82B40E8DB91F82A200D2AF0
:1018600001D00A2AE2D1022881F82A40DED091F87C
:1018700029200D2A01D00A2AD8D1042881F829402C
:10188000D4D391F828200D2AD8D00A2AD6D0CDE773
:10189000A87800283FF418AE3046AC70FEF754FC30
:1018A000012825DA05F1180738463146FEF760FCB5
:1018B00041F6F771281DC0F600010622FEF74BFC29
:1018C00050B941F6F2713846C0F600010522FEF724
:1018D00042FC002800F0B28042F2B210C0F60000D4
:1018E00000F068FB2C70EFE5043881F82840D9D06F
:1018F000291891F82B200D2A01D00A2AD2D10228CA
:1019000081F82B40CEDB91F82A200D2A01D00A2A3B
:10191000C8D1022881F82A40C4D091F829200D2A84
:1019200001D00A2ABED1042881F82940BAD391F8FF
:1019300028200D2AD8D00A2AD6D0B3E70220287052
:10194000C2E500BF05202870BEE500BF40F60000DC
:10195000C4F201000421FEF7F7FD012842F24C0019
:1019600042F20D01C0F60000C0F6000142F25C1A1E
:1019700008BF0846C0F6000A42F22011C0F6000176
:1019800008BF8A46291D00F0C3F80DE042F2881016
:10199000C0F6000000F00EFB2C704FF0010A93E53A
:1019A00042F29E2AC0F6000A504600F003FB287857
:1019B0004FF0010A04287FF487AD42F25C40C0F684
:1019C00000001EE042F28810C0F6000088E700BF69
:1019D00042F2373042F2E517C0F60000C0F60007C9
:1019E00002E000BF45A03BA700F0E4FA384600F053
:1019F000E1FA287809287FF467AD42F28440C0F606
:101A0000000000F085F85FE542F29E27C0F600076F
:101A1000ECE700BF42F26D00C0F6000000F0CAFA29
:101A200042F25C30C0F6000000F0C4FA42F20A5004
:101A3000C0F6000000F06CF82C7045E542F24F5003
:101A4000C0F6000000F064F842F27A50C0F60000E0
:101A500000F05EF842F20B30C0F6000000F0AAFA87
:101A600042F2F500C0F6000000F0A4FA42F2D930CC
:101A7000C0F6000000F09EFA42F24050C0F60000AE
:101A800000F046F8092028701EE500BF0D0A5B41F2
:101A90004C41524D5D2050726F64756374696F6E76
:101AA000204C696E652053544F5050454420636F5D
:101AB0006D6D616E642073656E74210D0000000011
:101AC0004D414E414745523A53544F505F4C494E59
:101AD000450D00000D0A5B53595354454D5D20419F
:101AE0006273656E6365207265636F7264207472E1
:101AF000696767657265642E0D0000004D414E41B7
:101B00004745523A414253454E43450D00000000BF
:101B10000FB4054B10B503A9044A029800F018F859
:101B200010BC5DF814FB0000B11300080000002099
:101B300002E008C8121F08C1002AFAD17047704796
:101B4000002001E001C1121F002AFBD170470000F4
:101B50002DE9FF4F8DB00F460546002606E02528EB
:101B60000BD0DDE90F1290476D1C761C28780028F9
:101B7000F5D111B03046BDE8F08F0024A246A14651
:101B80000122EC4900E0044315F8013F203B02FA32
:101B900003F00842F7D128782A2810D06FF02F02DE
:101BA0002878A0F13001092914D80AEB8A0102EB48
:101BB000410144F0020400EB010A6D1CF0E701CF83
:101BC0005FEA000A03D544F40054CAF1000A44F065
:101BD00002046D1C28782E2817D115F8010F44F047
:101BE00004042A280ED06FF02F022878A0F13001CB
:101BF00009290AD809EB890102EB410100EB01092F
:101C00006D1CF2E757F8049B6D1C28786C280FD0E8
:101C100006DC4C2817D068280DD06A2814D104E0BF
:101C2000742810D07A280FD10DE044F400140AE093
:101C300044F4801401E044F440146978814202D1F4
:101C400004F580146D1C6D1C2A786E2A1FD00CDCE4
:101C5000632A31D004DC002A8BD0582A11D1A3E0AA
:101C6000642A68D0692A0CD165E0732A2ED004DC7E
:101C70006F2A73D0702A04D19BE0752A6FD0782A1E
:101C80006ED01046DDE90F129047761C50E1C4F388
:101C90000250022806D0032809D0042801CF09D019
:101CA000066045E101CFF117C0E9006140E101CFD5
:101CB00006803DE106703BE117F8040B8DF800004B
:101CC00000208DF80100EB46012003E057F804BB2B
:101CD0004FF0FF3061074FF0000102D40DE008F132
:101CE0000101884649450FDA8045F8DB1BF80810EA
:101CF0000029F4D108E008F1010188468142FADBAD
:101D00001BF808100029F6D1DDE90F23AAEB080023
:101D10008146214600F036F9304400EB080604E025
:101D2000DDE90F121BF8010B9047B8F10108F7D25B
:101D300021464846F7E00A21C4F302534FF0000B56
:101D40000891022B04D001CFC117032B09D00AE060
:101D5000FF1D27F00707F7E8020108E032E01FE067
:101D600020E000B2C117042B01D140B2C117031EFD
:101D700071F1000307DA4FF0000CD0EB0C006CEBB4
:101D800001012D2302E0230504D52B238DF82430F7
:101D9000012303E0E30701D02023F7E7984658E04A
:101DA0000A2110E010210EE010204FF0000B0890E7
:101DB0000CE010214FF0000B44F004044FF0080930
:101DC000089103E008214FF0000B0891C4F302537F
:101DD000022B04D001CF0021032B06D006E0FF1D0B
:101DE00027F00707F7E8020103E080B2042B00D1D7
:101DF000C0B24FF0000823072BD5702A07D0DDF8BA
:101E000020C08CF0100C5CEA0B0C05D00EE04023D7
:101E10008DF82430012308E050EA010306D0302376
:101E20008DF824308DF8252002239846DDF820C057
:101E30008CF0080C5CEA0B0C0BD150EA010301D1C9
:101E4000630706D530238DF824304FF00108A9F13F
:101E50000109582A04D038A20B9208AA0A920BE072
:101E60003AA2F9E75B46089AFEF78BF90B9B9B5C5D
:101E70000A9A521E0A92137050EA0102F2D10A988D
:101E8000ADEB000000F1200B600702D524F4803494
:101E900001E04FF00109D94502DDA9EB0B0000E09C
:101EA000002000EB0B0141440890AAEB010AE0037B
:101EB00006D4DDE90F232146504600F063F80644BE
:101EC0004FF0000908E009A911F80900DDE90F1237
:101ED000904709F10109761CC145F4DBE0030CD5FC
:101EE000DDE90F232146504600F04CF8064404E09B
:101EF000DDE90F1230209047761C0899481E0890A3
:101F00000029F5DC08E00A980A990078491C0A9132
:101F1000DDE90F129047761CBBF10001ABF1010B1C
:101F2000F1DC21465046DDE90F2300F019F80644A4
:101F30006D1C1BE609280100303132333435363749
:101F40003839616263646566000000003031323305
:101F500034353637383941424344454600000000A5
:101F60002DE9F041044600251E461746880404D496
:101F700005E039462020B0476D1C641EF9D528467F
:101F8000BDE8F0812DE9F041044600251E4690464B
:101F9000C80301D5302700E02027880404D505E0D8
:101FA00041463846B0476D1C641EF9D52846BDE849
:101FB000F081000010B5044601E0FFF7F9F914F8CC
:101FC000010B04490028F8D1BDE810400A20FFF7B2
:101FD000EFB9000000000020010200000000000036
:101FE00000000102030406070809000000000102C6
:101FF0000304313233340061646D696E00020304FE
:1020000005060708090A0B0C0D0E0F10104C45545D
:102010005445523A25733A524541440D0A005641FF
:10202000434154494F4E3A25733A52454A45435429
:1020300045440D0A005641434154494F4E3A2573D9
:102040003A415050524F5645440D0A004C455454A5
:1020500045523A25733A50454E44494E470D0A00C1
:10206000434845434B494E3A25730D0A000D0A0D6E
:102070000A21212120454D455247454E43592050C4
:10208000524F544F434F4C20494E495449415445B7
:1020900044202121210D00312E20576F726B657273
:1020A000204C6F67696E202846696E676572707292
:1020B000696E74204944290D00332E20454D455248
:1020C00047454E43592028534F53290D00322E20A7
:1020D000466F72656D616E2F4D616E61676572202E
:1020E0004C6F67696E202843726564656E74696120
:1020F0006C73290D002D2D2D204D414E4147455229
:10210000204D454E55202D2D2D0D002D2D2D2057C8
:102110004F524B4552204D454E55202D2D2D0D0033
:102120000D0A5B524553554C545D204C65747465E3
:102130007220616E737765726564202852657175CF
:102140006573742066696C652077696C6C206265C4
:102150002064656C65746564292E0D000D0A5B5260
:102160004553554C545D204C6574746572207365FD
:102170006E7420746F207175657565202850656ECA
:1021800064696E67292E0D000D0A5B4C4F47474569
:1021900044204F55545D2052657475726E696E67A8
:1021A00020746F204D61696E204D656E752E2E2E48
:1021B0000D000D0A5B4143434553532044454E49AE
:1021C00045445D20496E636F727265637420557378
:1021D00065726E616D65206F722050617373776FE9
:1021E00072642E0D000D0A5B53595354454D5D200A
:1021F00044656D616E64206C6574746572207365EE
:102200006E7420746F2064617461626173652E0D59
:10221000000D0A5B53595354454D5D204661696C6E
:10222000757265207265706F72742073656E7420AC
:10223000746F2064617461626173652E0D000D0A14
:102240005B524553554C545D205661636174696F10
:102250006E2052454A4543544544206279204D61E1
:102260006E616765722050616E656C2E0D000D0AFF
:102270005B524553554C545D205661636174696FE0
:102280006E20415050524F564544206279204D6196
:102290006E616765722050616E656C2E0D000D0ACF
:1022A000496E76616C6964206F7074696F6E2E0D73
:1022B000000D0A5B535543434553535D2043686506
:1022C000636B2D696E20636F6D6D616E6420736545
:1022D0006E7420746F207365727665722E0D000D1A
:1022E0000A0D0A3D3D3D20534D4152542046414385
:1022F000544F52592043454E5452414C205445525C
:102300004D494E414C203D3D3D0D000D0A3D3D3DAA
:102310003D3D3D3D3D3D3D3D3D3D3D3D3D3D3D3DED
:102320003D3D3D3D3D3D3D3D3D3D3D3D3D3D3D3DDD
:102330003D3D3D3D3D0D004D414E414745523A44E6
:10234000454D414E440D004D414E414745523A5294
:1023500045504F52545F4641494C0D00312E2046A6
:1023600069726520416C61726D0D0A322E204D65D7
:10237000646963616C20456D657267656E63790D94
:102380000A332E2048617A6172646F7573204C6540
:10239000616B0D00312E20436865636B2D696E0DF6
:1023A0000A322E2052657175657374204C65617612
:1023B0006520285661636174696F6E290D0A332E9A
:1023C0002053656E64204C65747465720D0A342E5A
:1023D000204C6F676F75740D00312E2053746F7031
:1023E0002050726F64756374696F6E204C696E65FE
:1023F0000D0A322E205265706F7274204661696C2E
:102400007572650D0A332E2053656E642044656D28
:10241000616E642F4C65747465720D0A342E2052FF
:102420006567697374657220416273656E63650DDB
:102430000A352E204C6F676F75740D0053656C65FF
:10244000637420616E206F7074696F6E2028312C68
:1024500020322C206F722033293A20000D0A536558
:102460006C656374206E657874206F7074696F6E2C
:1024700020286F72203420746F206C6F676F757422
:10248000293A20000D0A53656C656374206E6578E7
:1024900074206F7074696F6E20286F7220352074FD
:1024A0006F206C6F676F7574293A20000D0A0D0A52
:1024B0005B574F524B4552204C4F47494E5D205081
:1024C0006C6561736520656E7465722046696E6720
:1024D00065727072696E742049443A20000D0A508A
:1024E000617373776F72643A20000D0A0D0A5B4DB9
:1024F000414E41474552204C4F47494E5D0D0A55CC
:102500007365726E616D653A200053656C65637426
:1025100020456D657267656E637920547970653A00
:1025200020000D0A496E76616C69642063686F69EA
:1025300063652E2054727920616761696E3A2000CC
:1025400053656C6563743A20003100320033000D2E
:102550000A3D3D3D3D3D3D3D3D3D3D3D3D3D3D3DDE
:102560003D3D3D3D3D3D3D3D3D3D3D3D3D3D3D3D9B
:102570003D3D3D3D3D3D3D3D3D000D0A5B414343FD
:10258000455353204752414E5445445D2057656C96
:10259000636F6D6520466F72656D616E2F4D616E64
:1025A00061676572000D0A5B414343455353204701
:1025B00052414E5445445D2057656C636F6D6520F4
:1025C000576F726B65722049443A202573000000F2
:1025D000F02500080000002010000000301B00085B
:1025E0000026000810000020A8040000401B00087E
:1025F0000000000001000000100000000024F400B2
:04000005080000ED02
:00000001FF
