:020000040800F2
:10000000B8040020010100083D140008C5120008D2
:1000100039140008B5010008B514000800000000FC
:10002000000000000000000000000000451400086F
:10003000B90100080000000041140008491400083C
:100040001B0100081B0100081B0100081B01000820
:100050001B0100081B0100081B0100081B01000810
:100060001B0100081B0100081B0100081B01000800
:100070001B0100081B0100081B0100081B010008F0
:100080001B0100081B0100081B0100081B010008E0
:100090001B0100081B0100081B0100081B010008D0
:1000A0001B0100081B0100081B0100081B010008C0
:1000B0001B0100081B0100081B0100081B010008B0
:1000C0001B0100081B0100081B0100081B010008A0
:1000D0001B010008A91400081B0100081B010008EF
:1000E0001B0100081B0100081B010008DFF80CD0F1
:1000F00000F048F800480047D9140008B804002070
:100100000648804706480047FEE7FEE7FEE7FEE7B1
:10011000FEE7FEE7FEE7FEE7FEE7FEE74D14000818
:10012000ED000008D2B201E000F8012B491EFBD21D
:1001300070470022F6E710B513460A4604461946F2
:10014000FFF7F0FF204610BD421C10F8011B0029EC
:10015000FBD1801A704730B504460020034600E00A
:100160005B1C934203D2E05CCD5C401BF8D030BDF9
:10017000034611F8012B00F8012B002AF9D118468B
:10018000704700001CB509480090094801900546D9
:10019000009C06E0E06840F0010394E807009847FF
:1001A0001034AC42F6D3FFF7A5FF00001832000868
:1001B00038320008FEE700007047000090F8211078
:1001C000022923D1026840F2040C1168C4F2020C27
:1001D00021F00E01116013682F21C4F202018A423E
:1001E00023F00103136015DD3023C4F202039A42A9
:1001F0001CD04423C4F202039A421BD05823C4F2F9
:1002000002039A421CD14FF4803321E00421816320
:10021000012070470823C4F202039A420ED01C2327
:10022000C4F202039A420BD1102311E04FF4807301
:100230000EE000BF4FF480530AE000BF012307E047
:100240000CF168014FF080738A4208BF4FF48013AD
:10025000CCF80030416B4FF480720029028404BF57
:100260000020704780B58847002080BDB0B50446A7
:1002700000F026F9054640F20400C2F200000078C2
:10028000611C18BF044400BF00F01AF9401BA042D3
:10029000FAD3B0BD2DE9F04F82B00E68002E00F009
:1002A000FF8040F20C4C40F2004E41F20042C4F29A
:1002B000010CC4F2010EC4F2010204270024012340
:1002C0004FF0000A4FF00009904208BF0327009743
:1002D00049E000BF41F20002C4F20102009F9042D7
:1002E00008BF022704F00C030F229A402BEA0202F7
:1002F00007FA03F34FEA9A051A4346F825204E6899
:10030000F203DEF8002054BF22EA080242EA0802A3
:10031000CEF80020DEF80420B30354BF22EA08021E
:1003200042EA0802CEF80420F302DEF8082054BFA7
:1003300022EA080242EA0802B302CEF80820DCF8FA
:1003400000204FF0010354BF22EA080242EA0802EB
:10035000CCF800200E680AF1010A36FA0AF204F11C
:10036000040400F09D8003FA0AFB16EA0B08F1D0A2
:100370004E684FF6FF72C1F21002964212DC122E46
:1003800056D8DFE806F0350B4D49555555555555AE
:100390005555555555555545510000BFD1F80C9050
:1003A00046E000BF4FF6FF72C1F2210296420FDC19
:1003B0000022C1F2110296421AD00022C1F21202AA
:1003C000964215D00022C1F22102964210D02FE0B1
:1003D0000022C1F2220296420AD00022C1F231026A
:1003E000964205D00022C1F23202964220D100BFCF
:1003F0008A684AB1012A14BFC0F814B0C0F810B01E
:100400004FF0080914E000BF4FF0040910E000BFEE
:10041000CA6802F104090BE04FF0000908E000BFD0
:10042000CA6802F1080903E0CA6802F10C0900BFBA
:1004300002462646B8F5807F24BF0432203E176866
:100440000F25B54027EA050509FA06F6354315607C
:10045000CA79D2067FF57EAF41F21803C4F20203D7
:100460001A68AEF57E7642F001021A601A6802F050
:1004700001020192019A2AF0030256F802B040F6F6
:100480000002C4F20102904208D040F60042C4F2D9
:10049000010290427FF41EAF012723E7002721E7E6
:1004A00002B0BDE8F08F00008068084018BF01204E
:1004B00070470000002A08BF09040161704700006E
:1004C00040F2B000C2F200000068704740F2040041
:1004D00040F2B001C2F20000C2F2000100780A68E6
:1004E000104408607047000080B542F20000C4F27A
:1004F0000200016841F010010160032000F08CF857
:100500000F2000F005F800F027F8002080BD000063
:1005100070B540F20406C2F2000640F20C013278D7
:10052000C2F200014FF47A730968B3FBF2F2044699
:10053000B1FBF2F1084600F085FB0F2C4FF00105EE
:1005400008D838B94FF0FF3021460022002500F0CE
:1005500037F87460284670BD82B041F21800C4F2CA
:1005600002000168022241F001010160016801F00E
:10057000010101910199416841F080514160406859
:1005800000F08050009000980420C4F2010001683F
:1005900062F31A61016002B070470000002848BF92
:1005A000704700F01F01012202FA01F11C2202EA49
:1005B000D0004EF20012CEF20002815070470000CF
:1005C00010B54EF60C5CCEF2000CDCF80030C3F334
:1005D000022E8EF00704042C28BF0424BEF103036E
:1005E0004FF0FF3E0EFA04F438BF0023A1439940B8
:1005F0000EFA03F39A43114300F00F0200F1604337
:100600000901043A03F564436244002848BF02F13B
:100610000C03197010BD00004EF60C51CEF2000113
:100620000A684FF6FF031A4060F30A2242F0806026
:1006300040F0FD7008607047002804BF012070473B
:100640002DE9F04381B042F20008C4F202080446EA
:10065000D8F800000D4600F0070081420CD9D8F808
:10066000000020F007002843C8F80000D8F8000078
:1006700000F00700A8426CD1206841F2040981070C
:10068000C4F2020917D5410705D5D9F8001041F485
:10069000E061C9F80010010705D5D9F8001041F450
:1006A0006051C9F80010D9F80010A26821F0F001DB
:1006B0001143C9F80010C00742D1D8F8000000F07B
:1006C000070085420CD2D8F8000020F0070028432C
:1006D000C8F80000D8F8000000F00700A84238D1A0
:1006E0002068410707D5D9F80010E26821F4E061DD
:1006F0001143C9F80010000708D5D9F80000216996
:1007000020F4605040EAC100C9F80000D9F8002088
:1007100002F00C00082841F20020C0F27A004DD10E
:1007200042F6C103C2F38341C0F60003595CD20311
:1007300038D440F60010C0F23D0048433EE000BF10
:10074000606859F8041C022808D0012826D18903C2
:1007500006D4012001B0BDE8F08300BF8901F8D5BF
:10076000D9F8001021F003010843C9F80000FFF791
:10077000A7FE064641F28837D9F80000616800F00C
:100780000C00B0EB810F98D0FFF79AFE801BB842A7
:10079000F2D9032001B0BDE8F08300BF8907D8D5A6
:1007A000DEE700BFD9F8002042F69C03C2F34042C6
:1007B000C0F600039A5C4843B0FBF2F0D9F8001091
:1007C00042F69E02C1F30311C0F60002515C40F2F2
:1007D0000C0220FA01F140F20800C2F200000068A9
:1007E000C2F200021160FFF793FE002001B0BDE8E5
:1007F000F083000040F20C0041F20401C2F200005C
:10080000C4F202010068096842F6AE02C1F3022197
:10081000C0F60002515CC8407047000040F20C0076
:1008200041F20401C2F20000C4F20201006809684A
:1008300042F6AE02C1F3C221C0F60002515CC840CC
:1008400070470000002804BF012070472DE9F041E7
:1008500082B00446007841F20006C007C4F20206E6
:100860000CD0706800F00C00042840F081803068E3
:10087000800303D56068002800F046812078800757
:100880001BD5706810F00C0F09D0706800F00C00D8
:10089000082840F087807068C00300F183803068CA
:1008A000800703D52069012840F02E8130686169F6
:1008B00020F0F80040EAC10030602078000713D42F
:1008C000207840072CD4E569002D00F0188170686D
:1008D00000F00C00082840F0A780012D40F00481B2
:1008E000012002B0BDE8F081A069002800F08480FA
:1008F0000020C4F242200121C0F88014FFF7E0FD7F
:10090000054600BF706A800700F1B280FFF7D8FD8E
:10091000401B0228F6D9032002B0BDE8F08100BFD9
:10092000F0695FEAC00808D4F06940F08050F061D7
:10093000F06900F080500090009847F20007C4F280
:1009400000073868C00549D4386840F480703860C2
:10095000FFF7B6FD054600BF3868C0053ED4FFF777
:10096000AFFD401B6428F7D9032002B0BDE8F08139
:10097000706800F00C00082803D17068C0033FF5D0
:1009800076AF61683068002900F00C81B1F5A02FC6
:1009900000F00081B1F5803F40F01A8140F48030D2
:1009A0001CE100BF2069002840F20000C4F2422090
:1009B00000F0888001210160FFF782FD054600BF3D
:1009C000306880073FF572AFFFF77AFD401B0228C1
:1009D000F6D9032002B0BDE8F08100BFE168306ABB
:1009E000002900F09D80052900F09280012940F047
:1009F000AF8040F00100B1E00020C4F242200021AD
:100A0000C0F88014FFF75CFD054600BF706A8007E0
:100A10007FF556AFFFF754FD401B0228F6D903209F
:100A200002B0BDE8F08100BF0027C4F242270020D9
:100A30003866FFF745FD022D05460DD1306880016F
:100A400040F1DE80FFF73CFD401B02284FF0030021
:100A5000F4D902B0BDE8F081306880014FD5FFF7CE
:100A60002FFD401B02284FF00300F5D9F1E700BF2E
:100A700040F20C00C2F20000006844F6D351C1F20B
:100A80006201A0FB0101480A019000BF00BF01986C
:100A9000411E002801913FF413AF00BF0198411E91
:100AA000002801913FF40CAF00BF0198411E0028BF
:100AB00001913FF405AF00BF0198411E002801914C
:100AC000E4D1FDE600210160FFF7FAFC054600BF16
:100AD000306880077FF5F1AEFFF7F2FC401B02287B
:100AE0004FF00300F4D9B4E77068216A00F4803253
:100AF0008A4209D1616A00F47010884204D1002052
:100B000002B0BDE8F08100BF012002B0BDE8F08175
:100B100040F004003062306A40F001001EE000BF87
:100B200020F001003062306A20F004003062FFF7EC
:100B3000C7FC054641F28837306A800720D5FFF7A9
:100B4000BFFC401BB8424FF00300F5D981E700BF5E
:100B500020F001003062306A20F004003062FFF7BC
:100B6000AFFC054641F28837306A800708D4FFF7AA
:100B7000A7FC401BB842F7D9032002B0BDE8F081C2
:100B8000B8F1000F3FF59FAEF06920F08050F061A2
:100B900099E600BF40F480203060306840F4803037
:100BA0001CE000BF20F480303060306820F48020EA
:100BB0003060FFF785FC0546306880037FF55EAE48
:100BC000FFF77EFC401B64284FF00300F4D940E798
:100BD00020F480303060306820F480203060FFF7EF
:100BE0006FFC0546306880033FF548AEFFF768FCB0
:100BF000401B6428F6D9032002B0BDE8F08100BF95
:100C0000206AB0F5803F05D17168A26821F40031F7
:100C1000114371607168626A21F4741111430843D1
:100C2000706001203866FFF74BFC04463068800195
:100C30003FF565AFFFF744FC001B02284FF00300AF
:100C4000F4D906E7411E0020B0EB116F1CBF012054
:100C500070474EF21002CEF2000251604EF6235160
:100C6000CEF20001F0230B700721906011607047F5
:100C700070470000B0B501680A68CC684B6902F0A3
:100C80002F05202D04F0200512D18DB190F83A20C7
:100C9000222A40F017818268B2F5805F3ED1036955
:100CA000826A4968002B61D0C9B222F8011B61E059
:100CB0005FEA027C1EBF03F0010E04F4907313EB95
:100CC0000E0337D1130617D514F0800314D090F813
:100CD0003920212A40F0F6808368026AB3F5805FEC
:100CE00030D113886FF35F234B600369002B14BF6F
:100CF00001320232026229E0520640F1E38014F030
:100D0000400208BFB0BDCA6822F04002CA6020217C
:100D100080F83910BDE8B04000F0D2BA02694968E5
:100D2000002A826A18BF01F07F01531C8362117090
:100D300021E000BFD30718BF14F4807336D15307E6
:100D40003AD440E0531C036212784A60C28C013AE4
:100D50001304C28440F0B680C86820F08000C860E8
:100D6000C86840F04000C860B0BD00BF6FF35F21AD
:100D700022F8021B8262C18D01390A04C18540F04C
:100D8000A1800168CA6822F02002CA60CA6822F401
:100D90008072CA604A6922F001024A61202180F80B
:100DA0003A10BDE8B04000F07BB900BFC36B43F020
:100DB0000103C363530706D5BEF1000F03D0C36B15
:100DC00043F00203C363930706D5BEF1000F03D0BF
:100DD000C36B43F00403C363BCF1000F06D5BEF13F
:100DE000000F03D0C36B43F00803C363C36B002B36
:100DF00068D092063BD5D5B390F83A20222A36D156
:100E00008268B2F5805F07D10369826A49687BB165
:100E1000C9B222F8011B0FE002694968002A826A00
:100E200018BF01F07F01531C8362117005E000BF01
:100E30006FF35F2122F8021B8262C18D4A1EC285B8
:100E40000168120413D1CA68044622F02002CA6065
:100E5000CA6822F48072CA604A6922F001024A61BB
:100E6000202180F83A1000F01BF9216820464A69D9
:100E7000C36B02F0400203F00803D21824D0CA6802
:100E800022F49072CA604A6922F001024A6120226B
:100E900080F83A204A6952061CD54A6922F040027D
:100EA0004A61416BB1B141F29D42C0F60002044675
:100EB00008464A63FFF782F920B1606B416BBDE8D9
:100EC000B0400847B0BD00BF0446FFF7D1FE002088
:100ED000E063B0BDBDE8B040FFF7CABE002804BF64
:100EE0000120704710B5044690F8390028B9002059
:100EF00084F83800204600F061F8242084F8390096
:100F00002068D4E90212C36823F40053C360036964
:100F100023F440531A430261D4E904231143C26805
:100F2000194341F20C639A431143C1604169A269BC
:100F300021F44071114343F60002C4F201029042D1
:100F4000416103D0FFF756FC02E000BFFFF766FCEB
:100F5000D4E90023192148439900B0FBF1F048F28D
:100F60001F5CC5F2EB1CA0FB0C314FF69C734909CA
:100F7000C0F6FF7301FB0300322303EB0010A0FB5C
:100F80000C03F02000EA531000EB0110C3F34311EF
:100F9000084490601069202120F49040106150694D
:100FA00020F02A005061D06840F40050D06000204A
:100FB000E06384F8391084F83A1010BD70B586B03B
:100FC00040F60004C4F20104006804F54051002614
:100FD00088420596CDE90366029601D006B070BD41
:100FE00041F21800C4F20200016802AD41F48041F0
:100FF0000160016801F4804101910199016841F0AB
:10100000040101600068294600F004000190019885
:101010004FF40070029002200390032005902046B8
:10102000FFF738F94FF48060CDE9020620462946E3
:101030000496FFF72FF9252000210022FFF7C0FAC0
:101040002520FFF7ABFA06B070BD0000034690F80C
:101050003A0020280AD100294FF0010018BF002AC9
:1010600000D1704793F83800012801D10220704761
:101070009962002022219A85DA85D86383F83A1094
:10108000196883F83800CA6842F48072CA604A69F5
:1010900042F001024A61CA6842F02002CA60704709
:1010A000006843F60001C4F20101884218BF70478E
:1010B00010B582B040F21004C2F20004E0780828B3
:1010C0000CD00D2801D00A2818D1607800212044C6
:1010D00080F82C100120A07021E000BF6078F0B1F2
:1010E0000138607042F20800C0F20800019040F23E
:1010F0007000C2F2000001A903220DE061783029DE
:101100000DD84A1C214481F82C0040F27000627016
:10111000E11CC2F2000001220A2300F00DF840F2A7
:101120007000E11CC2F200000122FFF78FFF02B045
:10113000BDE81040704700002DE9F041044690F8EA
:10114000390020280CD10E4600294FF0010018BFAD
:10115000002A01D1BDE8F08194F83800012803D1BC
:101160000220BDE8F08100BF012084F83800002093
:10117000E06321201D4684F839001746FFF7A0F9E7
:10118000A784E784E18C074600295FD005F10108B8
:1011900006E000BF16F8011B4160E18C002956D023
:1011A000E08C0138E0842068A1680268B1F5805FB6
:1011B0004FEA02611CD100290DD4B8F1000F29D0EB
:1011C000002D6AD0FFF77CF9C11B2068A94264D8C2
:1011D00001680906F6D531886FF35F214160216906
:1011E000002914BF01360236E18C0029D8D12EE047
:1011F0000029CFD4B8F1000F1AD0002D4DD000BF78
:10120000FFF75EF9C11B2068A94246D801680906AC
:10121000F6D5BFE701680906DDD4016809065CBFA1
:1012200001685FEA0161D6D401680906F2D5D2E708
:1012300001680906AED4016809065CBF01685FEA6F
:101240000161A7D401680906F2D5A3E72068016807
:1012500049060FD40DB3691C19D10168490609D498
:10126000016849065CBF01685FEA416102D4016818
:101270004906F2D5202084F839000020002184F8A6
:101280003810BDE8F08100BF00684006F2D4FFF7D7
:1012900017F9C11B2068A942F6D9C16821F4D071A1
:1012A000C160416921F001014161202084F83900C9
:1012B00084F83A000320002184F83810BDE8F0815A
:1012C00070470000FEE70000B0B540F60004C4F22D
:1012D00001040546204602210022FFF7EBF8C5F382
:1012E000001220461021FFF7E5F8C5F34012204612
:1012F0002021FFF7DFF8C5F3801220464021FFF7D9
:10130000D9F8EA0920468021FFF7D4F820460421C5
:101310000122FFF7CFF80120FEF7A8FF20460421A5
:101320000022FFF7C7F80120FEF7A0FF05F0010239
:1013300020461021FFF7BEF8C5F3400220462021C9
:10134000FFF7B8F8C5F3800220464021FFF7B2F856
:10135000C5F3C00220468021FFF7ACF820460421E7
:101360000122FFF7A7F80120FEF780FF20460421A5
:101370000022FFF79FF80120BDE8B040FEF776BFDE
:10138000B0B540F60004C4F201040546204602212F
:101390000122FFF78FF8C5F3001220461021FFF756
:1013A00089F8C5F3401220462021FFF783F8C5F3E2
:1013B000801220464021FFF77DF8EA09204680216F
:1013C000FFF778F8204604210122FFF773F8012087
:1013D000FEF74CFF204604210022FFF76BF80120A6
:1013E000FEF744FF05F0010220461021FFF762F8E6
:1013F000C5F3400220462021FFF75CF8C5F38002C8
:1014000020464021FFF756F8C5F3C0022046802150
:10141000FFF750F8204604210122FFF74BF8012086
:10142000FEF724FF204604210022FFF743F80120A5
:10143000BDE8B040FEF71ABFFEE70000FEE700007F
:101440007047000070470000FFF740B841F200000D
:10145000C4F202000168002241F00101016041680C
:10146000CFF6FF021140416001684FF6FF72CFF6E0
:10147000F66211400160016821F480210160416839
:1014800021F4FE0141604FF41F0181604EF60850C7
:10149000CEF200004FF0006101607047406A002109
:1014A000C185C184FFF7E4BB40F27000C2F20000C6
:1014B000FFF7E0BBFEE7000080B582B0019040F28C
:1014C0007000C2F2000001A901224FF6FF73FFF77E
:1014D00033FE019802B080BD90B0FFF705F806AC6E
:1014E000201D2421FEF725FE0220069001200A90EF
:1014F00010200B90002520460D95FFF7A3F928B189
:10150000EFF3108072B600BFFEE700BF0F20CDE9F9
:1015100001054FF48060CDE9040501A80021039581
:10152000FFF78AF820B1EFF3108072B6FEE700BF34
:101530004FF0000841F21800CDE90888CDE906888F
:10154000C4F20200016840F6000441F004010160A9
:101550000168C4F2010401F00401019101990168DC
:10156000002241F0080101600068F62100F0080047
:10157000019001982046F627FEF79CFF04F5806550
:1015800028464FF4704100224FF47049FEF792FF55
:1015900006AE4FF0010B20463146CDE906B8CDF836
:1015A0002080FEF777FECDE9067B022720463146F4
:1015B000CDF820800997FEF76DFE28463146CDE92B
:1015C00006B8CDF82080FEF765FE28463146CDE905
:1015D000069BCDE90887FEF75DFE40F2700004F53A
:1015E0004051C2F200000C234FF4165280E806016D
:1015F000C0E90388C0E90538C0F81C80FFF76EFC1D
:1016000020B1EFF3108072B6FEE700BF40F2100980
:10161000C2F2000940F2700009F10301C2F20000B9
:101620000122FFF713FD28464FF4004101220095E7
:10163000FEF740FF3220FEF719FE3320FFF744FE8D
:101640003220FFF741FE2820FFF73EFE0C20FFF777
:101650003BFE0120FFF738FE0220FEF707FE802048
:10166000FFF732FE2020FFF78BFE2020FFF788FED9
:101670005320FFF785FE4D20FFF782FE4120FFF744
:101680007FFE5220FFF77CFE5420FFF779FE2020DA
:10169000FFF776FE4620FFF773FE4120FFF770FE4E
:1016A0004320FFF76DFE5420FFF76AFE4F20FFF73F
:1016B00067FE5220FFF764FE5920FFF761FE2020ED
:1016C000FFF75EFE2020FFF75BFEC020FFF7FCFD6A
:1016D0002020FFF755FE5320FFF752FE5420FFF75E
:1016E0004FFE4120FFF74CFE5420FFF749FE5520E6
:1016F000FFF746FE5320FFF743FE3A20FFF740FE78
:101700002020FFF73DFE4E20FFF73AFE4F20FFF767
:1017100037FE5220FFF734FE4D20FFF731FE412007
:10172000FFF72EFE4C20FFF72BFE2020FFF728FEB0
:101730002020FFF725FE43F2BA0AC0F6000A19E09E
:1017400042F62F10C0F60000394601F00BF842F6C1
:101750000310C0F60000394601F004F842F6837029
:10176000C0F6000000F0FEFF0920A9F800003220BA
:10177000FEF77CFD99F800000F28F8D8DFE810F09C
:10178000100090027401C201D000D8023203860218
:10179000CC037403D60678002601E20234007E01F1
:1017A00042F6FB40C0F6000001F066F842F61F204A
:1017B000C0F6000001F060F842F65520C0F60000C7
:1017C00001F05AF842F64120C0F6000001F054F84A
:1017D00042F63B70C0F6000000F0C4FF89F80280BA
:1017E000A9F800B0C3E700BF99F802000028BED0F6
:1017F00009F12C07384689F80280FEF7A5FC01287C
:101800000EDA42F63E10C0F60000394600F0AAFF9C
:101810000FF6386047E100BF043881F82880F0D027
:1018200009EB000191F82B200D2A01D00A2AE8D1FA
:10183000022881F82B80E4DB91F82A200D2A01D0C0
:101840000A2ADED1022881F82A80DAD091F82920EC
:101850000D2A01D00A2AD4D1042881F82980D0D3B6
:1018600091F828200D2AD7D00A2AD5D0C9E700BF81
:1018700099F80200002800F0738409F12C0089F81F
:101880000280FEF761FC012822DA99F82C00313839
:10189000032800F25D84DFE810F00500DB03FD03A0
:1018A000280400BF42F66750C0F6000000F0E4FFD5
:1018B00042F66430C0F6000000F0DEFF009D4FF4F9
:1018C0008051284600F008BC043881F82880DCD01C
:1018D00009EB000191F82B200D2A01D00A2AD4D15E
:1018E000022881F82B80D0DB91F82A200D2A01D024
:1018F0000A2ACAD1022881F82A80C6D091F8292064
:101900000D2A01D00A2AC0D1042881F82980BCD32D
:1019100091F828200D2AD7D00A2AD5D0B5E700BFE4
:1019200099F8020000283FF422AF09F12C0089F851
:101930000280FEF709FC012820DA99F82C003138E2
:10194000032800F2B385DFE810F00500EF03D903A8
:10195000E30300BF42F6591009F10401C0F600008C
:1019600000F000FF99F80000042800F0658600F000
:1019700069BE00BF043881F82880DED009EB000181
:1019800091F82B200D2A01D00A2AD6D1022881F8FD
:101990002B80D2DB91F82A200D2A01D00A2ACCD143
:1019A000022881F82A80C8D091F829200D2A01D078
:1019B0000A2AC2D1042881F82980BED391F82820B0
:1019C0000D2AD7D00A2AD5D0B7E700BF99F8020070
:1019D00000283FF4CCAE09F12C0089F80280FEF714
:1019E000B3FB012818DA99F82C00312800F0F882AE
:1019F00042F6F5363228C0F6000640F0FB8242F689
:101A0000985042F61636C0F60000C0F60006EFE227
:101A1000043881F82880E6D009EB000191F82B20EA
:101A20000D2A01D00A2ADED1022881F82B80DADBC8
:101A300091F82A200D2A01D00A2AD4D1022881F84F
:101A40002A80D0D091F829200D2A01D00A2ACAD1A3
:101A5000042881F82980C6D391F828200D2AD7D0F0
:101A60000A2AD5D0BFE700BF42F6AB70C0F600002F
:101A700000F078FE89F80280032076E699F80200EB
:101A800000283FF474AE09F12C07384689F802802B
:101A9000FEF75AFB01280DDA0FF67040394600F0C8
:101AA00061FE0FF6804000F0E7FE57E6043881F84B
:101AB0002880F1D009EB000191F82B200D2A01D0EC
:101AC0000A2AE9D1022881F82B80E5DB91F82A2047
:101AD0000D2A01D00A2ADFD1022881F82A80DBD022
:101AE00091F829200D2A01D00A2AD5D1042881F89D
:101AF0002980D1D391F828200D2AD7D00A2AD5D011
:101B0000CAE700BF99F8020000283FF430AE09F19F
:101B10002C0B584689F80280FEF716FB012880F24C
:101B2000888009F104005946FEF722FB43F21010A9
:101B3000C0F6000000F016FE43F2E3015846C0F67E
:101B400000010522FEF707FB002800F0438243F264
:101B5000E8015846C0F600010522FEF7FCFA00280D
:101B600000F0708243F2ED015846C0F600010522F4
:101B7000FEF7F1FA002800F01D8543F2F201584605
:101B8000C0F600010522FEF7E6FA002800F076858F
:101B900043F2F7015846C0F600010522FEF7DBFAD2
:101BA000002800F0718543F2FC015846C0F60001A0
:101BB0000522FEF7D0FA002800F06C8543F20111EF
:101BC0005846C0F600010522FEF7C5FA002800F0CD
:101BD000678543F206115846C0F600010522FEF75C
:101BE000BAFA002800F0628543F20B115846C0F69D
:101BF00000010522FEF7AFFA002800F05D8543F2F0
:101C0000DE015846C0F600010522FEF7A4FA43F2B1
:101C1000E8110028C0F6000143F27C10C0F6000075
:101C200008BF014600F04CBD043881F828803FF41D
:101C300078AF09EB000191F82B200D2A02D00A2A77
:101C40007FF46FAF022881F82B80FFF66AAF91F81E
:101C50002A200D2A02D00A2A7FF463AF022881F8D5
:101C60002A803FF45EAF91F829200D2A02D00A2A7B
:101C70007FF457AF042881F82980FFF452AF91F820
:101C800028200D2AD0D00A2ACED04AE742F6DC70AE
:101C9000C0F6000000F066FD89F80280082064E5C7
:101CA00099F8020000283FF462AD09F12C0089F890
:101CB0000280FEF749FA012812DA99F82C0033283D
:101CC00000F0A281322800F09D81312840F0B081DF
:101CD000022000F09ABC00BF043881F82880ECD0C4
:101CE00009EB000191F82B200D2A01D00A2AE4D13A
:101CF000022881F82B80E0DB91F82A200D2A01D000
:101D00000A2ADAD1022881F82A80D6D091F829202F
:101D10000D2A01D00A2AD0D1042881F82980CCD3F9
:101D200091F828200D2AD7D00A2AD5D0C5E700BFC0
:101D300042F6E970C0F6000000F014FD89F8028058
:101D4000062012E599F8020000283FF410AD09F1D1
:101D50002C07384689F80280FEF7F6F9012819DACF
:101D600009F104010FF6E8103A4600F0FBFC42F6D8
:101D70008740C0F6000000F07FFD42F65B70C0F6C1
:101D8000000000F0EFFC0420EFE400BF043881F80D
:101D90002880E5D009EB000191F82B200D2A01D015
:101DA0000A2ADDD1022881F82B80D9DB91F82A207C
:101DB0000D2A01D00A2AD3D1022881F82A80CFD057
:101DC00091F829200D2A01D00A2AC9D1042881F8C6
:101DD0002980C5D391F828200D2AD7D00A2AD5D03A
:101DE000BEE700BF99F8020000283FF4C0AC09F13B
:101DF0002C07384689F80280FEF7A6F901280BDA8D
:101E000009F104003946FEF7B3F90720ADE400BF3D
:101E1000043881F82880F3D009EB000191F82B20D9
:101E20000D2A01D00A2AEBD1022881F82B80E7DBAA
:101E300091F82A200D2A01D00A2AE1D1022881F83E
:101E40002A80DDD091F829200D2A01D00A2AD7D185
:101E5000042881F82980D3D391F828200D2AD7D0DF
:101E60000A2AD5D0CCE700BF99F80200002800F07C
:101E70005D8309F12C0089F80280FEF765F90128DD
:101E800022DA99F82C003138042800F23D83DFE88B
:101E900010F0050031031D032703130342F65350CE
:101EA000C0F6000000F0E8FC42F6EE10C0F60000BC
:101EB00000F0E2FC99F80000092800F02F8333E3DA
:101EC000043881F82880DCD009EB000191F82B2040
:101ED0000D2A01D00A2AD4D1022881F82B80D0DB28
:101EE00091F82A200D2A01D00A2ACAD1022881F8A5
:101EF0002A80C6D091F829200D2A01D00A2AC0D103
:101F0000042881F82980BCD391F828200D2AD7D045
:101F10000A2AD5D0B5E700BF99F8020000283FF49F
:101F200026AC09F12C07384689F80280FEF70CF937
:101F3000012827DA09F1180630463946FEF718F964
:101F400042F6BB0109F10400C0F600010622FEF7CB
:101F500002F950B942F6B6013046C0F6000105223A
:101F6000FEF7F9F8002800F02B8342F6A730C0F600
:101F7000000000F081FC002047E300BF043881F836
:101F80002880D7D009EB000191F82B200D2A01D031
:101F90000A2ACFD1022881F82B80CBDB91F82A20A6
:101FA0000D2A01D00A2AC5D1022881F82A80C1D081
:101FB00091F829200D2A01D00A2ABBD1042881F8E2
:101FC0002980B7D391F828200D2AD7D00A2AD5D056
:101FD000B0E700BF43F25311C0F6000170E300BF49
:101FE00042F6B65042F6B746C0F60000C0F600060C
:101FF00000F042FC304600F03FFCA9F80080FFF7FB
:10200000B6BB00BF052000E342F69810C0F6000002
:1020100000F032FC42F6F350C0F6000000F02CFC59
:1020200043F21F00C0F6000000F09CFB0B20ECE226
:1020300043F23700C0F6000000F094FB89F80180FD
:10204000FFF795BB43F26C11C0F6000138E300BF07
:1020500042F6A820C0F6000000F00EFC42F6E9604F
:10206000C0F6000000F008FC42F6D550C0F60000B3
:1020700000F002FC42F6D360C0F6000000F0FCFB6A
:1020800043F20900C0F6000000F06CFB0C2089F858
:10209000000063E042F67950C0F6000000F0ECFB6F
:1020A00042F6C210C0F6000000F0E6FB42F66810EF
:1020B000C0F6000000F0E0FB42F6C410C0F60000DD
:1020C00000F0DAFB009D4FF4004128460022FEF7A5
:1020D000F1F928464FF400510122FEF7EBF92846AA
:1020E0004FF480410122FEF7E5F942F6CF20C0F619
:1020F000000000F0C1FB89F800802FE043F255009A
:10210000C0F6000000F02EFB0D20FFF72EBB00BF35
:1021100042F6EC20C0F6000000F0AEFB89F800802B
:1021200089F80180FFF723BB00980121FEF7BCF975
:1021300009F10401012840F06F8242F6EA00C0F67E
:10214000000000F00FFB42F64440C0F600006DE2D4
:1021500042F6DA30C0F6000000F08EFB89F801800C
:10216000204602210022FEF7A5F920461021002278
:10217000FEF7A0F9204620210022FEF79BF9204619
:1021800040210022FEF796F9204680210022FEF72A
:1021900091F92046042101220126FEF78BF9012046
:1021A000FEF764F8204604210022FEF783F901209F
:1021B000FEF75CF8204610210122FEF77BF920464D
:1021C00020210022FEF776F9204640210022FEF76A
:1021D00071F9204680210022FEF76CF92046042187
:1021E0000122FEF767F90120FEF740F8204604219E
:1021F0000022FEF75FF90120FEF738F820460221A1
:102200000022FEF757F9204610210022FEF752F96E
:10221000204620210022FEF74DF9204640210022D1
:10222000FEF748F9204680210122FEF743F92046B7
:1022300004210122FEF73EF90120FEF717F820469F
:1022400004210022FEF736F90120FEF70FF82046A0
:1022500010210022FEF72EF9204620210022FEF751
:1022600029F9204640210022FEF724F9204680214A
:102270000022FEF71FF9204604210122FEF71AF979
:102280000120FDF7F3FF204604210022FEF712F99A
:102290000120FDF7EBFF2127204602210122FEF756
:1022A00009F9C7F3001220461021FDB2FEF702F92A
:1022B000C7F3401220462021FEF7FCF8C7F3801236
:1022C00020464021FEF7F6F8EA0920468021FEF775
:1022D000F1F8204604210122FEF7ECF80120FDF779
:1022E000C5FF204604210022FEF7E4F80120FDF797
:1022F000BDFF07F0010220461021FEF7DBF8C7F30F
:10230000400220462021FEF7D5F8C7F38002204680
:102310004021FEF7CFF8C7F3C00220468021FEF728
:10232000C9F8204604210122FEF7C4F80120FDF778
:102330009DFF204604210022FEF7BCF80120FDF796
:1023400095FF1AF806700136122EA5D120460221FB
:102350000022FEF7AFF8204610210022FEF7AAF86F
:10236000204620210022FEF7A5F820464021012228
:102370000126FEF79FF8204680210122FEF79AF8F9
:10238000204604210122FEF795F80120FDF76EFF9B
:10239000204604210022FEF78DF80120FDF766FF9C
:1023A000204610210022FEF785F820462021002239
:1023B000FEF780F8204640210022FEF77BF82046F9
:1023C00080210022FEF776F8204604210122FEF744
:1023D00071F80120FDF74AFF204604210022FEF794
:1023E00069F80120FDF742FF452700BF2046022182
:1023F0000122FEF75FF8C7F3001220461021FDB25C
:10240000FEF758F8C7F3401220462021FEF752F895
:10241000C7F3801220464021FEF74CF8EA09204617
:102420008021FEF747F8204604210122FEF742F8FA
:102430000120FDF71BFF204604210022FEF73AF899
:102440000120FDF713FF07F0010220461021FEF7DF
:1024500031F8C7F3400220462021FEF72BF8C7F3DE
:10246000800220464021FEF725F8C7F3C00220462F
:102470008021FEF71FF8204604210122FEF71AF8FA
:102480000120FDF7F3FE204604210022FEF712F89A
:102490000120FDF7EBFE43F2CC00C0F60000875DA3
:1024A0000136122EA2D1FFF762B900BF42F6744086
:1024B000C0F60000BAE000BF42F6EC20C0F6000013
:1024C00000F0DAF989F800802EE000BF43F29300B3
:1024D000C0F6000000F046F90F20FFF746B900BF34
:1024E00042F60970C0F6000000F03CF90A20FFF740
:1024F0003CB900BF43F27900C0F6000000F032F9A9
:102500000E20FFF732B900BF42F67440C0F600005B
:1025100000F0B2F999F80000092805D142F683705D
:10252000C0F6000000F01EF989F8018099F8020059
:1025300000283FF41CA909F12C07384689F80280CD
:10254000FDF702FE012806DAFFF7FAB8043881F831
:1025500028803FF4F5A809EB000191F82B200D2A03
:1025600002D00A2A7FF4ECA8022881F82B80FFF61B
:10257000E7A891F82A200D2A02D00A2A7FF4E0A8C1
:10258000022881F82A803FF4DBA891F829200D2A3F
:1025900002D00A2A7FF4D4A8042881F82980FFF405
:1025A000CFA891F828200D2AD0D00A2ACED0FFF744
:1025B000C7B800BF43F23B11C0F6000180E000BF86
:1025C00043F21010C0F6000000F0CCF843F2BD104A
:1025D000C0F6000000F0C6F842F62750C0F6000032
:1025E00000F04AF942F67D20C0F6000000F044F900
:1025F00042F67060C0F6000000F03EF943F2B10010
:10260000C0F6000000F0AEF8092089F8000089F853
:102610000180FFF7ACB800BF42F6D100C0F6000061
:1026200000F0A0F842F61440C0F6000000F024F9D3
:1026300099F80000042805D142F65B70C0F600004E
:1026400000F090F889F80180FFF791B80D0A5B530C
:10265000595354454D5D204661696C757265207211
:1026600065706F72742073656E7420746F2064617E
:102670007461626173652E0D0000000043F28B11DE
:10268000C0F600011CE000BF43F24711C0F6000194
:1026900016E000BF43F2B111C0F6000110E000BF28
:1026A00043F25E11C0F600010AE000BF43F2A5113B
:1026B000C0F6000104E000BF43F29911C0F600012A
:1026C00043F2F710C0F6000000F04CF842F6275035
:1026D000C0F6000000F0D0F842F69320C0F60000EB
:1026E00000F0CAF842F62B60C0F6000000F0C4F813
:1026F00043F2B100C0F6000000F034F80420A9F85D
:1027000000004FF0010BFFF732B800BF0D0A4D413A
:102710004E414745523A44454D414E443A25730D8A
:102720000A0000000D0A5B53595354454D5D204487
:10273000656D616E64206C65747465722073656E7E
:102740007420746F2064617461626173652E0D0082
:102750000D0A4C45545445523A25733A25730D0AD7
:10276000000000000FB4054B10B503A9044A0298FD
:1027700000F017F810BC5DF814FB0000B914000855
:102780000000002002E008C8121F08C1002AFAD188
:1027900070477047002001E001C1121F002AFBD1E1
:1027A00070472DE9F84F994692468846054600271E
:1027B00006E025280AD051464A4690476D1C7F1CEA
:1027C00028780028F5D13846BDE8F88F002315F8A1
:1027D000011F18462E2915D115F8011F04232A2997
:1027E0000DD06FF02F022978A1F13004092C09D8FF
:1027F00000EB800002EB400008446D1CF3E758F842
:10280000040B6D1C2A78002ADDD0632A07D0732AB6
:102810000FD0104651464A4690477F1C2AE018F8D0
:10282000042B8DF8002000218DF801106E46012147
:1028300003E058F8046B4FF0FF315A074FF00004E3
:1028400001D409E0641C84420BDA8C42FADB325D6D
:10285000002AF7D105E0641C8C42FCDB305D0028C7
:10286000F9D1274404E016F8010B51464A46904737
:10287000641EF8D26D1CA3E710B5044601E0FEF714
:102880001BFE14F8010B04490028F8D1BDE81040E4
:102890000A20FEF711BE0000000000200102000027
:1028A0000000000000000102030406070809000000
:1028B000000001020304313233340061646D696E3B
:1028C0000002030405060708090A0B0C0D0E0F1081
:1028D000100D0A5641434154494F4E3A25733A521E
:1028E000454A45435445440D0A000D0A56414341AB
:1028F00054494F4E3A25733A415050524F56454431
:102900000D0A000D0A5B53595354454D5D20416239
:1029100073656E6365207265636F72642073656EA4
:102920007420666F722049443A2025730D0A000D09
:102930000A414253454E43453A25730D0A000D0A9C
:102940004D414E414745523A5245504F52545F46D1
:1029500041494C3A25730D0A000D0A434845434B43
:10296000494E3A25730D0A0021212043524954490A
:1029700043414C20534954554154494F4E3A204508
:102980005641435541544520494D4D4544494154D4
:10299000454C592021210D000D0A0D0A212121202D
:1029A000454D455247454E43592050524F544F4391
:1029B0004F4C20494E49544941544544202121213E
:1029C0000D000D0A21212121212121212121212157
:1029D00021212121212121212121212121212121E7
:1029E0002121212121212121212121210D000D0A37
:1029F0005B414C41524D5D2050726F647563746948
:102A00006F6E204C696E652053544F5050454420E2
:102A1000636F6D6D616E642073656E74210D00319E
:102A20002E20576F726B6572204C6F67696E20287D
:102A300046696E6765727072696E74204944290D2B
:102A400000332E20454D455247454E4359202853CB
:102A50004F53290D00322E20466F72656D616E2F27
:102A60004D616E61676572204C6F67696E20284307
:102A7000726564656E7469616C73290D002D2D2D6E
:102A8000204D414E41474552204D454E55202D2D5C
:102A90002D0D002D2D2D20574F524B4552204D45C9
:102AA0004E55202D2D2D0D000D0A0D0A2D2D2D20FA
:102AB0004D45444943414C20454D455247454E43C1
:102AC00059205355424D454E55202D2D2D0D000DAD
:102AD0000A52657475726E696E6720746F204D615D
:102AE000696E204D656E752E2E2E0D000D0A5B4C05
:102AF0004F47474544204F55545D205265747572C9
:102B00006E696E6720746F204D61696E204D656E31
:102B1000752E2E2E0D000D0A5B4E4F54494649432B
:102B20004154494F4E5D204368656D6963616C2077
:102B30004578706F737572652070726F746F636F14
:102B40006C206163746976617465642E2048617AD3
:102B50006D6174207465616D206E6F74696669655E
:102B6000642E0D000D0A5B414C41524D5D204669BB
:102B7000726520416C61726D20747269676765725D
:102B8000656421205374726F6265204C69676874B4
:102B90007320262042757A7A6572204163746976C3
:102BA000617465642E0D000D0A5B41434345535328
:102BB0002044454E4945445D20496E636F727265FD
:102BC000637420557365726E616D65206F7220505D
:102BD000617373776F72642E0D000D0A496E766112
:102BE0006C696420656D657267656E6379207479C0
:102BF00070652E0D000D0A52657475726E696E67F0
:102C000020776974686F7574206469737061746388
:102C1000682E0D000D0A5B524553554C545D2056ED
:102C200061636174696F6E2052454A45435445445F
:102C3000206279204D616E616765722050616E651A
:102C40006C2E0D000D0A5B524553554C545D2056B9
:102C500061636174696F6E20415050524F56454414
:102C6000206279204D616E616765722050616E65EA
:102C70006C2E0D000D0A496E76616C6964206F70D0
:102C800074696F6E2E0D000D0A5B524553554C54FE
:102C90005D20596F7572206C657474657220776160
:102CA000732073656E7420746F207468652073657B
:102CB000727665722E0D000D0A5B4E4F54494649DF
:102CC000434154494F4E5D204669727374204169F7
:102CD00064205465616D2064697370617463686514
:102CE0006420666F72204D616368696E6572792039
:102CF0004163636964656E742E0D000D0A0D0A3D13
:102D00003D3D20534D41525420464143544F52596A
:102D10002043454E5452414C205445524D494E415A
:102D20004C203D3D3D0D000D0A3D3D3D3D3D3D3DB1
:102D30003D3D3D3D3D3D3D3D3D3D3D3D3D3D3D3DC3
:102D40003D3D3D3D3D3D3D3D3D3D3D3D3D3D3D3DB3
:102D50003D0D000D4D414E414745523A53544F50A1
:102D60005F4C494E450D000D0A454D455247454EB5
:102D700043593A464952450D000D0A454D455247C3
:102D8000454E43593A435249544943414C5F455695
:102D90004143554154450D000D0A454D45524745A7
:102DA0004E43593A4D45444943414C5F4348454D94
:102DB0004943414C0D000D0A454D455247454E4390
:102DC000593A4D45444943414C5F4D414348494E72
:102DD0004552590D00322E204368656D6963616C60
:102DE000202F20546F786963204578706F73757257
:102DF000650D00312E204669726520416C61726D4F
:102E00000D0A322E204D65646963616C20456D6545
:102E10007267656E63790D0A332E2048617A61729C
:102E2000646F7573204C65616B0D00312E20436813
:102E300065636B2D696E0D0A322E205265717565C2
:102E40007374204C656176652028566163617469EE
:102E50006F6E290D0A332E2053656E64204C657405
:102E60007465720D0A342E204C6F676F75740D00F7
:102E7000312E2053746F702050726F6475637469C3
:102E80006F6E204C696E650D0A322E205265706F90
:102E90007274204661696C7572650D0A332E205379
:102EA000656E642044656D616E642F4C6574746555
:102EB000720D0A342E205265676973746572204161
:102EC0006273656E63650D0A352E204C6F676F75F2
:102ED000740D00332E204261636B20746F204D61AE
:102EE000696E204D656E750D00312E204D61636851
:102EF000696E657279204163636964656E74202F21
:102F000020496E6A7572790D000D0A456E746572FE
:102F100020576F726B657220494420746F206D6179
:102F2000726B20617320416273656E742028652E78
:102F3000672E2031303031293A200053656C6563AB
:102F40007420616E206F7074696F6E2028312C20A0
:102F5000322C206F722033293A20000D0A53656C01
:102F6000656374206E657874206F7074696F6E206D
:102F7000286F72203420746F206C6F676F7574290E
:102F80003A20000D0A53656C656374206E65787491
:102F9000206F7074696F6E20286F72203520746FF7
:102FA000206C6F676F7574293A20000D0A0D0A5B5B
:102FB000574F524B4552204C4F47494E5D20506C65
:102FC0006561736520656E7465722046696E67651C
:102FD000727072696E742049443A20000D0A506183
:102FE0007373776F72643A20000D0A0D0A5B4D41CE
:102FF0004E41474552204C4F47494E5D0D0A55738F
:1030000065726E616D653A200053656C656374206E
:103010004D65646963616C20547970653A20005392
:10302000656C65637420456D657267656E637920B4
:10303000547970653A20000D0A496E76616C6964B6
:103040002063686F6963652E20547279206167611F
:10305000696E3A20000D0A506C65617365207479C1
:10306000706520796F7572206D6573736167652F68
:103070006C65747465723A20000D0A456E74657251
:10308000206661696C7572652064657461696C7332
:103090003A20000D0A456E7465722064656D616E9C
:1030A000642F7461736B2064657461696C733A207A
:1030B0000053656C6563743A200021212120454D41
:1030C000455247454E435920212121004556414351
:1030D0005541544520464143544F52592100313007
:1030E0003130003130303100313030320031303069
:1030F000330031303034003130303500313030364B
:103100000031303037003130303800313030390064
:103110000D0A3D3D3D3D3D3D3D3D3D3D3D3D3D3D42
:103120003D3D3D3D3D3D3D3D3D3D3D3D3D3D3D3DCF
:103130003D3D3D3D3D3D3D3D3D3D00536172612086
:1031400041686D616469004D696E61204D6F726107
:10315000646900416C692052657A616569005A6151
:103160006872612047686173656D69004D6F6861C1
:103170006D6D6164204B6172696D690046617269B1
:1031800064204D616C656B616E690052657A6120E7
:10319000486F737365696E69004E656461204A61AA
:1031A00066617269004F6D6964205361666172697E
:1031B0000048616D6964204E6F757269000D0A5B8D
:1031C000414343455353204752414E5445445D20AB
:1031D00057656C636F6D6520466F72656D616E2F0C
:1031E0004D616E6167657200556E6B6E6F776E2014
:1031F000576F726B6572000D0A5B41434345535331
:10320000204752414E5445445D2057656C636F6DB5
:10321000653A2025730000003832000800000020C5
:103220001000000084270008483200081000002029
:10323000A80400009427000800000000010000001E
:08324000100000000024F4005E
:04000005080000ED02
:00000001FF
