:020000040800F2
:1000000000070020BD010008C9190008C119000837
:10001000C5190008F9040008291A000800000000AA
:10002000000000000000000000000000D1190008DE
:10003000FD04000800000000CD190008D5190008D3
:10004000D7010008D7010008D7010008D701000830
:10005000D7010008D7010008D7010008D701000820
:10006000D7010008D7010008D7010008D701000810
:10007000D7010008D7010008D7010008D701000800
:10008000D7010008D7010008D7010008D7010008F0
:10009000D7010008D7010008D7010008D7010008E0
:1000A000D7010008D7010008D7010008D7010008D0
:1000B000D7010008D701000800000000D7010008A0
:1000C000D70100080000000000000000D701000870
:1000D00000000000D7010008D70100080000000060
:1000E000D7010008D7010008D701000800F002F886
:1000F00000F055F814A696E8000CB244B344DA4573
:1001000001D100F04CF8BAE80F000FA696E83000D5
:10011000A5EB040504EB0607AAEB0704A7F101070A
:100120004FEA15154FEA3414A4F10104AC4201D38F
:1001300000F035F813F0010F18BFFB1A43F001036C
:1001400000F001F8DBE71847841A0000A41A000049
:10015000103A24BF78C878C1FAD8520724BF30C8F3
:1001600030C144BF04680C60704700007047000055
:100170000023002400250026103A28BF78C1FBD8B0
:10018000520728BF30C148BF0B607047752900F087
:100190007D80002070471FB51FBD10B510BD00F059
:1001A00070F91146FFF7F7FF01F040FC00F08EF9FF
:1001B00003B4FFF7F2FF03BC00F096F9094880474B
:1001C00009480047FEE7FEE7FEE7FEE7FEE7FEE739
:1001D000FEE7FEE7FEE7FEE704480549054A064B51
:1001E00070470000D9190008ED0000080001002048
:1001F0000007002000030020000300200FB41CB5FE
:10020000074B06AA7B4469460090059800F021F947
:100210000020694600F030F91CBC5DF814FB0000BA
:10022000710200002DE9F0410E46044600202062D4
:100230002046E168884730B3252805D0D4E901215C
:100240009047206A401CF2E7E16820460027884773
:10025000050018D0A5F14100192802D820354FF427
:1002600000673246294620462760FFF78FFF40B1DE
:10027000012804D0F61D26F007060836D8E7361DFB
:10028000D6E72846DAE7206ABDE8F0812DE9F0419B
:100290000646002410687529314616A510D0AFF324
:1002A0000080002802DA404213A507E031688A077F
:1002B00001D512A502E0490704D511A5012401E0EA
:1002C000AFF3008000210A2206F1240709E0B0FB09
:1002D000F2FCB0FBF2F302FB1C00303078541846FD
:1002E000491C0028F3D123462A463046BDE8F04198
:1002F00000F051B8000000002D0000002B000000AD
:100300002000000010B5431C02E010F8011B71B181
:100310008107FAD14FF0013202C88C1A8C4314EADB
:10032000C211F9D0C01A0A0603D0C01E10BDC01AEF
:1003300010BD0A0401D0801E10BD0902FCD0401E71
:1003400010BD4FF0000200B5134694469646203982
:1003500022BFA0E80C50A0E80C50B1F12001BFF47E
:10036000F7AF090728BFA0E80C5048BF0CC05DF8E4
:1003700004EB890028BF40F8042B08BF704748BF32
:1003800020F8022B11F0804F18BF00F8012B7047A6
:100390007047704770472DE9F0470D4699469246E1
:1003A000044600F124080168880604D5E06921F0BC
:1003B0001001216000E00120A84201DD471B00E0A0
:1003C0000027A1697A1902EB0900081AA0612078B8
:1003D000C00602D42046AFF30080002608E0D4E92E
:1003E00001211AF806009047206A401C761C206202
:1003F0004E45F4DB2078C0060AD52046AFF30080D6
:1004000006E0D4E9012130209047206A401C206298
:10041000381EA7F10107F4DC07E0D4E9012118F840
:1004200005009047206A401C2062281EA5F10105A6
:10043000F3DC2046AFF300802078000602D50220CE
:10044000BDE8F0870120FBE701694A1C02610878DA
:10045000704700B58FB0CDE9013100210591054904
:100460007944CDE9031011466846FFF7DBFE0FB073
:1004700000BD0000E5FFFFFF0A6802F8010B0A60FB
:100480007047754600F02CF8AE46050069465346A5
:1004900020F00700854618B020B5FFF79DFEBDE8A7
:1004A00020404FF000064FF000074FF000084FF0DB
:1004B000000BAC46ACE8C009ACE8C009ACE8C00928
:1004C000ACE8C00921F007018D46704710B504461D
:1004D000AFF300802046BDE81040FFF769BE000082
:1004E000004870471000002001491820ABBEFEE70D
:1004F0002600020070470000FEE700007047000081
:1005000070B581B00022009290F82420012A03D116
:100510000221084601B070BD4A680123062A02EB99
:10052000820E80F8243007D8D0F800C06FF00403A2
:100530000CF134060CE000BFD0F800C00C2A87BFD5
:100540000CF12C066FF040030CF130066FF0220323
:100550000EEB03021F23346803FA02F50B6824EA4A
:10056000050503FA02F22A433260092B03EB43022A
:100570001AD9DCF80C601E3A072589689540AE430D
:10058000914023F001023143102ACCF80C1015D110
:1005900042F20041C4F201018C4517D0816A41F05A
:1005A0002001816201210AE0DCF810300726896809
:1005B0009640B34391401943CCF81010002100221B
:1005C00080F82420084601B070BD00BF8968090288
:1005D000F4D4DCF80810102B41F40001CCF808101A
:1005E000ECD140F20801C2F2000109684DF68362C5
:1005F000C4F21B32A1FB0212910C01EB81014900F4
:10060000009100990029D9D00099013900910099F1
:100610000029D3D000990139009100990029CDD04B
:1006200000990139009100990029C7D0009901393A
:100630000091009900294FF00001E5D1BFE70000CB
:100640000068C06C70470000002804BF012070479C
:10065000B0B50446806A28B120688168C9070CD00B
:1006600032E000BF0020E06284F82400204600F061
:100670008FF820688168C90726D1A16AC9063DD4D0
:10068000A16A41F2021291430231A162E169D4E907
:10069000013241EA030C531EB3FA83F35D0913469A
:1006A000B2F5807F18BF2B02217D257B01294CEA02
:1006B00045012ED145B3A56A45F02005A562E56A3E
:1006C00045F00105E56224E0816821F001018160C7
:1006D00000F03EFB054600BF20688168C907CCD00A
:1006E00000F036FB401B0328F6D3A06A40F0100050
:1006F000A062E06A40F00100E062A06AA06A40F0F7
:100700001000A0620120B0BDA56903EB4533A3F53D
:10071000C0534568B2F5807F25F4694543EA050377
:10072000436083684FF2FD75CFF6E17503EA050378
:1007300043EA0103836001D0012A07D12269002323
:10074000CFF6F07303EB025201E000BF0022C36A50
:1007500023F470031A43C262806840F6FE62CFF64B
:100760001F721040884207D10020E062A16A012276
:1007700062F30101A162B0BDA06A40F0100020F058
:100780000200A062E06A40F00100E0620120B0BD1A
:1007900080B586B0014640F60000C4F20100096849
:1007A00000F5E05291424FF00001CDE90411CDE98E
:1007B000021101D006B080BD41F21801C4F202015D
:1007C0000A6842F400720A600A6802F40072019238
:1007D000019A0A6842F004020A60096801F0040103
:1007E00001910199012102910321039102A900F0D5
:1007F000ADF906B080BD00002DE9F04182B00027C0
:100800000D460446019700F0A3FA21688A68D205D4
:1008100044D406464868C00503D4C86A10F4700F73
:1008200046D040F20800C2F20000076842F2924847
:100830000220C1F2492800F035FB216844F6241358
:100840000A69B7FBF0F0C2F292431A4206D1CA68B5
:1008500044F62413C0F292031A4249D00A6912EAFC
:10086000080F07D1CA6842F29243C0F249031A4204
:1008700000F084800A6949F24923C0F224031A4235
:100880004FF0FC0242D1CF681F4208BF5422019BA7
:1008900002FB00F7BB423ED379E000BFA06A40F004
:1008A0002000A06284F82470012002B0BDE8F0812D
:1008B000086880076BD4002D55D0681C12D10868D9
:1008C000800764D4086880075CBF08685FEA8070AE
:1008D0005DD408688007F2D559E000BF2168086838
:1008E000800754D400F034FA801BA842F6D93AE0CD
:1008F0000A6912EA080F4FF0290207D1CB6842F2C9
:100900009247C0F249073B4208BF1422019B02FBF9
:1009100000F7BB423BD235B3681C1FD101980130B0
:1009200001900198B84232D20198013001900198AB
:10093000B8422CD20198013001900198B84226D2D9
:100940000198013001900198B842E7D31FE000BF41
:100950000198013001900198B84217D200F0F8F9DF
:10096000801BA842F4D9A06A40F00400A0620020D5
:1009700084F82400032002B0BDE8F0815422019BDA
:1009800002FB00F7BB42C6D301E000BF21686FF055
:1009900012000860A06A40F40070A062886800F449
:1009A0006020B0F5602F01D1207B18B1002002B08B
:1009B000BDE8F081A06A20F48070A062A06AC00443
:1009C000F4D4A06A40F00100A062002002B0BDE8AB
:1009D000F0810000B0B582B0044690F824000128F0
:1009E00002D1022002B0B0BD012084F82400002012
:1009F000019020688168C90742D1816841F00101F6
:100A0000816040F20800C2F2000000684DF6836188
:100A1000C4F21B31A0FB0101880C01900198A0B128
:100A2000019801380190019878B10198013801903E
:100A3000019850B1019801380190019828B10198AE
:100A40000138019001980028EAD100F081F90546AB
:100A500020688168C90713D100F07AF9401B022889
:100A6000F6D9A06A40F01000A062E06A40F00100F0
:100A7000E062002084F82400012002B0B0BD00BF75
:100A8000A26A42F2044140F20133C4F201019A43E6
:100A900002F5807301F57F729042A3622AD0A36AA7
:100AA00023F48013A36243685B0504D5A36A012580
:100AB00065F30D33A362A56A0023ED044FF0000532
:100AC00044BFE56A25F00605E56284F824306FF03E
:100AD00002030360836803F46023B3F5602F19D128
:100AE000904213D0816841F4A0018160002002B0DF
:100AF000B0BD00BF0B6813F4702FD0D0A36A43F4CD
:100B00008013A3620B685B05D0D4D4E7096811F4A5
:100B1000702FE7D0816841F480118160002002B01D
:100B2000B0BD0000B0B5044600F012F9054640F231
:100B30000000C2F200000078611C18BF044400BF2E
:100B400000F006F9401BA042FAD3B0BD2DE9F04FEA
:100B500082B00E68002E00F0F78040F20C4C40F29C
:100B6000004E41F20002C4F2010CC4F2010EC4F2C4
:100B700001020327002401234FF0000B4FF000096E
:100B8000904208BF0227009742E000BF002704F010
:100B90000C030F229A402AEA020207FA03F34FEAF3
:100BA0009B051A4346F825204E68F203DEF8002024
:100BB00054BF22EA080242EA0802CEF80020DEF81A
:100BC0000420B30354BF22EA080242EA0802CEF826
:100BD0000420F302DEF8082054BF22EA080242EAA9
:100BE0000802B302CEF80820DCF800204FF0010321
:100BF00054BF22EA080242EA0802CCF800200E683C
:100C00000BF1010B36FA0BF204F1040400F09C80A6
:100C100003FA0BFA16EA0A08F1D04E684FF6FF7293
:100C2000C1F21002964211DC122E55D8DFE806F010
:100C3000340A4C48545454545454545454545454F2
:100C400054445000D1F80C9046E000BF4FF6FF72BC
:100C5000C1F2210296420FDC0022C1F2110296423B
:100C60001AD00022C1F21202964215D00022C1F21F
:100C70002102964210D02FE00022C1F222029642B9
:100C80000AD00022C1F23102964205D00022C1F200
:100C90003202964220D100BF8A684AB1012A14BFAD
:100CA000C0F814A0C0F810A04FF0080914E000BF6D
:100CB0004FF0040910E000BFCA6802F104090BE01C
:100CC0004FF0000908E000BFCA6802F1080903E01C
:100CD000CA6802F10C0900BF02462646B8F5807FBB
:100CE00024BF0432203E17680F25B54027EA0505CA
:100CF00009FA06F635431560CA79D2067FF57FAF4B
:100D000041F21803C4F202031A68AEF57E7642F08F
:100D100001021A601A6802F001020192019A2BF096
:100D2000030256F802A040F60002C4F2010290420B
:100D30003FF42CAF40F60042C4F20102009F904203
:100D400008BF012723E700BF02B0BDE8F08F000015
:100D500040F2F800C2F200000068704740F2000064
:100D600040F2F801C2F20000C2F2000100780A6805
:100D7000104408607047000080B542F20000C4F2E1
:100D80000200016841F010010160032000F07AF8D0
:100D90000F2000F005F800F027F8002080BD0000CB
:100DA00070B540F20006C2F2000640F20801327847
:100DB000C2F200014FF47A730968B3FBF2F2044601
:100DC000B1FBF2F1084600F071FC0F2C4FF0010569
:100DD00008D838B94FF0FF3021460022002500F036
:100DE00025F87460284670BD82B041F21800C4F244
:100DF00002000168042241F001010160016801F074
:100E0000010101910199416841F0805141604068C0
:100E100000F08050009000980420C4F201000168A6
:100E200062F31A61016002B07047000010B54EF61F
:100E30000C5CCEF2000CDCF80030C3F3022E8EF016
:100E40000704042C28BF0424BEF103034FF0FF3E27
:100E50000EFA04F438BF0023A14399400EFA03F3BD
:100E60009A43114300F00F0200F160430901043A74
:100E700003F564436244002848BF02F10C03197073
:100E800010BD00004EF60C51CEF200010A684FF67C
:100E9000FF031A4060F30A2242F0806040F0FD70C8
:100EA00008607047012821D002280DD0102808D1F1
:100EB00041F20401C4F202010A6851F8040CC001B5
:100EC00034D40020704700BF80B500F0DBF941F258
:100ED0000401C4F2020109680222C1F3813102EB6C
:100EE0004101B0FBF1F0BDE88040704741F20400E1
:100EF000C4F20200C16940F202320A40B2F5817FB9
:100F000004BF4FF40040704701F44071B1F5407FD9
:100F100018D0B1F5007F1CBF00207047006A49F669
:100F20004041800701EAE070704700BFC2F3834090
:100F300015A3185CD2030DD440F60012C0F23D0296
:100F4000504313E050F8040C4FF22441800301EAAF
:100F5000E07070470A6810A3C2F340429A5C41F205
:100F60000023C0F27A03B3FBF2F25043096849024E
:100F700048BF70474AF6AB214000CAF6AA21A0FB41
:100F800001014808704700BF02030405060708096D
:100F90000A0B0C0D0E0F1010010200002DE9F0419C
:100FA00082B00446007841F21C06C007C4F2020673
:100FB0004AD030685FEAC00808D4306840F08050FA
:100FC0003060306800F080500190019847F20007CF
:100FD000C4F200073868C00512D4386840F4807045
:100FE0003860FFF7B5FE05463868C00508D4FFF73E
:100FF000AFFE401B6428F7D9032002B0BDE8F081A2
:10100000706810F4407012D0616801F44071884239
:101010000DD0706840F24042C4F24222012320F415
:10102000407113600023C0071360716026D170689F
:10103000616820F440700843B8F1000F706003D479
:10104000306820F0805030602068810707D556F85E
:10105000181CA26821F44041114346F8181CC00630
:1010600007D556F8180CE16820F48000084346F8CC
:10107000180C002002B0BDE8F08100BFFFF768FE49
:10108000054641F2883700BF70688007CFD4FFF76C
:101090005FFE401BB8424FF00300F5D9EAE70000BD
:1010A000002804BF012070472DE9F04381B042F2CF
:1010B0000008C4F202080446D8F800000D4600F00B
:1010C000070081420CD9D8F8000020F0070028431F
:1010D000C8F80000D8F8000000F00700A8426CD162
:1010E000206841F204098107C4F2020917D54107BB
:1010F00005D5D9F8001041F4E061C9F800100107E6
:1011000005D5D9F8001041F46051C9F80010D9F89C
:101110000010A26821F0F0011143C9F80010C007C7
:1011200042D1D8F8000000F0070085420CD2D8F870
:10113000000020F007002843C8F80000D8F800009D
:1011400000F00700A84238D12068410707D5D9F838
:101150000010E26821F4E0611143C9F800100007B3
:1011600008D5D9F80000216920F4605040EAC10098
:10117000C9F80000D9F8002002F00C00082841F25C
:101180000020C0F27A004DD141F6BA33C2F3834158
:10119000C0F60003595CD20338D440F60010C0F208
:1011A0003D0048433EE000BF606859F8041C022837
:1011B00008D0012826D1890306D4012001B0BDE85A
:1011C000F08300BF8901F8D5D9F8001021F00301A0
:1011D0000843C9F80000FFF7BBFD064641F2883717
:1011E000D9F80000616800F00C00B0EB810F98D0D6
:1011F000FFF7AEFD801BB842F2D9032001B0BDE875
:10120000F08300BF8907D8D5DEE700BFD9F80020FA
:1012100041F6A033C2F34042C0F600039A5C484353
:10122000B0FBF2F0D9F8001041F6A232C1F303117D
:10123000C0F60002515C40F2080220FA01F140F2CF
:101240000400C2F200000068C2F200021160FFF761
:10125000A7FD002001B0BDE8F083000040F20800C7
:1012600041F20401C2F20000C4F202010068096800
:1012700041F6B232C1F30221C0F60002515CC8400F
:101280007047000040F2080041F20401C2F2000081
:10129000C4F202010068096841F6B232C1F3C2210A
:1012A000C0F60002515CC84070470000002804BF2F
:1012B000012070472DE9F04182B00446007841F2E8
:1012C0000006C007C4F202060CD0706800F00C00E3
:1012D000042840F081803068800303D560680028CE
:1012E00000F04681207880071BD5706810F00C0F45
:1012F00009D0706800F00C00082840F08780706802
:10130000C00300F183803068800703D5206901287D
:1013100040F02E813068616920F0F80040EAC10099
:1013200030602078000713D4207840072CD4E5697A
:10133000002D00F01881706800F00C00082840F0C3
:10134000A780012D40F00481012002B0BDE8F081AA
:10135000A069002800F084800020C4F2422001210E
:10136000C0F88014FFF7F4FC054600BF706A8007E0
:1013700000F1B280FFF7ECFC401B0228F6D90320F5
:1013800002B0BDE8F08100BFF0695FEAC00808D490
:10139000F06940F08050F061F06900F080500090FA
:1013A000009847F20007C4F200073868C00549D426
:1013B000386840F480703860FFF7CAFC054600BF0B
:1013C0003868C0053ED4FFF7C3FC401B6428F7D93A
:1013D000032002B0BDE8F081706800F00C0008281E
:1013E00003D17068C0033FF576AF616830680029AB
:1013F00000F00C81B1F5A02F00F00081B1F5803F25
:1014000040F01A8140F480301CE100BF20690028C0
:1014100040F20000C4F2422000F088800121016007
:10142000FFF796FC054600BF306880073FF572AFB6
:10143000FFF78EFC401B0228F6D9032002B0BDE85E
:10144000F08100BFE168306A002900F09D80052925
:1014500000F09280012940F0AF8040F00100B1E03F
:101460000020C4F242200021C0F88014FFF770FC75
:10147000054600BF706A80077FF556AFFFF768FC2E
:10148000401B0228F6D9032002B0BDE8F08100BF5E
:101490000027C4F2422700203866FFF759FC022DCE
:1014A00005460DD13068800140F1DE80FFF750FC29
:1014B000401B02284FF00300F4D902B0BDE8F081D0
:1014C000306880014FD5FFF743FC401B02284FF0E6
:1014D0000300F5D9F1E700BF40F20800C2F20000B6
:1014E000006844F6D351C1F26201A0FB0101480A31
:1014F000019000BF00BF0198411E002801913FF4F8
:1015000013AF00BF0198411E002801913FF40CAFBA
:1015100000BF0198411E002801913FF405AF00BFB4
:101520000198411E00280191E4D1FDE600210160EF
:10153000FFF70EFC054600BF306880077FF5F1AE6F
:10154000FFF706FC401B02284FF00300F4D9B4E774
:101550007068216A00F480328A4209D1616A00F41D
:101560007010884204D1002002B0BDE8F08100BFB5
:10157000012002B0BDE8F08140F004003062306A22
:1015800040F001001EE000BF20F001003062306A30
:1015900020F004003062FFF7DBFB054641F288379C
:1015A000306A800720D5FFF7D3FB401BB8424FF0CD
:1015B0000300F5D981E700BF20F001003062306AF6
:1015C00020F004003062FFF7C3FB054641F2883784
:1015D000306A800708D4FFF7BBFB401BB842F7D93D
:1015E000032002B0BDE8F081B8F1000F3FF59FAED7
:1015F000F06920F08050F06199E600BF40F480204F
:101600003060306840F480301CE000BF20F480304F
:101610003060306820F480203060FFF799FB054689
:10162000306880037FF55EAEFFF792FB401B6428B5
:101630004FF00300F4D940E720F480303060306888
:1016400020F480203060FFF783FB0546306880037C
:101650003FF548AEFFF77CFB401B6428F6D903201A
:1016600002B0BDE8F08100BF206AB0F5803F05D12F
:101670007168A26821F40031114371607168626A77
:1016800021F4741111430843706001203866FFF79C
:101690005FFB0446306880013FF565AFFFF758FBFC
:1016A000001B02284FF00300F4D906E7411E00207A
:1016B000B0EB116F1CBF012070474EF21002CEF24A
:1016C000000251604EF62351CEF20001F0230B7060
:1016D0000721906011607047002804BF0120704707
:1016E00010B5044690F8390028B9002084F8380075
:1016F000204600F061F8242084F839002068D4E9FD
:101700000212C36823F40053C360036923F44053F7
:101710001A430261D4E904231143C268194341F218
:101720000C639A431143C1604169A26921F440717D
:10173000114343F60002C4F201029042416103D01A
:10174000FFF78CFD02E000BFFFF79CFDD4E900230A
:10175000192148439900B0FBF1F048F21F5CC5F233
:10176000EB1CA0FB0C314FF69C734909C0F6FF73CC
:1017700001FB0300322303EB0010A0FB0C03F0205D
:1017800000EA531000EB0110C3F3431108449060CA
:101790001069202120F490401061506920F02A0047
:1017A0005061D06840F40050D0600020E06384F8BD
:1017B000391084F83A1010BD70B586B040F60004B8
:1017C000C4F20104006804F54051002688420596E1
:1017D000CDE90366029601D006B070BD41F2180053
:1017E000C4F20200016802AD41F480410160016869
:1017F00001F4804101910199016841F00401016007
:101800000068294600F00400019001984FF4007030
:10181000029002200390032005902046FFF796F9DE
:101820004FF48060CDE90206204629460496FFF772
:101830008DF906B070BD00002DE9F041044690F826
:10184000390020280CD10E4600294FF0010018BFA6
:10185000002A01D1BDE8F08194F83800012803D1B5
:101860000220BDE8F08100BF012084F8380000208C
:10187000E06321201D4684F839001746FFF768FA17
:10188000A784E784E18C074600295FD005F10108B1
:1018900006E000BF16F8011B4160E18C002956D01C
:1018A000E08C0138E0842068A1680268B1F5805FAF
:1018B0004FEA02611CD100290DD4B8F1000F29D0E4
:1018C000002D6AD0FFF744FAC11B2068A94264D8F2
:1018D00001680906F6D531886FF35F2141602169FF
:1018E000002914BF01360236E18C0029D8D12EE040
:1018F0000029CFD4B8F1000F1AD0002D4DD000BF71
:10190000FFF726FAC11B2068A94246D801680906DC
:10191000F6D5BFE701680906DDD4016809065CBF9A
:1019200001685FEA0161D6D401680906F2D5D2E701
:1019300001680906AED4016809065CBF01685FEA68
:101940000161A7D401680906F2D5A3E72068016800
:1019500049060FD40DB3691C19D10168490609D491
:10196000016849065CBF01685FEA416102D4016811
:101970004906F2D5202084F839000020002184F89F
:101980003810BDE8F08100BF00684006F2D4FFF7D0
:10199000DFF9C11B2068A942F6D9C16821F4D071D2
:1019A000C160416921F001014161202084F83900C2
:1019B00084F83A000320002184F83810BDE8F08153
:1019C000FEE70000FEE70000FEE7000070470000B1
:1019D00070470000FFF7C2B941F20000C4F20200F4
:1019E0000168002241F0010101604168CFF6FF0269
:1019F0001140416001684FF6FF72CFF6F662114068
:101A00000160016821F480210160416821F4FE0138
:101A100041604FF41F0181604EF60850CEF2000085
:101A20004FF0006101607047FEE7000094B0FFF7DF
:101A3000A3F90AAC201D2421FEF783FC02200A90A2
:101A400001200E90102000250F9020460495CDE92E
:101A500002551195FFF72AFC20B1EFF3108072B602
:101A6000FEE700BF0F20CDE9050505A80021CDE95F
:101A700007550995FFF714FB20B1EFF3108072B6FC
:101A8000FEE700BF02200190002401A80394FFF7A5
:101A900085FA28B1EFF3108072B600BFFEE700BFF1
:101AA00041F21800C4F20200016840F2700841F0EF
:101AB00004010160006842F2004500F004000A9051
:101AC0000A98C2F20008C4F20105404640F8185FC7
:101AD00001274FF4602107730475C161C0E9014417
:101AE0000761FEF7B1FD28B1EFF3108072B600BFB9
:101AF000FEE700BF08F1180400260AA92046CDE938
:101B00000A670C96FEF7FCFC20B1EFF3108072B66A
:101B1000FEE700BF40F2B80005F5A051C2F2000098
:101B20000C234FF4E13280E84600C0E90366C0E9C7
:101B30000536C661FFF7D0FD20B1EFF3108072B615
:101B4000FEE700BF2046FEF745FF40F2B80611A5AC
:101B5000C2F2000620464FF0FF31FEF74DFE204650
:101B6000FEF76EFD474627F8020B82B2384629463B
:101B7000FEF744FB3846FEF7C5FB82B230463946D5
:101B80004FF0FF33FFF758FE4FF4FA70FEF7CAFF2D
:101B9000E0E700BF6164633D2025750D0A00000089
:101BA000010200000000000000000102030406071B
:101BB00008090000000001020304020304050607EF
:101BC00008090A0B0C0D0E0F10100000F01B000886
:101BD000000000201000000050010008001C000858
:101BE00010000020F0060000700100080000000056
:101BF00001000000100000000024F40000000000BC
:04000005080000ED02
:00000001FF
