:020000040800F2
:1000000010070020C5010008E91D0008491B000871
:10001000E51D000875060008491E000800000000E4
:10002000000000000000000000000000F11D0008BA
:100030007906000800000000ED1D0008F51D00080D
:10004000DF010008DF010008DF010008DF01000810
:10005000DF010008DF010008DF010008DF01000800
:10006000DF010008DF010008DF010008DF010008F0
:10007000DF010008DF010008DF010008DF010008E0
:10008000DF010008DF010008DF010008DF010008D0
:10009000DF010008DF010008DF010008DF010008C0
:1000A000DF010008DF010008DF010008DF010008B0
:1000B000DF010008DF01000800000000DF01000888
:1000C000DF0100080000000000000000DF01000860
:1000D00000000000DF010008DF0100080000000050
:1000E000DF010008DF010008DF01000800F002F86E
:1000F00000F058F814A696E8000CB244B344DA4570
:1001000001D100F04FF8BAE80F000FA696E83000D2
:10011000A5EB040504EB0607AAEB0704A7F101070A
:100120004FEA15154FEA3414A4F10104AC4201D38F
:1001300000F038F813F0010F18BFFB1A43F0010369
:1001400000F001F8DBE71847CC200000EC200000AD
:10015000103A24BF78C878C1FAD8520724BF30C8F3
:1001600030C144BF04680C60704700007047000055
:100170000023002400250026103A28BF78C1FBD8B0
:10018000520728BF30C148BF0B607047752900F087
:100190009D80732900F02F82002070471FB51FBD7E
:1001A00010B510BD00F02BFA1146FFF7F7FF01F074
:1001B0004DFE00F049FA03B4FFF7F2FF03BC00F074
:1001C00051FA00000948804709480047FEE7FEE76A
:1001D000FEE7FEE7FEE7FEE7FEE7FEE7FEE7FEE7F7
:1001E00004480549054A064B70470000F91D000800
:1001F000ED0000081001002010070020100300206F
:10020000100300200FB41CB5074B06AA7B446946B7
:100210000090059800F0C5F90020694600F0D4F977
:100220001CBC5DF814FB0000B903000070B5044667
:1002300085690068C10601D5302600E02026C00788
:1002400007D070BDD4E9012130469047206A401C98
:1002500020626D1EF6D570BD70B5044685690078C4
:10026000C00707D170BDD4E9012120209047206A42
:10027000401C20626D1EF6D570BD70B50C4605465B
:10028000012A05D02878800600D5EA69002302E01B
:10029000012305E05B1C934202D2E05C0028F9D107
:1002A000A869E618C01AA861286A18442862284676
:1002B000FFF7BCFF04E0D5E9012114F8010B9047DA
:1002C000B442F8D32846FFF7C7FF70BD2DE9F041CF
:1002D0000646002410687529314616A510D0AFF3E4
:1002E0000080002802DA404213A507E031688A073F
:1002F00001D512A502E0490704D511A5012401E0AA
:10030000AFF3008000210A2206F1240709E0B0FBC8
:10031000F2FCB0FBF2F302FB1C00303078541846BC
:10032000491C0028F3D123462A463046BDE8F04157
:1003300000F0D8B8000000002D0000002B000000E5
:10034000200000002DE9F0474FF0000A89460446DE
:10035000C0F820A02046E1688847002876D02528EC
:1003600006D0D4E901219047206A401C2062F1E7C1
:10037000E168204600258847C4F81CA006460027EF
:10038000C4F818A02A2E09D0304601F027FF38B350
:1003900004EB8708303EC8F8186019E059F8041BD0
:1003A000204604EB87029161E1688847012F0646E9
:1003B00018D1E069002820DA25F020051DE0D8F8E2
:1003C000180000EB800006EB40003038C8F8180039
:1003D0002046E1688847064601F000FF0028EED17C
:1003E000012F0AD02E2E08D12046E16888477F1CB5
:1003F0000646022F45F02005C4DBA069002803DA79
:10040000404245F00105A061E80701D025F0100544
:10041000B6B1A6F14100192802D8203645F400658E
:100420004A463146204625604D46FFF7AFFE58B19B
:10043000012806D0ED1D25F0070000F1080989E725
:1004400004E005F1040985E730468AE7206ABDE843
:10045000F08710B5431C02E010F8011B71B1810751
:10046000FAD14FF0013202C88C1A8C4314EAC2113F
:10047000F9D0C01A0A0603D0C01E10BDC01A10BDA4
:100480000A0401D0801E10BD0902FCD0401E10BD20
:100490004FF0000200B5134694469646203922BF1D
:1004A000A0E80C50A0E80C50B1F12001BFF4F7AF68
:1004B000090728BFA0E80C5048BF0CC05DF804EB4A
:1004C000890028BF40F8042B08BF704748BF20F8B8
:1004D000022B11F0804F18BF00F8012B70477047B6
:1004E000704770472DE9F0470D46994692460446FD
:1004F00000F124080168880604D5E06921F01001A4
:10050000216000E00120A84201DD471B00E0002738
:10051000A1697A1902EB0900081AA0612078C006C7
:1005200002D42046FFF782FE002608E0D4E901212C
:100530001AF806009047206A401C761C20624E453F
:10054000F4DB2078C0060AD52046FFF76FFE06E0F0
:10055000D4E9012130209047206A401C2062381ED7
:10056000A7F10107F4DC07E0D4E9012118F8050040
:100570009047206A401C2062281EA5F10105F3DC8B
:100580002046FFF769FE2078000602D50220BDE86C
:10059000F0870120FBE7000001694A1C026108782E
:1005A000704700B58FB0CDE90131002105910549B3
:1005B0007944CDE9031011466846FFF7C3FE0FB03A
:1005C00000BD0000E5FFFFFF0A6802F8010B0A60AA
:1005D000704710B5436913B1AFF3008001E0FFF736
:1005E0004CFE012010BD127800F124010A70002297
:1005F0004A700122EDE711684FF0FF32E9E77546D6
:1006000000F02CF8AE4605006946534620F007007E
:10061000854618B020B5FFF7E3FDBDE820404FF058
:1006200000064FF000074FF000084FF0000BAC46FB
:10063000ACE8C009ACE8C009ACE8C009ACE8C00946
:1006400021F007018D46704710B50446AFF30080D6
:100650002046BDE81040FFF7AEBD000000487047DF
:100660001000002001491820ABBEFEE72600020062
:1006700070470000FEE700007047000070B581B0D1
:100680000022009290F82420012A03D1022108467A
:1006900001B070BD4A680123062A02EB820E80F881
:1006A000243007D8D0F800C06FF004030CF13406F2
:1006B0000CE000BFD0F800C00C2A87BF0CF12C065C
:1006C0006FF040030CF130066FF022030EEB0302D3
:1006D0001F23346803FA02F50B6824EA050503FAC0
:1006E00002F22A433260092B03EB43021AD9DCF8E9
:1006F0000C601E3A072589689540AE43914023F06F
:1007000001023143102ACCF80C1015D142F20041FD
:10071000C4F201018C4517D0816A41F02001816249
:1007200001210AE0DCF81030072689689640B343BF
:1007300091401943CCF810100021002280F82420A9
:10074000084601B070BD00BF89680902F4D4DCF826
:100750000810102B41F40001CCF80810ECD140F245
:100760000801C2F2000109684DF68362C4F21B322F
:10077000A1FB0212910C01EB81014900009100994B
:100780000029D9D000990139009100990029D3D0CE
:1007900000990139009100990029CDD000990139C3
:1007A000009100990029C7D0009901390091009962
:1007B00000294FF00001E5D1BFE700000068C06CE0
:1007C00070470000002804BF01207047B0B5044600
:1007D000806A28B120688168C9070CD032E000BF68
:1007E0000020E06284F82400204600F08FF82068A2
:1007F0008168C90726D1A16AC9063DD4A16A41F220
:10080000021291430231A162E169D4E9013241EA65
:10081000030C531EB3FA83F35D091346B2F5807FD0
:1008200018BF2B02217D257B01294CEA45012ED1E1
:1008300045B3A56A45F02005A562E56A45F00105C6
:10084000E56224E0816821F00101816000F044FB51
:10085000054600BF20688168C907CCD000F03CFB8A
:10086000401B0328F6D3A06A40F01000A062E06AA3
:1008700040F00100E062A06AA06A40F01000A062AF
:100880000120B0BDA56903EB4533A3F5C05345680E
:10089000B2F5807F25F4694543EA05034360836828
:1008A0004FF2FD75CFF6E17503EA050343EA010354
:1008B000836001D0012A07D122690023CFF6F073AB
:1008C00003EB025201E000BF0022C36A23F470036D
:1008D0001A43C262806840F6FE62CFF61F72104073
:1008E000884207D10020E062A16A012262F301017F
:1008F000A162B0BDA06A40F0100020F00200A0622A
:10090000E06A40F00100E0620120B0BD80B586B031
:10091000014640F60000C4F20100096800F5E0520B
:1009200091424FF00001CDE90411CDE9021101D04F
:1009300006B080BD41F21801C4F202010A6842F417
:1009400000720A600A6802F400720192019A0A6851
:1009500042F004020A60096801F004010191019962
:10096000012102910321039102A900F0ADF906B023
:1009700080BD00002DE9F04182B000270D460446FD
:10098000019700F0A9FA21688A68D20544D4064686
:100990004868C00503D4C86A10F4700F46D040F20E
:1009A0000800C2F20000076842F292480220C1F239
:1009B000492800F03BFB216844F624130A69B7FB81
:1009C000F0F0C2F292431A4206D1CA6844F62413E8
:1009D000C0F292031A4249D00A6912EA080F07D1FD
:1009E000CA6842F29243C0F249031A4200F084807E
:1009F0000A6949F24923C0F224031A424FF0FC026B
:100A000042D1CF681F4208BF5422019B02FB00F76E
:100A1000BB423ED379E000BFA06A40F02000A06254
:100A200084F82470012002B0BDE8F08108688007D6
:100A30006BD4002D55D0681C12D10868800764D48F
:100A4000086880075CBF08685FEA80705DD408684A
:100A50008007F2D559E000BF21680868800754D4A8
:100A600000F03AFA801BA842F6D93AE00A6912EA85
:100A7000080F4FF0290207D1CB6842F29247C0F22B
:100A800049073B4208BF1422019B02FB00F7BB420F
:100A90003BD235B3681C1FD10198013001900198F9
:100AA000B84232D20198013001900198B8422CD25C
:100AB0000198013001900198B84226D20198013086
:100AC00001900198B842E7D31FE000BF01980130C0
:100AD00001900198B84217D200F0FEF9801BA8429D
:100AE000F4D9A06A40F00400A062002084F8240039
:100AF000032002B0BDE8F0815422019B02FB00F705
:100B0000BB42C6D301E000BF21686FF0120008604D
:100B1000A06A40F40070A062886800F46020B0F51C
:100B2000602F01D1207B18B1002002B0BDE8F08118
:100B3000A06A20F48070A062A06AC004F4D4A06A05
:100B400040F00100A062002002B0BDE8F08100008A
:100B5000B0B582B0044690F82400012802D10220EA
:100B600002B0B0BD012084F824000020019020686C
:100B70008168C90742D1816841F00101816040F27A
:100B80000800C2F2000000684DF68361C4F21B3118
:100B9000A0FB0101880C01900198A0B101980138D7
:100BA0000190019878B1019801380190019850B1F5
:100BB000019801380190019828B1019801380190FD
:100BC00001980028EAD100F087F90546206881687D
:100BD000C90713D100F080F9401B0228F6D9A06A9A
:100BE00040F01000A062E06A40F00100E0620020E6
:100BF00084F82400012002B0B0BD00BFA26A42F216
:100C0000044140F20133C4F201019A4302F58073BA
:100C100001F57F729042A3622AD0A36A23F4801365
:100C2000A36243685B0504D5A36A012565F30D3310
:100C3000A362A56A0023ED044FF0000544BFE56AF6
:100C400025F00605E56284F824306FF002030360A6
:100C5000836803F46023B3F5602F19D1904213D059
:100C6000816841F4A0018160002002B0B0BD00BFE6
:100C70000B6813F4702FD0D0A36A43F48013A362DF
:100C80000B685B05D0D4D4E7096811F4702FE7D066
:100C9000816841F480118160002002B0B0BD000085
:100CA000B0B5044600F018F9054640F20000C2F263
:100CB00000000078611C18BF044400BF00F00CF96C
:100CC000401BA042FAD3B0BD2DE9F04F82B00E68B0
:100CD000002E00F0F78040F20C4C40F2004E41F242
:100CE0000002C4F2010CC4F2010EC4F20102032797
:100CF000002401234FF0000B4FF00009904208BF81
:100D00000227009742E000BF002704F00C030F22E7
:100D10009A402AEA020207FA03F34FEA9B051A43B4
:100D200046F825204E68F203DEF8002054BF22EA80
:100D3000080242EA0802CEF80020DEF80420B303DD
:100D400054BF22EA080242EA0802CEF80420F30265
:100D5000DEF8082054BF22EA080242EA0802B30281
:100D6000CEF80820DCF800204FF0010354BF22EA3F
:100D7000080242EA0802CCF800200E680BF1010BD1
:100D800036FA0BF204F1040400F09C8003FA0BFA2B
:100D900016EA0A08F1D04E684FF6FF72C1F210024F
:100DA000964211DC122E55D8DFE806F0340A4C4882
:100DB000545454545454545454545454544450005B
:100DC000D1F80C9046E000BF4FF6FF72C1F221024D
:100DD00096420FDC0022C1F2110296421AD0002284
:100DE000C1F21202964215D00022C1F221029642AF
:100DF00010D02FE00022C1F2220296420AD0002237
:100E0000C1F23102964205D00022C1F2320296426E
:100E100020D100BF8A684AB1012A14BFC0F814A0CB
:100E2000C0F810A04FF0080914E000BF4FF004090B
:100E300010E000BFCA6802F104090BE04FF000099E
:100E400008E000BFCA6802F1080903E0CA6802F1BD
:100E50000C0900BF02462646B8F5807F24BF043245
:100E6000203E17680F25B54027EA050509FA06F662
:100E700035431560CA79D2067FF57FAF41F218037A
:100E8000C4F202031A68AEF57E7642F001021A60DF
:100E90001A6802F001020192019A2BF0030256F83F
:100EA00002A040F60002C4F2010290423FF42CAFCF
:100EB00040F60042C4F20102009F904208BF0127A1
:100EC00023E700BF02B0BDE8F08F0000002A08BF92
:100ED000090401617047000040F20C10C2F20000EA
:100EE0000068704740F2000040F20C11C2F20000AE
:100EF000C2F2000100780A681044086070470000E0
:100F000080B542F20000C4F20200016841F0100115
:100F10000160032000F07AF80F2000F005F800F0DF
:100F200027F8002080BD000070B540F20006C2F234
:100F3000000640F208013278C2F200014FF47A73E1
:100F40000968B3FBF2F20446B1FBF2F1084600F087
:100F500071FC0F2C4FF0010508D838B94FF0FF3065
:100F600021460022002500F025F87460284670BD57
:100F700082B041F21800C4F202000168042241F07C
:100F800001010160016801F00101019101994168CD
:100F900041F080514160406800F08050009000981E
:100FA0000420C4F20100016862F31A61016002B01A
:100FB0007047000010B54EF60C5CCEF2000CDCF869
:100FC0000030C3F3022E8EF00704042C28BF042443
:100FD000BEF103034FF0FF3E0EFA04F438BF0023C6
:100FE000A14399400EFA03F39A43114300F00F0214
:100FF00000F160430901043A03F5644362440028A8
:1010000048BF02F10C03197010BD00004EF60C51E0
:10101000CEF200010A684FF6FF031A4060F30A227D
:1010200042F0806040F0FD7008607047012821D0D8
:1010300002280DD0102808D141F20401C4F20201A7
:101040000A6851F8040CC00134D40020704700BF76
:1010500080B500F0DBF941F20401C4F20201096835
:101060000222C1F3813102EB4101B0FBF1F0BDE896
:101070008040704741F20400C4F20200C16940F2AE
:1010800002320A40B2F5817F04BF4FF4004070473E
:1010900001F44071B1F5407F18D0B1F5007F1CBF5D
:1010A00000207047006A49F64041800701EAE0707D
:1010B000704700BFC2F3834015A3185CD2030DD460
:1010C00040F60012C0F23D02504313E050F8040C09
:1010D0004FF22441800301EAE07070470A6810A3D0
:1010E000C2F340429A5C41F20023C0F27A03B3FBA0
:1010F000F2F250430968490248BF70474AF6AB21F3
:101100004000CAF6AA21A0FB01014808704700BFB1
:1011100002030405060708090A0B0C0D0E0F101038
:10112000010200002DE9F04182B00446007841F24E
:101130001C06C007C4F202064AD030685FEAC00845
:1011400008D4306840F080503060306800F0805043
:101150000190019847F20007C4F200073868C00503
:1011600012D4386840F480703860FFF7B5FE054649
:101170003868C00508D4FFF7AFFE401B6428F7D9D4
:10118000032002B0BDE8F081706810F4407012D006
:10119000616801F4407188420DD0706840F24042AD
:1011A000C4F24222012320F4407113600023C007DF
:1011B0001360716026D17068616820F44070084344
:1011C000B8F1000F706003D4306820F080503060B8
:1011D0002068810707D556F8181CA26821F4404101
:1011E000114346F8181CC00607D556F8180CE168DC
:1011F00020F48000084346F8180C002002B0BDE837
:10120000F08100BFFFF768FE054641F2883700BF56
:1012100070688007CFD4FFF75FFE401BB8424FF0E5
:101220000300F5D9EAE70000002804BF0120704759
:101230002DE9F04381B042F20008C4F202080446EE
:10124000D8F800000D4600F0070081420CD9D8F80C
:10125000000020F007002843C8F80000D8F800007C
:1012600000F00700A8426CD1206841F20409810710
:10127000C4F2020917D5410705D5D9F8001041F489
:10128000E061C9F80010010705D5D9F8001041F454
:101290006051C9F80010D9F80010A26821F0F001DF
:1012A0001143C9F80010C00742D1D8F8000000F07F
:1012B000070085420CD2D8F8000020F00700284330
:1012C000C8F80000D8F8000000F00700A84238D1A4
:1012D0002068410707D5D9F80010E26821F4E061E1
:1012E0001143C9F80010000708D5D9F8000021699A
:1012F00020F4605040EAC100C9F80000D9F800208D
:1013000002F00C00082841F20020C0F27A004DD112
:1013100042F20423C2F38341C0F60003595CD203B6
:1013200038D440F60010C0F23D0048433EE000BF14
:10133000606859F8041C022808D0012826D18903C6
:1013400006D4012001B0BDE8F08300BF8901F8D5C3
:10135000D9F8001021F003010843C9F80000FFF795
:10136000BBFD064641F28837D9F80000616800F0FD
:101370000C00B0EB810F98D0FFF7AEFD801BB84298
:10138000F2D9032001B0BDE8F08300BF8907D8D5AA
:10139000DEE700BFD9F8002042F2EA13C2F3404270
:1013A000C0F600039A5C4843B0FBF2F0D9F8001095
:1013B00042F2EC12C1F30311C0F60002515C40F29C
:1013C000080220FA01F140F20400C2F200000068B5
:1013D000C2F200021160FFF7A7FD002001B0BDE8D6
:1013E000F083000040F2080041F20401C2F2000064
:1013F000C4F202010068096842F2FC12C1F3022142
:10140000C0F60002515CC8407047000040F208007E
:1014100041F20401C2F20000C4F20201006809684E
:1014200042F2FC12C1F3C221C0F60002515CC84076
:1014300070470000002804BF012070472DE9F041EB
:1014400082B00446007841F20006C007C4F20206EA
:101450000CD0706800F00C00042840F081803068E7
:10146000800303D56068002800F04681207880075B
:101470001BD5706810F00C0F09D0706800F00C00DC
:10148000082840F087807068C00300F183803068CE
:10149000800703D52069012840F02E8130686169FA
:1014A00020F0F80040EAC10030602078000713D433
:1014B000207840072CD4E569002D00F01881706871
:1014C00000F00C00082840F0A780012D40F00481B6
:1014D000012002B0BDE8F081A069002800F08480FE
:1014E0000020C4F242200121C0F88014FFF7F4FC70
:1014F000054600BF706A800700F1B280FFF7ECFC80
:10150000401B0228F6D9032002B0BDE8F08100BFDD
:10151000F0695FEAC00808D4F06940F08050F061DB
:10152000F06900F080500090009847F20007C4F284
:1015300000073868C00549D4386840F480703860C6
:10154000FFF7CAFC054600BF3868C0053ED4FFF768
:10155000C3FC401B6428F7D9032002B0BDE8F0812A
:10156000706800F00C00082803D17068C0033FF5D4
:1015700076AF61683068002900F00C81B1F5A02FCA
:1015800000F00081B1F5803F40F01A8140F48030D6
:101590001CE100BF2069002840F20000C4F2422094
:1015A00000F0888001210160FFF796FC054600BF2E
:1015B000306880073FF572AFFFF78EFC401B0228B2
:1015C000F6D9032002B0BDE8F08100BFE168306ABF
:1015D000002900F09D80052900F09280012940F04B
:1015E000AF8040F00100B1E00020C4F242200021B1
:1015F000C0F88014FFF770FC054600BF706A8007D2
:101600007FF556AFFFF768FC401B0228F6D9032090
:1016100002B0BDE8F08100BF0027C4F242270020DD
:101620003866FFF759FC022D05460DD13068800160
:1016300040F1DE80FFF750FC401B02284FF0030012
:10164000F4D902B0BDE8F081306880014FD5FFF7D2
:1016500043FC401B02284FF00300F5D9F1E700BF1F
:1016600040F20800C2F20000006844F6D351C1F213
:101670006201A0FB0101480A019000BF00BF019870
:10168000411E002801913FF413AF00BF0198411E95
:10169000002801913FF40CAF00BF0198411E0028C3
:1016A00001913FF405AF00BF0198411E0028019150
:1016B000E4D1FDE600210160FFF70EFC054600BF06
:1016C000306880077FF5F1AEFFF706FC401B02286B
:1016D0004FF00300F4D9B4E77068216A00F4803257
:1016E0008A4209D1616A00F47010884204D1002056
:1016F00002B0BDE8F08100BF012002B0BDE8F0817A
:1017000040F004003062306A40F001001EE000BF8B
:1017100020F001003062306A20F004003062FFF7F0
:10172000DBFB054641F28837306A800720D5FFF79A
:10173000D3FB401BB8424FF00300F5D981E700BF4F
:1017400020F001003062306A20F004003062FFF7C0
:10175000C3FB054641F28837306A800708D4FFF79B
:10176000BBFB401BB842F7D9032002B0BDE8F081B3
:10177000B8F1000F3FF59FAEF06920F08050F061A6
:1017800099E600BF40F480203060306840F480303B
:101790001CE000BF20F480303060306820F48020EE
:1017A0003060FFF799FB0546306880037FF55EAE39
:1017B000FFF792FB401B64284FF00300F4D940E789
:1017C00020F480303060306820F480203060FFF7F3
:1017D00083FB0546306880033FF548AEFFF77CFB8E
:1017E000401B6428F6D9032002B0BDE8F08100BF99
:1017F000206AB0F5803F05D17168A26821F40031FC
:10180000114371607168626A21F4741111430843D5
:10181000706001203866FFF75FFB04463068800186
:101820003FF565AFFFF758FB001B02284FF00300A0
:10183000F4D906E7411E0020B0EB116F1CBF012058
:1018400070474EF21002CEF2000251604EF6235164
:10185000CEF20001F0230B700721906011607047F9
:10186000002804BF0120704710B5044690F83900E5
:1018700028B9002084F83800204600F061F82420C0
:1018800084F839002068D4E90212C36823F40053B5
:10189000C360036923F440531A430261D4E904236B
:1018A0001143C268194341F20C639A431143C1606A
:1018B0004169A26921F44071114343F60002C4F268
:1018C00001029042416103D0FFF78CFD02E000BFAE
:1018D000FFF79CFDD4E90023192148439900B0FB90
:1018E000F1F048F21F5CC5F2EB1CA0FB0C314FF687
:1018F0009C734909C0F6FF7301FB0300322303EB1D
:101900000010A0FB0C03F02000EA531000EB0110C4
:10191000C3F34311084490601069202120F49040E3
:101920001061506920F02A005061D06840F40050E6
:10193000D0600020E06384F8391084F83A1010BDBC
:1019400070B586B040F60004C4F20104006804F5E6
:101950004051002688420596CDE90366029601D0E3
:1019600006B070BD41F21800C4F20200016802AD79
:1019700041F480410160016801F4804101910199C5
:10198000016841F0040101600068294600F004008C
:10199000019001984FF40070029002200390032000
:1019A00005902046FFF790F94FF48060CDE90206DC
:1019B000204629460496FFF787F906B070BD00005F
:1019C0002DE9F041044690F8390020280CD10E464C
:1019D00000294FF0010018BF002A01D1BDE8F081B5
:1019E00094F83800012803D10220BDE8F08100BF3F
:1019F000012084F838000020E06321201D4684F88F
:101A000039001746FFF768FAA784E784E18C074698
:101A100000295FD005F1010806E000BF16F8011BA0
:101A20004160E18C002956D0E08C0138E0842068C8
:101A3000A1680268B1F5805F4FEA02611CD10029FC
:101A40000DD4B8F1000F29D0002D6AD0FFF744FA69
:101A5000C11B2068A94264D801680906F6D53188FF
:101A60006FF35F2141602169002914BF01360236FE
:101A7000E18C0029D8D12EE00029CFD4B8F1000F95
:101A80001AD0002D4DD000BFFFF726FAC11B2068E9
:101A9000A94246D801680906F6D5BFE701680906DC
:101AA000DDD4016809065CBF01685FEA0161D6D434
:101AB00001680906F2D5D2E701680906AED40168CB
:101AC00009065CBF01685FEA0161A7D401680906E5
:101AD000F2D5A3E72068016849060FD40DB3691C4D
:101AE00019D10168490609D4016849065CBF01683B
:101AF0005FEA416102D401684906F2D5202084F8EA
:101B000039000020002184F83810BDE8F08100BFC2
:101B100000684006F2D4FFF7DFF9C11B2068A94234
:101B2000F6D9C16821F4D071C160416921F0010189
:101B30004161202084F8390084F83A000320002114
:101B400084F83810BDE8F081FEE7000080B5012080
:101B5000002100F0DFF80220BDE88040FFF7A0B8C8
:101B600010B53220FFF79CF840F60044C4F201049F
:101B7000204608210022FFF7A9F920461021002263
:101B8000FFF7A4F9204620210122FFF79FF9204604
:101B900040210122FFF79AF9204680210022FFF719
:101BA00095F920464FF480710022FFF78FF9204607
:101BB00010210122FFF78AF90120FFF771F8204672
:101BC00010210022FFF782F90120FFF769F80520B4
:101BD000FFF766F8204620210122FFF777F920461B
:101BE00040210122FFF772F9204680210022FFF7F1
:101BF0006DF920464FF480710022FFF767F9204607
:101C000010210122FFF762F90120FFF749F8204671
:101C100010210022FFF75AF90120FFF741F80120B7
:101C2000FFF73EF8204620210122FFF74FF920461A
:101C300040210122FFF74AF9204680210022FFF7C8
:101C400045F920464FF480710022FFF73FF9204606
:101C500010210122FFF73AF90120FFF721F8204671
:101C600010210022FFF732F90120FFF719F80120B7
:101C7000FFF716F8204620210022FFF727F920461B
:101C800040210122FFF722F9204680210022FFF7A0
:101C90001DF920464FF480710022FFF717F9204606
:101CA00010210122FFF712F90120FEF7F9FF20466B
:101CB00010210022FFF70AF90120FEF7F1FF0120B1
:101CC000FEF7EEFF2820002100F024F80C20002170
:101CD00000F020F80620002100F01CF8012000216F
:101CE00000F018F80220BDE81040FEF7D9BF000050
:101CF0000178002908BF704710B5441EC8B2012101
:101D000000F008F8A17801340029F7D1BDE81040AF
:101D100070470000B0B540F60044C4F201040A4622
:101D2000054620460821FFF7D1F8C5F300122046EA
:101D30002021FFF7CBF8C5F3401220464021FFF7E2
:101D4000C5F8C5F3801220468021FFF7BFF8EA09E5
:101D500020464FF48071FFF7B9F820461021012288
:101D6000FFF7B4F80120FEF79BFF20461021002268
:101D7000FFF7ACF80120FEF793FF05F001022046C3
:101D80002021FFF7A3F8C5F3400220464021FFF7CA
:101D90009DF8C5F3800220468021FFF797F8C5F330
:101DA000C00220464FF48071FFF790F820461021C2
:101DB0000122FFF78BF80120FEF772FF2046102169
:101DC0000022FFF783F80120BDE8B040FEF768BFAE
:101DD00003A2105C08448038C0B20021FFF79ABF0C
:101DE00000401454FEE70000FEE7000070470000CA
:101DF00070470000FFF776B841F20000C4F202001D
:101E00000168002241F0010101604168CFF6FF0244
:101E10001140416001684FF6FF72CFF6F662114043
:101E20000160016821F480210160416821F4FE0114
:101E300041604FF41F0181604EF60850CEF2000061
:101E40004FF0006101607047FEE7000096B0FFF7B9
:101E500057F80CAC201D2421FEF71AFB02200C9031
:101E60000120109010200025119020460695CDE904
:101E700004551395FFF7DEFA20B1EFF3108072B628
:101E8000FEE700BF0F20CDE9070507A80021CDE937
:101E900009550B95FFF7C8F920B1EFF3108072B622
:101EA000FEE700BF0226002503A803960595FFF76D
:101EB00039F928B1EFF3108072B600BFFEE700BF1A
:101EC00041F21800CDE90E55CDE90C55C4F20200DF
:101ED000016840F6004441F0040101600168C4F269
:101EE000010401F00401079107990168002241F003
:101EF00008010160006843F6FF5100F008000790F8
:101F00000798204643F6FF57FEF7E0FF0C9701279E
:101F10000CA92046CDE90D750F96FEF7D5FE40F2CF
:101F20007006C2F2000604F5C051304640F82C1F7E
:101F30004FF4602107730575C161C0E90155076160
:101F4000FEF740FC20B1EFF3108072B6FEE700BF51
:101F500006F12C054FF000080CA92846CDE90C87A6
:101F6000CDF83880FEF78AFB20B1EFF3108072B60F
:101F7000FEE700BF40F2CC0004F53051C2F2000091
:101F80000C234FF4E13280E80601C0E90388C0E980
:101F90000538C0F81C80FFF763FC28B1EFF3108010
:101FA00072B600BFFEE700BF2846FEF7D1FDFFF77F
:101FB000D7FDFFF7CBFD00200021FFF709FF69A047
:101FC000FFF796FE01200021FFF702FF69A0FFF74F
:101FD0008FFE4FF4FA60FEF763FE029544E000BF07
:101FE000204601210022FEF771FF20460221012236
:101FF000FEF76CFF40F61900874287BF64204FF060
:10200000640B4FF4FA704FF4FA7BFEF749FE20465A
:1020100002210022FEF75AFF5846FEF741FE0CAEA1
:10202000304666A142464B46FEF7ECF807AD002766
:10203000284667A152468DF84070FEF7E3F800206D
:1020400000218DF82C70FFF7C3FE3046FFF750FEDD
:1020500001200021FFF7BCFE2846FFF749FE40F2B1
:102060007006029DC2F2000628464FF0FF31FEF7CF
:1020700081FC2846FEF7A2FB87B28C2140F60102C4
:102080007943C0F28002A1FB02234DF69B12C0F2FD
:10209000CC02A1FB02123080D80841F69A114143CC
:1020A000090C01EB8101A0EB41004FEAD2181FFAA5
:1020B00080F920464FF480610122FEF707FF40F2CD
:1020C0001C4087424FF0000220464FF4006188BF59
:1020D0000122FEF7FBFEFA0A20464FF4805118BF9A
:1020E0000122FEF7F3FEB80A02284FF00002204654
:1020F0004FF4005188BF0122FEF7E8FE308840F619
:102100001A0188420FF2880A1EA138BF8A4640F29F
:102110003331884221A006F1020738BF8246384693
:1021200021A142464B46CDF800A0FEF76BF8384699
:10213000FEF78FF982B240F2CC00C2F200003946BD
:102140004FF0FF33FFF73CFC378840F232308742D4
:102150003FF646AF204601210122FEF7B7FE4FF4BD
:10216000FA7B54E7536D61727420466163746F7239
:1021700079000000496E697469616C697A696E67FB
:102180002E2E2E005741524E494E4721000000008E
:1021900044414E4745522121000000004E4F524D10
:1021A000414C2020000000005669623A25752E251A
:1021B00075206D6D2F732025730D0A005669623AE4
:1021C0002532752E2575206D6D2F7320200000009F
:1021D0005374617475733A202573000030380A28EF
:1021E00001D201207047002070470102000000006A
:1021F00000000000010203040607080900000000B7
:102200000102030402030405060708090A0B0C0D6A
:102210000E0F1010382200080000002010000000EF
:1022200050010008482200081000002000070000AC
:102230007001000800000000010000001000000014
:082240000024F400000000007E
:04000005080000ED02
:00000001FF
