:020000040800F2
:10000000B8080020D10100081D1D0008751A00085D
:10001000191D00085D08000889250008000000007F
:100020000000000000000000000000000D25000896
:100030006108000800000000211D000811250008CB
:10004000EB010008EB010008EB010008EB010008E0
:10005000EB010008EB010008EB010008EB010008D0
:10006000EB010008EB010008EB010008EB010008C0
:10007000EB010008EB010008EB010008EB010008B0
:10008000EB010008EB010008EB010008EB010008A0
:10009000EB010008EB010008EB010008EB01000890
:1000A000EB010008EB010008EB010008EB01000880
:1000B000EB010008EB010008EB010008EB01000870
:1000C000EB010008EB010008EB010008EB01000860
:1000D000EB010008712500087D250008EB010008F0
:1000E000EB010008EB010008EB01000800F002F84A
:1000F00000F05EF814A696E8000CB244B344DA456A
:1001000001D100F055F8BAE80F000FA696E83000CC
:10011000A5EB040504EB0607AAEB0704A7F101070A
:100120004FEA15154FEA3414A4F10104AC4201D38F
:1001300000F03EF813F0010F18BFFB1A43F0010363
:1001400000F001F8DBE71847FC2600001C27000040
:10015000103A24BF78C878C1FAD8520724BF30C8F3
:1001600030C144BF04680C60704700007047000055
:100170000023002400250026103A28BF78C1FBD8B0
:10018000520728BF30C148BF0B607047732900F089
:100190006382002070471FB500F03CFB0400002084
:1001A000002102F0FFFA401C60601FBD10B510BDB9
:1001B00000F00BFB1146FFF7EEFF02F0E7F900F04D
:1001C0003BFB03B4FFF7F2FF03BC00F03FFB000072
:1001D0000948804709480047FEE7FEE7FEE7FEE7DB
:1001E000FEE7FEE7FEE7FEE7FEE7FEE70448054917
:1001F000054A064B7047000015250008ED00000871
:10020000B8020020B8080020B8040020B80400207C
:100210000FB41CB50C0007AA009007D04142A142C0
:1002200002D32044401E01E04FF0FF30074B7B44D7
:1002300069460190069800F0E2F90020002C01D0F8
:10024000009908701CBC5DF814FB0000F30300006B
:100250002DE9F0410E460446002020622046E16868
:10026000884730B3252805D0D4E901219047206A7A
:10027000401CF2E7E168204600278847050018D0B7
:10028000A5F14100192802D820354FF40067324605
:10029000294620462760FFF779FF40B1012804D0A6
:1002A000F61D26F007060836D8E7361DD6E728469D
:1002B000DAE7206ABDE8F08170B50C460546012AF0
:1002C00005D02878800600D5EA69002302E00123E2
:1002D00005E05B1C934202D2E05C0028F9D1A869DA
:1002E000E618C01AA861286A184428622846AFF3A5
:1002F000008004E0D5E9012114F8010B9047B442D5
:10030000F8D32846AFF3008070BD70B5064600F004
:100310006DF90468054630460A22002100F0A0F974
:100320002C6070BD401ECAB210F8011F8A4202D074
:100330000029F9D10020704730B503461D781DB162
:100340000A4603E0AC4201D1181A30BD12F8014B45
:10035000002CF7D15B1CF1E730B505460B462A4669
:1003600013F8014B12F8010B08B1A042F8D01CB1F0
:10037000002802D06D1CF1E7284630BD40EA010399
:1003800010B59B070FD1042A0DD310C808C9121F3E
:100390009C42F8D020BA19BA884201D9012010BD78
:1003A0004FF0FF3010BD1AB1D30703D0521C07E045
:1003B000002010BD10F8013B11F8014B1B1B07D1A9
:1003C00010F8013B11F8014B1B1B01D1921EF1D11A
:1003D000184610BD40EA0103024630B59B0710D114
:1003E0004FF0013400E008C208C91D1B9D4315EA07
:1003F000C41FF8D013F0FF0102F8011B0DD01B0A37
:10040000F8E711F8013B002B02F8013B05D011F889
:10041000013B002B02F8013BF3D130BD10B5431C6A
:1004200002E010F8011B71B18107FAD14FF00132DF
:1004300002C88C1A8C4314EAC211F9D0C01A0A06F9
:1004400003D0C01E10BDC01A10BD0A0401D0801E0A
:1004500010BD0902FCD0401E10BD10B5203AC0F0FE
:100460000B80B1E81850A0E81850B1E81850A0E887
:100470001850203ABFF4F5AF5FEA027C24BFB1E820
:100480001850A0E8185044BF18C918C0BDE8104063
:100490005FEA827C24BF51F8043B40F8043B08BF6C
:1004A0007047D20728BF31F8023B48BF11F8012B33
:1004B00028BF20F8023B48BF00F8012B70474FF0DF
:1004C000000200B5134694469646203922BFA0E8A4
:1004D0000C50A0E80C50B1F12001BFF4F7AF0907B0
:1004E00028BFA0E80C5048BF0CC05DF804EB8900A1
:1004F00028BF40F8042B08BF704748BF20F8022BE4
:1005000011F0804F18BF00F8012B704710B504465A
:1005100010F0030F08BF11F0030F40F015804FF0EB
:10052000013E121FC0F20E8051F8043BA3EB0E0CEB
:100530002CEA030C1CEACE1C08BF40F8043BF0D0A8
:10054000A1F1040102F10402521E08DB11F8013B83
:1005500000F8013B002BF7D1114600F0B9F8204616
:1005600010BD00004FF0013C50F8042B51F8043B43
:100570009A4221D1A2EB0C03934313EACC1317D177
:1005800050F8042B51F8043B9A4215D1A2EB0C030E
:10059000934313EACC130BD150F8042B51F8043BCE
:1005A0009A4209D1A2EB0C03934313EACC13DBD09C
:1005B0004FF00000704700BFD01A01BAB1FA81F1C4
:1005C00001F0180122FA01F0CB40DBB2C0B2C01A30
:1005D000C1F120012CFA01F3D11A914311EAC311A0
:1005E000E6D1704770477047704700000048704779
:1005F0001000002001694A1C02610878704700B5AC
:100600008FB0CDE901310021059105497944CDE94B
:10061000031011466846FFF71BFE0FB000BD000037
:10062000E5FFFFFFD1E900239A4202D2531C0B6081
:100630001070704710B5436913B1AFF3008001E04B
:10064000FFF73AFE012010BD127800F124010A7074
:1006500000224A700122EDE711684FF0FF32E9E70E
:100660002DE9F04791460F4680460446002614F8CF
:10067000015B2DB100F052F80068405DC007F6D173
:100680002B2D02D02D2D18D0641E4A463946204607
:1006900000F04CF827B13968A14201D1C7F80080B9
:1006A0004FF0020471050BD54042002803DDFFF72F
:1006B0009DFF0460A007BDE8F08746F48066E4E78C
:1006C0000028F8DAFFF792FF04606FF00040F2E7CD
:1006D0004FF000020429C0F0128010F0030C3FF428
:1006E000F0AECCF1040CBCF1020F18BF00F8012BE6
:1006F000A8BF20F8022BA1EB0C01FFF7E2BE5FEAD6
:10070000C17C24BF00F8012B00F8012B48BF00F882
:10071000012B7047004870471000002010B500F012
:1007200079F8001D10BD00BF7D2000002DE9F05FAD
:10073000824615468B4600270AF10104B946007827
:10074000302801D09DB113E014F8010B012778285F
:1007500003D0582801D045B10AE00DB1102D07D1C2
:10076000002714F8010B102502E0082500E00A25F7
:100770000026B0460EE005FB080005FB06F1012748
:100780001FFA80F801EB1046B6F5803F00D3B9465A
:1007900014F8010B294600F041F80028EBDABBF110
:1007A000000F05D00FB1641E00E05446CBF80040A6
:1007B000B9F1000F06D0FFF719FF02210160C81E32
:1007C000BDE8F09F48EA0640FAE77546FFF7A2FF4A
:1007D000AE4605006946534620F00700854618B02E
:1007E00020B5FFF703FDBDE820404FF000064FF0B5
:1007F00000074FF000084FF0000BAC46ACE8C00912
:10080000ACE8C009ACE8C009ACE8C00921F00701B8
:100810008D46704700487047300000203A2800D2CB
:10082000303820F02002412A01D3A2F1370088425B
:1008300001D34FF0FF30704710B50446AFF300808E
:100840002046BDE81040FFF7BCBC0000014918205D
:10085000ABBEFEE72600020070470000FEE7000086
:100860007047000090F82110022923D1026840F25D
:10087000040C1168C4F2020C21F00E01116013681F
:100880002F21C4F202018A4223F00103136015DD17
:100890003023C4F202039A421CD04423C4F2020360
:1008A0009A421BD05823C4F202039A421CD14FF43F
:1008B000803321E004218163012070470823C4F2C2
:1008C00002039A420ED01C23C4F202039A420BD1B7
:1008D000102311E04FF480730EE000BF4FF48053FB
:1008E0000AE000BF012307E00CF168014FF08073BC
:1008F0008A4208BF4FF48013CCF80030416B4FF4AC
:1009000080720029028404BF0020704780B58847A8
:10091000002080BDB0B5044600F020F9054640F245
:100920000000C2F200000078611C18BF044400BF40
:1009300000F014F9401BA042FAD3B0BD2DE9F04FEE
:1009400082B00E68002E00F0FF8040F20C4C40F2A6
:10095000004E41F20042C4F2010CC4F2010EC4F296
:1009600001020427002401234FF0000A4FF0000980
:10097000904208BF0327009749E000BF41F2000200
:10098000C4F20102009F904208BF022704F00C034A
:100990000F229A402BEA020207FA03F34FEA9A0564
:1009A0001A4346F825204E68F203DEF8002054BFB3
:1009B00022EA080242EA0802CEF80020DEF804200B
:1009C000B30354BF22EA080242EA0802CEF8042028
:1009D000F302DEF8082054BF22EA080242EA0802C5
:1009E000B302CEF80820DCF800204FF0010354BF1A
:1009F00022EA080242EA0802CCF800200E680AF156
:100A0000010A36FA0AF204F1040400F09D8003FAA8
:100A10000AFB16EA0B08F1D04E684FF6FF72C1F2DE
:100A20001002964212DC122E56D8DFE806F0350B83
:100A30004D4955555555555555555555555555458A
:100A4000510000BFD1F80C9046E000BF4FF6FF7296
:100A5000C1F2210296420FDC0022C1F2110296423D
:100A60001AD00022C1F21202964215D00022C1F221
:100A70002102964210D02FE00022C1F222029642BB
:100A80000AD00022C1F23102964205D00022C1F202
:100A90003202964220D100BF8A684AB1012A14BFAF
:100AA000C0F814B0C0F810B04FF0080914E000BF4F
:100AB0004FF0040910E000BFCA6802F104090BE01E
:100AC0004FF0000908E000BFCA6802F1080903E01E
:100AD000CA6802F10C0900BF02462646B8F5807FBD
:100AE00024BF0432203E17680F25B54027EA0505CC
:100AF00009FA06F635431560CA79D2067FF57EAF4E
:100B000041F21803C4F202031A68AEF57E7642F091
:100B100001021A601A6802F001020192019A2AF099
:100B2000030256F802B040F60002C4F201029042FD
:100B300008D040F60042C4F2010290427FF41EAF9A
:100B4000012723E7002721E702B0BDE8F08F00006E
:100B5000002A08BF090401617047000040F2B42078
:100B6000C2F200000068704740F2000040F2B42179
:100B7000C2F20000C2F2000100780A681044086066
:100B80007047000080B542F20000C4F20200016824
:100B900041F010010160032000F08CF80F2000F0FC
:100BA00005F800F027F8002080BD000070B540F285
:100BB0000006C2F2000640F208013278C2F20001DB
:100BC0004FF47A730968B3FBF2F20446B1FBF2F119
:100BD000084600F085FB0F2C4FF0010508D838B906
:100BE0004FF0FF3021460022002500F037F87460F6
:100BF000284670BD82B041F21800C4F202000168BC
:100C0000022241F001010160016801F0010101913E
:100C10000199416841F080514160406800F0805086
:100C2000009000980420C4F20100016862F31A6188
:100C3000016002B070470000002848BF704700F014
:100C40001F01012202FA01F11C2202EAD0004EF239
:100C50000012CEF2000281507047000010B54EF62F
:100C60000C5CCEF2000CDCF80030C3F3022E8EF0E8
:100C70000704042C28BF0424BEF103034FF0FF3EF9
:100C80000EFA04F438BF0023A14399400EFA03F38F
:100C90009A43114300F00F0200F160430901043A46
:100CA00003F564436244002848BF02F10C03197045
:100CB00010BD00004EF60C51CEF200010A684FF64E
:100CC000FF031A4060F30A2242F0806040F0FD709A
:100CD00008607047002804BF012070472DE9F043E9
:100CE00081B042F20008C4F202080446D8F80000BD
:100CF0000D4600F0070081420CD9D8F8000020F022
:100D000007002843C8F80000D8F8000000F00700EA
:100D1000A8426CD1206841F204098107C4F202099B
:100D200017D5410705D5D9F8001041F4E061C9F89D
:100D30000010010705D5D9F8001041F46051C9F839
:100D40000010D9F80010A26821F0F0011143C9F891
:100D50000010C00742D1D8F8000000F0070085421B
:100D60000CD2D8F8000020F007002843C8F8000093
:100D7000D8F8000000F00700A84238D120684107E9
:100D800007D5D9F80010E26821F4E0611143C9F8F1
:100D90000010000708D5D9F80000216920F4605040
:100DA00040EAC100C9F80000D9F8002002F00C00A8
:100DB000082841F20020C0F27A004DD142F2EA73D5
:100DC000C2F38341C0F60003595CD20338D440F625
:100DD0000010C0F23D0048433EE000BF606859F893
:100DE000041C022808D0012826D1890306D401203A
:100DF00001B0BDE8F08300BF8901F8D5D9F8001033
:100E000021F003010843C9F80000FFF7A7FE0646DA
:100E100041F28837D9F80000616800F00C00B0EBAF
:100E2000810F98D0FFF79AFE801BB842F2D90320B9
:100E300001B0BDE8F08300BF8907D8D5DEE700BF69
:100E4000D9F8002042F2D073C2F34042C0F600034A
:100E50009A5C4843B0FBF2F0D9F8001042F2D2722B
:100E6000C1F30311C0F60002515C40F2080220FAFF
:100E700001F140F20400C2F200000068C2F2000278
:100E80001160FFF793FE002001B0BDE8F083000081
:100E900040F2080041F20401C2F20000C4F2020173
:100EA0000068096842F2E272C1F30221C0F6000252
:100EB000515CC8407047000040F2080041F2040154
:100EC000C2F20000C4F202010068096842F2E27254
:100ED000C1F3C221C0F60002515CC8407047000057
:100EE000002804BF012070472DE9F04182B004467C
:100EF000007841F20006C007C4F202060CD0706808
:100F000000F00C00042840F081803068800303D595
:100F10006068002800F04681207880071BD5706843
:100F200010F00C0F09D0706800F00C00082840F099
:100F300087807068C00300F183803068800703D524
:100F40002069012840F02E813068616920F0F800A6
:100F500040EAC10030602078000713D420784007B1
:100F60002CD4E569002D00F01881706800F00C00A9
:100F7000082840F0A780012D40F00481012002B034
:100F8000BDE8F081A069002800F084800020C4F250
:100F900042200121C0F88014FFF7E0FD054600BFA4
:100FA000706A800700F1B280FFF7D8FD401B02286D
:100FB000F6D9032002B0BDE8F08100BFF0695FEA16
:100FC000C00808D4F06940F08050F061F06900F08A
:100FD00080500090009847F20007C4F2000738687C
:100FE000C00549D4386840F480703860FFF7B6FD1A
:100FF000054600BF3868C0053ED4FFF7AFFD401B73
:101000006428F7D9032002B0BDE8F081706800F0D1
:101010000C00082803D17068C0033FF576AF616803
:101020003068002900F00C81B1F5A02F00F000819C
:10103000B1F5803F40F01A8140F480301CE100BFE0
:101040002069002840F20000C4F2422000F08880AD
:1010500001210160FFF782FD054600BF306880076F
:101060003FF572AFFFF77AFD401B0228F6D9032047
:1010700002B0BDE8F08100BFE168306A002900F0ED
:101080009D80052900F09280012940F0AF8040F05A
:101090000100B1E00020C4F242200021C0F8801419
:1010A000FFF75CFD054600BF706A80077FF556AF0D
:1010B000FFF754FD401B0228F6D9032002B0BDE81B
:1010C000F08100BF0027C4F2422700203866FFF7F6
:1010D00045FD022D05460DD13068800140F1DE80CE
:1010E000FFF73CFD401B02284FF00300F4D902B08B
:1010F000BDE8F081306880014FD5FFF72FFD401B20
:1011000002284FF00300F5D9F1E700BF40F20800D4
:10111000C2F20000006844F6D351C1F26201A0FBA4
:101120000101480A019000BF00BF0198411E00283C
:1011300001913FF413AF00BF0198411E00280191B7
:101140003FF40CAF00BF0198411E002801913FF40D
:1011500005AF00BF0198411E00280191E4D1FDE6D2
:1011600000210160FFF7FAFC054600BF30688007E8
:101170007FF5F1AEFFF7F2FC401B02284FF00300B1
:10118000F4D9B4E77068216A00F480328A4209D148
:10119000616A00F47010884204D1002002B0BDE8FA
:1011A000F08100BF012002B0BDE8F08140F00400F2
:1011B0003062306A40F001001EE000BF20F0010004
:1011C0003062306A20F004003062FFF7C7FC054649
:1011D00041F28837306A800720D5FFF7BFFC401BFB
:1011E000B8424FF00300F5D981E700BF20F00100BD
:1011F0003062306A20F004003062FFF7AFFC054631
:1012000041F28837306A800708D4FFF7A7FC401BFB
:10121000B842F7D9032002B0BDE8F081B8F1000F61
:101220003FF59FAEF06920F08050F06199E600BF75
:1012300040F480203060306840F480301CE000BF13
:1012400020F480303060306820F480203060FFF778
:1012500085FC0546306880037FF55EAEFFF77EFCB7
:10126000401B64284FF00300F4D940E720F480309D
:101270003060306820F480203060FFF76FFC054656
:10128000306880033FF548AEFFF768FC401B6428D8
:10129000F6D9032002B0BDE8F08100BF206AB0F5A6
:1012A000803F05D17168A26821F40031114371605B
:1012B0007168626A21F4741111430843706001205F
:1012C0003866FFF74BFC0446306880013FF565AF98
:1012D000FFF744FC001B02284FF00300F4D906E797
:1012E000411E0020B0EB116F1CBF012070474EF271
:1012F0001002CEF2000251604EF62351CEF20001F0
:10130000F0230B70072190601160704782B0006875
:1013100044F20041C4F2000188421BD043F60001B0
:10132000C4F2010188421CBF02B070470021019144
:101330000168019140680190019840F27000C2F28A
:101340000000011D40F29410C2F20000012202B020
:1013500000F03ABA002100910168009140680090C5
:10136000009840F27000C2F20000411D40F2D4101B
:10137000C2F20000012202B000F026BAB0B5016846
:101380000A68CC684B6902F02F05202D04F0200577
:1013900012D18DB190F83A20222A40F0178182684C
:1013A000B2F5805F3ED10369826A4968002B61D043
:1013B000C9B222F8011B61E05FEA027C1EBF03F0A4
:1013C000010E04F4907313EB0E0337D1130617D5F7
:1013D00014F0800314D090F83920212A40F0F680D0
:1013E0008368026AB3F5805F30D113886FF35F239F
:1013F0004B600369002B14BF01320232026229E004
:10140000520640F1E38014F0400208BFB0BDCA6844
:1014100022F04002CA60202180F83910BDE8B040B7
:1014200000F026BB02694968002A826A18BF01F0F1
:101430007F01531C8362117021E000BFD30718BFE6
:1014400014F4807336D153073AD440E0531C03623E
:1014500012784A60C28C013A1304C28440F0B6800C
:10146000C86820F08000C860C86840F04000C860CC
:10147000B0BD00BF6FF35F2122F8021B8262C18DF5
:1014800001390A04C18540F0A1800168CA6822F0D0
:101490002002CA60CA6822F48072CA604A6922F0D7
:1014A00001024A61202180F83A10BDE8B04000F006
:1014B000B5B900BFC36B43F00103C363530706D53F
:1014C000BEF1000F03D0C36B43F00203C363930765
:1014D00006D5BEF1000F03D0C36B43F00403C36312
:1014E000BCF1000F06D5BEF1000F03D0C36B43F073
:1014F0000803C363C36B002B68D092063BD5D5B3FA
:1015000090F83A20222A36D18268B2F5805F07D15E
:101510000369826A49687BB1C9B222F8011B0FE0F6
:1015200002694968002A826A18BF01F07F01531CD2
:101530008362117005E000BF6FF35F2122F8021B88
:101540008262C18D4A1EC2850168120413D1CA6825
:10155000044622F02002CA60CA6822F48072CA607F
:101560004A6922F001024A61202180F83A1000F015
:1015700055F9216820464A69C36B02F0400203F026
:101580000803D21824D0CA6822F49072CA604A694B
:1015900022F001024A61202280F83A204A6952066C
:1015A0001CD54A6922F040024A61416BB1B142F256
:1015B0006552C0F60002044608464A63FFF752F936
:1015C00020B1606B416BBDE8B0400847B0BD00BFC3
:1015D0000446FFF79BFE0020E063B0BDBDE8B040CD
:1015E000FFF794BE002804BF0120704710B50446E1
:1015F00090F8390028B9002084F83800204600F01F
:1016000061F8242084F839002068D4E90212C36804
:1016100023F40053C360036923F440531A43026167
:10162000D4E904231143C268194341F20C639A437D
:101630001143C1604169A26921F44071114343F62D
:101640000002C4F201029042416103D0FFF720FC86
:1016500002E000BFFFF730FCD4E900231921484322
:101660009900B0FBF1F048F21F5CC5F2EB1CA0FB47
:101670000C314FF69C734909C0F6FF7301FB030060
:10168000322303EB0010A0FB0C03F02000EA531000
:1016900000EB0110C3F3431108449060106920214E
:1016A00020F490401061506920F02A005061D06809
:1016B00040F40050D0600020E06384F8391084F8D2
:1016C0003A1010BD70B586B0006844F20041C4F213
:1016D0000001002688420596CDE9036602963BD0BC
:1016E00043F60001C4F2010188426BD141F21800B7
:1016F000C4F20200016840F6000441F48041016038
:101700000168C4F2010401F480410191019901686A
:1017100002AD41F0040101600068294600F00400B8
:10172000019001984FF40070029002200390032072
:1017300005902046FFF702F94FF4806002900020E8
:10174000CDE9030020462946FFF7F8F825200021BF
:101750000022252431E000BF41F21800C4F202004B
:10176000416840F6000441F4003141604168C4F230
:10177000010401F4003101910199016802AD41F0C9
:10178000040101600068294600F0040001900198FE
:101790000420029002200390032005902046FFF7CA
:1017A000CDF80820CDE90206204629460496FFF729
:1017B000C5F82620012100222624FFF74FFA2046F3
:1017C000FFF73AFA06B070BD034690F83A002028B9
:1017D0000AD100294FF0010018BF002A00D170473C
:1017E00093F83800012801D1022070479962002047
:1017F00022219A85DA85D86383F83A10196883F82C
:101800003800CA6842F48072CA604A6942F0010234
:101810004A61CA6842F02002CA607047F0B581B0E0
:1018200044F200450446C4F20005006805F5744121
:10183000884228D140F27006C2F2000630790D28A5
:1018400001D00A280CD1B168012913DB40F2D20083
:10185000C2F200000027475400F0BAFBB76009E06D
:10186000B1683E2906D84A1CB26040F2D202C2F2E8
:101870000002505440F29410311DC2F200000122C7
:10188000FFF7A2FF2068A8421CBF01B0F0BD40F2E4
:101890007004C2F2000460790D2801D00A280DD12D
:1018A000E168012914DB40F21210C2F200000025A9
:1018B000455400F037FAE5600AE000BFE1687E2990
:1018C00006D84A1CE26040F21212C2F200025054E2
:1018D00040F2D410611DC2F20000012201B0BDE847
:1018E000F040FFF771BF00002DE9F041044690F889
:1018F000390020280CD10E4600294FF0010018BFF6
:10190000002A01D1BDE8F08194F83800012803D104
:101910000220BDE8F08100BF012084F838000020DB
:10192000E06321201D4684F839001746FFF716F9B9
:10193000A784E784E18C074600295FD005F1010800
:1019400006E000BF16F8011B4160E18C002956D06B
:10195000E08C0138E0842068A1680268B1F5805FFE
:101960004FEA02611CD100290DD4B8F1000F29D033
:10197000002D6AD0FFF7F2F8C11B2068A94264D895
:1019800001680906F6D531886FF35F21416021694E
:10199000002914BF01360236E18C0029D8D12EE08F
:1019A0000029CFD4B8F1000F1AD0002D4DD000BFC0
:1019B000FFF7D4F8C11B2068A94246D80168090680
:1019C000F6D5BFE701680906DDD4016809065CBFEA
:1019D00001685FEA0161D6D401680906F2D5D2E751
:1019E00001680906AED4016809065CBF01685FEAB8
:1019F0000161A7D401680906F2D5A3E72068016850
:101A000049060FD40DB3691C19D10168490609D4E0
:101A1000016849065CBF01685FEA416102D4016860
:101A20004906F2D5202084F839000020002184F8EE
:101A30003810BDE8F08100BF00684006F2D4FFF71F
:101A40008DF8C11B2068A942F6D9C16821F4D07174
:101A5000C160416921F001014161202084F8390011
:101A600084F83A000320002184F83810BDE8F081A2
:101A700070470000FEE7000080B50120002100F063
:101A8000E9F80220BDE88040FEF744BF6FF03F0256
:101A9000012808BF6FF07F0288180138C0B200210A
:101AA00000F0D8B8B0B53220FEF734FF40F600049D
:101AB000C4F20104204610210022FFF749F8204615
:101AC00020210022FFF744F8204640210122FFF7A1
:101AD0003FF8204680210122FFF73AF804F580659F
:101AE000284601210022FFF733F828460221002270
:101AF000FFF72EF8204620210122FFF729F80120C8
:101B0000FEF708FF204620210022FFF721F80120E0
:101B1000FEF700FF0520FEF7FDFE204640210122D2
:101B2000FFF716F8204680210122FFF711F828461A
:101B300001210022FFF70CF8284602210022FFF7BE
:101B400007F8204620210122FFF702F80120FEF7C6
:101B5000E1FE204620210022FEF7FAFF0120FEF7D9
:101B6000D9FE0120FEF7D6FE204640210122FEF7D5
:101B7000EFFF204680210122FEF7EAFF28460121DF
:101B80000022FEF7E5FF284602210022FEF7E0FFD3
:101B9000204620210122FEF7DBFF0120FEF7BAFEDE
:101BA000204620210022FEF7D3FF0120FEF7B2FEDF
:101BB0000120FEF7AFFE204640210022FEF7C8FFBD
:101BC000204680210122FEF7C3FF28460121002282
:101BD000FEF7BEFF284602210022FEF7B9FF20468D
:101BE00020210122FEF7B4FF0120FEF793FE2046DC
:101BF00020210022FEF7ACFF0120FEF78BFE012022
:101C0000FEF788FE2820002100F024F80C20002197
:101C100000F020F80620002100F01CF8012000212F
:101C200000F018F80220BDE8B040FEF773BE0000D7
:101C30000178002908BF704710B5441EC8B20121C1
:101C400000F008F8A17801340029F7D1BDE8104070
:101C50007047000070B540F60004C4F201040A4663
:101C60000546002920464FF0100118BF0122FEF75B
:101C70006FFFC5F3001220464021FEF769FFC5F350
:101C8000401220468021FEF763FF04F58066C5F30D
:101C9000801230460121FEF75BFFEA09304602213F
:101CA000FEF756FF204620210122FEF751FF0120BA
:101CB000FEF730FE204620210022FEF749FF0120DA
:101CC000FEF728FE05F0010220464021FEF740FF06
:101CD000C5F3400220468021FEF73AFFC5F380029B
:101CE00030460121FEF734FFC5F3C0023046022121
:101CF000FEF72EFF204620210122FEF729FF0120BA
:101D0000FEF708FE204620210022FEF721FF0120D9
:101D1000BDE87040FEF7FEBDFEE70000FEE70000F4
:101D200070470000F0B593B085A10446FEF714FBA0
:101D300000B306AC054620463221FEF7C0FB00206A
:101D40000590CDE90300CDE9010081A12846FEF709
:101D500003FB074680A12846FEF7FEFA064681A14E
:101D60002846FEF7F9FA002F18BF002E14D113B041
:101D7000F0BD00BF7DA12046FEF7EEFA002849D055
:101D800040F27004C2F200040125E570FEF7E6FEA1
:101D9000A061257013B0F0BD05460028E7D0791D7D
:101DA000771A312F05DC20463A46FEF7AFFB0020BC
:101DB000E05506F108016C1A132C05DC01A8224637
:101DC000FEF7A4FB00210155E81DFEF79EFA40F244
:101DD0001425C2F2000595F84C600446012E2BD163
:101DE00006A92846FEF7BEFB002800F0838095F880
:101DF0009C00503558B306A92846FEF7B3FB0028CF
:101E000078D0002E40F0948040F21425C2F20005F4
:101E10001DE000BF59A12046FEF79EFA30B340F204
:101E20009410C2F200005AA13022642313B0BDE81E
:101E3000F040FFF759BD00BF95F89C0038B105F19F
:101E4000500606A93046FEF78DFB002854D006A99F
:101E50002846FEF7BFFA05F1380001A9FEF7BAFAE5
:101E600001206C6385F84C0062E000BF42F610016F
:101E7000C0F600012046FEF76FFA00283FF477AF66
:101E800006AD28463221FEF71AFB4EA12046FEF78A
:101E900063FA00283FF46BAF00F1090420463A21B1
:101EA000FEF740FA00283FF462AF061B28462146A1
:101EB0003246FEF72BFB40F21424C2F2000494F8E1
:101EC0004C0000210128A95507D140F21420C2F28C
:101ED000000006A9FEF746FB80B194F89C0001289B
:101EE00026D104F1500006A9FEF73CFB00BB0120FF
:101EF00005E000BF6C631BE0746319E0002040F252
:101F00007004C2F2000447F2696144F2201244F600
:101F10005263C0F26501C7F26342C3F644236061B5
:101F20000120C4E90C32A163E070FEF717FEA06146
:101F300040F27000C2F200000121017013B0F0BD48
:101F40005B43454E5452414C5F5441534B5D00003E
:101F50005461736B3A0000007C5461726765743A97
:101F6000000000007C50686173653A005B43454E99
:101F70005452414C5F4F4B5D000000005B43454EA7
:101F80005452414C5F52454A4543545D00000000A5
:101F90005B53595354454D5D3A20416363657373F8
:101FA0002044656E69656421204E6F7420796F75D9
:101FB000722067726F75702070686173652E0D0AEC
:101FC0000000000041535349474E45443A00000089
:101FD0002DE9F043AFB0044600202E90CDE92C004F
:101FE000CDE92A008DF8A70020463A21FEF79AF99C
:101FF000002845D0051B132D09DC2AAE07463046C4
:1020000021462A46FEF782FA384600217155811C86
:1020100011F8010C20280BD1087820280BD1487822
:10202000202807D1887804312028F1D0023902E035
:10203000013900E001310DF18A0420461D22FEF72E
:1020400065FA63A1FEF778F90026265461A12046BF
:102050000622FEF793F9B8B160A10DF18A000922BA
:10206000FEF78CF980B1BDF88A002D2800F08E8033
:10207000BDF88A0031284DD0BDF88A00322849D0F9
:102080002FB0BDE8F08300BF40F27005C2F200053A
:102090000DF1A8084FF0010905F11C00414685F833
:1020A0000190EE70FEF796F905F144002146FEF727
:1020B00091F940F60046C4F2010630468021012223
:1020C000FEF746FD30464FF400710122FEF740FD59
:1020D00040F2D416C2F2000646A130461222642312
:1020E000FFF702FC0DF10A0747A23846802143465C
:1020F0000094FEF78DF83846FEF790F982B230462C
:1021000039466423FFF7F0FB85F800902FB0BDE857
:10211000F08300BF40F27006C2F20006707800281B
:10212000AED1B0780028ABD1F0780028A8D10DF15D
:102130008A00FEF7EAF840F21421C2F2000100EB37
:10214000800201EB021111F8041C012998D10DF154
:102150000A042AAD471E24A2204680212B46FEF702
:1021600057F82046FEF75AF982B240F2D410C2F274
:10217000000021466423FFF7B7FB06F13000294633
:10218000FEF728F977612FB0BDE8F08340F27005C3
:10219000C2F20005687801287FF472AF40F600446F
:1021A0000020C4F20104687001262046802100222C
:1021B000AE70FEF7CDFC20464FF400710022FEF712
:1021C000C7FCFEF7CBFC28612E702FB0BDE8F08372
:1021D0000D0A0000434C4F5448000000444953543A
:1021E000414E43450000000025733A20424F4E55B2
:1021F000530D0A00434D445F54494D45523A4652EF
:1022000045455A450D0A00004C4F475F4552524F15
:10221000523A49443A25733A25730D0A00000000EA
:10222000F0B593B040F27006C2F200067078012853
:1022300022D1FFF721FC01AC06F11C03AEA220461F
:102240002021FDF7E5FF01200121FFF71FFC2046BB
:10225000FFF7EEFC06F14403AAA20BAC20462021B6
:10226000FDF7D6FF02200121FFF710FC2046FFF703
:10227000DFFC13B0F0BD00BFB478FFF7FDFB012C0D
:102280000AD101200121FFF701FC97A013B0BDE89E
:10229000F040FFF7CDBC00BFF07840F214250128D4
:1022A000C2F200050CD1706950B942F6330201AC9C
:1022B00006F13003C0F600022046202144E000BFB2
:1022C00095F84C000027012848D195F83F10686B1D
:1022D0003429CDF83770CDE90C770B9718D0332916
:1022E0000CD032291ED10138032820D8DFE810F0A5
:1022F0000400C200D0001C00322016E00138032880
:1023000015D8DFE800F00387971100BF33200CE0F9
:10231000013803280BD8DFE800F003C5970700BF9A
:10232000342002E0042802D15820ADF82C0042F6F7
:102330002B0240F2142301AC0BAFC0F60002C2F234
:102340000003204628210097FDF762FF01200121AC
:102350000127FFF79BFB2046FFF76AFCF078012876
:102360000AD17069012807D142F6330206F1300321
:10237000C0F6000201AC71E795F89C00012819D164
:1023800095F88F10D5F8840000223229CDF8372037
:10239000CDE90C220B9221D0332915D0342927D135
:1023A0000138032829D8DFE800F0036B852500BF3A
:1023B000342020E0002F7FF45CAF01200121FFF7E3
:1023C00065FB44A053E700BF0138032815D8DFE8B8
:1023D00000F00329411100BF33200CE0013803282D
:1023E0000BD8DFE800F00371410700BF322002E0A4
:1023F000042802D15820ADF82C000BAF42F62B0276
:1024000001AC05F15003C0F60002204628210097D8
:1024100026E700BF42F63240C0F2330000F101105F
:102420000B9084E742F63240C0F2330000F1011015
:102430000B90E2E73220ADF8300042F63340C2F6AE
:1024400034400B9073E700BF3220ADF8300042F605
:10245000344022E03220ADF8300042F63340C2F67C
:1024600034400B90C9E700BF3420ADF8300042F68D
:10247000324024E042F63240C0F233000B9056E77F
:1024800042F63240C0F2330002300B90B5E700BF95
:102490003420ADF8300042F63240C2F633400B90A3
:1024A00045E700BF42F63240C0F2330002300B90E5
:1024B0003DE700BF3220ADF8300042F63440C2F6AE
:1024C00033400B9099E700BF42F63240C0F2330030
:1024D0000B9092E757616974696E67205461736B62
:1024E000732E2E2E000000004572726F7220536F03
:1024F0006C766564210000004572726F723A202587
:10250000730000005B25735D000000007047000051
:10251000FEF72ABB41F20000C4F20200016800226B
:1025200041F0010101604168CFF6FF0211404160B6
:1025300001684FF6FF72CFF6F66211400160016844
:1025400021F480210160416821F4FE0141604FF4D3
:102550001F0181604EF60850CEF200004FF000617E
:1025600001607047406A0021C185C184FEF7CEBE7C
:1025700040F29410C2F20000FEF700BF40F2D41007
:10258000C2F20000FEF7FABEFEE7000090B0FEF7D0
:10259000F9FA06AC201D2421FDF791FF02200690D8
:1025A00001200A9010200B90002520460D95FEF783
:1025B00097FC28B1EFF3108072B600BFFEE700BFB2
:1025C0000F20CDE9010501A80021CDE903550595AE
:1025D000FEF780FB20B1EFF3108072B6FEE700BF7C
:1025E000002741F21800CDE90877CDE90677C4F25B
:1025F0000200016840F6000941F020010160016815
:10260000C4F2010901F02001019101990168002241
:1026100041F0040101600168F02601F0040101911C
:102620000199016841F0080101600068F02100F0A3
:102630000800019001984846FEF78AFA09F580657E
:10264000284640F28321002240F28328FEF780FAD8
:10265000069606AE4FF0010A022448463146CDE9FF
:1026600007A70994FEF76AF928463146CDE9068A9C
:10267000CDE90874FEF762F940F2D410A9F544419F
:10268000C2F200000C254FF4165680E8C200C0E9E3
:102690000377C0E90557C761FEF7A4FF20B1EFF348
:1026A000108072B6FEE700BF40F2941009F5405169
:1026B000C2F2000080E8C200C0E90377C0E9055714
:1026C000C761FEF78FFF28B1EFF3108072B600BF2D
:1026D000FEE700BF40F27007C2F2000740F294101C
:1026E000391DC2F2000001224FF0010AFFF76CF819
:1026F00040F2D414C2F20004791D20460122FFF7F3
:1027000063F8FFF7CFF940F21429C2F2000900255F
:102710001FA641F2883B09F1500889F84C5000BFD0
:1027200089F89C5087F800A03878012802D1FFF77B
:1027300077FD3D70B87801280FD1FEF70FFA39699F
:10274000401AB0F57A7F08D320463146122264231E
:10275000BD70FFF7C9F887F800A0F8780128E3D129
:1027600078780028E0D1B8780028DDD1FEF7F6F9B6
:10277000B969401A5845D7D3FD7078690128CFD080
:102780000028CFD1484641465022FDF766FEC7E7F4
:10279000434D445F54494D45523A524553554D457A
:1027A0000D0A000010B500290AD00878002807D0CB
:1027B00005487844FDF7D6FE002801D0002010BD62
:1027C0000248784410BD0000B2000000AA000000DA
:1027D00001020000000000000000010203040607DF
:1027E00008090000000001020304020304050607B3
:1027F00008090A0B0C0D0E0F10102D003100342C9F
:10280000332C3200332C342C3200322C332C340055
:102810005B43454E5452414C5D2054494D454F5504
:10282000545F41535349474E4544002573202D20A2
:10283000257300576F726B65722049443A202573E7
:1028400000000000782900080000002010000000AF
:10285000500100088829000810000020A808000086
:10286000700100081001000043000000F8FFFFFFA6
:102870000040404040404040404041414141414093
:102880004040404040404040404040404040404048
:1028900040050202020202020202020202020202D7
:1028A00002202020202020202020200202020202DC
:1028B0000202909090909090101010101010101034
:1028C0001010101010101010101010100202020240
:1028D0000202888888888888080808080808080884
:1028E0000808080808080808080808080202020280
:1028F0004000000000000000000000000000000098
:1029000000000000000000000000000000000000C7
:1029100000000000000000000000000000000000B7
:1029200000000000000000000000000000000000A7
:102930000000000000000000000000000000000097
:102940000000000000000000000000000000000087
:102950000000000000000000000000000000000077
:102960000000000000000000000000000000000067
:102970000000000000000000010000001000000046
:082980000024F4000000000037
:04000005080000ED02
:00000001FF
