:020000040800F2
:10000000C0060020B5010008F1130008E91300083C
:10001000ED13000815030008691400080000000033
:10002000000000000000000000000000F9130008BC
:100030001903000800000000F5130008FD13000874
:10004000CF010008CF010008CF010008CF01000850
:10005000CF010008CF010008CF010008CF01000840
:10006000CF010008CF010008CF010008CF01000830
:10007000CF010008CF010008CF010008CF01000820
:10008000CF010008CF010008CF010008CF01000810
:10009000CF010008CF010008CF010008CF01000800
:1000A000CF010008CF010008CF010008CF010008F0
:1000B000CF010008CF010008CF010008CF010008E0
:1000C000CF010008CF010008CF010008CF010008D0
:1000D000CF010008CF0100085D140008CF0100081F
:1000E000CF010008CF010008CF01000800F002F89E
:1000F00000F050F814A696E8000CB244B344DA4578
:1001000001D100F047F8BAE80F000FA696E83000DA
:10011000A5EB040504EB0607AAEB0704A7F101070A
:100120004FEA15154FEA3414A4F10104AC4201D38F
:1001300000F030F813F0010F18BFFB1A43F0010371
:1001400000F001F8DBE71847741400009414000075
:10015000103A24BF78C878C1FAD8520724BF30C8F3
:1001600030C144BF04680C60704700007047000055
:100170000023002400250026103A28BF78C1FBD8B0
:10018000520728BF30C148BF0B6070471FB51FBD65
:1001900010B510BD00F084F81146FFF7F7FF01F02D
:1001A00065F900F0A2F803B4FFF7F2FF03BC00F01A
:1001B000A9F800000948804709480047FEE7FEE724
:1001C000FEE7FEE7FEE7FEE7FEE7FEE7FEE7FEE707
:1001D00004480549054A064B704700000114000811
:1001E000ED000008C0000020C0060020C002002072
:1001F000C002002040EA010310B59B070FD1042A7A
:100200000DD310C808C9121F9C42F8D020BA19BAE1
:10021000884201D9012010BD4FF0FF3010BD1AB146
:10022000D30703D0521C07E0002010BD10F8013B9B
:1002300011F8014B1B1B07D110F8013B11F8014BC2
:100240001B1B01D1921EF1D1184610BD4FF00002C8
:1002500000B5134694469646203922BFA0E80C50BC
:10026000A0E80C50B1F12001BFF4F7AF090728BF97
:10027000A0E80C5048BF0CC05DF804EB890028BF13
:1002800040F8042B08BF704748BF20F8022B11F03C
:10029000804F18BF00F8012B7047704770477047B8
:1002A000754600F02BF8AE4605006946534620F02F
:1002B0000700854618B020B5FFF78AFFBDE820404B
:1002C0004FF000064FF000074FF000084FF0000B12
:1002D000AC46ACE8C009ACE8C009ACE8C009ACE881
:1002E000C00921F007018D46704710B50446AFF3F1
:1002F00000802046BDE81040FFF755BF004870471A
:100300001000002001491820ABBEFEE726000200C5
:1003100070470000FEE700007047000090F82110D1
:10032000022923D1026840F2040C1168C4F2020CC5
:1003300021F00E01116013682F21C4F202018A42DC
:1003400023F00103136015DD3023C4F202039A4247
:100350001CD04423C4F202039A421BD05823C4F297
:1003600002039A421CD14FF4803321E004218163BF
:10037000012070470823C4F202039A420ED01C23C6
:10038000C4F202039A420BD1102311E04FF48073A0
:100390000EE000BF4FF480530AE000BF012307E0E6
:1003A0000CF168014FF080738A4208BF4FF480134C
:1003B000CCF80030416B4FF480720029028404BFF6
:1003C0000020704780B58847002080BD2DE9F04FA0
:1003D00082B00E68002E00F0FF8040F20C4C40F21C
:1003E000004E41F20042C4F2010CC4F2010EC4F20C
:1003F00001020427002401234FF0000A4FF00009F6
:10040000904208BF0327009749E000BF41F2000275
:10041000C4F20102009F904208BF022704F00C03BF
:100420000F229A402BEA020207FA03F34FEA9A05D9
:100430001A4346F825204E68F203DEF8002054BF28
:1004400022EA080242EA0802CEF80020DEF8042080
:10045000B30354BF22EA080242EA0802CEF804209D
:10046000F302DEF8082054BF22EA080242EA08023A
:10047000B302CEF80820DCF800204FF0010354BF8F
:1004800022EA080242EA0802CCF800200E680AF1CB
:10049000010A36FA0AF204F1040400F09D8003FA1E
:1004A0000AFB16EA0B08F1D04E684FF6FF72C1F254
:1004B0001002964212DC122E56D8DFE806F0350BF9
:1004C0004D49555555555555555555555555554500
:1004D000510000BFD1F80C9046E000BF4FF6FF720C
:1004E000C1F2210296420FDC0022C1F211029642B3
:1004F0001AD00022C1F21202964215D00022C1F297
:100500002102964210D02FE00022C1F22202964230
:100510000AD00022C1F23102964205D00022C1F277
:100520003202964220D100BF8A684AB1012A14BF24
:10053000C0F814B0C0F810B04FF0080914E000BFC4
:100540004FF0040910E000BFCA6802F104090BE093
:100550004FF0000908E000BFCA6802F1080903E093
:10056000CA6802F10C0900BF02462646B8F5807F32
:1005700024BF0432203E17680F25B54027EA050541
:1005800009FA06F635431560CA79D2067FF57EAFC3
:1005900041F21803C4F202031A68AEF57E7642F007
:1005A00001021A601A6802F001020192019A2AF00F
:1005B000030256F802B040F60002C4F20102904273
:1005C00008D040F60042C4F2010290427FF41EAF10
:1005D000012723E7002721E702B0BDE8F08F0000E4
:1005E00040F2BC00C2F200000068704740F2000018
:1005F00040F2BC01C2F20000C2F2000100780A68B9
:10060000104408607047000080B542F20000C4F258
:100610000200016841F010010160032000F08CF835
:100620000F2000F005F800F027F8002080BD000042
:1006300070B540F20006C2F2000640F208013278BE
:10064000C2F200014FF47A730968B3FBF2F2044678
:10065000B1FBF2F1084600F085FB0F2C4FF00105CD
:1006600008D838B94FF0FF3021460022002500F0AD
:1006700037F87460284670BD82B041F21800C4F2A9
:1006800002000168042241F001010160016801F0EB
:10069000010101910199416841F080514160406838
:1006A00000F08050009000980420C4F2010001681E
:1006B00062F31A61016002B070470000002848BF71
:1006C000704700F01F01012202FA01F11C2202EA28
:1006D000D0004EF20012CEF20002815070470000AE
:1006E00010B54EF60C5CCEF2000CDCF80030C3F313
:1006F000022E8EF00704042C28BF0424BEF103034D
:100700004FF0FF3E0EFA04F438BF0023A143994096
:100710000EFA03F39A43114300F00F0200F1604315
:100720000901043A03F564436244002848BF02F11A
:100730000C03197010BD00004EF60C51CEF20001F2
:100740000A684FF6FF031A4060F30A2242F0806005
:1007500040F0FD7008607047002804BF012070471A
:100760002DE9F04381B042F20008C4F202080446C9
:10077000D8F800000D4600F0070081420CD9D8F8E7
:10078000000020F007002843C8F80000D8F8000057
:1007900000F00700A8426CD1206841F204098107EB
:1007A000C4F2020917D5410705D5D9F8001041F464
:1007B000E061C9F80010010705D5D9F8001041F42F
:1007C0006051C9F80010D9F80010A26821F0F001BA
:1007D0001143C9F80010C00742D1D8F8000000F05A
:1007E000070085420CD2D8F8000020F0070028430B
:1007F000C8F80000D8F8000000F00700A84238D17F
:100800002068410707D5D9F80010E26821F4E061BB
:100810001143C9F80010000708D5D9F80000216974
:1008200020F4605040EAC100C9F80000D9F8002067
:1008300002F00C00082841F20020C0F27A004DD1ED
:1008400041F24053C2F38341C0F60003595CD20326
:1008500038D440F60010C0F23D0048433EE000BFEF
:10086000606859F8041C022808D0012826D18903A1
:1008700006D4012001B0BDE8F08300BF8901F8D59E
:10088000D9F8001021F003010843C9F80000FFF770
:10089000A7FE064641F28837D9F80000616800F0EB
:1008A0000C00B0EB810F98D0FFF79AFE801BB84286
:1008B000F2D9032001B0BDE8F08300BF8907D8D585
:1008C000DEE700BFD9F8002041F22653C2F34042D0
:1008D000C0F600039A5C4843B0FBF2F0D9F8001070
:1008E00041F22852C1F30311C0F60002515C40F2FC
:1008F000080220FA01F140F20400C2F20000006890
:10090000C2F200021160FFF793FE002001B0BDE8C3
:10091000F083000040F2080041F20401C2F200003E
:10092000C4F202010068096841F23852C1F30221A1
:10093000C0F60002515CC8407047000040F2080059
:1009400041F20401C2F20000C4F202010068096829
:1009500041F23852C1F3C221C0F60002515CC840D6
:1009600070470000002804BF012070472DE9F041C6
:1009700082B00446007841F20006C007C4F20206C5
:100980000CD0706800F00C00042840F081803068C2
:10099000800303D56068002800F046812078800736
:1009A0001BD5706810F00C0F09D0706800F00C00B7
:1009B000082840F087807068C00300F183803068A9
:1009C000800703D52069012840F02E8130686169D5
:1009D00020F0F80040EAC10030602078000713D40E
:1009E000207840072CD4E569002D00F0188170684C
:1009F00000F00C00082840F0A780012D40F0048191
:100A0000012002B0BDE8F081A069002800F08480D8
:100A10000020C4F242200121C0F88014FFF7E0FD5D
:100A2000054600BF706A800700F1B280FFF7D8FD6D
:100A3000401B0228F6D9032002B0BDE8F08100BFB8
:100A4000F0695FEAC00808D4F06940F08050F061B6
:100A5000F06900F080500090009847F20007C4F25F
:100A600000073868C00549D4386840F480703860A1
:100A7000FFF7B6FD054600BF3868C0053ED4FFF756
:100A8000AFFD401B6428F7D9032002B0BDE8F08118
:100A9000706800F00C00082803D17068C0033FF5AF
:100AA00076AF61683068002900F00C81B1F5A02FA5
:100AB00000F00081B1F5803F40F01A8140F48030B1
:100AC0001CE100BF2069002840F20000C4F242206F
:100AD00000F0888001210160FFF782FD054600BF1C
:100AE000306880073FF572AFFFF77AFD401B0228A0
:100AF000F6D9032002B0BDE8F08100BFE168306A9A
:100B0000002900F09D80052900F09280012940F025
:100B1000AF8040F00100B1E00020C4F2422000218B
:100B2000C0F88014FFF75CFD054600BF706A8007BF
:100B30007FF556AFFFF754FD401B0228F6D903207E
:100B400002B0BDE8F08100BF0027C4F242270020B8
:100B50003866FFF745FD022D05460DD1306880014E
:100B600040F1DE80FFF73CFD401B02284FF0030000
:100B7000F4D902B0BDE8F081306880014FD5FFF7AD
:100B80002FFD401B02284FF00300F5D9F1E700BF0D
:100B900040F20800C2F20000006844F6D351C1F2EE
:100BA0006201A0FB0101480A019000BF00BF01984B
:100BB000411E002801913FF413AF00BF0198411E70
:100BC000002801913FF40CAF00BF0198411E00289E
:100BD00001913FF405AF00BF0198411E002801912B
:100BE000E4D1FDE600210160FFF7FAFC054600BFF5
:100BF000306880077FF5F1AEFFF7F2FC401B02285A
:100C00004FF00300F4D9B4E77068216A00F4803231
:100C10008A4209D1616A00F47010884204D1002030
:100C200002B0BDE8F08100BF012002B0BDE8F08154
:100C300040F004003062306A40F001001EE000BF66
:100C400020F001003062306A20F004003062FFF7CB
:100C5000C7FC054641F28837306A800720D5FFF788
:100C6000BFFC401BB8424FF00300F5D981E700BF3D
:100C700020F001003062306A20F004003062FFF79B
:100C8000AFFC054641F28837306A800708D4FFF789
:100C9000A7FC401BB842F7D9032002B0BDE8F081A1
:100CA000B8F1000F3FF59FAEF06920F08050F06181
:100CB00099E600BF40F480203060306840F4803016
:100CC0001CE000BF20F480303060306820F48020C9
:100CD0003060FFF785FC0546306880037FF55EAE27
:100CE000FFF77EFC401B64284FF00300F4D940E777
:100CF00020F480303060306820F480203060FFF7CE
:100D00006FFC0546306880033FF548AEFFF768FC8E
:100D1000401B6428F6D9032002B0BDE8F08100BF73
:100D2000206AB0F5803F05D17168A26821F40031D6
:100D3000114371607168626A21F4741111430843B0
:100D4000706001203866FFF74BFC04463068800174
:100D50003FF565AFFFF744FC001B02284FF003008E
:100D6000F4D906E7411E0020B0EB116F1CBF012033
:100D700070474EF21002CEF2000251604EF623513F
:100D8000CEF20001F0230B700721906011607047D4
:100D900070470000B0B501680A68CC684B6902F082
:100DA0002F05202D04F0200512D18DB190F83A20A6
:100DB000222A40F017818268B2F5805F3ED1036934
:100DC000826A4968002B61D0C9B222F8011B61E038
:100DD0005FEA027C1EBF03F0010E04F4907313EB74
:100DE0000E0337D1130617D514F0800314D090F8F2
:100DF0003920212A40F0F6808368026AB3F5805FCB
:100E000030D113886FF35F234B600369002B14BF4D
:100E100001320232026229E0520640F1E38014F00E
:100E2000400208BFB0BDCA6822F04002CA6020215B
:100E300080F83910BDE8B04000F0D4BA02694968C2
:100E4000002A826A18BF01F07F01531C836211706F
:100E500021E000BFD30718BF14F4807336D15307C5
:100E60003AD440E0531C036212784A60C28C013AC3
:100E70001304C28440F0B680C86820F08000C860C7
:100E8000C86840F04000C860B0BD00BF6FF35F218C
:100E900022F8021B8262C18D01390A04C18540F02B
:100EA000A1800168CA6822F02002CA60CA6822F4E0
:100EB0008072CA604A6922F001024A61202180F8EA
:100EC0003A10BDE8B04000F079B900BFC36B43F001
:100ED0000103C363530706D5BEF1000F03D0C36BF4
:100EE00043F00203C363930706D5BEF1000F03D09E
:100EF000C36B43F00403C363BCF1000F06D5BEF11E
:100F0000000F03D0C36B43F00803C363C36B002B14
:100F100068D092063BD5D5B390F83A20222A36D134
:100F20008268B2F5805F07D10369826A49687BB144
:100F3000C9B222F8011B0FE002694968002A826ADF
:100F400018BF01F07F01531C8362117005E000BFE0
:100F50006FF35F2122F8021B8262C18D4A1EC28597
:100F60000168120413D1CA68044622F02002CA6044
:100F7000CA6822F48072CA604A6922F001024A619A
:100F8000202180F83A1000F019F9216820464A69BA
:100F9000C36B02F0400203F00803D21824D0CA68E1
:100FA00022F49072CA604A6922F001024A6120224A
:100FB00080F83A204A6952061CD54A6922F040025C
:100FC0004A61416BB1B141F25142C0F600020446A0
:100FD00008464A63FFF7A2F920B1606B416BBDE898
:100FE000B0400847B0BD00BF0446FFF7D1FE002067
:100FF000E063B0BDBDE8B040FFF7CABE002804BF43
:101000000120704710B5044690F8390028B9002037
:1010100084F83800204600F061F8242084F8390074
:101020002068D4E90212C36823F40053C360036943
:1010300023F440531A430261D4E904231143C268E4
:10104000194341F20C639A431143C1604169A2699B
:1010500021F44071114343F60002C4F201029042B0
:10106000416103D0FFF756FC02E000BFFFF766FCCA
:10107000D4E90023192148439900B0FBF1F048F26C
:101080001F5CC5F2EB1CA0FB0C314FF69C734909A9
:10109000C0F6FF7301FB0300322303EB0010A0FB3B
:1010A0000C03F02000EA531000EB0110C3F34311CE
:1010B000084490601069202120F49040106150692C
:1010C00020F02A005061D06840F40050D060002029
:1010D000E06384F8391084F83A1010BD70B586B01A
:1010E00040F60004C4F201040068A4F5444100265F
:1010F00088420596CDE90366029601D006B070BD20
:1011000041F21800C4F20200416802AD41F400311E
:101110004160416801F4003101910199016841F099
:10112000040101600068294600F004000190019864
:101130000420029002200390032005902046FFF730
:1011400045F90820CDE90206204629460496FFF716
:101150003DF9262000210022FFF7C2FA2620FFF7E2
:10116000ADFA06B070BD0000034690F83A002028A2
:101170000AD100294FF0010018BF002A00D17047A2
:1011800093F83800012801D10220704799620020AD
:1011900022219A85DA85D86383F83A10196883F892
:1011A0003800CA6842F48072CA604A6942F001029B
:1011B0004A61CA6842F02002CA607047006844F27F
:1011C0000041C4F20001884218BF704710B540F2D8
:1011D0007004C2F2000460780D2801D00A282BD1D7
:1011E00021780022204600F8022B425441F2B451EB
:1011F000C0F600010622FEF7FDFF48B941F27A5120
:1012000004F10C00C0F600013022642300F026F83F
:1012100041F2AB51A01CC0F600010922FEF7EAFF23
:1012200098B941F2505104F10C00C0F60001292296
:10123000642300F013F808E0217862189070481CCD
:10124000C1B20D2988BF0020207004F10C00611C80
:101250000122BDE81040FFF787BF00002DE9F041F3
:10126000044690F8390020280CD10E4600294FF092
:10127000010018BF002A01D1BDE8F08194F83800C0
:10128000012803D10220BDE8F08100BF012084F8CD
:1012900038000020E06321201D4684F839001746FD
:1012A000FFF79EF9A784E784E18C074600295FD009
:1012B00005F1010806E000BF16F8011B4160E18C52
:1012C000002956D0E08C0138E0842068A1680268CB
:1012D000B1F5805F4FEA02611CD100290DD4B8F14D
:1012E000000F29D0002D6AD0FFF77AF9C11B2068C2
:1012F000A94264D801680906F6D531886FF35F21E9
:1013000041602169002914BF01360236E18C0029B1
:10131000D8D12EE00029CFD4B8F1000F1AD0002D7B
:101320004DD000BFFFF75CF9C11B2068A94246D829
:1013300001680906F6D5BFE701680906DDD4016832
:1013400009065CBF01685FEA0161D6D4016809063D
:10135000F2D5D2E701680906AED4016809065CBF80
:1013600001685FEA0161A7D401680906F2D5A3E725
:101370002068016849060FD40DB3691C19D10168B2
:10138000490609D4016849065CBF01685FEA41610A
:1013900002D401684906F2D5202084F839000020E3
:1013A000002184F83810BDE8F08100BF00684006D5
:1013B000F2D4FFF715F9C11B2068A942F6D9C1681C
:1013C00021F4D071C160416921F001014161202007
:1013D00084F8390084F83A000320002184F838109A
:1013E000BDE8F08170470000FEE70000FEE7000066
:1013F000FEE700007047000070470000FFF7F6B8F6
:1014000041F20000C4F202000168002241F0010133
:1014100001604168CFF6FF021140416001684FF65C
:10142000FF72CFF6F66211400160016821F480215D
:101430000160416821F4FE0141604FF41F018160A9
:101440004EF60850CEF200004FF000610160704788
:10145000406A0021C185C184FFF79ABC40F27C003C
:10146000C2F20000FFF796BCFEE7000090B0FFF765
:10147000CBF806AC201D2421FEF7E8FE02200690E2
:1014800001200A9010200B90002520460D95FFF7B3
:1014900069FA28B1EFF3108072B600BFFEE700BF13
:1014A0000F20CDE9010501A80021CDE903550595DF
:1014B000FFF752F920B1EFF3108072B6FEE700BFDC
:1014C00041F21800C4F20200016840F2700441F0D9
:1014D000040101600068C2F2000400F004000690FC
:1014E000069844F20041C4F20001204640F80C1F67
:1014F0004FF4165100220C23C0E90112C0E9032267
:10150000C0E90532C261FFF779FD28B1EFF3108021
:1015100072B600BFFEE700BF04F10C00611C01229F
:10152000FFF722FEFEE701020000000000000000BD
:101530000102030406070809000000000102030479
:1015400002030405060708090A0B0C0D0E0F101004
:101550005B5741524E494E475D20576F726B657223
:1015600020656E74657265642068617A6172646F6B
:10157000757320617265610D0A005B5741524E49D7
:101580004E475D20576F726B65722069736E2774CA
:101590002077656172696E67207361666574792072
:1015A000636C6F7468696E670D0A00444953544157
:1015B0004E434500434C4F5448000000E0150008DE
:1015C000000000201000000050010008F015000885
:1015D00010000020B00600007001000800000000AC
:1015E00001000000100000000024F40000000000D2
:04000005080000ED02
:00000001FF
