:020000040800F2
:1000000000500020C9080008B9060008C106000811
:10001000C9060008D1060008D90600080000000043
:10002000000000000000000000000000E1060008E1
:10003000ED06000800000000F906000805070008AA
:100040001109000811090008110900081109000828
:100050001109000811090008110900081109000818
:100060001109000811090008110900081109000808
:1000700011090008110900081109000811090008F8
:1000800011090008110900081109000811090008E8
:1000900011090008110900081109000811090008D8
:1000A00011090008110900081109000811090008C8
:1000B00011090008110900081109000811090008B8
:1000C00011090008110900081109000811090008A8
:1000D0001109000811070008250700081109000888
:1000E00011090008110900081109000800000000AA
:1000F0000000000000000000000000000000000000
:0C01000000000000000000005FF808F1A3
:10010C0010B5054C237833B9044B13B10448AFF345
:10011C0000800123237010BD980000200000000017
:10012C007C39000808B5034B1BB103490348AFF3F6
:10013C00008008BD000000009C0000207C390008F5
:10014C0010F8012B11F8013B012A28BF9A42F7D075
:10015C00D01A7047034613F8012B002AFBD1181A4A
:10016C000138704780B5D0B004AF13491348FFF77E
:10017C00E7FF0346002B01D1114B00E0114B381D5A
:10018C000293114B0193114B0093114B114A4FF4F5
:10019C00967102F09BFA3B1D1846FFF7DBFF0346F6
:1001AC009AB2391D64230C4801F0B4FB00BF07F56B
:1001BC009877BD4680BD00BF943900082800002008
:1001CC0098390008AC390008180000200C000020F9
:1001DC0000000020C0390008FC00002080B584B06D
:1001EC0000AF78607B681B78402B52D17B68013361
:1001FC00BB602A49B86802F00FFBF86043E00522A7
:10020C002749F86802F0E3FA0346002B07D1FB6894
:10021C00053309221946234802F0EBFA2EE004229A
:10022C002149F86802F0D3FA0346002B07D1FB688A
:10023C000433092219461D4802F0DBFA1EE00522A0
:10024C001B49F86802F0C3FA0346002B07D1FB6880
:10025C0005330E221946174802F0CBFA0EE00522A0
:10026C001549F86802F0B3FA0346002B06D1FB6877
:10027C00053304221946114802F0BBFA0749002045
:10028C0002F0CAFAF860FB68002BB8D1FFF76AFFDE
:10029C0000E000BF1037BD4680BD00BF1C3B00080E
:1002AC00203B000800000020283B00080C00002028
:1002BC00303B000818000020383B000828000020C4
:1002CC0080B582B000AF78607B681B68194A934296
:1002DC002CD1194B1B780A2B03D0174B1B780D2BE9
:1002EC0010D1164B1B78002B1BD0144B1B781A46C5
:1002FC00134B002199541248FFF770FF0F4B00224B
:10030C001A700EE00D4B1B78622B0AD80B4B1B7826
:10031C005A1CD1B2094A11701A46074B1978084B6E
:10032C00995401220449074801F07FFB00BF0837AC
:10033C00BD4680BD00380140440100204C01002026
:10034C0050010020B400002080B582B000AF00F056
:10035C00DBFA00F039F800F0C7F800F071F800F0A3
:10036C0099F8144A3B4692E8030083E803003B46A5
:10037C001846FFF7EFFE03469AB239464FF0FF33AB
:10038C000D4801F0C7FA01220C490D4801F04DFB54
:10039C0000F012FB02460B4B1B68D31A40F2DB52E7
:1003AC009342F5D900F008FB0346064A1360FFF7A9
:1003BC00D9FEEDE7403B0008FC0000204401002082
:1003CC00B40000204801002080B590B000AF07F1C8
:1003DC00180328220021184602F0F1F93B1D0022D7
:1003EC001A605A609A60DA601A610223BB610123B9
:1003FC00BB621023FB6200237B6307F118031846D2
:10040C0000F028FE0346002B01D000F083F80F23E8
:10041C007B600023BB600023FB6000233B61002357
:10042C007B613B1D0021184601F096F80346002B1A
:10043C0001D000F06FF800BF4037BD4680BD000012
:10044C0080B500AF114B124A1A60104B4FF4165284
:10045C005A600E4B00229A600C4B0022DA600B4B58
:10046C0000221A61094B0C225A61084B00229A6136
:10047C00064B0022DA61054801F0FCF90346002B1B
:10048C0001D000F047F800BF80BD00BFB4000020D1
:10049C000038014080B500AF114B124A1A60104B66
:1004AC004FF416525A600E4B00229A600C4B0022ED
:1004BC00DA600B4B00221A61094B0C225A61084B73
:1004CC0000229A61064B0022DA61054801F0D2F94C
:1004DC000346002B01D000F01DF800BF80BD00BF0B
:1004EC00FC0000200044004080B483B000AF084BF7
:1004FC009B69074A43F004039361054B9B6903F026
:10050C0004037B607B6800BF0C37BD4680BC704722
:10051C000010024080B400AF72B600BF00BFFDE710
:10052C0080B485B000AF154B9B69144A43F00103AE
:10053C009361124B9B6903F00103BB60BB680F4BCB
:10054C00DB690E4A43F08053D3610C4BDB6903F03B
:10055C0080537B607B680A4B5B68FB60FB6823F015
:10056C00E063FB60FB6843F08063FB60044AFB685C
:10057C00536000BF1437BD4680BC7047001002406A
:10058C000000014080B58AB000AF786007F1180315
:10059C0000221A605A609A60DA607B681B683F4AD6
:1005AC0093423AD13E4B9B693D4A43F4804393615D
:1005BC003B4B9B6903F480437B617B69384B9B69A4
:1005CC00374A43F004039361354B9B6903F00403F2
:1005DC003B613B694FF40073BB610223FB61032356
:1005EC007B6207F1180319462E4800F0AFFB4FF45D
:1005FC008063BB610023FB6100233B6207F118039E
:10060C001946284800F0A2FB00220021252000F00A
:10061C00B4FA252000F0CDFA3CE07B681B68224A36
:10062C00934237D11E4BDB691D4A43F40033D3612F
:10063C001B4BDB6903F40033FB60FB68184B9B69B5
:10064C00174A43F004039361154B9B6903F00403B1
:10065C00BB60BB680423BB610223FB6103237B6289
:10066C0007F1180319460F4800F070FB0823BB6113
:10067C000023FB6100233B6207F11803194609486C
:10068C0000F064FB00220021262000F076FA2620E0
:10069C0000F08FFA00BF2837BD4680BD00380140FE
:1006AC0000100240000801400044004080B400AF3C
:1006BC0000BFFDE780B400AF00BFFDE780B400AF22
:1006CC0000BFFDE780B400AF00BFFDE780B400AF12
:1006DC0000BFFDE780B400AF00BFBD4680BC7047D3
:1006EC0080B400AF00BFBD4680BC704780B400AF83
:1006FC0000BFBD4680BC704780B500AF00F04AF922
:10070C0000BF80BD80B500AF024801F0B3F900BF57
:10071C0080BD00BFB400002080B500AF024801F0DE
:10072C00A9F900BF80BD00BFFC00002080B400AF61
:10073C0001231846BD4680BC704780B582B000AF1F
:10074C007860396002F00AF9034616221A604FF0FD
:10075C00FF3318460837BD4680BD80B582B000AF68
:10076C0078604FF0FF317868FFF7E7FF00BFFDE7D7
:10077C0080B586B000AFF860B9607A6000237B6109
:10078C000AE0AFF300800146BB685A1CBA60CAB2DB
:10079C001A707B6901337B617A697B689A42F0DB62
:1007AC007B6818461837BD4680BD80B586B000AF53
:1007BC00F860B9607A6000237B6109E0BB685A1C61
:1007CC00BA601B781846AFF300807B6901337B61FC
:1007DC007A697B689A42F1DB7B6818461837BD460C
:1007EC0080BD80B483B000AF78604FF0FF33184603
:1007FC000C37BD4680BC704780B483B000AF7860C6
:10080C0039603B684FF400525A60002318460C378D
:10081C00BD4680BC704780B483B000AF78600123C4
:10082C0018460C37BD4680BC704780B485B000AF0D
:10083C00F860B9607A60002318461437BD4680BC56
:10084C007047000080B586B000AF7860144A154B35
:10085C00D31A7B617B693B61134B1B68002B02D164
:10086C00114B124A1A60104B1A687B6813443A6990
:10087C009A4207D202F072F803460C221A604FF02B
:10088C00FF3309E0084B1B68FB60074B1A687B6859
:10089C001344054A1360FB6818461837BD4680BDE3
:1008AC000050002000040000B401002008030020C8
:1008BC0080B400AF00BFBD4680BC7047FFF7F8FFA7
:1008CC000B480C490C4A002302E0D458C4500433A2
:1008DC00C4188C42F9D3094A094C002301E0136077
:1008EC000432A242FBD302F03FF8FFF72DFD704714
:1008FC000000002098000020643C000898000020B4
:10090C0008030020FEE7000080B500AF084B1B6811
:10091C00074A43F010031360032000F023F90F2063
:10092C0000F008F8FFF7FCFD0023184680BD00BF5F
:10093C000020024080B582B000AF7860124B1A687C
:10094C00124B1B7819464FF47A73B3FBF1F3B2FBDD
:10095C00F3F3184600F03BF90346002B01D00123BA
:10096C000EE07B680F2B0AD8002279684FF0FF301D
:10097C0000F003F9064A7B681360002300E00123B2
:10098C0018460837BD4680BD3000002038000020D6
:10099C003400002080B400AF054B1B781A46054B81
:1009AC001B681344034A136000BFBD4680BC7047EC
:1009BC0038000020B801002080B400AF024B1B6847
:1009CC001846BD4680BC7047B801002080B485B085
:1009DC0000AF78607B6803F00703FB600C4BDB68AF
:1009EC00BB60BA684FF6FF031340BB60FB681A028A
:1009FC00BB68134343F0BF6343F40033BB60044A4A
:100A0C00BB68D36000BF1437BD4680BC704700BFC5
:100A1C0000ED00E080B400AF044BDB681B0A03F070
:100A2C0007031846BD4680BC704700BF00ED00E0D0
:100A3C0080B483B000AF0346FB7197F90730002BED
:100A4C000BDBFB7903F01F02064997F907305B09B2
:100A5C00012000FA02F241F8232000BF0C37BD46FA
:100A6C0080BC704700E100E080B483B000AF034667
:100A7C003960FB7197F90730002B0ADB3B68DAB25F
:100A8C000C4997F907301201D2B20B4483F80023BA
:100A9C000AE03B68DAB20849FB7903F00F03043B28
:100AAC001201D2B20B441A7600BF0C37BD4680BC83
:100ABC00704700BF00E100E000ED00E080B489B0B9
:100ACC0000AFF860B9607A60FB6803F00703FB6164
:100ADC00FB69C3F10703042B28BF0423BB61FB692B
:100AEC000433062B02D9FB69033B00E000237B6136
:100AFC004FF0FF32BB6902FA03F3DA43BB681A40CA
:100B0C007B699A404FF0FF317B6901FA03F3D943BB
:100B1C007B680B40134318462437BD4680BC704796
:100B2C0080B582B000AF78607B68013BB3F1807F09
:100B3C0001D301230FE00A4A7B68013B53600F216C
:100B4C004FF0FF30FFF790FF054B00229A60044BEB
:100B5C0007221A60002318460837BD4680BD00BF27
:100B6C0010E000E080B582B000AF78607868FFF7E5
:100B7C002DFF00BF0837BD4680BD80B586B000AFE5
:100B8C000346B9607A60FB7300237B61FFF742FF79
:100B9C0078617A68B9687869FFF790FF024697F92F
:100BAC000F3011461846FFF75FFF00BF1837BD46E0
:100BBC0080BD80B582B000AF0346FB7197F907305A
:100BCC001846FFF735FF00BF0837BD4680BD80B51E
:100BDC0082B000AF78607868FFF7A2FF0346184632
:100BEC000837BD4680BD80B485B000AF7860002367
:100BFC00FB737B6893F82130DBB2022B08D07B6847
:100C0C0004229A637B68002283F82020012320E0D1
:100C1C007B681B681A687B681B6822F00E021A60DE
:100C2C007B681B681A687B681B6822F001021A60DB
:100C3C007B681A6C7B68DB6B012101FA02F25A604B
:100C4C007B68012283F821207B68002283F8202016
:100C5C00FB7B18461437BD4680BC704780B584B00A
:100C6C0000AF78600023FB737B6893F82130DBB214
:100C7C00022B05D07B6804229A630123FB7351E09D
:100C8C007B681B681A687B681B6822F00E021A606E
:100C9C007B681B681A687B681B6822F001021A606B
:100CAC007B681B68224A934229D07B681B68214AC7
:100CBC00934222D07B681B681F4A93421AD07B68F0
:100CCC001B681E4A934212D07B681B681C4A9342D5
:100CDC000AD07B681B681B4A934202D14FF48013E5
:100CEC000EE04FF080730BE04FF4803308E04FF4CC
:100CFC00805305E04FF4807302E0102300E00123E1
:100D0C00114A53607B68012283F821207B68002202
:100D1C0083F820207B685B6B002B03D07B685B6BBC
:100D2C0078689847FB7B18461037BD4680BD00BFDE
:100D3C00080002401C000240300002404400024007
:100D4C00580002406C0002400000024080B48BB09E
:100D5C0000AF7860396000237B6200233B6269E15D
:100D6C0001227B6A02FA03F3FB613B681B68FA6998
:100D7C001340BB61BA69FB699A4240F058813B68E9
:100D8C005B689A4A93425ED0984A934275D8984AC7
:100D9C00934258D0964A93426FD8964A934252D077
:100DAC00944A934269D8944A93424CD0924A9342C3
:100DBC0063D8924A934246D0904A93425DD8122B04
:100DCC002AD8122B59D801A252F823F0530E00083E
:100DDC002D0E00083F0E0008810E0008870E00083B
:100DEC00870E0008870E0008870E0008870E000883
:100DFC00870E0008870E0008870E0008870E000873
:100E0C00870E0008870E0008870E0008870E000862
:100E1C00350E0008490E0008794A934213D02CE095
:100E2C003B68DB683B6229E03B68DB6804333B6270
:100E3C0024E03B68DB6808333B621FE03B68DB68FF
:100E4C000C333B621AE03B689B68002B02D10423F5
:100E5C003B6213E03B689B68012B05D108233B6286
:100E6C007B68FA691A6109E008233B627B68FA69BE
:100E7C005A6103E000233B6200E000BFBB69FF2B1B
:100E8C0001D87B6801E07B6804337B61BB69FF2B75
:100E9C0002D87B6A9B0002E07B6A083B9B003B61AB
:100EAC007B691A680F213B6901FA03F3DB431A4093
:100EBC00396A3B6901FA03F31A437B691A603B6890
:100ECC005B6803F08053002B00F0B1804D4B9B69A5
:100EDC004C4A43F0010393614A4B9B6903F00103B5
:100EEC00BB60BB68484A7B6A9B08023352F82330CC
:100EFC00FB607B6A03F003039B000F2202FA03F3EF
:100F0C00DB43FA681340FB607B68404A934213D082
:100F1C007B683F4A93420DD07B683E4A934207D090
:100F2C007B683D4A934201D1032306E0042304E08D
:100F3C00022302E0012300E000237A6A02F003029C
:100F4C0092009340FA681343FB602F497B6A9B081D
:100F5C000233FA6841F823203B685B6803F4801382
:100F6C00002B06D02D4B9A682C49BB6913438B6020
:100F7C0006E02A4B9A68BB69DB43284913408B6017
:100F8C003B685B6803F40013002B06D0234BDA6834
:100F9C002249BB691343CB6006E0204BDA68BB697E
:100FAC00DB431E491340CB603B685B6803F40033A2
:100FBC00002B06D0194B5A681849BB6913434B6078
:100FCC0006E0164B5A68BB69DB43144913404B606F
:100FDC003B685B6803F48033002B21D00F4B1A68FD
:100FEC000E49BB6913430B6021E000BF00003210B7
:100FFC00000031100000221000002110000012101F
:10100C0000001110001002400000014000080140D7
:10101C00000C01400010014000140140000401408C
:10102C000B4B1A68BB69DB43094913400B607B6AA5
:10103C0001337B623B681A687B6A22FA03F3002B4C
:10104C007FF48EAE00BF00BF2C37BD4680BC70470E
:10105C000004014080B586B000AF78607B68002B3F
:10106C0001D1012372E27B681B6803F00103002BA2
:10107C0000F08780924B5B6803F00C03042B0CD0C0
:10108C008F4B5B6803F00C03082B12D18C4B5B6805
:10109C0003F48033B3F5803F0BD1894B1B6803F409
:1010AC000033002B6CD07B685B68002B68D101236C
:1010BC004CE27B685B68B3F5803F06D1804B1B68C4
:1010CC007F4A43F4803313602EE07B685B68002B0F
:1010DC000CD17B4B1B687A4A23F480331360784B1A
:1010EC001B68774A23F4802313601DE07B685B68E0
:1010FC00B3F5A02F0CD1724B1B68714A43F48023BB
:10110C0013606F4B1B686E4A43F4803313600BE023
:10111C006B4B1B686A4A23F480331360684B1B6863
:10112C00674A23F4802313607B685B68002B13D021
:10113C00FFF742FC386108E0FFF73EFC02463B69D2
:10114C00D31A642B01D9032300E25D4B1B6803F413
:10115C000033002BF0D014E0FFF72EFC386108E0D0
:10116C00FFF72AFC02463B69D31A642B01D90323EF
:10117C00ECE1534B1B6803F40033002BF0D100E07F
:10118C0000BF7B681B6803F00203002B63D04C4B41
:10119C005B6803F00C03002B0BD0494B5B6803F02E
:1011AC000C03082B1CD1464B5B6803F48033002BDB
:1011BC0016D1434B1B6803F00203002B05D07B6850
:1011CC001B69012B01D00123C0E13D4B1B6823F0AF
:1011DC00F8027B685B69DB00394913430B603AE02A
:1011EC007B681B69002B20D0364B01221A60FFF75D
:1011FC00E3FB386108E0FFF7DFFB02463B69D31ADB
:10120C00022B01D90323A1E12D4B1B6803F0020330
:10121C00002BF0D02A4B1B6823F0F8027B685B692B
:10122C00DB00274913430B6015E0264B00221A60A4
:10123C00FFF7C2FB386108E0FFF7BEFB02463B69D3
:10124C00D31A022B01D9032380E11D4B1B6803F039
:10125C000203002BF0D17B681B6803F00803002B02
:10126C003AD07B689B69002B19D0174B01221A606E
:10127C00FFF7A2FB386108E0FFF79EFB02463B69D3
:10128C00D31A022B01D9032360E10D4B5B6A03F0E7
:10129C000203002BF0D0012000F0CEFA1CE00A4B28
:1012AC0000221A60FFF788FB38610FE0FFF784FB20
:1012BC0002463B69D31A022B08D9032346E100BF2F
:1012CC00001002400000424280044242924B5B6A92
:1012DC0003F00203002BE9D17B681B6803F00403C5
:1012EC00002B00F0A6800023FB758B4BDB6903F011
:1012FC008053002B0DD1884BDB69874A43F0805318
:10130C00D361854BDB6903F08053BB60BB68012361
:10131C00FB75824B1B6803F48073002B18D17F4B39
:10132C001B687E4A43F480731360FFF745FB3861FA
:10133C0008E0FFF741FB02463B69D31A642B01D945
:10134C00032303E1754B1B6803F48073002BF0D06F
:10135C007B68DB68012B06D16F4B1B6A6E4A43F02E
:10136C00010313622DE07B68DB68002B0CD16A4B08
:10137C001B6A694A23F001031362674B1B6A664AB6
:10138C0023F0040313621CE07B68DB68052B0CD193
:10139C00614B1B6A604A43F0040313625E4B1B6A89
:1013AC005D4A43F0010313620BE05B4B1B6A5A4A24
:1013BC0023F001031362584B1B6A574A23F00403B2
:1013CC0013627B68DB68002B15D0FFF7F5FA3861E8
:1013DC000AE0FFF7F1FA02463B69D31A41F2883270
:1013EC00934201D90323B1E04B4B1B6A03F0020378
:1013FC00002BEED014E0FFF7DFFA38610AE0FFF7BC
:10140C00DBFA02463B69D31A41F28832934201D986
:10141C0003239BE0404B1B6A03F00203002BEED12D
:10142C00FB7D012B05D13C4BDB693B4A23F0805300
:10143C00D3617B68DB69002B00F08780364B5B68DF
:10144C0003F00C03082B61D07B68DB69022B46D1BF
:10145C00334B00221A60FFF7AFFA386108E0FFF750
:10146C00ABFA02463B69D31A022B01D903236DE078
:10147C00294B1B6803F00073002BF0D17B681B6AAF
:10148C00B3F5803F08D1244B5B6823F400327B68B2
:10149C009B68214913434B601F4B5B6823F4741208
:1014AC007B68196A7B685B6A0B431B4913434B606F
:1014BC001B4B01221A60FFF77FFA386108E0FFF737
:1014CC007BFA02463B69D31A022B01D903233DE078
:1014DC00114B1B6803F00073002BF0D035E0104B60
:1014EC0000221A60FFF768FA386108E0FFF764FA27
:1014FC0002463B69D31A022B01D9032326E0064B83
:10150C001B6803F00073002BF0D11EE07B68DB69D5
:10151C00012B07D1012319E000100240007000409C
:10152C00600042420B4B5B68FB60FB6803F480324B
:10153C007B681B6A9A4206D1FB6803F470127B68C5
:10154C005B6A9A4201D0012300E000231846183749
:10155C00BD4680BD0010024080B584B000AF7860FD
:10156C0039607B68002B01D10123D0E06A4B1B68EA
:10157C0003F007033A689A4210D9674B1B6823F0B3
:10158C00070265493B6813430B60634B1B6803F010
:10159C0007033A689A4201D00123B8E07B681B68C4
:1015AC0003F00203002B20D07B681B6803F00403BC
:1015BC00002B05D0594B5B68584A43F4E0635360E9
:1015CC007B681B6803F00803002B05D0534B5B684A
:1015DC00524A43F460535360504B5B6823F0F00263
:1015EC007B689B684D4913434B607B681B6803F019
:1015FC000103002B40D07B685B68012B07D1474B64
:10160C001B6803F40033002B15D101237FE07B68AA
:10161C005B68022B07D1414B1B6803F00073002B56
:10162C0009D1012373E03D4B1B6803F00203002B2F
:10163C0001D101236BE0394B5B6823F003027B681B
:10164C005B68364913434B60FFF7B6F9F8600AE064
:10165C00FFF7B2F90246FB68D31A41F28832934283
:10166C0001D9032353E02D4B5B6803F00C027B681C
:10167C005B689B009A42EBD1274B1B6803F0070376
:10168C003A689A4210D2244B1B6823F00702224975
:10169C003B6813430B60204B1B6803F007033A684D
:1016AC009A4201D0012332E07B681B6803F00403EB
:1016BC00002B08D0194B5B6823F4E0627B68DB6875
:1016CC00164913434B607B681B6803F00803002B1F
:1016DC0009D0124B5B6823F460527B681B69DB00FA
:1016EC000E4913434B6000F021F802460B4B5B682C
:1016FC001B0903F00F030A49CB5C22FA03F3094AD6
:10170C001360094B1B681846FFF714F900231846A1
:10171C001037BD4680BD00BF0020024000100240C3
:10172C00483B0008300000203400002080B487B013
:10173C0000AF0023FB600023BB6000237B61002310
:10174C007B6000233B611E4B5B68FB60FB6803F016
:10175C000C03042B02D0082B03D027E0194B3B6160
:10176C0027E0FB689B0C03F00F03174AD35C7B60EC
:10177C00FB6803F48033002B10D0114B5B685B0CBF
:10178C0003F00103114AD35CBB607B680D4A03FB79
:10179C0002F2BB68B2FBF3F37B6104E07B680C4A9A
:1017AC0002FB03F37B617B693B6102E0054B3B6110
:1017BC0000BF3B6918461C37BD4680BC704700BF54
:1017CC000010024000127A00603B0008703B0008D9
:1017DC0000093D0080B400AF024B1B681846BD46A3
:1017EC0080BC70473000002080B500AFFFF7F2FFDF
:1017FC000246054B5B681B0A03F007030349CB5CED
:10180C0022FA03F3184680BD00100240583B000832
:10181C0080B500AFFFF7DEFF0246054B5B68DB0AC5
:10182C0003F007030349CB5C22FA03F3184680BD8F
:10183C0000100240583B000880B485B000AF7860BF
:10184C000A4B1B680A4AA2FB03235B0A7A6802FB59
:10185C0003F3FB6000BFFB685A1EFA60002BF9D142
:10186C0000BF00BF1437BD4680BC7047300000205D
:10187C00D34D621080B582B000AF78607B68002BCE
:10188C0001D1012342E07B6893F84130DBB2002B9D
:10189C0006D17B68002283F840207868FEF772FE40
:1018AC007B68242283F841207B681B68DA687B689C
:1018BC001B6822F40052DA60786800F0B7FD7B6890
:1018CC001B681A697B681B6822F490421A617B685A
:1018DC001B685A697B681B6822F02A025A617B6874
:1018EC001B68DA687B681B6842F40052DA607B681C
:1018FC0000225A647B68202283F841207B682022D6
:10190C0083F842207B6800225A630023184608376C
:10191C00BD4680BD80B58AB002AFF860B9603B604F
:10192C001346FB8000237B61FB6893F84130DBB2EC
:10193C00202B75D1BB68002B02D0FB88002B01D16A
:10194C0001236EE0FB6800225A64FB68212283F8B5
:10195C004120FFF731F87861FB68FA889A84FB68BC
:10196C00FA88DA84FB689B68B3F5805F08D1FB6862
:10197C001B69002B04D10023FB61BB68BB6103E036
:10198C00BB68FB610023BB612EE03B6800937B6965
:10199C0000228021F86800F01CFB0346002B05D0C8
:1019AC00FB68202283F8412003233AE0FB69002BDB
:1019BC000BD1BB691B881A46FB681B68C2F3080273
:1019CC005A60BB690233BB6107E0FB691A78FB689C
:1019DC001B685A60FB690133FB61FB68DB8C9BB2B3
:1019EC00013B9AB2FB68DA84FB68DB8C9BB2002B60
:1019FC00CBD13B6800937B6900224021F86800F052
:101A0C00E8FA0346002B05D0FB68202283F841201E
:101A1C00032306E0FB68202283F84120002300E02A
:101A2C00022318462037BD4680BD80B584B000AF78
:101A3C00F860B9601346FB80FB6893F84230DBB268
:101A4C00202B12D1BB68002B02D0FB88002B01D1BC
:101A5C0001230BE0FB6800221A63FB881A46B96865
:101A6C00F86800F00FFB034600E00223184610371D
:101A7C00BD4680BD80B5BAB000AF78607B681B688E
:101A8C001B68C7F8E4307B681B68DB68C7F8E0307C
:101A9C007B681B685B69C7F8DC300023C7F8D8305B
:101AAC000023C7F8D430D7F8E43003F00F03C7F89D
:101ABC00D830D7F8D830002B0FD1D7F8E43003F05A
:101ACC002003002B09D0D7F8E03003F02003002BC3
:101ADC0003D0786800F0ECFB5BE2D7F8D830002B31
:101AEC0000F0DE80D7F8DC3003F00103002B06D1C8
:101AFC00D7F8E03003F49073002B00F0D180D7F8C6
:101B0C00E43003F00103002B0BD0D7F8E03003F4E2
:101B1C008073002B05D07B685B6C43F001027B6803
:101B2C005A64D7F8E43003F00403002B0BD0D7F839
:101B3C00DC3003F00103002B05D07B685B6C43F0B9
:101B4C0002027B685A64D7F8E43003F00203002BDE
:101B5C000BD0D7F8DC3003F00103002B05D07B68E9
:101B6C005B6C43F004027B685A64D7F8E43003F0F2
:101B7C000803002B11D0D7F8E03003F02003002B22
:101B8C0005D1D7F8DC3003F00103002B05D07B68BE
:101B9C005B6C43F008027B685A647B685B6C002BBF
:101BAC0000F0F281D7F8E43003F02003002B08D0CA
:101BBC00D7F8E03003F02003002B02D0786800F057
:101BCC0077FB7B681B685B6903F04003002B14BF39
:101BDC0001230023DBB2C7F8D4307B685B6C03F0C5
:101BEC000803002B03D1D7F8D430002B4FD07868E2
:101BFC0000F081FA7B681B685B6903F04003002BE3
:101C0C0041D07B681B681433C7F89C30D7F89C30E4
:101C1C0053E8003FC7F89830D7F8983023F04003CA
:101C2C00C7F8D0307B681B681433D7F8D020C7F8BE
:101C3C00A820C7F8A430D7F8A410D7F8A82041E8FA
:101C4C000023C7F8A030D7F8A030002BD9D17B687F
:101C5C00DB6B002B13D07B68DB6B7E4A5A637B6893
:101C6C00DB6B1846FEF7FAFF0346002B16D07B6899
:101C7C00DB6B5B6B7A68D26B104698470EE078682A
:101C8C0000F093F90AE0786800F08FF906E07868C4
:101C9C0000F08BF97B6800225A6475E100BF73E198
:101CAC007B681B6B012B40F04F81D7F8E43003F0BD
:101CBC001003002B00F04881D7F8E03003F010033C
:101CCC00002B00F041810023BB607B681B681B6804
:101CDC00BB607B681B685B68BB60BB687B681B6810
:101CEC005B6903F04003002B00F0B6807B68DB6B74
:101CFC001B685B68A7F8BE30B7F8BE30002B00F04D
:101D0C0045817B689B8DB7F8BE209A4280F03E815E
:101D1C007B68B7F8BE20DA857B68DB6B9B69202B70
:101D2C0000F088807B681B680C33C7F88830D7F8C4
:101D3C00883053E8003FC7F88430D7F8843023F458
:101D4C008073C7F8B8307B681B680C33D7F8B820A1
:101D5C00C7F89420C7F89030D7F89010D7F8942093
:101D6C0041E80023C7F88C30D7F88C30002BD9D140
:101D7C007B681B6814337B677B6F53E8003F3B67C2
:101D8C003B6F23F00103C7F8B4307B681B68143336
:101D9C00D7F8B420C7F88020FB67F96FD7F88020FC
:101DAC0041E80023BB67BB6F002BE1D17B681B684C
:101DBC0014333B663B6E53E8003FFB65FB6D23F031
:101DCC004003C7F8B0307B681B681433D7F8B020D9
:101DDC00FA66BB66B96EFA6E41E800237B667B6ED1
:101DEC00002BE3D17B68202283F842207B68002201
:101DFC001A637B681B680C33FB64FB6C53E8003F75
:101E0C00BB64BB6C23F01003C7F8AC307B681B6859
:101E1C000C33D7F8AC20BA657B65796DBA6D41E8A7
:101E2C0000233B653B6D002BE3D17B68DB6B1846D5
:101E3C00FEF7D9FE7B6802225A637B689A8D7B6819
:101E4C00DB8D9BB2D31A9BB21946786800F0B6F8BA
:101E5C009CE000BFC72100087B689A8D7B68DB8DF6
:101E6C009BB2D31AA7F8CE307B68DB8D9BB2002BCC
:101E7C0000F08E80B7F8CE30002B00F089807B68A4
:101E8C001B680C33BB63BB6B53E8003F7B637B6B02
:101E9C0023F49073C7F8C8307B681B680C33D7F8F1
:101EAC00C8207A643B64396C7A6C41E80023FB638C
:101EBC00FB6B002BE3D17B681B6814337B627B6A62
:101ECC0053E8003F3B623B6A23F00103C7F8C43080
:101EDC007B681B681433D7F8C4203A63FB62F96A39
:101EEC003A6B41E80023BB62BB6A002BE3D17B68F1
:101EFC00202283F842207B6800221A637B681B68CF
:101F0C000C333B613B6953E8003FFB60FB6823F0FB
:101F1C001003C7F8C0307B681B680C33D7F8C0209F
:101F2C00FA61BB61B969FA6941E800237B617B699D
:101F3C00002BE3D17B6802225A63B7F8CE301946E6
:101F4C00786800F03BF823E0D7F8E43003F0800326
:101F5C00002B09D0D7F8E03003F08003002B03D01E
:101F6C00786800F03EF914E0D7F8E43003F0400351
:101F7C00002B0ED0D7F8E03003F04003002B08D034
:101F8C00786800F07DF904E000BF02E000BF00E0DB
:101F9C0000BFE837BD4680BD80B483B000AF786029
:101FAC0000BF0C37BD4680BC704780B483B000AF17
:101FBC00786000BF0C37BD4680BC704780B483B0DE
:101FCC0000AF78600B467B8000BF0C37BD4680BCF1
:101FDC00704780B586B000AFF860B9603B601346BF
:101FEC00FB713BE03B6AB3F1FF3F37D0FEF7E4FCFB
:101FFC0002463B68D31A3A6A9A4202D33B6A002BD8
:10200C0001D103233AE0FB681B68DB6803F004038F
:10201C00002B23D0BB68802B20D0BB68402B1DD05D
:10202C00FB681B681B6803F00803082B16D1002300
:10203C007B61FB681B681B687B61FB681B685B68CA
:10204C007B617B69F86800F056F8FB6808225A64DB
:10205C00FB68002283F8402001230FE0FB681B681B
:10206C001A68BB681340BA689A420CBF012300235C
:10207C00DBB21A46FB799A42B4D0002318461837C3
:10208C00BD4680BD80B485B000AFF860B960134622
:10209C00FB80FB68BA689A62FB68FA889A85FB68D1
:1020AC00FA88DA85FB6800225A64FB68222283F8DE
:1020BC004220FB681B69002B07D0FB681B68DA68A1
:1020CC00FB681B6842F48072DA60FB681B685A6913
:1020DC00FB681B6842F001025A61FB681B68DA68F6
:1020EC00FB681B6842F02002DA60002318461437A4
:1020FC00BD4680BC704780B495B000AF78607B68FB
:10210C001B680C337B637B6B53E8003F3B633B6B7F
:10211C0023F49073FB647B681B680C33FA6C3A6491
:10212C00FB63F96B3A6C41E80023BB63BB6B002B80
:10213C00E5D17B681B6814333B623B6A53E8003F74
:10214C00FB61FB6923F00103BB647B681B681433E0
:10215C00BA6CFA62BB62B96AFA6A41E800237B6224
:10216C007B6A002BE5D17B681B6B012B19D17B683B
:10217C001B680C33FB60FB6853E8003FBB60BB681B
:10218C0023F010037B647B681B680C337A6CBA6198
:10219C007B617969BA6941E800233B613B69002B9B
:1021AC00E5D17B68202283F842207B6800221A63E9
:1021BC0000BF5437BD4680BC704780B584B000AFBB
:1021CC0078607B685B6AFB60FB680022DA85FB68E1
:1021DC000022DA84F868FFF7E8FE00BF1037BD462E
:1021EC0080BD80B485B000AF78607B6893F84130D7
:1021FC00DBB2212B3ED17B689B68B3F5805F14D199
:10220C007B681B69002B10D17B681B6AFB60FB6829
:10221C001B881A467B681B68C2F308025A607B68ED
:10222C001B6A9A1C7B681A6208E07B681B6A591C43
:10223C007A6811621A787B681B685A607B68DB8C41
:10224C009BB2013B9BB27A681946D184002B0FD10B
:10225C007B681B68DA687B681B6822F08002DA6096
:10226C007B681B68DA687B681B6842F04002DA60A6
:10227C00002300E0022318461437BD4680BC70478B
:10228C0080B582B000AF78607B681B68DA687B68C9
:10229C001B6822F04002DA607B68202283F8412020
:1022AC007868FFF779FE002318460837BD4680BDD5
:1022BC0080B58CB000AF78607B6893F84230DBB2AD
:1022CC00222B40F0AE807B689B68B3F5805F17D102
:1022DC007B681B69002B13D10023FB627B689B6A14
:1022EC00BB627B681B685B689BB2C3F308039AB242
:1022FC00BB6A1A807B689B6A9A1C7B689A6226E090
:10230C007B689B6AFB620023BB627B689B68B3F5AE
:10231C00805F07D07B689B68002B0AD17B681B69A8
:10232C00002B06D17B681B685B68DAB2FB6A1A70FB
:10233C0008E07B681B685B68DBB203F07F03DAB2F2
:10234C00FB6A1A707B689B6A5A1C7B689A627B6872
:10235C00DB8D9BB2013B9BB27A681946D185002B71
:10236C005DD17B681B68DA687B681B6822F02002F1
:10237C00DA607B681B68DA687B681B6822F4807201
:10238C00DA607B681B685A697B681B6822F0010263
:10239C005A617B68202283F842207B6800225A63B2
:1023AC007B681B6B012B35D17B6800221A637B6821
:1023BC001B680C337B617B6953E8003F3B613B69D5
:1023CC0023F010037B627B681B680C337A6A3A62D9
:1023DC00FB61F9693A6A41E80023BB61BB69002BD8
:1023EC00E5D17B681B681B6803F01003102B0AD126
:1023FC000023FB607B681B681B68FB607B681B68A9
:10240C005B68FB60FB687B689B8D19467868FFF7FF
:10241C00D5FD02E07868FDF753FF002302E00023AE
:10242C0000E0022318463037BD4680BD80B584B02D
:10243C0000AF78607B681B681B6923F440517B6894
:10244C00DA687B681B680A431A617B689A687B6848
:10245C001B691A437B685B691343BB607B681B6811
:10246C00DB6823F4B05323F00C037A681268B96864
:10247C000B43D3607B681B685B6923F440717B68FA
:10248C009A697B681B680A435A617B681B682C4AF3
:10249C00934203D1FFF7BCF9F86002E0FFF7A4F90F
:1024AC00F860FA6813469B0013449A001A447B6840
:1024BC005B689B00B2FBF3F3224AA2FB03235B098C
:1024CC001901FA6813469B0013449A001A447B685E
:1024DC005B689B00B2FBF3F21A4BA3FB02035B0994
:1024EC00642000FB03F3D31A1B013233154AA2FB01
:1024FC0003235B0903F0F0031944FA6813469B00AD
:10250C0013449A001A447B685B689B00B2FBF3F29D
:10251C000C4BA3FB02035B09642000FB03F3D31AEF
:10252C001B013233074AA2FB03235B0903F00F02A2
:10253C007B681B680A449A6000BF1037BD4680BD9B
:10254C00003801401F85EB51002310B50446C0E94B
:10255C000033C0E90433836081814366C2818361A7
:10256C00194608225C3000F02AF90D4B2462636294
:10257C000C4BA3620C4BE3620C4B23630C4B9C4245
:10258C0006D003F16802944202D0D0339C4205D1AC
:10259C0004F15800BDE8104000F00ABA10BD00BFAD
:1025AC0045270008672700089F270008C327000855
:1025BC00BC010020024A0349034800F069B800BF7F
:1025CC003C000020CD3200084C00002041680C4B30
:1025DC0010B59942044601D000F072FEA168094B77
:1025EC00994202D0204600F06BFEE168064B9942FE
:1025FC0004D02046BDE8104000F062BE10BD00BF04
:10260C00BC010020240200208C02002010B50B4BD2
:10261C000B4C0C4A20461A6004210022FFF794FF51
:10262C0004F1680001220921FFF78EFF04F1D000AC
:10263C000222BDE810401221FFF786BFF4020020F1
:10264C00BC010020C1250008014800F0B2B900BF50
:10265C00FD020020014800F0ADB900BFFD020020D2
:10266C0010B50446FFF7F0FF236A1BB1BDE810401C
:10267C00FFF7F0BF044B2362044B1B68002BF5D112
:10268C00FFF7C4FFF2E700BFD9250008F4020020D1
:10269C002DE9F8430746884614460026D4E90195EF
:1026AC00B9F1010905D52468002CF7D13046BDE8F5
:1026BC00F883AB89012B07D9B5F90E30013303D060
:1026CC0029463846C04706436835E9E70CB430B5AF
:1026DC00184B0C1E1D689DB008DA8B234FF0FF3091
:1026EC002B601DB0BDE8304002B070474FF4027350
:1026FC00ADF814304FF000031B930CBF234604F1CC
:10270C00FF33049307934FF6FF7302900690ADF8D6
:10271C001630284621AB209A02A9019300F0C4FA86
:10272C00431CBCBF8B232B60002CDAD00022029BF5
:10273C001A70D6E74800002010B50C46B1F90E10FF
:10274C0000F0E8F80028ABBF636DA3891B1823F4D5
:10275C008053ACBF6365A38110BD2DE9F0411F46CA
:10276C008B890546DB050C46164605D5022300224F
:10277C00B1F90E1000F0BCF8A389324623F4805353
:10278C00A38128463B46B4F90E10BDE8F04100F099
:10279C00D3B810B50C46B1F90E1000F0A9F8431CD3
:1027AC00A38915BF606523F4805343F48053A38140
:1027BC0018BFA38110BDB1F90E1000F089B8034603
:1027CC000244934200D1704703F8011BF9E710B59E
:1027DC006AB10139841810F8012B11F8013F9A42A3
:1027EC0003D1A04201D0002AF5D1D01A10BD104659
:1027FC00FCE7034610B5013932B111F8014F013A2B
:10280C0003F8014B002CF7D100211A44934200D15C
:10281C0010BD03F8011BF9E7164B2DE9F0411F68B9
:10282C0005467C6C0E46ECB9502000F02BF90246A4
:10283C00786420B95B21104B104800F0BDF8C0E95A
:10284C000044C0E90244C0E90444C0E90A44C0E9B8
:10285C000C44C0E90E44C0E91044C0E91244846140
:10286C0004774462314628467A6C0123BDE8F04176
:10287C0000F006B848000020723B0008893B0008B5
:10288C00F0B5044608B9146844B10F46204614F854
:10289C00015B17F8016B1EB965B91560002005E0E6
:1028AC00B542F6D1002BF0D114600370F0BD1C467C
:1028BC000CE01DB90E46274614F8013B16F8015BD7
:1028CC00AB42F6D1002BF2D000233B701460EDE745
:1028DC0038B50023054D044608462B60FDF781FFF3
:1028EC00431C02D12B6803B1236038BDF8020020D1
:1028FC0038B50446084611460022054D2A601A4692
:10290C00FDF793FF431C02D12B6803B1236038BD44
:10291C00F802002038B50446084611460022054D41
:10292C002A601A46FDF724FF431C02D12B6803B121
:10293C00236038BDF802002038B50446084611461D
:10294C000022054D2A601A46FDF72FFF431C02D1C9
:10295C002B6803B1236038BDF8020020014B1868C6
:10296C00704700BF4800002070B500260C4D0D4C80
:10297C00641BA410A64209D100F0FAFF00260A4DF0
:10298C000A4C641BA410A64205D170BD55F8043B3B
:10299C0098470136EEE755F8043B98470136F2E7C5
:1029AC005C3C00085C3C00085C3C0008603C000897
:1029BC0070477047704700001FB514461A46094B04
:1029CC0005461B68D8684CB1074BCDE90134009122
:1029DC002B46064900F09CFC00F0F2FC044B1C4614
:1029EC00F3E700BF48000020E33B0008F03B000881
:1029FC001E3C000838B50546002940D051F8043C6F
:102A0C000C1F002BB8BFE41800F0E6F81C4A136842
:102A1C0033B9636014602846BDE8384000F0E2B872
:102A2C00A34208D9206821188B4201BF19685B6842
:102A3C0009182160EDE71A465B680BB1A342FAD97D
:102A4C0011685018A0420BD12068014450188342E1
:102A5C001160E0D118685B68084410605360DAE7D5
:102A6C0002D90C232B60D6E7206821188B4201BFBA
:102A7C0019685B680918216063605460CBE738BD46
:102A8C0004030020024B0146186800F025B800BF73
:102A9C004800002070B50F4E0C463168054611B940
:102AAC0000F062FC30602146284600F05DFC431CBF
:102ABC0003D14FF0FF34204670BDC41C24F0030436
:102ACC00A042F8D0211A284600F04EFC0130F2D179
:102ADC00EFE700BF000300202DE9F843CD1C25F0E3
:102AEC00030508350C2D38BF0C25002D064601DBDF
:102AFC00A94204D90C2333600020BDE8F883DFF829
:102B0C00D48000F069F8D8F800301C4644BB294644
:102B1C003046FFF7BFFF431C044658D1D8F800409D
:102B2C002746002F43D1002C4BD023683946304622
:102B3C0004EB030900F018FC814542D121683046B2
:102B4C006D1A2946FFF7A6FF01303AD023682B44B3
:102B5C002360D8F800305A6862BBC8F800700FE0E8
:102B6C002268521B20D40B2A17D96119A342256065
:102B7C0018BF5960636808BFC8F8001062514B60F9
:102B8C00304600F02FF804F10B00231D20F0070055
:102B9C00C21A1CBF1B1AA350AFE76268A3420CBF3A
:102BAC00C8F800205A60EBE723466468AEE73C4661
:102BBC007F68B6E71A465B68A342FBD100235360DB
:102BCC00DEE70C233046336000F00CF894E7056028
:102BDC00D6E700BF040300200148FFF7EABE00BFA0
:102BEC00FC0200200148FFF7E5BE00BFFC020020FC
:102BFC002DE9F0471F468E688246BE420C46904631
:102C0C000B682DD8B1F90C2012F4906F26D06569A1
:102C1C00096905EB4505A3EB010905EBD5757B1C93
:102C2C004B446D109D4238BF1D46530527D5294690
:102C3C00FFF752FF064660B34A46216900F0B2FB2B
:102C4C00A38923F4906343F08003A38126614E444F
:102C5C0026603E466561A5EB0905A560BE4200D91C
:102C6C003E4632464146206800F064FB0020A368D3
:102C7C009B1BA360236833442360BDE8F0872A467E
:102C8C0000F0A5FB06460028E0D150462169FFF76D
:102C9C00B1FE0C23CAF80030A3894FF0FF3043F08B
:102CAC004003A381E9E700002DE9F04F98468B899A
:102CBC0007461B060D4614469DB010D50B6973B91B
:102CCC004021FFF709FF2860286130B90C233B60D5
:102CDC004FF0FF301DB0BDE8F08F40236B61002337
:102CEC00099320238DF8293030234FF00109CDF8BA
:102CFC000C80DFF898818DF82A3023469A4613F819
:102D0C00012B0AB1252AF9D1BAEB040B0BD05B4687
:102D1C00224629463846FFF76BFF013000F0A780AA
:102D2C00099A5A4409929AF80030002B00F09F80BF
:102D3C0000234FF0FF32CDE905230AF1010A049379
:102D4C0007938DF853301A935446052214F8011B3F
:102D5C004E4800F019FB049AD8B9D00644BF202382
:102D6C008DF85330110744BF2B238DF853309AF84C
:102D7C0000302A2B15D0544600204FF00A0C079A2D
:102D8C00214611F8013B303B092B4BD9B0B10792CE
:102D9C0014E0A0EB080309FA03F31343A2460493CF
:102DAC00D2E7039B191D1B680391002BBBBF5B4231
:102DBC0042F0020207930793B8BF049223782E2B9C
:102DCC000AD163782A2B32D1039B02341A1D1B685B
:102DDC00039243EAE3730593DFF8B4A00322504651
:102DEC00217800F0D1FA38B14022049BA0EB0A0004
:102DFC00824013430134049314F8011B0622254826
:102E0C008DF8281000F0C0FA002836D0224B1BBBDE
:102E1C00039B073323F0070308330393099B3344C5
:102E2C0009936AE70C4601200CFB0232A8E7002349
:102E3C004FF00A0C194601340593204610F8012B6B
:102E4C00303A092A03D9002BC6D00591C4E70446B1
:102E5C0001230CFB0121F0E703AB00932A46384613
:102E6C000E4B04A9AFF30080421C0646D6D1AB89A9
:102E7C005B063FF52DAF09982CE703AB00932A4670
:102E8C003846064B04A900F07DF8EDE71F3C00081E
:102E9C00253C0008293C000800000000FD2B000820
:102EAC002DE9F047164698468A680B690746934207
:102EBC00B8BF1346336091F843200C46DDF82090E0
:102ECC000AB1013333602368990642BF3368023379
:102EDC003360256815F0060506D104F1190AE3687C
:102EEC0032689B1AAB422BDC94F843302268003BCF
:102EFC0018BF0123920630D44146384604F14302F0
:102F0C00C847013023D02368226903F00603042B41
:102F1C0014BF002533684FF0000608BFE56804F1C4
:102F2C001A0408BFED1A54F8123C08BF25EAE575DF
:102F3C009342C4BF9B1AED18B5421AD1002008E089
:102F4C000123524641463846C847013003D14FF061
:102F5C00FF30BDE8F0870135C1E73020E11881F87A
:102F6C0043005A1C94F845102244023382F8431053
:102F7C00C2E70123224641463846C8470130E6D015
:102F8C000136D9E72DE9FF470F7E9146782F804611
:102F9C000C469A460C9E01F1430207D8622F0AD8C0
:102FAC00002F00F0D180582F00F0B88004F14206B9
:102FBC0084F842703AE0A7F16303152BF6D801A10F
:102FCC0051F823F0293000083D300008B92F0008D3
:102FDC00B92F0008B92F0008B92F00083D300008A0
:102FEC00B92F0008B92F0008B92F0008B92F000815
:102FFC003B31000867300008F5300008B92F000895
:10300C00B92F00085D310008B92F0008673000089F
:10301C00B92F0008B92F0008FD30000833681A1DBD
:10302C001B68326004F1420684F8423001239CE0B4
:10303C0033682068191D3160060601D51D6803E050
:10304C004506FBD5B3F90050002D03DA2D236D4254
:10305C0084F843300A23584811E021683368080685
:10306C0053F8045B02D4490648BFADB26F2F3360EE
:10307C0014BF0A2308235048002184F843106668C3
:10308C00002EA66005DB21682E4321F0040121608F
:10309C004BD01646B5FBF3F103FB1157C75D06F891
:1030AC00017D2F46BB420D46F4D9082B0BD123686A
:1030BC00DF0708D5236961689942DEBF302306F823
:1030CC00013C06F1FF36921B22614B4621464046DD
:1030DC00CDF800A003AAFFF7E3FE01304AD14FF070
:1030EC00FF3004B0BDE8F087236843F02003236071
:1030FC007827324884F84570236831681F0651F8E8
:10310C00045B02D45F0648BFADB23160D90744BF3F
:10311C0043F0200323601DB11023ADE72648E9E7F7
:10312C00236823F020032360F6E71646BDE73368D7
:10313C002568181D616930602E061B6801D5196061
:10314C0002E06806FBD51980002316462361BCE714
:10315C00336800211A1D32601E686268304600F028
:10316C0013F908B1801B606063682361002384F845
:10317C004330AAE73246494640462369D0470130DE
:10318C00ADD023689B0713D4E068039B9842B8BF6B
:10319C001846A6E70123324649464046D04701303F
:1031AC009DD00135E36803995B1AAB42F2DCEBE787
:1031BC00002504F11906F5E7303C0008413C0008F5
:1031CC00B1F90C20F8B5160705460C4654D44B68DB
:1031DC00002B02DC0B6C002B48DDE66A002E45D080
:1031EC00002312F480522F68216A2B6030D0626D5C
:1031FC00A389590705D56368D21A636B0BB1236C8D
:10320C00D21A00232846E66A216AB047431CA389D8
:10321C0006D129681D292BD8284ACA40D60727D59C
:10322C00002262602269D904226004D5421C01D1BB
:10323C002B6803B96065616B2F60B9B104F144036D
:10324C00994202D02846FFF7D5FB002363630DE0BB
:10325C0001232846B0470246501CC9D12B68002BCD
:10326C00C6D01D2B01D0162B1DD12F60002021E0C4
:10327C0043F040031BB21AE00F69002FF6D09307FE
:10328C0018BF00230E6808BF4B69F61B0F608B60DC
:10329C00002EEBDD33463A462846216AD4F828C086
:1032AC00E047002807DCB4F90C3043F040034FF042
:1032BC00FF30A381F8BD0744361AE9E7010040202E
:1032CC0038B50B6905460C4613B90025284638BDA0
:1032DC0018B1036A0BB9FFF7C3F9B4F90C30002B22
:1032EC00F3D0626ED00704D4990502D4A06DFFF719
:1032FC0060FB28462146FFF763FF636E0546DA073D
:10330C00E4D4A3899B05E1D4A06DFFF753FBDDE763
:10331C000EB403B5014603AB054853F8042B006803
:10332C00019300F0A9F802B05DF804EB03B070470C
:10333C0048000020884210B501EB020402D98442F7
:10334C00234607D8431EA14208D011F8012B03F8DD
:10335C00012FF8E7014602448A4200D110BD13F850
:10336C00014D02F8014DF7E738B50023054D044631
:10337C0008462B60FDF766FA431C02D12B6803B19B
:10338C00236038BDF8020020034610B5C9B20244D0
:10339C009342184601D1002003E0047801338C429B
:1033AC00F6D110BD0A44914200F1FF3300D17047B1
:1033BC0010B511F8014B914203F8014FF9D110BD32
:1033CC00062008B500F02CFA0120FDF7C6F92DE90E
:1033DC00F041074614460D4621B91146BDE8F041AF
:1033EC00FFF77ABB2AB9FFF705FB25462846BDE84F
:1033FC00F08100F031FA8442064602D8B4EB500F4B
:10340C00F4D821463846FFF767FB804608B9454695
:10341C00ECE7B4422246294628BF3246FFF7C2FFEA
:10342C0029463846FFF7E6FAF1E7936810B4013BFA
:10343C00002B936007DA9469A34201DB0A2902D1BD
:10344C0010BC00F031B91368581C10601970084694
:10345C0010BC7047F8B506460F461446D518AC425A
:10346C0001D1002007E03A46304614F8011BFFF763
:10347C00DCFF431CF3D1F8BD2DE9F04F0D4614468B
:10348C00984606469DB018B1036A0BB9FFF7E8F8E9
:10349C006B6ED90705D4AB899A0502D4A86DFFF7DA
:1034AC0088FAAB891B0701D52B699BB92946304695
:1034BC0000F038F970B16B6EDC0704D54FF0FF30BB
:1034CC001DB0BDE8F08FAB899805F7D4A86DFFF758
:1034DC0071FAF3E70023099320238DF82930302368
:1034EC004FF00109CDF80C80DFF8A8818DF82A3057
:1034FC0023469A4613F8012B0AB1252AF9D1BAEBC7
:10350C00040B0BD05B46224629463046FFF7A2FF40
:10351C00013000F0A780099A5A4409929AF80030B9
:10352C00002B00F09F8000234FF0FF32CDE90523E4
:10353C000AF1010A049307938DF853301A935446F9
:10354C00052214F8011B5348FFF71EFF049AD8B943
:10355C00D10644BF20238DF85330130744BF2B23CF
:10356C008DF853309AF800302A2B15D05446002091
:10357C004FF00A0C079A214611F8013B303B092BFE
:10358C004BD9B0B1079214E0A0EB080309FA03F38E
:10359C001343A2460493D2E7039B191D1B680391A6
:1035AC00002BBBBF5B4242F0020207930793B8BFEC
:1035BC00049223782E2B0AD163782A2B32D1039BC9
:1035CC0002341A1D1B68039243EAE3730593DFF878
:1035DC00C8A0032250462178FFF7D6FE38B140220E
:1035EC00049BA0EB0A00824013430134049314F8AB
:1035FC00011B062229488DF82810FFF7C5FE00286C
:10360C003FD0274B1BBB039B073323F00703083327
:10361C000393099B3B4409936AE70C4601200CFB7E
:10362C000232A8E700234FF00A0C19460134059327
:10363C00204610F8012B303A092A03D9002BC6D0AA
:10364C000591C4E7044601230CFB0121F0E703AB11
:10365C0000932A463046134B04A9AFF3008007466B
:10366C00781CD6D16B6ED90705D4AB899A0502D4D8
:10367C00A86DFFF79FF9AB895B063FF51FAF099863
:10368C001EE703AB00932A463046064B04A9FFF70E
:10369C0079FCE4E71F3C0008253C0008293C0008A5
:1036AC000000000061340008F8B50E4614460546CB
:1036BC0018B1036A0BB9FEF7D3FFA369A360A38902
:1036CC001A0701D5236943B92146284600F02AF888
:1036DC0018B14FF0FF373846F8BD23682269F6B2AF
:1036EC00981A63693746834205DC21462846FFF762
:1036FC00E7FD0028EDD1A368013BA36023685A1CA9
:10370C0022601E706269431C9A4204D0A389DB07B5
:10371C00E1D50A2EDFD121462846FFF7D1FD00283E
:10372C00D9D0D6E738B5294B054618680C4618B1E0
:10373C00036A0BB9FEF794FFB4F90C30190722D4C5
:10374C00DA0607D409222A6043F040034FF0FF3019
:10375C00A38133E0580712D5616B41B104F14403E6
:10376C00994202D02846FFF745F900236363A389E9
:10377C0023F02403A3810023636023692360A389BE
:10378C0043F00803A38123694BB9A38903F4207385
:10379C00B3F5007F03D02146284600F08AF8B4F92F
:1037AC000C3013F001020AD00022A260626952426E
:1037BC00A261226942B913F08000C5D138BD9907C6
:1037CC0058BF6269A260F4E70020F7E748000020C8
:1037DC001F2938B505460C4604D9162303604FF053
:1037EC00FF3038BDC26B12B152F821304BB92846AC
:1037FC0000F030F8224601462846BDE8384000F07B
:10380C0017B8012B0AD0591C03D1162303600120D1
:10381C00E7E70021204642F8241098470020E0E713
:10382C00024B01461868FFF7D3BF00BF48000020C9
:10383C0038B50023064D0446084611462B60FCF7AC
:10384C007CFF431C02D12B6803B1236038BD00BF41
:10385C00F8020020FCF76ABF51F8043C181F002B3B
:10386C00BCBF0B58C018704770B50C46B1F90E10A0
:10387C00154600291E4696B00CDAA389002113F0D8
:10388C00800F14BF40234FF48063002031602B6005
:10389C0016B070BD6A4600F049F80028EDDB0199BE
:1038AC0001F47041A1F50053594259414FF4806322
:1038BC00EBE78B89F7B59D0706460C4607D504F157
:1038CC004703236023610123636103B0F0BD6A46A3
:1038DC0001ABFFF7C9FF009F054639463046FFF79D
:1038EC00FBF848B9B4F90C309A05EED423F0030375
:1038FC0043F00203A381E2E7A389C4E9040743F080
:10390C008003A381019B20605BB13046B4F90E109B
:10391C0000F01EF828B1A38923F0030343F0010340
:10392C00A381A3891D43A581CFE7000038B50023EF
:10393C00064D0446084611462B60FCF75DFF431C00
:10394C0002D12B6803B1236038BD00BFF802002000
:10395C0038B50023054D044608462B60FCF75BFF89
:10396C00431C02D12B6803B1236038BDF802002040
:10397C00F8B500BFF8BC08BC9E467047F8B500BF50
:08398C00F8BC08BC9E46704720
:1039940031000000212121204C4F434B4544204F4E
:1039A40055542021212100004E4F524D414C204FAF
:1039B4005045524154494F4E000000001B5B483DA6
:1039C4003D3D3D3D3D3D3D3D3D3D3D3D3D3D3D3D23
:1039D4003D3D3D3D3D3D3D3D3D3D3D3D3D3D3D3D13
:1039E4003D3D3D3D3D3D3D3D0D0A202020424F41A2
:1039F40052442023323A2052454D4F544520454EDF
:103A04005649524F4E4D454E54414C204D4F4E4910
:103A1400544F520D0A3D3D3D3D3D3D3D3D3D3D3DF7
:103A24003D3D3D3D3D3D3D3D3D3D3D3D3D3D3D3DC2
:103A34003D3D3D3D3D3D3D3D3D3D3D3D3D3D0D0A15
:103A4400202A2043757272656E742054656D70650A
:103A5400726174757265203A20257320430D0A2023
:103A64002A204D6F76696E672041766572616765BD
:103A74002054656D70203A20257320430D0A202AB6
:103A840020466972652053616665747920537461B8
:103A940074757320203A205B25735D0D0A202A205B
:103AA40053797374656D20496E7465726C6F636BC2
:103AB400202020203A2025730D0A3D3D3D3D3D3D0B
:103AC4003D3D3D3D3D3D3D3D3D3D3D3D3D3D3D3D22
:103AD4003D3D3D3D3D3D3D3D3D3D3D3D3D3D3D3D12
:103AE4003D3D3D0D0A20436F6E6E656374696F6ED4
:103AF4002053746174757320202020203A204143A0
:103B04005449564520284C697374656E696E672E56
:103B14002E2E290D0A0000007C00000054454D5053
:103B24003D0000004156473D000000004649524513
:103B34003D0000004C4F434B3D0000001B5B324AEC
:103B44001B5B4800000000000000000001020304A9
:103B5400060708090000000001020304020304052B
:103B6400060708090A0B0C0D0E0F1010010252452E
:103B7400454E54206D616C6C6F632073756363658F
:103B840065646564002F6275696C642F676E752DBA
:103B9400746F6F6C732D666F722D73746D33325F37
:103BA40031332E332E72656C312E3230323430394B
:103BB40032362D313731352F7372632F6E65776C42
:103BC40069622F6E65776C69622F6C6962632F730B
:103BD4007472696E672F737472746F6B2E63002C2A
:103BE4002066756E6374696F6E3A20006173736545
:103BF4007274696F6E2022257322206661696C6578
:103C0400643A2066696C6520222573222C206C6935
:103C14006E65202564257325730A00232D302B201F
:103C240000686C4C006566674546470030313233A6
:103C34003435363738394142434445460030313211
:103C440033343536373839616263646566000000A1
:083C5400F8C4FF7F010000002D
:043C5C00310100082A
:043C60000D0100084A
:103C6400302E30000000000000000000302E300034
:103C74000000000000000000554E4B4E4F574E0010
:103C84000000000000000000300000000000000000
:103C940000127A0010000000010000000000000083
:103CA40003000000BC0100204C00002000000000C4
:103CB400BC010020240200208C020020000000002F
:103CC40000000000000000000000000000000000F0
:103CD40000000000000000000000000000000000E0
:103CE40000000000000000000000000000000000D0
:083CF4000000000000000000C8
:04000005080008C91E
:00000001FF
