:020000040800F2
:1000000000500020D92D0008E12A0008E92A000844
:10001000F12A0008F92A0008012B0008000000005E
:10002000000000000000000000000000092B000894
:10003000152B000800000000212B00082D2B0008C4
:10004000212E0008212E0008212E0008212E000854
:10005000212E0008212E0008212E0008212E000844
:10006000212E0008212E0008212E0008212E000834
:10007000212E0008212E0008212E0008212E000824
:10008000212E0008212E0008212E0008212E000814
:10009000212E0008212E0008212E0008212E000804
:1000A000212E0008212E0008212E0008212E0008F4
:1000B000212E0008212E0008212E0008212E0008E4
:1000C000212E0008212E0008212E0008212E0008D4
:1000D000212E0008392B0008212E0008212E0008AF
:1000E000212E0008212E0008212E0008000000000B
:1000F0000000000000000000000000000000000000
:0C01000000000000000000005FF808F1A3
:1001100010B5054C237833B9044B13B10448AFF341
:1001200000800123237010BDE001002000000000CA
:10013000D0AB000808B5034B1BB103490348AFF32C
:10014000008008BD00000000E4010020D0AB0008E2
:1001500010F8012B11F8013B012A28BF9A42F7D071
:10016000D01A7047034613F8012B002AFBD1181A46
:100170000138704781F0004102E000BF83F0004386
:1001800030B54FEA41044FEA430594EA050F08BF32
:1001900090EA020F1FBF54EA000C55EA020C7FEAF6
:1001A000645C7FEA655C00F0E2804FEA5454D4EB73
:1001B0005555B8BF6D420CDD2C4480EA020281EA3D
:1001C000030382EA000083EA010180EA020281EA75
:1001D0000303362D88BF30BD11F0004F4FEA0131C7
:1001E0004FF4801C4CEA113102D0404261EB4101D6
:1001F00013F0004F4FEA03334CEA133302D052425C
:1002000063EB430394EA050F00F0A780A4F1010417
:10021000D5F1200E0DDB02FA0EFC22FA05F2801851
:1002200041F1000103FA0EF2801843FA05F3594137
:100230000EE0A5F120050EF1200E012A03FA0EFCB6
:1002400028BF4CF0020C43FA05F3C01851EBE371E0
:1002500001F0004507D54FF0000EDCF1000C7EEBFD
:1002600000006EEB0101B1F5801F1BD3B1F5001F3B
:100270000CD349085FEA30004FEA3C0C04F101045A
:100280004FEA445212F5800F80F09A80BCF1004F83
:1002900008BF5FEA500C50F1000041EB045141EA05
:1002A000050130BD5FEA4C0C404141EB0101013CCE
:1002B00028BFB1F5801FE9D291F0000F04BF0146BD
:1002C0000020B1FA81F308BF2033A3F10B03B3F18F
:1002D00020020CDA0C3208DD02F1140CC2F10C021F
:1002E00001FA0CF021FA02F10CE002F11402D8BF7D
:1002F000C2F1200C01FA02F120FA0CFCDCBF41EA49
:100300000C019040E41AA2BF01EB0451294330BD17
:100310006FEA04041F3C1CDA0C340EDC04F11404F4
:10032000C4F1200220FA04F001FA02F340EA0300CB
:1003300021FA04F345EA030130BDC4F10C04C4F111
:10034000200220FA02F001FA04F340EA03002946F1
:1003500030BD21FA04F0294630BD94F0000F83F43B
:10036000801306BF81F480110134013D4EE77FEA1E
:10037000645C18BF7FEA655C29D094EA050F08BF6A
:1003800090EA020F05D054EA000C04BF194610464B
:1003900030BD91EA030F1EBF0021002030BD5FEA8F
:1003A000545C05D14000494128BF41F0004130BDB7
:1003B00014F580043CBF01F5801130BD01F000450B
:1003C00045F0FE4141F470014FF0000030BD7FEA7E
:1003D000645C1ABF194610467FEA655C1CBF0B4679
:1003E000024650EA013406BF52EA033591EA030F90
:1003F00041F4002130BD00BF90F0000F04BF002188
:10040000704730B54FF4806404F132044FF00005BA
:100410004FF0000150E700BF90F0000F04BF002133
:10042000704730B54FF4806404F1320410F0004599
:1004300048BF40424FF000013EE700BF42004FEA94
:10044000E2014FEA31014FEA02701FBF12F07F4311
:1004500093F07F4F81F06051704732F07F4208BFC8
:10046000704793F07F4F04BF41F40021704730B5CF
:100470004FF4607401F0004521F000411CE700BF1B
:1004800050EA010208BF704730B54FF000050AE09E
:1004900050EA010208BF704730B511F0004502D59F
:1004A000404261EB41014FF4806404F132045FEAA1
:1004B000915C3FF4D8AE4FF003025FEADC0C18BF4A
:1004C00003325FEADC0C18BF033202EBDC02C2F13C
:1004D000200300FA03FC20FA02F001FA03FE40EACE
:1004E0000E0021FA02F11444BDE600BF70B54FF0D2
:1004F000FF0C4CF4E06C1CEA11541DBF1CEA1355B0
:1005000094EA0C0F95EA0C0F00F0DEF82C4481EA17
:10051000030621EA4C5123EA4C5350EA013518BF37
:1005200052EA033541F4801143F4801338D0A0FB24
:1005300002CE4FF00005E1FB02E506F00042E0FBD1
:1005400003E54FF00006E1FB03569CF0000F18BFD7
:100550004EF0010EA4F1FF04B6F5007F64F540747F
:1005600004D25FEA4E0E6D4146EB060642EAC62112
:1005700041EA55514FEAC52040EA5E504FEACE2E7F
:10058000B4F1FD0C88BFBCF5E06F1ED8BEF1004F82
:1005900008BF5FEA500E50F1000041EB045170BDFE
:1005A00006F0004646EA010140EA020081EA030142
:1005B000B4EB5C04C2BFD4EB0C0541EA045170BD3E
:1005C00041F480114FF0000E013C00F3AB8014F1B8
:1005D000360FDEBF002001F0004170BDC4F1000401
:1005E000203C35DA0C341BDC04F11404C4F1200582
:1005F00000FA05F320FA04F001FA05F240EA0200DD
:1006000001F0004221F0004110EBD37021FA04F612
:1006100042EB06015EEA430E08BF20EAD37070BDCC
:10062000C4F10C04C4F1200500FA04F320FA05F02B
:1006300001FA04F240EA020001F0004110EBD3702D
:1006400041F100015EEA430E08BF20EAD37070BD9D
:10065000C4F1200500FA05F24EEA020E20FA04F376
:1006600001FA05F243EA020321FA04F001F0004125
:1006700021FA04F220EA020000EBD3705EEA430E96
:1006800008BF20EAD37070BD94F0000F0FD101F0C5
:100690000046400041EB010111F4801F08BF013CFE
:1006A000F7D041EA060195F0000F18BF704703F03C
:1006B0000046520043EB030313F4801F08BF013DC3
:1006C000F7D043EA0603704794EA0C0F0CEA13557F
:1006D00018BF95EA0C0F0CD050EA410618BF52EA39
:1006E0004306D1D181EA030101F000414FF000003F
:1006F00070BD50EA410606BF1046194652EA43064D
:1007000019D094EA0C0F02D150EA013613D195EAC0
:100710000C0F05D152EA03361CBF104619460AD108
:1007200081EA030101F0004141F0FE4141F4700112
:100730004FF0000070BD41F0FE4141F4780170BD02
:1007400070B54FF0FF0C4CF4E06C1CEA11541DBF67
:100750001CEA135594EA0C0F95EA0C0F00F0A7F869
:10076000A4EB050481EA030E52EA03354FEA013196
:1007700000F088804FEA03334FF0805545EA1313A9
:1007800043EA12634FEA022245EA111545EA106571
:100790004FEA00260EF000419D4208BF964244F108
:1007A000FD0404F5407402D25B084FEA3202B61A27
:1007B00065EB03055B084FEA32024FF480104FF4FB
:1007C000002CB6EB020E75EB030E22BFB61A75466F
:1007D00040EA0C005B084FEA3202B6EB020E75EB02
:1007E000030E22BFB61A754640EA5C005B084FEA6A
:1007F0003202B6EB020E75EB030E22BFB61A754637
:1008000040EA9C005B084FEA3202B6EB020E75EB41
:10081000030E22BFB61A754640EADC0055EA060E02
:1008200018D04FEA051545EA16754FEA06164FEA45
:10083000C30343EA52734FEAC2025FEA1C1CC0D1F1
:1008400011F4801F0BD141EA00014FF000004FF07E
:10085000004CB6E711F4801F04BF01430020B4F13F
:10086000FD0C88BFBCF5E06F3FF6AFAEB5EB030CF7
:1008700004BFB6EB020C5FEA500C50F1000041EBF4
:10088000045170BD0EF0004E4EEA113114EB5C04C1
:10089000C2BFD4EB0C0541EA045170BD41F4801194
:1008A0004FF0000E013C90E645EA060E8DE60CEA9C
:1008B000135594EA0C0F08BF95EA0C0F3FF43BAFB9
:1008C00094EA0C0F0AD150EA01347FF434AF95EA70
:1008D0000C0F7FF425AF104619462CE795EA0C0F54
:1008E00006D152EA03353FF4FDAE1046194622E721
:1008F00050EA410618BF52EA43067FF4C5AE50EAFB
:1009000041047FF40DAF52EA43057FF4EBAE12E7EA
:100910004FF0FF3C06E000BF4FF0010C02E000BFCB
:100920004FF0010C4DF804CD4FEA410C7FEA6C5CAE
:100930004FEA430C18BF7FEA6C5C1BD001B050EA51
:10094000410C0CBF52EA430C91EA030F02BF90EA3C
:10095000020F0020704710F1000F91EA030F58BFFB
:10096000994208BF90422CBFD8176FEAE37040F05D
:10097000010070474FEA410C7FEA6C5C02D150EAFB
:10098000013C07D14FEA430C7FEA6C5CD6D152EAB6
:10099000033CD3D05DF8040B704700BF844610467B
:1009A00062468C461946634600E000BF01B5FFF77A
:1009B000B7FF002848BF10F1000F01BD4DF808ED4A
:1009C000FFF7F4FF0CBF012000205DF808FB00BF1B
:1009D0004DF808EDFFF7EAFF34BF012000205DF875
:1009E00008FB00BF4DF808EDFFF7E0FF94BF0120C2
:1009F00000205DF808FB00BF4DF808EDFFF7CEFFC3
:100A000094BF012000205DF808FB00BF4DF808ED01
:100A1000FFF7C4FF34BF012000205DF808FB00BFD2
:100A20004FEA410C7FEA6C5C02D150EA013C0AD1EA
:100A30004FEA430C7FEA6C5C02D152EA033C02D1DC
:100A40004FF0000070474FF0010070474FEA41023D
:100A500012F5001215D211D56FF47873B3EB625210
:100A600012D94FEAC12343F0004343EA505311F037
:100A7000004F23FA02F018BF404270474FF00000C9
:100A8000704750EA013005D111F0004008BF6FF007
:100A9000004070474FF00000704700BF4A0011D27D
:100AA00012F5001211D20DD56FF47873B3EB6252C8
:100AB0000ED44FEAC12343F0004343EA505323FAD4
:100AC00002F070474FF00000704750EA013002D149
:100AD0004FF0FF3070474FF0000070474FEA41027F
:100AE000B2F1E04324BFB3F5001CDCF1FE5C0DD98C
:100AF00001F0004C4FEAC0024CEA5070B2F1004FD6
:100B000040EB830008BF20F00100704711F0804FD8
:100B100021D113F13872BCBF01F00040704741F49D
:100B200080114FEA5252C2F11802C2F1200C10FAA1
:100B30000CF320FA02F018BF40F001004FEAC12385
:100B40004FEAD32303FA0CFC40EA0C0023FA02F329
:100B50004FEA4303CCE77FEA625307D150EA0133FF
:100B60001EBF4FF0FE4040F44000704701F00040CF
:100B700040F0FE4040F40000704700BF80F00040AD
:100B800002E000BF81F0004142001FBF5FEA410365
:100B900092EA030F7FEA226C7FEA236C6AD04FEA65
:100BA0001262D2EB1363C1BFD218414048404140AA
:100BB000B8BF5B42192B88BF704710F0004F40F45C
:100BC000000020F07F4018BF404211F0004F41F478
:100BD000000121F07F4118BF494292EA030F3FD044
:100BE000A2F1010241FA03FC10EB0C00C3F1200357
:100BF00001FA03F100F0004302D5494260EB4000E6
:100C0000B0F5000F13D3B0F1807F06D340084FEA50
:100C1000310102F10102FE2A51D2B1F1004F40EB45
:100C2000C25008BF20F0010040EA030070474900AD
:100C300040EB0000013A28BFB0F5000FEDD2B0FA4A
:100C400080FCACF1080CB2EB0C0200FA0CF0AABF6D
:100C500000EBC25052421843BCBFD040184370470B
:100C600092F0000F81F4000106BF80F40000013211
:100C7000013BB5E74FEA41037FEA226C18BF7FEAE8
:100C8000236C21D092EA030F04D092F0000F08BF2A
:100C90000846704790EA010F1CBF0020704712F011
:100CA0007F4F04D1400028BF40F00040704712F150
:100CB00000723CBF00F50000704700F0004343F0B5
:100CC000FE4040F4000070477FEA226216BF0846EB
:100CD0007FEA23630146420206BF5FEA412390EAAE
:100CE000010F40F4800070474FF0000304E000BFA4
:100CF00010F0004348BF40425FEA000C08BF704755
:100D000043F0964301464FF000001CE050EA010218
:100D100008BF70474FF000030AE000BF50EA01022D
:100D200008BF704711F0004302D5404261EB41011A
:100D30005FEA010C02BF84460146002043F0B6433F
:100D400008BFA3F18053A3F50003BCFA8CF2083A64
:100D5000A3EBC25310DB01FA02FC634400FA02FC6D
:100D6000C2F12002BCF1004F20FA02F243EB020074
:100D700008BF20F00100704702F1200201FA02FCD6
:100D8000C2F1200250EA4C0021FA02F243EB0200C9
:100D900008BF20EADC7070474FF0FF0C1CEAD0520D
:100DA0001EBF1CEAD15392EA0C0F93EA0C0F6FD0CE
:100DB0001A4480EA010C400218BF5FEA41211ED0AC
:100DC0004FF0006343EA501043EA5111A0FB013198
:100DD0000CF00040B1F5000F3EBF490041EAD3716D
:100DE0005B0040EA010062F17F02FD2A1DD8B3F1E9
:100DF000004F40EBC25008BF20F00100704790F058
:100E0000000F0CF0004C08BF49024CEA502040EAA9
:100E100051207F3AC2BFD2F1FF0340EAC25070476F
:100E200040F400004FF00003013A5DDC12F1190FAD
:100E3000DCBF00F000407047C2F10002410021FA1F
:100E400002F1C2F1200200FA02FC5FEA310040F137
:100E5000000053EA4C0308BF20EADC70704792F0B0
:100E6000000F00F0004C02BF400010F4000F013AE8
:100E7000F9D040EA0C0093F0000F01F0004C02BFE3
:100E8000490011F4000F013BF9D041EA0C018FE752
:100E90000CEAD15392EA0C0F18BF93EA0C0F0AD058
:100EA00030F0004C18BF31F0004CD8D180EA01007E
:100EB00000F00040704790F0000F17BF90F0004F17
:100EC000084691F0000F91F0004F14D092EA0C0FF9
:100ED00001D142020FD193EA0C0F03D14B0218BF8C
:100EE000084608D180EA010000F0004040F0FE40D2
:100EF00040F40000704740F0FE4040F4400070476E
:100F00004FF0FF0C1CEAD0521EBF1CEAD15392EAEC
:100F10000C0F93EA0C0F69D0A2EB030280EA010CDC
:100F200049024FEA402037D04FF0805343EA111175
:100F300043EA10130CF000408B4238BF5B0042F1D3
:100F40007D024FF4000C8B4224BF5B1A40EA0C0078
:100F5000B3EB510F24BFA3EB510340EA5C00B3EBAA
:100F6000910F24BFA3EB910340EA9C00B3EBD10F98
:100F700024BFA3EBD10340EADC001B0118BF5FEAEA
:100F80001C1CE0D1FD2A3FF650AF8B4240EBC25013
:100F900008BF20F0010070470CF0004C4CEA5020D4
:100FA0007F32C2BFD2F1FF0340EAC250704740F423
:100FB00000004FF00003013A37E792F0000F00F015
:100FC000004C02BF400010F4000F013AF9D040EA93
:100FD0000C0093F0000F01F0004C02BF490011F427
:100FE000000F013BF9D041EA0C0195E70CEAD1531F
:100FF00092EA0C0F08D142027FF47DAF93EA0C0F06
:101000007FF470AF084676E793EA0C0F04D14B02E9
:101010003FF44CAF08466EE730F0004C18BF31F09B
:10102000004CCAD130F000427FF45CAF31F0004395
:101030007FF43CAF5FE700BF4FF0FF3C06E000BF2E
:101040004FF0010C02E000BF4FF0010C4DF804CD51
:101050004FEA40024FEA41037FEA226C18BF7FEA61
:10106000236C11D001B052EA530C18BF90EA010F63
:1010700058BFB2EB030088BFC81738BF6FEAE170F2
:1010800018BF40F0010070477FEA226C02D15FEA8E
:10109000402C05D17FEA236CE4D15FEA412CE1D0FA
:1010A0005DF8040B704700BF844608466146FFE7C1
:1010B0000FB5FFF7C9FF002848BF10F1000F0FBDA3
:1010C0004DF808EDFFF7F4FF0CBF012000205DF89C
:1010D00008FB00BF4DF808EDFFF7EAFF34BF012021
:1010E00000205DF808FB00BF4DF808EDFFF7E0FFBA
:1010F00094BF012000205DF808FB00BF4DF808ED0B
:10110000FFF7D2FF94BF012000205DF808FB00BF6D
:101110004DF808EDFFF7C8FF34BF012000205DF84F
:1011200008FB00BF38B50022002304460D46FFF738
:101130004FFC28B920462946BDE8384000F00AB8DF
:10114000204605F1004100F005F8404261EB410105
:1011500038BD00BFD0B500220B4B06460F46FFF747
:10116000C5F9FFF79BFC0446FFF746F90022074B41
:10117000FFF7BCF902460B4630463946FEF7FEFF44
:10118000FFF78CFC2146D0BD0000F03D0000F0418F
:1011900080B584B000AF3B1D00221A605A609A608F
:1011A000184B194A1A60174B00229A60154B0022FF
:1011B0001A73144B00221A75124B4FF46022DA6135
:1011C000104B00225A600F4B01221A610D4801F0AA
:1011D000AFFE0346002B01D001F0DCFB00237B6057
:1011E0000123BB600023FB603B1D1946054802F04C
:1011F00063F90346002B01D001F0CCFB00BF103790
:10120000BD4680BDFC0100200024014080B58AB0AD
:1012100000AF786007F1180300221A605A609A60E4
:10122000DA607B681B681F4A934237D11E4B9B696B
:101230001D4A43F4007393611B4B9B6903F40073D5
:101240007B617B69184B9B69174A43F004039361E8
:10125000154B9B6903F004033B613B69124B9B698F
:10126000114A43F0080393610F4B9B6903F0080395
:10127000FB60FB680123BB610323FB6107F11803DB
:1012800019460A4802F06CFC0123BB610323FB6191
:1012900007F118031946064802F062FC00BF283720
:1012A000BD4680BD002401400010024000080140FE
:1012B000000C014080B584B000AFF860B9607A607E
:1012C0001A4AFB6813601A4ABB681360194A7B68A4
:1012D000136020220021184806F0ADF8174B0022B9
:1012E0001A70174B00221A70164B00221A70164BF8
:1012F00001221A7001F008FA01F061FA02210020BF
:1013000001F068FA114801F045FA0121012001F0CD
:1013100061FA0F4801F03EFA4FF47A7001F0E4FDF3
:1013200001F04DFA00BF1037BD4680BD2C020020F1
:1013300030020020340200207002002090020020C1
:10134000910200206E02002008000020E8AB000897
:10135000F8AB000880B584B000AF0346FB71FB79A1
:101360000A2B6BD0374B1B78DBB2002B66D1364B88
:101370001B78022B03D0344B1B78042B13D12A2368
:10138000FB72FB790D2B16D0FB79082B13D0FB7960
:101390007F2B10D02D4B186807F10B010A23012277
:1013A00004F06EFA07E0294B1868F91D0A230122A0
:1013B00004F066FA00E000BFFB790D2B0AD1244B44
:1013C0001B78DBB21A46234B002199541D4B012296
:1013D0001A7034E0FB79082B02D0FB797F2B1CD1EB
:1013E0001B4B1B78DBB2002B29D0194B1B78DBB2CF
:1013F000013BDAB2164B1A70154B1B78DBB21A465A
:10140000144B00219954144BFB60104B18680A23AD
:101410000322F96804F034FA11E00D4B1B78DBB2BB
:101420001E2B0CD80A4B1B78DBB25A1CD1B2084ACF
:1014300011701A46F979074B995400E000BF103734
:10144000BD4680BD910200206E02002030020020C7
:10145000900200207002002008AC000880B58CB01B
:1014600000AF0023FB624FF00003BB62444A3B46DF
:1014700092E80300186004331980BB1D00221A6033
:101480005A609A60DA601A615A6101F023FD78624D
:101490003C4B1B68184601F023FE3A4B1B680A219F
:1014A000184601F0F7FE0346002B17D1354B1B6899
:1014B000184601F0F5FFF862F86AFFF715FC0346DD
:1014C00031491846FFF768FC034630491846FFF7D4
:1014D00017FD0346BB62B86A00F042FE294B1B6849
:1014E000184601F0ABFE00F06BFE38623B461E2151
:1014F000184600F0F5FE264B1B78002B03D1386A06
:1015000000F094FE04E000220621224802F0C3FC11
:10151000386A00F04DF8204B1B78012B0DD11F4B82
:101520001B687A6AD31AB3F57A7F09D31C4B012260
:101530001A701A4A7B6A136002E0184A7B6A1360C9
:10154000184B1B78DBB2002B0DD0174800F0DEFAE9
:10155000164B00221A7020220021134805F06BFF61
:10156000104B00221A700E4B1B78002B04D000F099
:1015700011F90B4B00221A7000BF3037BD4680BDF9
:101580000CAC00082C0200200000A54300F07F45B1
:101590006C020020000801406E020020940200202E
:1015A000080000209102002070020020900200201C
:1015B000B0B58EB004AF786007F10C0300210A4685
:1015C0001A800A469A700023BB60654B1B68002B8B
:1015D0000FD0634B1B6807F10C010022184603F083
:1015E0007BFC5F4B1B6807F108010022184603F0E3
:1015F00001FE7B7A1D46BB7A3A7B797BB87B044639
:1016000007F1100003940291019200932B46554A72
:10161000152105F075FE0021002001F0DBF807F12F
:101620001003184601F0B6F87868FEF707FF044685
:101630000D464D4B1B681846FEF700FF02460B4651
:1016400007F11000CDE90223CDE90045474A1521F5
:1016500005F056FE0021012001F0BCF807F110034F
:10166000184601F097F80021022001F0B3F8404B32
:101670001B684FF07E511846FFF786FA03461A465C
:10168000394B1B6819461046FFF786FB034619467F
:101690007868FFF73DFD0346002B03D0354801F085
:1016A00079F81DE0324B1B6819464FF07E50FFF76A
:1016B00069FA03461A462C4B1B6819461046FFF779
:1016C0006BFB034619467868FFF704FD0346002BC1
:1016D00003D0294801F05EF802E0284801F05AF8EA
:1016E0000821274802F0C0FB0346012B06D0102139
:1016F000234802F0B9FB0346012B01D1012300E08E
:10170000002387F827300021032001F063F897F8C1
:101710002730002B03D11B4B1B78002B17D01A4B03
:101720001B78184600F0ACFF184801F033F8164B50
:101730001B78184600F0A4FF134B1B78002B0CBF3E
:1017400001230023DBB21A460F4B1A7003E0104846
:1017500001F020F800BF00BF2837BD46B0BD00BF74
:10176000340200202CAC0008000000204CAC000823
:101770000400002064AC00087CAC000894AC0008B5
:10178000000801406C02002098020020ACAC000868
:10179000C0AC00082DE9F047ADF5507D0EAF07F560
:1017A0004273A3F5327300210A461A800A469A70E2
:1017B00007F54273A3F5337300221A60994B1B6837
:1017C000002B0FD0974B1B6807F1400100221846F1
:1017D00003F082FB934B1B6807F13C010022184683
:1017E00003F008FD904B1868642306228F4904F02B
:1017F00047F88F4B1B78052B00F20E8101A252F89F
:1018000023F000BF1D1800082F1800084719000812
:1018100059190008D3190008E519000807F1440315
:10182000844A4FF42F71184605F06AFDE3E007F58E
:101830004273A3F53B728049134603C91860043311
:101840001980931D00221A605A609A60DA601A614A
:101850005A6107F11C031E21184600F041FD00F0FB
:10186000AFFCC7F80403754B1B68002B0CDD744BF1
:101870001B68002B03D0724B1B68013B00E009235F
:10188000704A52F8233001E04FF00003C7F80033EC
:1018900007F54273A3F53373DB7803F5FA6A07F5AE
:1018A0004273A3F533735B787B6107F54273A3F54D
:1018B00033739B783B6107F54273A3F532731B7852
:1018C000FB6007F54273A3F532735B78BB6007F5E5
:1018D0004273A3F532739B787B60D7F80003FEF761
:1018E000ADFD04460D46D7F80403FEF7A7FD80467C
:1018F0008946554B1B681846FEF7A0FD534B1B78D5
:10190000002B01D0524B00E0524B07F144060D93DF
:1019100007F11C030C93CDE90A01CDE90889CDE953
:1019200006457B680493BB680393FB6802933B699D
:1019300001937B6900935346474A4FF42F71304619
:1019400005F0DEFC57E007F14403444A4FF42F71E1
:10195000184605F0D5FC4EE007F54273A3F5327347
:101960001B78984607F54273A3F532735B781C46E3
:1019700007F54273A3F532739B781D4607F5427352
:10198000A3F53373DB781E4607F54273A3F5337373
:101990005B787B6107F54273A3F533739B783B61FA
:1019A000294B1B681846FEF749FD02460B4607F116
:1019B0004400CDE906233A6904927B6903930296B9
:1019C000019500944346264A4FF42F7105F098FC88
:1019D00011E007F14403234A4FF42F71184605F034
:1019E0008FFC08E007F144031F4A4FF42F7118469B
:1019F00005F086FC00BF0C4B1C6807F14403184639
:101A0000FEF7B0FB03469AB207F144014FF47A7334
:101A1000204603F035FF00E000BF07F54277BD46E2
:101A2000BDE8F0873402002030020020D8AC000866
:101A30006E020020E0AC00080CAC0008640200203C
:101A40006002002038020020000000206C0200200C
:101A5000F8AD00080CAE000820AE0008BCAF0008CE
:101A600094B0000870B2000844B3000880B487B096
:101A700000AFF860B9601346FB71FB68002B03D020
:101A8000FB681B78002B01D100233AE000237B6127
:101A900000233B6102E0FB680133FB60FB681B78BD
:101AA000202BF8D00FE07A6913469B0013445B00AB
:101AB0001A46FB681B78303B13447B6101233B6172
:101AC000FB680133FB60FB681B782F2B03D9FB6895
:101AD0001B78392BE7D93B69002B01D1002310E09B
:101AE000BB687A691A60FB79002B09D0FB681B7808
:101AF000FA799A4201D0002303E0FB680133FB60CE
:101B0000FB6818461C37BD4680BC704790B5A5B031
:101B100002AF78609C497868FEF71AFB0346002BF9
:101B200006D19A4B00221A70994B01221A7004E3D5
:101B3000964B1B78052B00F2F98201A252F823F094
:101B4000591B0008C71B0008CF1B0008091C000810
:101B5000032000083D2000088E497868FEF7F8FA57
:101B60000346002B03D1894B01221A7027E08A49D2
:101B70007868FEF7EDFA0346002B03D1834B02226F
:101B80001A701CE085497868FEF7E2FA0346002BDC
:101B900003D17E4B04221A7011E0814BFB66814B0E
:101BA0001C68F86EFEF7DEFA03469AB26423F96EFB
:101BB000204603F065FE4FF47A7001F095F9744BFE
:101BC00001221A70B9E2724B01221A70B5E276490D
:101BD0007868FEF7BDFA0346002B03D16B4B032256
:101BE0001A700DE06F4B1868642325226F4903F0CB
:101BF00047FE4FF4966001F077F9644B00221A70AB
:101C0000634B01221A7098E209226949786805F04D
:101C10001AFC0346002B40F0D5807B680933C7F8D7
:101C2000843004E0D7F884300133C7F88430D7F823
:101C300084301B78202BF5D04FF00003C7F880309C
:101C40004FF07E53FB67D7F884301B782D2B07D1DC
:101C5000584BFB67D7F884300133C7F8843025E050
:101C6000D7F884301B782B2B20D1D7F88430013360
:101C7000C7F884301AE05049D7F88000FFF78CF895
:101C800003461C46D7F884301B78303B1846FFF7D4
:101C90002FF8034619462046FEF776FF0346C7F89D
:101CA0008030D7F884300133C7F88430D7F88430D7
:101CB0001B782F2B04D9D7F884301B78392BDAD92D
:101CC000D7F884301B782E2B31D1D7F884300133EC
:101CD000C7F88430384BBB671FE0D7F884301B78D7
:101CE000303B1846FFF704F80346B96F1846FFF774
:101CF00007F903461946D7F88000FEF745FF03466B
:101D0000C7F880302C49B86FFFF746F80346BB6729
:101D1000D7F884300133C7F88430D7F884301B7883
:101D20002F2B04D9D7F884301B78392BD5D9F96FEC
:101D3000D7F88000FFF730F803461A461F4B1A60A9
:101D40001E4B1B681846FEF779FB02460B4607F14F
:101D50002C00CDE900231A4A402105F0D1FA114B9D
:101D60001C6807F12C031846FEF7FCF903469AB2EB
:101D700007F12C016423204603F082FD4FF47A70B2
:101D800001F0B2F839E100BF78B400086E0200201B
:101D9000080000207CB4000880B4000884B4000867
:101DA00088B4000830020020ACB40008B4B40008C5
:101DB000DCB40008000080BF0000204100000020CB
:101DC000E8B400080922AF49786805F03CFB0346F7
:101DD000002B40F081807B6809333B670023BB62A6
:101DE00000237B6200233B6207F128033A22194655
:101DF000386FFFF73BFE386707F124033A22194694
:101E0000386FFFF733FE386707F1200300221946C9
:101E1000386FFFF72BFE38673B6F002B41D0BB6A52
:101E2000002B3EDBBB6A172B3BDC7B6A002B38DBCD
:101E30007B6A3B2B35DC3B6A002B32DB3B6A3B2B5E
:101E40002FDC07F11C0300210A461A800A469A700B
:101E5000BB6ADBB23B777B6ADBB27B773B6ADBB288
:101E6000BB77894B1B6807F11C010022184602F062
:101E70009BFF0346002B0CD1B96A7B6A3A6A07F1D3
:101E80002C00019200930B46804A402105F038FA5D
:101E90000EE007F12C037E4A4021184605F030FA87
:101EA00006E007F12C037B4A4021184605F028FA8A
:101EB000794B1C6807F12C031846FEF753F90346CB
:101EC0009AB207F12C016423204603F0D9FC4FF4A9
:101ED000966001F009F890E009227049786805F0F1
:101EE000B2FA0346002B7DD17B6809337B67002360
:101EF000BB6100237B6100233B6107F118033A2299
:101F00001946786FFFF7B2FD786707F114033A229C
:101F10001946786FFFF7AAFD786707F110030022D2
:101F20001946786FFFF7A2FD78677B6F002B3ED0D4
:101F3000BB69002B3BDBBB69632B38DC7B69002B67
:101F400035DD7B690C2B32DC3B69002B2FDD3B69D7
:101F50001F2B2CDC0023FB60BB69DBB2FB737B69AE
:101F6000DBB27B733B69DBB2BB7301233B73464B34
:101F70001B6807F10C010022184603F085F80346A0
:101F8000002B0CD1B9697B693A6907F12C000192E9
:101F900000930B46424A402105F0B2F90EE007F1EA
:101FA0002C033B4A4021184605F0AAF906E007F148
:101FB0002C033C4A4021184605F0A2F9364B1C6818
:101FC00007F12C031846FEF7CDF803469AB207F145
:101FD0002C016423204603F053FC4FF4966000F07C
:101FE00083FF0AE02C4B186864231D222E4903F05E
:101FF00047FC4FF47A7000F077FF2C4B01221A70E7
:102000009BE02B497868FEF7A3F80346002B03D129
:10201000284B05221A700DE01F4B186864232522F7
:10202000254903F02DFC4FF4966000F05DFF214B35
:1020300000221A701D4B01221A707EE01F49786839
:10204000FEF786F80346002B46D11D4B00221A707E
:102050001C4B00221A701C4B00221A601B4B0022E2
:102060001A600022E6211A4801F015FF0A4B186891
:1020700064232C22174903F003FC4FF4966000F010
:1020800033FF4FE00CB500083402002018B50008FB
:1020900044B500086CB500083002002094B5000873
:1020A000A0B50008D0B50008F8B500080800002069
:1020B000ACB400086E020020B4B4000818B60008E2
:1020C0006C0200206D0200206402002060020020EB
:1020D0000008014024B6000819497868FEF738F86E
:1020E0000346002B13D1174B01221A7000228021C6
:1020F000154801F0D0FE154B1868642324221449BA
:1021000003F0BEFB4FF4966000F0EEFE0AE00F4BCA
:102110001868642320220F4903F0B2FB4FF47A7051
:1021200000F0E2FE0C4B01221A7006E00B4B00227D
:102130001A70094B01221A7000BF8C37BD4690BD42
:1021400050B600086D020020000801403002002057
:102150005CB6000880B60008080000206E0200206F
:1021600080B483B000AF7860114B1B6811497A6866
:1021700041F823200E4B1B68591C0F4B83FB012396
:102180009A10CB17D21A13469B0013445B00CA1A4D
:10219000074B1A60094B1B68092B04DC074B1B68B3
:1021A0000133064A136000BF0C37BD4680BC704740
:1021B0006002002038020020676666666402002024
:1021C00080B582B000AF4FF000037B6000233B601E
:1021D0000CE0144A3B6852F8233019467868FEF741
:1021E000D3FC03467B603B6801333B600E4B1B68AE
:1021F0003A689A42EDDB0C4B1B68002B0BDD0A4B57
:102200001B681846FEF774FD034619467868FEF70A
:1022100077FE034601E04FF0000318460837BD463D
:1022200080BD00BF380200206402002080B584B069
:1022300000AF7860274B1B684FF07E511846FEF7C1
:10224000A3FC03461A46244B1B6819461046FEF7AA
:10225000A3FD0346FB601F4B1B6819464FF07E50E1
:10226000FEF790FC03461A461B4B1B6819461046A6
:10227000FEF792FD0346BB60F9687868FEF748FFF9
:102280000346002B0AD001220221144801F003FE6C
:1022900000220421114801F0FEFD16E0B9687868BB
:1022A000FEF718FF0346002B0AD0002202210B483C
:1022B00001F0F1FD01220421084801F0ECFD04E0E9
:1022C00000220621054801F0E6FD00BF1037BD469B
:1022D00080BD00BF04000020000000200008014075
:1022E00080B584B000AF7860396008213F4801F0C4
:1022F000BBFD0346012B0CBF01230023DBB2FB73A4
:1023000010213A4801F0B0FD0346012B0CBF012318
:102310000023DBB2BB7300F0DDFDB860FB7B002B5C
:1023200002D1BB7B002B06D0314ABB681360314B16
:1023300001221A7011E02F4B1B78002B0DD02C4B73
:102340001B68BA68D31A41F28732934205D9294BE8
:1023500000221A70284B00221A70264B1B78002B83
:102360002FD0FB7B002B14BF01230023DBB21A46C6
:1023700020211E4801F08FFDBB7B002B14BF0123E1
:102380000023DBB21A464021184801F084FD1A4BA5
:102390001B78002B04D18021144801F094FD04E047
:1023A00000228021114801F076FD7B68002B18D0B7
:1023B0003B68002B15D0114A3968786804F0A0FFFB
:1023C0000FE00022E021094801F065FD7B68002B49
:1023D00007D03B68002B04D0094A3968786804F0BC
:1023E0008FFF00BF1037BD4680BD00BF0008014011
:1023F000680200206C0200206D020020A4B60008D4
:10240000B4B6000880B586B000AF07F1080300221B
:102410001A605A609A60DA60274B9B69264A43F03B
:1024200004039361244B9B6903F004037B607B6886
:10243000214B9B69204A43F0080393611E4B9B6923
:1024400003F008033B603B680022E6211B4801F0D3
:1024500022FD00224FF47C41194801F01CFDE623C7
:10246000BB600123FB6000233B6102237B6107F11A
:1024700008031946114801F073FB1823BB600023C1
:10248000FB6002233B6107F1080319460B4801F08A
:1024900067FB4FF47C43BB600123FB6000233B617F
:1024A00002237B6107F108031946054801F058FB38
:1024B00000BF1837BD4680BD001002400008014033
:1024C000000C014080B500AF124B134A1A60114B4B
:1024D000124A5A600F4B00229A600E4B0022DA60BB
:1024E0000C4B4FF480421A610A4B00225A61094B8F
:1024F00000229A61074B0022DA61064B00221A6221
:10250000044801F0F9FC0346002B01D000F042FA28
:1025100000BF80BD9C02002000540040A086010046
:1025200080B588B000AF786007F1100300221A6010
:102530005A609A60DA607B681B68154A934223D11F
:10254000144B9B69134A43F008039361114B9B6939
:1025500003F00803FB60FB68C0233B6112237B612F
:102560000323FB6107F1100319460B4801F0F8FA49
:10257000084BDB69074A43F40013D361054BDB6961
:1025800003F40013BB60BB6800BF2037BD4680BDAD
:102590000054004000100240000C014080B500AF24
:1025A00001224FF40061084801F075FC012000F0A1
:1025B0009BFC00224FF40061034801F06CFC0120F9
:1025C00000F092FC00BF80BD000C014080B582B0DD
:1025D00000AF0346FB71FB7903F00103DBB21A463F
:1025E0004FF48051164801F056FCFB795B08DBB2D2
:1025F00003F00103DBB21A464FF40051104801F01A
:102600004AFCFB799B08DBB203F00103DBB21A46FC
:102610004FF480410A4801F03EFCFB79DB08DBB255
:1026200003F00103DBB21A464FF40041044801F005
:1026300032FCFFF7B3FF00BF0837BD4680BD00BFC7
:10264000000C014080B582B000AF0346FB71002250
:102650004FF48061094801F01EFCFB791B09DBB2D5
:102660001846FFF7B3FFFB7903F00F03DBB2184600
:10267000FFF7ACFF00BF0837BD4680BD000C01402E
:1026800080B582B000AF0346FB7101224FF4806138
:10269000094801F000FCFB791B09DBB21846FFF783
:1026A00095FFFB7903F00F03DBB21846FFF78EFFAF
:1026B00000BF0837BD4680BD000C014080B584B026
:1026C00000AF03463960FB71FB79072B17D8FB7904
:1026D0000833DBB2DB00DBB21846FFF7B3FF0023A1
:1026E000FB6009E0FB683A6813441B781846FFF763
:1026F000C7FFFB680133FB60FB68072BF2DD00BFFF
:102700001037BD4680BD000080B500AF322000F01C
:10271000EBFB0320FFF75AFF052000F0E5FB032049
:10272000FFF754FF012000F0DFFB0320FFF74EFF0F
:102730000A2000F0D9FB0220FFF748FF0A2000F032
:10274000D3FB2820FFF77EFF012000F0CDFB0C20FB
:10275000FFF778FF012000F0C7FB0620FFF772FFAC
:10276000012000F0C1FB0120FFF76CFF022000F008
:10277000BBFB06490020FFF7A1FF05490120FFF739
:102780009DFF8020FFF75EFF00BF80BDBCB6000844
:10279000C4B6000880B582B000AF786006E07B6800
:1027A0005A1C7A601B781846FFF76AFF7B681B7813
:1027B000002BF4D100BF00BF0837BD4680BD80B5F7
:1027C00000AF0120FFF73EFF022000F08DFB00BFAD
:1027D00080BD000080B582B000AF786039607B6852
:1027E000032B2BD801A252F823F000BFFD270008CD
:1027F0000D2800081D2800082D2800083B68DBB2C2
:10280000803BDBB21846FFF71DFF17E03B68DBB2E9
:10281000403BDBB21846FFF715FF0FE03B68DBB229
:102820006C3BDBB21846FFF70DFF07E03B68DBB2FD
:102830002C3BDBB21846FFF705FF00BF00BF08378F
:10284000BD4680BD80B582B000AF00F0EBFA00F06D
:102850002DF8FFF7D7FDFEF79BFC00F03FFA00F0E4
:102860009FF8FFF72FFE0D4A0D490E48FEF722FD97
:1028700001220D490A4803F08EF800237B6000F026
:1028800029FB38603A687B68D31AB3F57A7FF6D3B0
:10289000FEF7E4FD3B687B60F1E700BFF402002037
:1028A0000C030020FC010020F002002080B594B051
:1028B00000AF07F1280328220021184604F0BBFDD1
:1028C00007F1140300221A605A609A60DA601A61F4
:1028D0003B1D00221A605A609A60DA600A23BB62CC
:1028E0000123BB631023FB6301233B6400237B6450
:1028F00007F12803184601F04FFC0346002B01D0D6
:1029000000F048F80F237B610023BB610023FB61CB
:1029100000233B6200237B6207F114030021184669
:1029200001F0BCFE0346002B01D000F033F8032376
:102930007B604FF40073BB600023FB603B1D1846B7
:1029400002F03AF80346002B01D000F023F800BF54
:102950005037BD4680BD000080B582B000AF7860C2
:102960007B681B68084A934209D1084B1B781846BC
:10297000FEF7F0FC01220549054803F00CF800BF02
:102980000837BD4680BD00BF00380140F00200207E
:102990000C03002080B400AF72B600BF00BFFDE79B
:1029A00080B582B000AF3B1D00210A461A800A465E
:1029B0009A7000233B601D4B1D4A1A601B4B4FF061
:1029C000FF325A60194B4FF480729A60174802F038
:1029D0005FF90346002B01D0FFF7DCFF00233B71BA
:1029E00000237B710023BB713B1D012219460F4858
:1029F00002F0DAF90346002B01D0FFF7CBFF0123E9
:102A00003B7001237B700123BB700023FB703B46AE
:102A100001221946054802F037FB0346002B01D07E
:102A2000FFF7B8FF00BF0837BD4680BDF4020020A5
:102A30000028004080B584B000AF78607B681B68D8
:102A40000B4A934210D101F09BFB0A4BDB69094A08
:102A500043F00063D361074BDB6903F00063FB6065
:102A6000FB68054B01221A6000BF1037BD4680BDD0
:102A700000280040001002403C04424280B485B06F
:102A800000AF154B9B69144A43F001039361124B4D
:102A90009B6903F00103BB60BB680F4BDB690E4A07
:102AA00043F08053D3610C4BDB6903F080537B60B0
:102AB0007B680A4B5B68FB60FB6823F0E063FB60AC
:102AC000FB6843F08063FB60044AFB68536000BF0F
:102AD0001437BD4680BC7047001002400000014022
:102AE00080B400AF00BFFDE780B400AF00BFFDE7DA
:102AF00080B400AF00BFFDE780B400AF00BFFDE7CA
:102B000080B400AF00BFFDE780B400AF00BFBD469A
:102B100080BC704780B400AF00BFBD4680BC70472A
:102B200080B400AF00BFBD4680BC704780B500AF29
:102B300000F0BEF900BF80BD80B500AF024802F0D2
:102B40004FFF00BF80BD00BF0C03002080B400AF6A
:102B500001231846BD4680BC704780B582B000AFE7
:102B60007860396004F0CCFC034616221A604FF0FE
:102B7000FF3318460837BD4680BD80B582B000AF30
:102B800078604FF0FF317868FFF7E7FF00BFFDE79F
:102B900080B586B000AFF860B9607A6000237B61D1
:102BA0000AE0AFF300800146BB685A1CBA60CAB2A3
:102BB0001A707B6901337B617A697B689A42F0DB2A
:102BC0007B6818461837BD4680BD80B586B000AF1B
:102BD000F860B9607A6000237B6109E0BB685A1C29
:102BE000BA601B781846AFF300807B6901337B61C4
:102BF0007A697B689A42F1DB7B6818461837BD46D4
:102C000080BD80B483B000AF78604FF0FF331846CA
:102C10000C37BD4680BC704780B483B000AF78608D
:102C200039603B684FF400525A60002318460C3755
:102C3000BD4680BC704780B483B000AF786001238C
:102C400018460C37BD4680BC704780B485B000AFD5
:102C5000F860B9607A60002318461437BD4680BC1E
:102C60007047000080B586B000AF7860144A154BFD
:102C7000D31A7B617B693B61134B1B68002B02D12C
:102C8000114B124A1A60104B1A687B6813443A6958
:102C90009A4207D204F034FC03460C221A604FF02B
:102CA000FF3309E0084B1B68FB60074B1A687B6821
:102CB0001344054A1360FB6818461837BD4680BDAB
:102CC000005000200004000008030020A804002099
:102CD00080B400AF00BFBD4680BC704780B500AF78
:102CE000114B124A1A60104B4FF416525A600E4B99
:102CF00000229A600C4B0022DA600B4B00221A6112
:102D0000094B0C225A61084B00229A61064B0022A3
:102D1000DA61054802F064FD0346002B01D0FFF79D
:102D200039FE00BF80BD00BF0C0300200038014009
:102D300080B588B000AF786007F1100300221A60F8
:102D40005A609A60DA607B681B68204A934239D1E6
:102D50001F4B9B691E4A43F4804393611C4B9B6944
:102D600003F48043FB60FB68194B9B69184A43F0EE
:102D700004039361164B9B6903F00403BB60BB68BB
:102D80004FF400733B6102237B610323FB6107F176
:102D9000100319460F4800F0E3FE4FF480633B61D7
:102DA00000237B610023BB6107F11003194609482A
:102DB00000F0D6FE00220021252000F0E8FD2520AD
:102DC00000F001FE00BF2037BD4680BD0038014045
:102DD0000010024000080140FFF77AFF0B480C4941
:102DE0000C4A002302E0D458C4500433C4188C4267
:102DF000F9D3094A094C002301E013600432A242CE
:102E0000FBD304F083FBFFF71DFD7047000000209B
:102E1000E001002044BB0008E0010020A4040020E1
:102E2000FEE7000080B500AF084B1B68074A43F07F
:102E300010031360032000F09FFD0F2000F008F83E
:102E4000FFF71CFE0023184680BD00BF0020024093
:102E500080B582B000AF7860124B1A68124B1B78B5
:102E600019464FF47A73B3FBF1F3B2FBF3F3184650
:102E700000F0B7FD0346002B01D001230EE07B6874
:102E80000F2B0AD8002279684FF0FF3000F07FFD49
:102E9000064A7B681360002300E0012318460837C8
:102EA000BD4680BD0C000020140000201000002052
:102EB00080B400AF054B1B781A46054B1B681344C2
:102EC000034A136000BFBD4680BC70471400002059
:102ED0005403002080B400AF024B1B681846BD4667
:102EE00080BC70475403002080B584B000AF786088
:102EF000FFF7F0FFB8607B68FB60FB68B3F1FF3F52
:102F000005D00A4B1B781A46FB681344FB6000BFD0
:102F1000FFF7E0FF0246BB68D31AFA689A42F7D877
:102F200000BF00BF1037BD4680BD00BF14000020A9
:102F300080B586B000AF78600023FB7500233B614D
:102F40000023BB600023FB607B68002B01D10123C1
:102F5000BEE07B689B68002B7B689B6A002B09D1D5
:102F60007B680022DA627B68002283F8242078687C
:102F7000FEF74CF9786800F0F1FB0346FB757B68BF
:102F80009B6A03F01003002B40F09980FB7D002B1F
:102F900040F095807B689B6A23F4885323F00203FA
:102FA00043F002027B689A627B685A687B68DB693F
:102FB0001A437B681B7B5B001343BA681343BB60F7
:102FC0007B689B68B3F5807F03D07B689B68012B8F
:102FD00002D14FF4807300E000233A6913433B6150
:102FE0007B681B7D012B19D17B681B7B002B09D1D2
:102FF0007B689B69013B5A033B69134343F40063BD
:103000003B610BE07B689B6A43F020027B689A621D
:103010007B68DB6A43F001027B68DA627B681B68CD
:103020005B6823F469417B681B683A690A435A600C
:103030007B681B689A68284B13407A681268B968E5
:103040000B4393607B689B68B3F5807F03D07B68FC
:103050009B68012B04D17B681B69013B1B05FB604E
:103060007B681B68DB6A23F470017B681B68FA6865
:103070000A43DA627B681B689A68184B1340BA6887
:103080009A420BD17B680022DA627B689B6A23F04C
:10309000030343F001027B689A6218E07B689B6A35
:1030A00023F0120343F010027B689A627B68DB6AAC
:1030B00043F001027B68DA620123FB7507E07B685D
:1030C0009B6A43F010027B689A620123FB75FB7DCB
:1030D00018461837BD4680BDFDF7E1FFFE0E1FFF05
:1030E00080B584B000AF78600023FB737B6893F8F1
:1030F0002430012B01D1022398E07B68012283F860
:103100002420786800F0D0FA0346FB73FB7B002B89
:1031100040F087807B689B6A23F4407323F00103AF
:1031200043F480727B689A627B681B68414A9342D1
:1031300005D1414B5B6803F47023002B15D17B68EC
:103140009B6A23F480127B689A627B681B685B68C9
:1031500003F48063002B26D07B689B6A23F44053E2
:1031600043F480527B689A621DE07B689B6A43F45B
:1031700080127B689A627B681B682F4A934204D056
:103180007B681B682B4A93420DD12B4B5B6803F481
:103190008063002B07D07B689B6A23F4405343F481
:1031A00080527B689A627B689B6A03F48053002B91
:1031B00006D07B68DB6A23F006027B68DA6202E0F5
:1031C0007B680022DA627B68002283F824207B6817
:1031D0001B686FF002021A607B681B689B6803F42F
:1031E0006023B3F5602F13D17B681B68114A9342AB
:1031F00005D1114B5B6803F47023002B08D17B6869
:103200001B689A687B681B6842F4A0029A600CE015
:103210007B681B689A687B681B6842F480129A601E
:1032200003E07B68002283F82420FB7B18461037DC
:10323000BD4680BD002801400024014080B584B017
:1032400000AF78600023FB737B6893F82430012B78
:1032500001D102231AE07B68012283F824207868D8
:1032600000F07CFA0346FB73FB7B002B09D17B68E3
:103270009B6A23F4885323F0010343F001027B6827
:103280009A627B68002283F82420FB7B1846103763
:10329000BD4680BD90B587B000AF7860396000232F
:1032A0007B610023FB6000233B61FFF713FE786125
:1032B0007B681B689B6803F48073002B0BD07B68D2
:1032C0009B6A43F020027B689A627B68002283F845
:1032D00024200123D3E07B681B685B6803F48073C0
:1032E000002B31D17B681B68DB6A03F47003002B71
:1032F0002AD121E03B68B3F1FF3F1DD03B68002B92
:1033000007D0FFF7E7FD02467B69D31A3A689A4275
:1033100012D27B681B681B6803F00203002B0BD1E1
:103320007B689B6A43F004027B689A627B68002298
:1033300083F824200323A2E07B681B681B6803F04A
:103340000203002BD6D070E04F4B1C68022001F026
:10335000E9FB0346B4FBF3F27B681B6819694B4B2E
:103360000B40002B18D17B681B68D968484B0B4079
:10337000002B11D17B681B681969464B0B40002B51
:1033800008D17B681B68D968434B0B40002B01D1E7
:10339000142320E029231EE07B681B6819693D4B3C
:1033A0000B40002B06D17B681B68D9683A4B0B4059
:1033B000002B0DD07B681B681969384B0B40002B24
:1033C00008D17B681B68D968344B0B40002B01D1B6
:1033D000542300E0FC2302FB03F33B6121E03B6844
:1033E000B3F1FF3F1AD03B68002B07D0FFF772FD07
:1033F00002467B69D31A3A689A420FD2FB683A694F
:103400009A420BD97B689B6A43F004027B689A62FC
:103410007B68002283F82420032330E0FB6801331B
:10342000FB60FB683A699A42D9D87B681B686FF0E9
:1034300012021A607B689B6A43F400727B689A628E
:103440007B681B689B6803F46023B3F5602F15D17C
:103450007B681B7B002B11D17B689B6A23F48072F5
:103460007B689A627B689B6A03F48053002B05D1CA
:103470007B689B6A43F001027B689A6200231846CE
:103480001C37BD4690BD00BF0C000020244992248B
:10349000244992009224491292244900499224001E
:1034A00080B483B000AF78607B681B68DB6C184623
:1034B0000C37BD4680BC704780B485B000AF7860E3
:1034C00039600023FB730023BB607B6893F82430D2
:1034D000012B01D10223DCE07B68012283F8242048
:1034E0003B685B68062B1CD87B681B68596B3B6884
:1034F0005A6813469B001344053B1F2202FA03F34C
:10350000DB4319403B6818683B685A6813469B00C8
:103510001344053B00FA03F27B681B680A435A63B5
:103520003CE03B685B680C2B1CD87B681B68196B04
:103530003B685A6813469B001344233B1F2202FA40
:1035400003F3DB4319403B6818683B685A6813462D
:103550009B001344233B00FA03F27B681B680A4379
:103560001A631BE07B681B68D96A3B685A6813467C
:103570009B001344413B1F2202FA03F3DB43194033
:103580003B6818683B685A6813469B001344413BEC
:1035900000FA03F27B681B680A43DA623B681B6827
:1035A000092B1CD97B681B68D9683B681A681346CD
:1035B0005B0013441E3B072202FA03F3DB4319406E
:1035C0003B6898683B681A6813465B0013441E3BCF
:1035D00000FA03F27B681B680A43DA6019E07B6833
:1035E0001B6819693B681A6813465B00134407227D
:1035F00002FA03F3DB4319403B6898683B681A689A
:1036000013465B00134400FA03F27B681B680A430D
:103610001A613B681B68102B03D03B681B68112B99
:1036200032D17B681B681D4A934225D17B681B6899
:103630009B6803F40003002B26D17B681B689A6803
:103640007B681B6842F400029A603B681B68102B81
:103650001AD1134B1B68134AA2FB03239A0C13467F
:103660009B0013445B00BB6002E0BB68013BBB6096
:10367000BB68002BF9D107E07B689B6A43F020020E
:103680007B689A620123FB737B68002283F8242005
:10369000FB7B18461437BD4680BC704700240140B0
:1036A0000C00002083DE1B4380B584B000AF78603F
:1036B0000023FB600023BB607B681B689B6803F0F2
:1036C0000103012B40D07B681B689A687B681B68EC
:1036D00042F001029A601F4B1B681F4AA2FB0323A2
:1036E0009B0CBB6002E0BB68013BBB60BB68002B6E
:1036F000F9D1FFF7EFFBF8601FE0FFF7EBFB0246A5
:10370000FB68D31A022B18D97B681B689B6803F0EF
:103710000103012B11D07B689B6A43F010027B6888
:103720009A627B68DB6A43F001027B68DA627B683D
:10373000002283F82420012307E07B681B689B6834
:1037400003F00103012BD8D1002318461037BD46E2
:1037500080BD00BF0C00002083DE1B4380B584B019
:1037600000AF78600023FB607B681B689B6803F0F8
:103770000103012B2ED17B681B689A687B681B684C
:1037800022F001029A60FFF7A5FBF8601BE0FFF74B
:10379000A1FB0246FB68D31A022B14D97B681B6875
:1037A0009B6803F00103012B0DD17B689B6A43F0FA
:1037B00010027B689A627B68DB6A43F001027B68D7
:1037C000DA62012307E07B681B689B6803F0010352
:1037D000012BDCD0002318461037BD4680BD000009
:1037E00080B485B000AF78607B6803F00703FB60AE
:1037F0000C4BDB68BB60BA684FF6FF031340BB603D
:10380000FB681A02BB68134343F0BF6343F4003301
:10381000BB60044ABB68D36000BF1437BD4680BCA0
:10382000704700BF00ED00E080B400AF044BDB68E0
:103830001B0A03F007031846BD4680BC704700BF53
:1038400000ED00E080B483B000AF0346FB7197F950
:103850000730002B0BDBFB7903F01F02064997F9B9
:1038600007305B09012000FA02F241F8232000BF73
:103870000C37BD4680BC704700E100E080B483B0E7
:1038800000AF03463960FB7197F90730002B0ADB64
:103890003B68DAB20C4997F907301201D2B20B44F7
:1038A00083F800230AE03B68DAB20849FB7903F0A9
:1038B0000F03043B1201D2B20B441A7600BF0C373F
:1038C000BD4680BC704700BF00E100E000ED00E0B5
:1038D00080B489B000AFF860B9607A60FB6803F02B
:1038E0000703FB61FB69C3F10703042B28BF042313
:1038F000BB61FB690433062B02D9FB69033B00E083
:1039000000237B614FF0FF32BB6902FA03F3DA4315
:10391000BB681A407B699A404FF0FF317B6901FA1E
:1039200003F3D9437B680B40134318462437BD4645
:1039300080BC704780B582B000AF78607B68013B87
:10394000B3F1807F01D301230FE00A4A7B68013B7A
:1039500053600F214FF0FF30FFF790FF054B00221F
:103960009A60044B07221A60002318460837BD46A8
:1039700080BD00BF10E000E080B582B000AF78608D
:103980007868FFF72DFF00BF0837BD4680BD80B5C2
:1039900086B000AF0346B9607A60FB7300237B6199
:1039A000FFF742FF78617A68B9687869FFF790FF9E
:1039B000024697F90F3011461846FFF75FFF00BF28
:1039C0001837BD4680BD80B582B000AF0346FB719D
:1039D00097F907301846FFF735FF00BF0837BD4697
:1039E00080BD80B582B000AF78607868FFF7A2FF35
:1039F000034618460837BD4680BD80B485B000AF89
:103A000078600023FB737B6893F82130DBB2022BD4
:103A100008D07B6804229A637B68002283F8202008
:103A2000012320E07B681B681A687B681B6822F012
:103A30000E021A607B681B681A687B681B6822F09C
:103A400001021A607B681A6C7B68DB6B012101FA4A
:103A500002F25A607B68012283F821207B680022F1
:103A600083F82020FB7B18461437BD4680BC704786
:103A700080B584B000AF78600023FB737B6893F857
:103A80002130DBB2022B05D07B6804229A6301232C
:103A9000FB7351E07B681B681A687B681B6822F027
:103AA0000E021A607B681B681A687B681B6822F02C
:103AB00001021A607B681B68224A934229D07B6806
:103AC0001B68214A934222D07B681B681F4A93429D
:103AD0001AD07B681B681E4A934212D07B681B6811
:103AE0001C4A93420AD07B681B681B4A934202D14E
:103AF0004FF480130EE04FF080730BE04FF48033EF
:103B000008E04FF4805305E04FF4807302E0102387
:103B100000E00123114A53607B68012283F82120D1
:103B20007B68002283F820207B685B6B002B03D02E
:103B30007B685B6B78689847FB7B18461037BD46FF
:103B400080BD00BF080002401C000240300002405F
:103B500044000240580002406C0002400000024055
:103B600080B48BB000AF7860396000237B620023A3
:103B70003B6269E101227B6A02FA03F3FB613B6865
:103B80001B68FA691340BB61BA69FB699A4240F04D
:103B900058813B685B689A4A93425ED0984A934248
:103BA00075D8984A934258D0964A93426FD8964A0D
:103BB000934252D0944A934269D8944A93424CD04B
:103BC000924A934263D8924A934246D0904A934293
:103BD0005DD8122B2AD8122B59D801A252F823F003
:103BE0005B3C0008353C0008473C0008893C000865
:103BF0008F3C00088F3C00088F3C00088F3C000879
:103C00008F3C00088F3C00088F3C00088F3C000868
:103C10008F3C00088F3C00088F3C00088F3C000858
:103C20008F3C00083D3C0008513C0008794A934213
:103C300013D02CE03B68DB683B6229E03B68DB6823
:103C400004333B6224E03B68DB6808333B621FE0DF
:103C50003B68DB680C333B621AE03B689B68002BD7
:103C600002D104233B6213E03B689B68012B05D122
:103C700008233B627B68FA691A6109E008233B620A
:103C80007B68FA695A6103E000233B6200E000BFF1
:103C9000BB69FF2B01D87B6801E07B6804337B6143
:103CA000BB69FF2B02D87B6A9B0002E07B6A083B62
:103CB0009B003B617B691A680F213B6901FA03F3A2
:103CC000DB431A40396A3B6901FA03F31A437B6903
:103CD0001A603B685B6803F08053002B00F0B180F2
:103CE0004D4B9B694C4A43F0010393614A4B9B69DE
:103CF00003F00103BB60BB68484A7B6A9B08023340
:103D000052F82330FB607B6A03F003039B000F2211
:103D100002FA03F3DB43FA681340FB607B68404A16
:103D2000934213D07B683F4A93420DD07B683E4A52
:103D3000934207D07B683D4A934201D1032306E0BA
:103D4000042304E0022302E0012300E000237A6A56
:103D500002F0030292009340FA681343FB602F497C
:103D60007B6A9B080233FA6841F823203B685B6852
:103D700003F48013002B06D02D4B9A682C49BB69A5
:103D800013438B6006E02A4B9A68BB69DB432849E2
:103D900013408B603B685B6803F40013002B06D074
:103DA000234BDA682249BB691343CB6006E0204B02
:103DB000DA68BB69DB431E491340CB603B685B6834
:103DC00003F40033002B06D0194B5A681849BB691D
:103DD00013434B6006E0164B5A68BB69DB4314493A
:103DE00013404B603B685B6803F48033002B21D0A9
:103DF0000F4B1A680E49BB6913430B6021E000BFEB
:103E000000003210000031100000221000002110CC
:103E100000001210000011100010024000000140CC
:103E200000080140000C0140001001400014014056
:103E3000000401400B4B1A68BB69DB43094913407E
:103E40000B607B6A01337B623B681A687B6A22FAEB
:103E500003F3002B7FF48EAE00BF00BF2C37BD46AE
:103E600080BC70470004014080B485B000AF78602A
:103E70000B467B807B689A687B881340002B02D0BE
:103E80000123FB7301E00023FB73FB7B184614370F
:103E9000BD4680BC704780B483B000AF78600B46ED
:103EA0007B8013467B707B78002B03D07A887B68FD
:103EB0001A6103E07B881A047B681A6100BF0C3723
:103EC000BD4680BC704780B485B000AF78600B46BB
:103ED0007B807B68DB68FB607A88FB6813401A0490
:103EE000FB68D9437B880B401A437B681A6100BF8B
:103EF0001437BD4680BC704780B584B000AF786091
:103F00007B68002B01D101232BE17B6893F83D30C6
:103F1000DBB2002B06D17B68002283F83C20786856
:103F2000FEF7FEFA7B68242283F83D207B681B683D
:103F30001A687B681B6822F001021A607B681B68A4
:103F40001A687B681B6842F400421A607B681B6831
:103F50001A687B681B6822F400421A6000F0E6FCD5
:103F6000F8607B685B68814A934207D8FB68804AA7
:103F7000934294BF01230023DBB206E0FB687D4A35
:103F8000934294BF01230023DBB2002B01D0012315
:103F9000E7E0FB68784AA2FB03239B0CBB607B68CD
:103FA0001B685B6823F03F017B681B68BA680A43A3
:103FB0005A607B681B681B6A23F03F017B685B6863
:103FC0006A4A934202D8BB68013309E0BB684FF4E8
:103FD000967202FB03F3694AA2FB03239B09013398
:103FE0007A6812680B4313627B681B68DB6923F4F1
:103FF0004F4222F0FF027B685B685C498B4219D814
:10400000FB68591E7B685B685B00B1FBF3F3591CCE
:1040100040F6FC730B40002B0AD0FB68591E7B68EE
:104020005B685B00B1FBF3F30133C3F30B0351E0B7
:1040300004234FE07B689B68002B11D1FB68581E5E
:104040007B6859680B465B000B44B0FBF3F301330C
:10405000C3F30B03002B0CBF01230023DBB212E0E0
:10406000FB68581E7B6859680B469B000B449900FF
:104070000B44B0FBF3F30133C3F30B03002B0CBF72
:1040800001230023DBB2002B01D0012322E07B6857
:104090009B68002B0ED1FB68581E7B6859680B4645
:1040A0005B000B44B0FBF3F30133C3F30B0343F4A6
:1040B00000430FE0FB68581E7B6859680B469B0065
:1040C0000B4499000B44B0FBF3F30133C3F30B0330
:1040D00043F44043796809681343CB617B681B68EC
:1040E0001B6823F0C0017B68DA697B681B6A1A438E
:1040F0007B681B680A431A607B681B689B6823F413
:10410000034323F0FF037A6811697A68D268114388
:104110007A6812680B4393607B681B68DB6823F046
:10412000FF017B685A697B689B691A437B681B683F
:104130000A43DA607B681B681A687B681B6842F078
:1041400001021A607B6800221A647B68202283F8CF
:104150003D207B6800221A637B68002283F83E20A2
:10416000002318461037BD4680BD00BFA086010061
:104170007F841E00FF083D0083DE1B43D34D621089
:1041800080B400AF034B01221A6000BFBD4680BC63
:10419000704700BF20000E4280B586B000AF786047
:1041A0007B68002B01D1012372E27B681B6803F05E
:1041B0000103002B00F08780924B5B6803F00C0337
:1041C000042B0CD08F4B5B6803F00C03082B12D12F
:1041D0008C4B5B6803F48033B3F5803F0BD1894B84
:1041E0001B6803F40033002B6CD07B685B68002BEA
:1041F00068D101234CE27B685B68B3F5803F06D150
:10420000804B1B687F4A43F4803313602EE07B6849
:104210005B68002B0CD17B4B1B687A4A23F48033FC
:104220001360784B1B68774A23F4802313601DE0EA
:104230007B685B68B3F5A02F0CD1724B1B68714A89
:1042400043F4802313606F4B1B686E4A43F4803342
:1042500013600BE06B4B1B686A4A23F480331360D6
:10426000684B1B68674A23F4802313607B685B6894
:10427000002B13D0FEF72EFE386108E0FEF72AFE71
:1042800002463B69D31A642B01D9032300E25D4B3C
:104290001B6803F40033002BF0D014E0FEF71AFE85
:1042A000386108E0FEF716FE02463B69D31A642B1C
:1042B00001D90323ECE1534B1B6803F40033002BBB
:1042C000F0D100E000BF7B681B6803F00203002B05
:1042D00063D04C4B5B6803F00C03002B0BD0494BB5
:1042E0005B6803F00C03082B1CD1464B5B6803F49E
:1042F0008033002B16D1434B1B6803F00203002BC5
:1043000005D07B681B69012B01D00123C0E13D4B27
:104310001B6823F0F8027B685B69DB0039491343B3
:104320000B603AE07B681B69002B20D0364B0122E2
:104330001A60FEF7CFFD386108E0FEF7CBFD0246BC
:104340003B69D31A022B01D90323A1E12D4B1B6832
:1043500003F00203002BF0D02A4B1B6823F0F80275
:104360007B685B69DB00274913430B6015E0264B34
:1043700000221A60FEF7AEFD386108E0FEF7AAFDE4
:1043800002463B69D31A022B01D9032380E11D4B5E
:104390001B6803F00203002BF0D17B681B6803F05D
:1043A0000803002B3AD07B689B69002B19D0174B70
:1043B00001221A60FEF78EFD386108E0FEF78AFDE3
:1043C00002463B69D31A022B01D9032360E10D4B4E
:1043D0005B6A03F00203002BF0D0012000F0CEFA5C
:1043E0001CE00A4B00221A60FEF774FD38610FE0F2
:1043F000FEF770FD02463B69D31A022B08D903234E
:1044000046E100BF001002400000424280044242E8
:10441000924B5B6A03F00203002BE9D17B681B68B7
:1044200003F00403002B00F0A6800023FB758B4BE8
:10443000DB6903F08053002B0DD1884BDB69874A81
:1044400043F08053D361854BDB6903F08053BB603D
:10445000BB680123FB75824B1B6803F48073002B40
:1044600018D17F4B1B687E4A43F480731360FEF7BC
:1044700031FD386108E0FEF72DFD02463B69D31A95
:10448000642B01D9032303E1754B1B6803F480738C
:10449000002BF0D07B68DB68012B06D16F4B1B6AC9
:1044A0006E4A43F0010313622DE07B68DB68002B4A
:1044B0000CD16A4B1B6A694A23F001031362674BF4
:1044C0001B6A664A23F0040313621CE07B68DB6806
:1044D000052B0CD1614B1B6A604A43F00403136245
:1044E0005E4B1B6A5D4A43F0010313620BE05B4BBA
:1044F0001B6A5A4A23F001031362584B1B6A574A3E
:1045000023F0040313627B68DB68002B15D0FEF7F1
:10451000E1FC38610AE0FEF7DDFC02463B69D31A94
:1045200041F28832934201D90323B1E04B4B1B6A1D
:1045300003F00203002BEED014E0FEF7CBFC386151
:104540000AE0FEF7C7FC02463B69D31A41F2883203
:10455000934201D903239BE0404B1B6A03F0020303
:10456000002BEED1FB7D012B05D13C4BDB693B4A97
:1045700023F08053D3617B68DB69002B00F08780D8
:10458000364B5B6803F00C03082B61D07B68DB695A
:10459000022B46D1334B00221A60FEF79BFC386198
:1045A00008E0FEF797FC02463B69D31A022B01D9BB
:1045B00003236DE0294B1B6803F00073002BF0D13F
:1045C0007B681B6AB3F5803F08D1244B5B6823F4FA
:1045D00000327B689B68214913434B601F4B5B682B
:1045E00023F474127B68196A7B685B6A0B431B496E
:1045F00013434B601B4B01221A60FEF76BFC3861C2
:1046000008E0FEF767FC02463B69D31A022B01D98A
:1046100003233DE0114B1B6803F00073002BF0D027
:1046200035E0104B00221A60FEF754FC386108E0B8
:10463000FEF750FC02463B69D31A022B01D9032333
:1046400026E0064B1B6803F00073002BF0D11EE040
:104650007B68DB69012B07D1012319E000100240C0
:1046600000700040600042420B4B5B68FB60FB68DF
:1046700003F480327B681B6A9A4206D1FB6803F41C
:1046800070127B685B6A9A4201D0012300E000232C
:1046900018461837BD4680BD0010024080B584B072
:1046A00000AF786039607B68002B01D10123D0E036
:1046B0006A4B1B6803F007033A689A4210D9674BAC
:1046C0001B6823F0070265493B6813430B60634B8B
:1046D0001B6803F007033A689A4201D00123B8E04F
:1046E0007B681B6803F00203002B20D07B681B68EB
:1046F00003F00403002B05D0594B5B68584A43F480
:10470000E06353607B681B6803F00803002B05D04F
:10471000534B5B68524A43F460535360504B5B68A1
:1047200023F0F0027B689B684D4913434B607B6824
:104730001B6803F00103002B40D07B685B68012BF2
:1047400007D1474B1B6803F40033002B15D101231D
:104750007FE07B685B68022B07D1414B1B6803F04D
:104760000073002B09D1012373E03D4B1B6803F05C
:104770000203002B01D101236BE0394B5B6823F06E
:1047800003027B685B68364913434B60FEF7A2FB6C
:10479000F8600AE0FEF79EFB0246FB68D31A41F27E
:1047A0008832934201D9032353E02D4B5B6803F019
:1047B0000C027B685B689B009A42EBD1274B1B681D
:1047C00003F007033A689A4210D2244B1B6823F087
:1047D000070222493B6813430B60204B1B6803F020
:1047E00007033A689A4201D0012332E07B681B68D4
:1047F00003F00403002B08D0194B5B6823F4E0623C
:104800007B68DB68164913434B607B681B6803F0C9
:104810000803002B09D0124B5B6823F460527B68BD
:104820001B69DB000E4913434B6000F021F8024680
:104830000B4B5B681B0903F00F030A49CB5C22FAA0
:1048400003F3094A1360094B1B681846FEF700FB87
:10485000002318461037BD4680BD00BF002002402F
:1048600000100240CCB600080C0000201000002010
:1048700080B487B000AF0023FB600023BB6000233F
:104880007B6100237B6000233B611E4B5B68FB6008
:10489000FB6803F00C03042B02D0082B03D027E0A5
:1048A000194B3B6127E0FB689B0C03F00F03174A91
:1048B000D35C7B60FB6803F48033002B10D0114B7A
:1048C0005B685B0C03F00103114AD35CBB607B683F
:1048D0000D4A03FB02F2BB68B2FBF3F37B6104E019
:1048E0007B680C4A02FB03F37B617B693B6102E05E
:1048F000054B3B6100BF3B6918461C37BD4680BC79
:10490000704700BF0010024000127A00E4B60008B1
:10491000F4B6000800093D0080B400AF024B1B68EC
:104920001846BD4680BC70470C00002080B500AF23
:10493000FFF7F2FF0246054B5B681B0A03F0070313
:104940000349CB5C22FA03F3184680BD00100240F5
:10495000DCB6000880B500AFFFF7DEFF0246054B6E
:104960005B68DB0A03F007030349CB5C22FA03F31D
:10497000184680BD00100240DCB6000880B485B047
:1049800000AF78600A4B1B680A4AA2FB03235B0A4C
:104990007A6802FB03F3FB6000BFFB685A1EFA60F3
:1049A000002BF9D100BF00BF1437BD4680BC704753
:1049B0000C000020D34D621080B586B000AF786047
:1049C00000233B610023FB607B681B6803F001034D
:1049D000002B7DD00023FB754F4BDB6903F0805328
:1049E000002B0DD14C4BDB694B4A43F08053D36114
:1049F000494BDB6903F08053BB60BB680123FB7547
:104A0000464B1B6803F48073002B18D1434B1B6883
:104A1000424A43F480731360FEF75CFA386108E0A1
:104A2000FEF758FA02463B69D31A642B01D90323D7
:104A30006DE03A4B1B6803F48073002BF0D0364BCB
:104A40001B6A03F44073FB60FB68002B2ED07B686D
:104A50005B6803F44073FA689A4227D02E4B1B6AB6
:104A600023F44073FB602E4B01221A602C4B002272
:104A70001A60294AFB681362FB6803F00103002BEC
:104A800014D0FEF727FA38610AE0FEF723FA02464F
:104A90003B69D31A41F28832934201D9032336E0AD
:104AA0001D4B1B6A03F00203002BEED01A4B1B6A4E
:104AB00023F440727B685B68174913430B62FB7DEC
:104AC000012B05D1144BDB69134A23F08053D361CA
:104AD0007B681B6803F00203002B08D00E4B5B6859
:104AE00023F440427B689B680B4913434B607B680F
:104AF0001B6803F01003002B08D0074B5B6823F4FE
:104B000080027B68DB68044913434B60002318462E
:104B10001837BD4680BD00BF001002400070004045
:104B20004004424280B588B000AF786000237B61CA
:104B30000023FB6100233B610023FB600023BB617A
:104B40007B68102B0AD07B68102B00F28A807B6870
:104B5000012B45D07B68022B75D082E0464B5B6809
:104B6000FB60454B1B6803F08073002B7BD0FB6818
:104B70009B0C03F00F03414AD35C3B61FB6803F4D9
:104B80008033002B15D03C4B5B685B0C03F00103BA
:104B90003B4AD35C7B61FB6803F48033002B0DD070
:104BA000384A7B69B2FBF3F23B6902FB03F3FB611A
:104BB00004E03B69344A02FB03F3FB612E4B5B6864
:104BC00003F48003B3F5800F02D1FB69BB614AE0B7
:104BD000FB695B002D4AA2FB03235B08BB6142E03B
:104BE000254B1B6AFB60FB6803F44073B3F5807FC1
:104BF00008D1FB6803F00203002B03D04FF40043FD
:104C0000BB611FE0FB6803F44073B3F5007F09D17B
:104C1000194B5B6A03F00203002B03D049F64043B3
:104C2000BB610FE0FB6803F44073B3F5407F1CD118
:104C3000114B1B6803F40033002B16D04FF22443B2
:104C4000BB6112E011E0FFF785FE02460A4B5B688C
:104C50009B0B03F0030301335B00B2FBF3F3BB6177
:104C600004E000BF02E000BF00E000BFBB691846DF
:104C70002037BD4680BD00BF00100240F8B60008D6
:104C800008B7000800127A0000093D00ABAAAAAAE2
:104C900080B584B000AF78600023FB607B68002B98
:104CA00001D101237AE07B685B7CDBB2002B05D16C
:104CB0007B6800221A747868FDF7BCFE7B680222CC
:104CC0005A74786800F0EAFA0346002B04D07B6837
:104CD00004225A74012361E0786800F0A3FB0346C4
:104CE000002B04D07B6804225A74012356E07B68B1
:104CF0001B685A687B681B6822F007025A607B6851
:104D00009B68002B05D0274B1B6B264A23F0010321
:104D10001363244BDB6A23F460727B689B68214930
:104D20001343CB627B685B68B3F1FF3F03D07B68C2
:104D30005B68FB600EE00120FFF7F4FEF860FB68A3
:104D4000002B04D17B6804225A74012326E0FB68FF
:104D5000013BFB60FB681A0C7B681B6802F00F02CA
:104D60009A607B681B68FA6892B2DA60786800F033
:104D700081FB0346002B04D07B6804225A74012374
:104D80000CE07B680022DA737B6801225A737B682F
:104D900001229A737B6801225A7400231846103747
:104DA000BD4680BD006C004090B587B000AFF86094
:104DB000B9607A6000237B6100233B61FB68002BB4
:104DC00002D0BB68002B01D1012380E0FB681B7C73
:104DD000012B01D102237AE0FB6801221A74FB68DF
:104DE00002225A747B68002B13D1BB681B781A46C9
:104DF0004FF4616303FB02F2BB685B7819460B4614
:104E00001B015B1A9B001344BA68927813447B61C0
:104E10001EE0BB681B78184600F071FB03461A467B
:104E20004FF4616303FB02F4BB685B78184600F043
:104E300066FB03461A4613461B019B1A9B001C4443
:104E4000BB689B78184600F05AFB034623447B61FD
:104E50007969F86800F07FFA0346002B07D0FB68F9
:104E600004225A74FB6800221A7401232FE0FB68A5
:104E70001B685A68FB681B6822F005025A60F868D4
:104E800000F090FA38613B69B3F1FF3F18D03A69FE
:104E90007B699A4214D23B6903F5A83303F5C073CA
:104EA0003B613969F86800F096FA0346002B07D099
:104EB000FB6804225A74FB6800221A74012306E07E
:104EC000FB6801225A74FB6800221A7400231846FA
:104ED0001C37BD4690BD000080B588B000AFF860BB
:104EE000B9607A600023BB610023FB6100237B6112
:104EF00000233B61FB68002B02D0BB68002B01D173
:104F00000123B5E0FB681B685B6803F00403002B1A
:104F100001D00123ACE0F86800F0EDF9B861BB699D
:104F2000554AA2FB0323DB0A3B61BA69524BA3FB40
:104F30000213DB0A4FF4616101FB03F3D31A4F4AFA
:104F4000A2FB03235B09DAB2BB685A70BB694A4A09
:104F5000A2FB0312D20A4FF4616101FB02F29A1A1A
:104F6000464BA3FB021359090B461B015B1A9B001E
:104F7000D11ACAB2BB689A703B69172B55D93B69E5
:104F80003F4AA2FB03231B097B6139693C4BA3FB0E
:104F900001231A0913465B001344DB00CA1AD2B27C
:104FA000BB681A70F86800F0FDF9F861FB69B3F1AD
:104FB000FF3F08D0FA69BB699A4204D9FA69BB6914
:104FC000D31AFB6102E04FF0FF33FB617B692D4A8E
:104FD00002FB03F3BA69D31ABB61B969F86800F040
:104FE000BAF90346002B01D0012341E0FB69B3F17C
:104FF000FF3F0CD0FA69BB691344FB61F969F8689B
:1050000000F0E9F90346002B0AD0012330E0F969EA
:10501000F86800F0E0F90346002B01D0012327E0F7
:105020007969F86800F088FA03E03B69DAB2BB6896
:105030001A707B68002B1AD0BB681B78184600F0EA
:1050400041FA03461A46BB681A70BB685B7818467B
:1050500000F038FA03461A46BB685A70BB689B7862
:10506000184600F02FFA03461A46BB689A700023D0
:1050700018462037BD4680BDC5B3A291898888886F
:10508000ABAAAAAA8051010080B588B000AFF86031
:10509000B9607A600023FB610023BB6100237B6160
:1050A000FB68002B02D0BB68002B01D1012397E0E5
:1050B000FB681B7C012B01D1022391E0FB680122DC
:1050C0001A74FB6802225A747B68002B0CD1BB68EF
:1050D000DA78FB68DA73BB685A78FB685A73BB6886
:1050E0009A78FB689A731AE0BB68DB78184600F080
:1050F00006FA03461A46FB68DA73BB685B78184603
:1051000000F0FDF903461A46FB685A73BB689B78AA
:10511000184600F0F4F903461A46FB689A73FB68D8
:10512000DB7B1846FB68597BFB689B7B1A4600F0CB
:10513000DFFA03461A46FB681A73FB681A7BBB68E2
:105140001A70F86800F0D7F8F861FB69264AA2FBEC
:105150000323DB0A7B617B69182B3AD97B69234ADD
:10516000A2FB03231B09224A02FB03F3FA69D31AA9
:10517000FB61F969F86800F0EEF80346002B07D0F0
:10518000FB6804225A74FB6800221A74012327E08A
:10519000F86800F007F9B861BB69B3F1FF3F18D0B8
:1051A000BA69FB699A4214D2BB6903F5A83303F5C7
:1051B000C073BB61B969F86800F00DF90346002BB4
:1051C00007D0FB6804225A74FB6800221A7401237A
:1051D00006E0FB6801225A74FB6800221A7400235F
:1051E00018462037BD4680BDC5B3A291ABAAAAAA76
:1051F0008051010080B586B000AFF860B9607A6078
:1052000007F1140300210A461A800A469A70FB68C7
:10521000002B02D0BB68002B01D101233AE007F13B
:10522000140300221946F868FFF756FE0346002BC8
:1052300001D001232EE0FB681A7BBB681A70FB6863
:10524000DA7BBB68DA70FB685A7BBB685A70FB6814
:105250009A7BBB689A707B68002B1AD0BB68DB789E
:10526000184600F02FF903461A46BB68DA70BB688F
:105270005B78184600F026F903461A46BB685A7058
:10528000BB689B78184600F01DF903461A46BB68B8
:105290009A70002318461837BD4680BD80B584B08B
:1052A00000AF78600023FB607B68002B01D10123F5
:1052B0001DE07B681B685A687B681B6822F0080247
:1052C0005A60FDF707FEF86009E0FDF703FE0246AD
:1052D000FB68D31AB3F57A7F01D9032307E07B6813
:1052E0001B685B6803F00803002BEED00023184610
:1052F0001037BD4680BD80B487B000AF7860002312
:105300007B8200233B820023FB8100237B617B683F
:105310001B689B697B827B681B68DB69FB817B6800
:105320001B689B693B827A8A3B8A9A4208D03B8AF7
:105330001A047B681B68DB699BB213437B6104E042
:105340007B8A1A04FB8913437B617B6918461C37EF
:10535000BD4680BC704780B584B000AF78603960CE
:105360000023FB73786800F05DF80346002B02D041
:105370000123FB7311E07B681B683A68120C9A6189
:105380007B681B683A6892B2DA61786800F072F85C
:105390000346002B01D00123FB73FB7B184610371B
:1053A000BD4680BD80B485B000AF78600023FB812E
:1053B0000023BB817B681B681B6AFB817B681B68C1
:1053C0005B6ABB81FB891A04BB89134318461437F7
:1053D000BD4680BC704780B584B000AF786039604E
:1053E0000023FB73786800F01DF80346002B02D001
:1053F0000123FB7311E07B681B683A68120C1A6288
:105400007B681B683A6892B25A62786800F032F89A
:105410000346002B01D00123FB73FB7B184610379A
:10542000BD4680BD80B584B000AF78600023FB60CE
:10543000FDF750FDF86009E0FDF74CFD0246FB6802
:10544000D31AB3F57A7F01D903230FE07B681B6879
:105450005B6803F02003002BEED07B681B685A6862
:105460007B681B6842F010025A6000231846103710
:10547000BD4680BD80B584B000AF78600023FB607E
:105480007B681B685A687B681B6822F010025A60B0
:10549000FDF720FDF86009E0FDF71CFD0246FB6802
:1054A000D31AB3F57A7F01D9032307E07B681B6821
:1054B0005B6803F02003002BEED000231846103762
:1054C000BD4680BD80B485B000AF0346FB710023AC
:1054D000FB6005E0FB680133FB60FB790A3BFB7175
:1054E000FB79092BF6D8FB68DBB21B01DAB2FB793A
:1054F0001343DBB218461437BD4680BC704780B4F6
:1055000085B000AF0346FB710023FB60FB791B09EC
:10551000DBB21A4613469B0013445B00FB60FB7929
:1055200003F00F03DAB2FB68DBB21344DBB21846B8
:105530001437BD4680BC704780B586B000AF786038
:10554000396000237B6100233B610023FB60002363
:10555000BB607B68DB7B7B617B685B7B3B617B68E3
:105560009B7BFB600023BB606FE03B69012B11D08C
:105570003B69032B0ED03B69052B0BD03B69072BF6
:1055800008D03B69082B05D03B690A2B02D03B6948
:105590000C2B17D1FB681E2B03D8FB680133FB6073
:1055A00050E03B690C2B05D03B6901333B61012383
:1055B000FB6047E001233B610123FB607B69013312
:1055C0007B613FE03B69042B08D03B69062B05D08B
:1055D0003B69092B02D03B690B2B0CD1FB681D2BBF
:1055E00003D8FB680133FB602CE03B6901333B616E
:1055F0000123FB6026E03B69022B23D1FB681B2BB8
:1056000003D8FB680133FB601CE0FB681C2B11D145
:105610007B699BB2184600F039F80346002B03D093
:10562000FB680133FB600DE03B6901333B61012303
:10563000FB6007E0FB681D2B04D13B6901333B6134
:105640000123FB60BB680133BB60BA683B689A42C8
:105650008BD37B69DAB27B68DA733B69DAB27B6839
:105660005A73FB68DAB27B689A733B69DBB2FA68FB
:10567000D2B21946786900F03BF803461A467B68B7
:105680001A7300BF1837BD4680BD000080B483B0D8
:1056900000AF0346FB80FB8803F003039BB2002BA3
:1056A00001D000231DE0FB88104AA2FB031252091F
:1056B000642101FB02F29B1A9BB2002B01D0012353
:1056C0000FE0FB88094AA2FB0312D2094FF4C8710C
:1056D00001FB02F29B1A9BB2002B01D1012300E0D7
:1056E000002318460C37BD4680BC70471F85EB5120
:1056F00080B485B000AF78600B46FB701346BB707A
:105700000023BB600023FB607B6803F5FA63BB608A
:10571000FB78022B2DD8FA7813465B001344DB008C
:105720009B1A2C4AA2FB03235A08BB781A44BB6875
:105730001A44BB68013B9B081A44BB68013B2649DD
:10574000A1FB03135B09D21ABB68013B2249A1FBF1
:105750000313DB0913441A1D204BA3FB0213D11AB8
:1057600049080B4499080B46DB005B1AD31AFB600F
:1057700029E0FA7813465B001344DB009B1A154AB4
:10578000A2FB03235A08BB781A44BB681A44BB68BF
:105790009B081A44BB681049A1FB03135B09D21A8A
:1057A000BB680D49A1FB0313DB0913449A1C0B4B87
:1057B000A3FB0213D11A49080B4499080B46DB00DE
:1057C0005B1AD31AFB60FB68DBB218461437BD4680
:1057D00080BC7047398EE3381F85EB5125499224F0
:1057E00080B582B000AF78607B68002B01D10123C7
:1057F00042E07B6893F84130DBB2002B06D17B6836
:10580000002283F840207868FDF792FA7B68242212
:1058100083F841207B681B68DA687B681B6822F488
:105820000052DA60786800F0B7FD7B681B681A697F
:105830007B681B6822F490421A617B681B685A6976
:105840007B681B6822F02A025A617B681B68DA6851
:105850007B681B6842F40052DA607B6800225A645D
:105860007B68202283F841207B68202283F8422035
:105870007B6800225A63002318460837BD4680BD66
:1058800080B58AB002AFF860B9603B601346FB8018
:1058900000237B61FB6893F84130DBB2202B75D18C
:1058A000BB68002B02D0FB88002B01D101236EE0E6
:1058B000FB6800225A64FB68212283F84120FDF72F
:1058C00009FB7861FB68FA889A84FB68FA88DA84B5
:1058D000FB689B68B3F5805F08D1FB681B69002BF0
:1058E00004D10023FB61BB68BB6103E0BB68FB61C3
:1058F0000023BB612EE03B6800937B69002280217E
:10590000F86800F01CFB0346002B05D0FB68202242
:1059100083F8412003233AE0FB69002B0BD1BB69DC
:105920001B881A46FB681B68C2F308025A60BB69F1
:105930000233BB6107E0FB691A78FB681B685A6099
:10594000FB690133FB61FB68DB8C9BB2013B9AB2C4
:10595000FB68DA84FB68DB8C9BB2002BCBD13B6805
:1059600000937B6900224021F86800F0E8FA0346C2
:10597000002B05D0FB68202283F84120032306E09A
:10598000FB68202283F84120002300E00223184610
:105990002037BD4680BD80B584B000AFF860B960E7
:1059A0001346FB80FB6893F84230DBB2202B12D108
:1059B000BB68002B02D0FB88002B01D101230BE038
:1059C000FB6800221A63FB881A46B968F86800F081
:1059D0000FFB034600E0022318461037BD4680BD8A
:1059E00080B5BAB000AF78607B681B681B68C7F8E9
:1059F000E4307B681B68DB68C7F8E0307B681B68B5
:105A00005B69C7F8DC300023C7F8D8300023C7F83B
:105A1000D430D7F8E43003F00F03C7F8D830D7F804
:105A2000D830002B0FD1D7F8E43003F02003002B3F
:105A300009D0D7F8E03003F02003002B03D07868BA
:105A400000F0ECFB5BE2D7F8D830002B00F0DE80F2
:105A5000D7F8DC3003F00103002B06D1D7F8E03093
:105A600003F49073002B00F0D180D7F8E43003F0FA
:105A70000103002B0BD0D7F8E03003F48073002B28
:105A800005D07B685B6C43F001027B685A64D7F8F1
:105A9000E43003F00403002B0BD0D7F8DC3003F024
:105AA0000103002B05D07B685B6C43F002027B682E
:105AB0005A64D7F8E43003F00203002B0BD0D7F878
:105AC000DC3003F00103002B05D07B685B6C43F0F6
:105AD00004027B685A64D7F8E43003F00803002B13
