:020000040800F2
:100000007807002061020008012A0008F929000889
:10001000FD29000841140008612A000800000000C2
:10002000000000000000000000000000092A000895
:100030004514000800000000052A00080D2A0008E9
:100040007B0200087B0200087B0200087B0200089C
:100050007B0200087B020008491400087B020008AC
:100060007B0200087B0200087B0200087B0200087C
:100070007B0200087B0200087B0200087B0200086C
:100080007B0200087B0200087B0200087B0200085C
:100090007B0200087B0200087B0200087B0200084C
:1000A0007B0200087B0200087B0200087B0200083C
:1000B0007B0200087B0200087B0200087B0200082C
:1000C0007B0200087B0200087B0200087B0200081C
:1000D0007B0200087B0200087B0200087B0200080C
:1000E0007B0200087B0200087B02000800F002F897
:1000F00000F0A6F814A696E8000CB244B344DA4522
:1001000001D100F09DF8BAE80F000FA696E8300084
:10011000A5EB040504EB0607AAEB0704A7F101070A
:100120004FEA15154FEA3414A4F10104AC4201D38F
:1001300000F086F813F0010F18BFFB1A43F001031B
:1001400000F001F8DBE71847DC380000FC3800005D
:10015000103A24BF78C878C1FAD8520724BF30C8F3
:1001600030C144BF04680C60704700007047000055
:100170000023002400250026103A28BF78C1FBD8B0
:10018000520728BF30C148BF0B6070476E2900F08E
:100190008D81702900F0D182662903F027836529BB
:1001A00003F02483672903F02183612903F020836E
:1001B00003681B0A28BF41F08001692900F03A81D9
:1001C000642900F03781752900F034816F2900F02F
:1001D0005F82782900F09D82E92900F0F981E42905
:1001E00000F0F681F52900F0F381EF2900F05C8240
:1001F000F82900F09C820368DB0928BF41F08001E8
:10020000632900F09D87732900F0A287E32900F09D
:10021000AD87F32900F0B287002070471FB501F0C9
:1002200003F804000020002103F0CAFA401C6060BB
:100230000020002103F0AEFAE0601FBD10B510BD34
:1002400000F0C4FF1146FFF7E9FF02F00BFC01F0DC
:10025000A1F803B4FFF7F2FF03BC01F0E9F80000D6
:100260000948804709480047FEE7FEE7FEE7FEE74A
:10027000FEE7FEE7FEE7FEE7FEE7FEE70448054986
:10028000054A064B70470000112A0008ED000008DF
:1002900078010020780700207803002078030020F0
:1002A0007CB51D4616460C00009007D04142A14285
:1002B00002D32044401E01E04FF0FF30064B7B4448
:1002C0002A4669460190304600F009F9002C02D018
:1002D000009A002111707CBD4302000010B5431C40
:1002E00002E010F8011B71B18107FAD14FF0013221
:1002F00002C88C1A8C4314EAC211F9D0C01A0A063B
:1003000003D0C01E10BDC01A10BD0A0401D0801E4B
:1003100010BD0902FCD0401E10BD4FF0000200B518
:10032000134694469646203922BFA0E80C50A0E818
:100330000C50B1F12001BFF4F7AF090728BFA0E8C6
:100340000C5048BF0CC05DF804EB890028BF40F892
:10035000042B08BF704748BF20F8022B11F0804FD4
:1003600018BF00F8012B704770477047704770B591
:10037000044685690068C10601D5302600E02026C4
:10038000C00707D070BDD4E9012130469047206AEC
:10039000401C20626D1EF6D570BD70B5044685699F
:1003A0000078C00707D170BDD4E901212020904713
:1003B000206A401C20626D1EF6D570BD09684A0592
:1003C00001D540B27047C905FCD500B27047096835
:1003D0004A0501D5C0B27047C905FCD580B2704747
:1003E00070B50C460546012A05D02878800600D550
:1003F000EA69002302E0012305E05B1C934202D27C
:10040000E05C0028F9D1A869E618C01AA861286A3A
:10041000184428622846FFF7AAFF04E0D5E9012125
:1004200014F8010B9047B442F8D32846FFF7B5FF04
:1004300070BD00002DE9F0410646002410687529C2
:10044000314616A510D0FFF7B9FF002802DA404266
:1004500013A507E031688A0701D512A502E0490714
:1004600004D511A5012401E0FFF7B1FF00210A2204
:1004700006F1240709E0B0FBF2FCB0FBF2F302FB4B
:100480001C00303078541846491C0028F3D123460C
:100490002A463046BDE8F04100F063BA0000000093
:1004A0002D0000002B0000002000000011680268F1
:1004B000006A530501D508700AE0D30501D508800C
:1004C00006E0130603D5C217C1E9000200E0086088
:1004D0000120704701694A1C02610878704700B525
:1004E0008FB0CDE901310021059105497944CDE96D
:1004F00003101146684600F02BF90FB000BD000054
:10050000E5FFFFFFD1E900239A4202D2531C0B60A2
:10051000107070472DE9FF5F15468A460446DFF8E4
:10052000AC80F8440027D8E900103E46CDE9001021
:1005300010E03AF816106A4602A800F023FE411CAB
:1005400007D02178890603D5E269391891420DD880
:100550000744761C2078800602D5E069B84205DDA4
:10056000AE42E6DB3AF816000028E2D1A069C01BD3
:10057000A0612046FFF7FBFED8E90010CDE900108E
:10058000002017E03AF818106A4602A800F0FAFDB9
:10059000B0F1FF3F81460BD000250DF1080B05E0BF
:1005A000D4E901211BF8050090476D1C4D45F7D398
:1005B00008F10100B0428046E4DB206A3844206242
:1005C0002046FFF7EAFEBDE8FF9F0000CE320000A4
:1005D0002DE9F0418046D21D22F007020025D2E924
:1005E0000002F52915A614D0011E72F1000106DAE9
:1005F0000023D0EB030063EB020211A608E0D8F859
:1006000000108B0701D50FA602E0490701D50EA601
:1006100001251146002408F1240704E000F05CF9EC
:1006200030323A55641C50EA0102F7D12B4632466B
:1006300021464046BDE8F04100F093B900000000BB
:100640002D0000002B0000002000000030B400212D
:1006500000F1240408E002F00705D208303542EA30
:100660004372DB086554491C52EA0305F3D1046860
:10067000002310A2250708D504F020040C4304D061
:10068000C46901230CA2641EC46130BC00F069B9C6
:1006900010B5044621461068FFF799FE0246204631
:1006A000BDE810400023D1E7D21D22F00701D1E9B7
:1006B0000023CBE70000000030000000F0B40D463E
:1006C0000188090502D5214C7C4402E01F4C7C4482
:1006D0000E34002100F1240608E002F00F07120991
:1006E000E75D42EA03721B097754491C52EA03078B
:1006F000F3D102780023120704D5702D06D009B17A
:10070000022311342246F0BC00F02BB9012310342F
:10071000F8E770B504460D4621461068FFF757FE0E
:10072000024629462046BDE870400023C6E7D21D98
:1007300022F00703D3E90023C0E70368126843F0FF
:10074000200303600823C3610023B7E730310000B2
:100750002DE9F05F894604464FF0000ADFF874B1D6
:10076000FB44C0F820A02046E1688847002874D0E8
:10077000252806D0D4E901219047206A401C206238
:10078000F1E700265F462046E168884720280546B5
:1007900007DB312D05D2781910F8200C08B106437B
:1007A000F1E7B00701D526F00406C4F81CA0002725
:1007B000C4F818A02A2D09D0284602F0E3FF38B368
:1007C00004EB8708303DC8F8185019E059F8041BAD
:1007D000204604EB87029161E1688847012F0546B6
:1007E00018D1E069002820DA26F020061DE0D8F8AC
:1007F000180000EB800005EB40003038C8F8180006
:100800002046E1688847054602F0BCFF0028EED18B
:10081000012F0AD02E2D08D12046E16888477F1C81
:100820000546022F46F02006C4DBA069002803DA43
:10083000404246F00106A061F00701D026F0100604
:100840006C2D0BD0682D09D04C2D39D06A2D35D0A8
:10085000742D35D07A2D33D016E038E0E1682F467C
:1008600020468847B842054609D16C2F26D04FF460
:100870008060E168064320468847054604E06C2F07
:100880001AD04FF4807006430DB3A5F1410019282A
:1008900002D8203546F400664A462946204626609E
:1008A0004E46FFF773FC80B101280BD0F61D26F0F1
:1008B000070000F1080956E74020E4E78020D8E768
:1008C0000020D6E706F104094DE7284652E7206AE2
:1008D000BDE8F09FC030000030B5B0F10A0271F100
:1008E00000034FEA900E4EEA817EB0EB0E0061EB02
:1008F00091014FEA101E4EEA017E10EB0E0041EB13
:1009000011114FEA102E4EEA016E10EB0E0041EB72
:1009100011214FEA104E4EEA014E10EB0E0041EB52
:100920001141401841F100014FEAD00040EA417006
:100930004FEAD1014FEA810444EA907410EB80053C
:1009400044EB01046D1944EB0404521BA3414FF026
:10095000000348BF0A3200D530BD401C41F1000100
:1009600030BD2DE9F0470D4699469246044600F108
:1009700024080168880604D5E06921F0100121608F
:1009800000E00120A84201DD471B00E00027A1692B
:100990007A1902EB0900081AA0612078C00602D477
:1009A0002046FFF7E4FC002608E0D4E901211AF80C
:1009B00006009047206A401C761C20624E45F4DBFE
:1009C0002078C0060AD52046FFF7D1FC06E0D4E91E
:1009D000012130209047206A401C2062381EA7F178
:1009E0000107F4DC07E0D4E9012118F8050090477D
:1009F000206A401C2062281EA5F10105F3DC204678
:100A0000FFF7CBFC2078000602D50220BDE8F08776
:100A10000120FBE72DE9FF4F0C461E464FF0FF3744
:100A20008BB0D2E90001DDF860800A908A46C1F3FC
:100A30000A5505B93D46002108464FF00000BAF1BD
:100A4000000F00F4400005DA00EB80004FF4400195
:100A500001EA50004FEA9059B9F1010F00DDB946A3
:100A60000A9850EA4A000ED044F61050A5F2FF351D
:100A700045432F14B8F1000F1ED07542291E1EDD0C
:100A8000C9F100021CE0B8F1010F4FF0000001D0E5
:100A9000302103E0F24305E02154401CB042FBDB6F
:100AA00030460022002121540B99C1F80880C1E989
:100AB00000200FB0BDE8F08FBD1B6D1CDEE74A467D
:100AC00000DA694206A800F0F3FB06AB93E80700E2
:100AD00003AB83E8070050460A9902F077FA8DE8E5
:100AE0000700A0F500501F3800900398002D0ADD84
:100AF00042F21F014A460844002303A903906846B6
:100B000002F0E0FC09E0A0F500504A461F3800233F
:100B100003A90390684602F0EAFC8DE80700000490
:100B2000000C03D04FF0FF30410800E01046B8F150
:100B3000000F03D00022009215461EE0751E05D45A
:100B4000FFF7CAFE303262556D1EF9D5B346012259
:100B5000084302D000227F1C04E02078302801D115
:100B600000227F1E002A099784D01DE0112D07DA8C
:100B7000FFF7B2FE303262556D1C50EA0102F5D12A
:100B8000084302D00098C8B10EE00021681E05E0BD
:100B9000235C625C63542254401E491C8142F7DB93
:100BA000AB46A81B401E0990002004F80B000B98D0
:100BB000099AC0F80880C0E9002B7AE711264FF0A7
:100BC000000857E72DE9F04F88460446D21D22F071
:100BD000070191B0D1E90001CDE90A0102F0BEFDA3
:100BE00002460B98C00F01D02D2007E02068810736
:100BF00001D52B2002E0202101EAC000032A099040
:100C000001D0072A05DB03464146204600F010FBD1
:100C10000BE12078800601D5E06900E00620B8F1FC
:100C2000650F814606D0B8F1660F18D0B8F1670F8E
:100C300070D131E00020B9F1110F009001DB1123D8
:100C400001E009F101030AAA01A90CA8FFF7E2FEDD
:100C5000DDE90C70002609F10105834647E001201B
:100C60004B4600904FF000470AAA01A90CA8FFF7D5
:100C7000D1FEDDE90DB00C995D46002610B909F1F1
:100C800001000D18B9EB050003D4C0F1FF3609F1DE
:100C90000105A5EB09002BE0B9F1010F01DA4FF0D6
:100CA00001090020B9F1110F0090484601DD112320
:100CB00000E003460AAA01A90CA8FFF7ABFEDDE994
:100CC0000C704D4600268346207800070AD4AB45B9
:100CD00000DA5D4601A8012D04DD411911F8011C5F
:100CE000302907D04F4502DA17F1040F04DA01204A
:100CF00082460FE06D1EEEE7002F02DCED1B3E4446
:100D000003E0781CA84200DD7D1CB81B00F1010A3D
:100D10004FF000472078000703D4AA4501DB4FF0CD
:100D2000FF3A0021B7F1004F0DF143088DF8431051
:100D300024D002202B23002F01DA7F422D230A2109
:100D4000021EA0F1010000DC5FB197FBF1FC97FBF4
:100D5000F1F201FB1C7C17460CF1300C08F801CDB8
:100D6000EEE7A8F1010003702188090501D54521AE
:100D700000E06521A0F1010800F8011C09980FA905
:100D8000A1EB0807FF1D00B10120411901EBEA703A
:100D9000A1693844081A401EA0612078C00602D418
:100DA0002046FFF7E4FA099828B1D4E901219047D9
:100DB000206A401C20622078C00622D52046FFF71A
:100DC000D6FA1EE0002E04DBB34502DD01A8805DEB
:100DD00000E03020D4E901219047206A401C2062C5
:100DE000761CAAF101005FEA000A0AD100F01CFAA1
:100DF000C0680168405CD4E901219047206A401C2A
:100E00002062281EA5F10105DCDC07E0D4E9012100
:100E100018F8010B9047206A401C2062381EA7F189
:100E20000107F3DC2046FFF7B8FA032011B041E6D2
:100E30002DE9F04F04460D46D21D22F0070089B07F
:100E4000D0E900974846394602F088FC0246F80F80
:100E500001D02D2307E02068810701D52B2302E074
:100E6000202101EAC0038DF820300BB1012000E001
:100E70000020032A824601D0072A04DB29462046A7
:100E800000F0D6F93FE12078800601D40D2500E07E
:100E9000E569C7F30A560D2D49DA00214FEA175BC1
:100EA00008464FF00000002F00F4400007DA00EB86
:100EB00080004FF4400100EBD07001EA6000811522
:100EC000012901DD4FF0FF3100224FEA850CBCF112
:100ED000180F06D31346ACF118004FF08052C240F1
:100EE00003E04FF4801323FA0CF30CF10C0CBCF16B
:100EF000200F04D3ACF1200C09FA0CF001E007FA42
:100F00000CF000294FF0004801DD18B90FE00ED1B8
:100F100040450CD319EB02095F4121B9404502D18C
:100F20009F4329EA0209BBEB175F00D0761C20889B
:100F3000000502D57B48784402E07A4878441938A5
:100F400008AA302302F80A30037C0AF10101002EBE
:100F50000AF1020A53546A4602DC4FF0300101E004
:100F60004FF031014FF001088DF8001002D0A6F2C9
:100F7000FF3603E059EA470100D06B4E002D02DC3A
:100F80002178090704D54FF002082E218DF80110B1
:100F9000C44600210BE0C7F303433F01C35C491C77
:100FA0006D1E02F80830052908F1010801DA002D4C
:100FB000F1DC00210CE000EB1973491C1B786D1E5D
:100FC000082902F808304FEA091908F1010801DA86
:100FD000002DF0DC21688B0602D516E0A8F101088F
:100FE000E04505DD02EB080313F8013C302BF5D09A
:100FF000B8F1000F09DD02EB080313F8013C2E2BBA
:1010000003D1090701D4A8F10108002D05DD3E2117
:1010100002F808106D1E08F10108407C002E02F84D
:10102000080008F1010804DA2D20764202F80800D1
:1010300002E02B2002F808000A214FF47A70864261
:1010400008F101080BDB96FBF0F3303302F80830AF
:1010500096FBF0F308F1010800FB136601E0642E33
:101060000CDB642096FBF0F3303302F8083096FB7B
:10107000F0F308F1010800FB136601E00A2E06DB1D
:1010800096FBF1F0303002F8080008F1010896FBF9
:10109000F1F001FB1060303002F80800A16908F19E
:1010A000010808EB050202EB0A00081AA06120788B
:1010B000C00602D42046FFF75AF9216A08AE01EBB8
:1010C0000A00206204E0D4E9012116F8010B9047E0
:1010D000BAF1010AF7D22078C00602D52046FFF700
:1010E00046F96E4609E016F8010B3E280FD0D4E908
:1010F00001219047206A401C2062B8F10108F2D219
:101100002046FFF74AF909B00320BDE8F08F206AB6
:101110002844206203E0D4E90121302090476D1E6D
:10112000EBD3F8E70E29000002FCFFFF10B543697E
:1011300013B1AFF3008001E0FFF752F9012010BDB9
:10114000127800F124010A7000224A700122EDE7B2
:1011500011684FF0FF32E9E710B5436913B1AFF3FF
:10116000008001E0FFF7D6F9012010BD128800F1E0
:10117000240182840022C2840122EDE711684FF02D
:10118000FF32E9E72DE9F04116460C46054600F02E
:1011900043F8036893F80101012807D0FF2C12D807
:1011A000185D80B101202C70BDE8F081D3F80701F3
:1011B0003246214603F20713C7182846BC46BDE84D
:1011C000F041002360474FF0FF30EDE7754600F037
:1011D000EBF8AE4605006946534620F00700854609
:1011E00018B020B5FFF74AF8BDE820404FF00006E0
:1011F0004FF000074FF000084FF0000BAC46ACE892
:10120000C009ACE8C009ACE8C009ACE8C00921F0ED
:1012100007018D467047000010B500F005F8001D6D
:1012200010BD00BF9D250000004870473000002021
:101230002DE9F0411F46044603260168072A01F400
:10124000006004DB08B116A505E016A503E008B1AF
:1012500015A500E015A521F010002060A069C01EB2
:10126000A0610FB1401EA0612046FFF780F84FB18A
:10127000D4E9012138469047206A401C2062C01CF6
:10128000206206E0206AFAE7D4E9012115F8010B93
:101290009047761EF8D22046FFF77FF8BDE8F08130
:1012A0004E414E006E616E00494E4600696E66000A
:1012B0002DE9F047814616468AB0354878440DC876
:1012C0008DE80D0032487844801C03AC0DC884E8DA
:1012D0000D0041F69B300844372190FBF1F290FB62
:1012E000F1F5A5F1800501FB12041B3C02D5644217
:1012F000012000E00020DFF898A080460027FA4493
:10130000AAF1BE0A0EE0E0070AD03246684607EBB3
:10131000470101230AEB810102F0E9F88DE807009B
:1013200064107F1C002CEED1194F7F44AE3F19E0B2
:10133000E80715D007EB04100DF1180A90E80E002D
:101340008AE80E00C068F04201D198190890324630
:10135000012306A903A802F0CAF803AB83E807003B
:101360006D10641C002DE3D14FF001033246694635
:10137000B8F1000F03A802D002F0A4F801E002F0D7
:10138000B6F8C9E90001C9F808200AB0BDE8F0873D
:101390001826000010B50446AFF300802046BDE8D3
:1013A0001040FEF756BF00000048704710000020B4
:1013B0004FF0013C50F8042B51F8043B9A4221D1E4
:1013C000A2EB0C03934313EACC1317D150F8042B70
:1013D00051F8043B9A4215D1A2EB0C03934313EA54
:1013E000CC130BD150F8042B51F8043B9A4209D18D
:1013F000A2EB0C03934313EACC13DBD04FF00000B5
:10140000704700BFD01A01BAB1FA81F101F018019A
:1014100022FA01F0CB40DBB2C0B2C01AC1F1200108
:101420002CFA01F3D11A914311EAC311E6D17047A6
:1014300001491820ABBEFEE72600020070470000FD
:10144000FEE7000070470000012000F069BB0000CB
:1014500070B581B00022009290F82420012A03D1B7
:101460000221084601B070BD4A680123062A02EB3A
:10147000820E80F8243007D8D0F800C06FF0040343
:101480000CF134060CE000BFD0F800C00C2A87BF76
:101490000CF12C066FF040030CF130066FF02203C4
:1014A0000EEB03021F23346803FA02F50B6824EAEB
:1014B000050503FA02F22A433260092B03EB4302CB
:1014C0001AD9DCF80C601E3A072589689540AE43AE
:1014D000914023F001023143102ACCF80C1015D1B1
:1014E00042F20041C4F201018C4517D0816A41F0FB
:1014F0002001816201210AE0DCF8103007268968AA
:101500009640B34391401943CCF8101000210022BB
:1015100080F82420084601B070BD00BF8968090228
:10152000F4D4DCF80810102B41F40001CCF80810BA
:10153000ECD140F20C01C2F2000109684DF6836261
:10154000C4F21B32A1FB0212910C01EB8101490094
:10155000009100990029D9D0009901390091009992
:101560000029D3D000990139009100990029CDD0EC
:1015700000990139009100990029C7D000990139DB
:101580000091009900294FF00001E5D1BFE700006C
:101590000068C06C70470000002804BF012070473D
:1015A000B0B50446806A28B120688168C9070CD0AC
:1015B00032E000BF0020E06284F82400204600F002
:1015C0008FF820688168C90726D1A16AC9063DD471
:1015D000A16A41F2021291430231A162E169D4E9A8
:1015E000013241EA030C531EB3FA83F35D0913463B
:1015F000B2F5807F18BF2B02217D257B01294CEAA3
:1016000045012ED145B3A56A45F02005A562E56ADE
:1016100045F00105E56224E0816821F00101816067
:1016200000F0A0FB054600BF20688168C907CCD048
:1016300000F098FB401B0328F6D3A06A40F010008E
:10164000A062E06A40F00100E062A06AA06A40F097
:101650001000A0620120B0BDA56903EB4533A3F5DE
:10166000C0534568B2F5807F25F4694543EA050318
:10167000436083684FF2FD75CFF6E17503EA050319
:1016800043EA0103836001D0012A07D122690023C4
:10169000CFF6F07303EB025201E000BF0022C36AF1
:1016A00023F470031A43C262806840F6FE62CFF6EC
:1016B0001F721040884207D10020E062A16A012217
:1016C00062F30101A162B0BDA06A40F0100020F0F9
:1016D0000200A062E06A40F00100E0620120B0BDBB
:1016E00080B586B0014640F60000C4F201000968EA
:1016F00000F5E05291424FF00001CDE90411CDE92F
:10170000021101D006B080BD41F21801C4F20201FD
:101710000A6842F400720A600A6802F400720192D8
:10172000019A0A6842F004020A60096801F00401A3
:1017300001910199012102910321039102A900F075
:10174000FBF906B080BD00002DE9F04182B0002712
:101750000D460446019700F005FB21688A68D20512
:1017600044D406464868C00503D4C86A10F4700F14
:1017700046D040F20C00C2F20000076842F29248E4
:101780000220C1F2492800F0A9FB216844F6241385
:101790000A69B7FBF0F0C2F292431A4206D1CA6856
:1017A00044F62413C0F292031A4249D00A6912EA9D
:1017B000080F07D1CA6842F29243C0F249031A42A5
:1017C00000F084800A6949F24923C0F224031A42D6
:1017D0004FF0FC0242D1CF681F4208BF5422019B48
:1017E00002FB00F7BB423ED379E000BFA06A40F0A5
:1017F0002000A06284F82470012002B0BDE8F081CE
:10180000086880076BD4002D55D0681C12D1086879
:10181000800764D4086880075CBF08685FEA80704E
:101820005DD408688007F2D559E000BF21680868D8
:10183000800754D400F096FA801BA842F6D93AE00B
:101840000A6912EA080F4FF0290207D1CB6842F269
:101850009247C0F249073B4208BF1422019B02FB9A
:1018600000F7BB423BD235B3681C1FD10198013051
:1018700001900198B84232D201980130019001984C
:10188000B8422CD20198013001900198B84226D27A
:101890000198013001900198B842E7D31FE000BFE2
:1018A0000198013001900198B84217D200F05AFA1D
:1018B000801BA842F4D9A06A40F00400A062002076
:1018C00084F82400032002B0BDE8F0815422019B7B
:1018D00002FB00F7BB42C6D301E000BF21686FF0F6
:1018E00012000860A06A40F40070A062886800F4EA
:1018F0006020B0F5602F01D1207B18B1002002B02C
:10190000BDE8F081A06A20F48070A062A06AC004E3
:10191000F4D4A06A40F00100A062002002B0BDE84B
:10192000F0810000B0B582B0044690F82400012890
:1019300002D1022002B0B0BD012084F824000020B2
:10194000019020688168C90742D1816841F0010196
:10195000816040F20C00C2F2000000684DF6836125
:10196000C4F21B31A0FB0101880C01900198A0B1C9
:10197000019801380190019878B1019801380190DF
:10198000019850B1019801380190019828B101984F
:101990000138019001980028EAD100F0E3F90546EA
:1019A00020688168C90713D100F0DCF9401B0228C8
:1019B000F6D9A06A40F01000A062E06A40F0010091
:1019C000E062002084F82400012002B0B0BD00BF16
:1019D000A26A42F2044140F20133C4F201019A4387
:1019E00002F5807301F57F729042A3622AD0A36A48
:1019F00023F48013A36243685B0504D5A36A012521
:101A000065F30D33A362A56A0023ED044FF00005D2
:101A100044BFE56A25F00605E56284F824306FF0DE
:101A200002030360836803F46023B3F5602F19D1C8
:101A3000904213D0816841F4A0018160002002B07F
:101A4000B0BD00BF0B6813F4702FD0D0A36A43F46D
:101A50008013A3620B685B05D0D4D4E7096811F446
:101A6000702FE7D0816841F480118160002002B0BE
:101A7000B0BD0000B0B5044690F82400012804BFB2
:101A80000220B0BD0121206884F824108168C907B4
:101A900008D1214651F8280F41F2011220EA020232
:101AA000002018E0816821F00101816000F05AF9FE
:101AB000054600BF20688068C007EAD000F052F9F0
:101AC000401B0328F6D3A06A214640F01000A06214
:101AD00051F82C2F012042F001020A60002184F805
:101AE0002410B0BDB0B5044600F03CF9054640F204
:101AF0000400C2F200000078611C18BF044400BF5B
:101B000000F030F9401BA042FAD3B0BD012818BF45
:101B1000704740F27000C2F200000121017070476E
:101B200040F21441C4F201010A68024214BF086085
:101B30007047FFF7EBBF00002DE9F04F82B00E6851
:101B4000002E00F0FF8040F20C4C40F2004E41F2BB
:101B50000042C4F2010CC4F2010EC4F201020427D7
:101B6000002401234FF0000A4FF00009904208BF03
:101B70000327009749E000BF41F20002C4F20102CE
:101B8000009F904208BF022704F00C030F229A40E6
:101B90002BEA020207FA03F34FEA9A051A4346F8C2
:101BA00025204E68F203DEF8002054BF22EA080226
:101BB00042EA0802CEF80020DEF80420B30354BF46
:101BC00022EA080242EA0802CEF80420F302DEF814
:101BD000082054BF22EA080242EA0802B302CEF803
:101BE0000820DCF800204FF0010354BF22EA08026D
:101BF00042EA0802CCF800200E680AF1010A36FA1F
:101C00000AF204F1040400F09D8003FA0AFB16EACC
:101C10000B08F1D04E684FF6FF72C1F210029642E7
:101C200012DC122E56D8DFE806F0350B4D4955551B
:101C3000555555555555555555555545510000BFA8
:101C4000D1F80C9046E000BF4FF6FF72C1F22102BE
:101C500096420FDC0022C1F2110296421AD00022F5
:101C6000C1F21202964215D00022C1F22102964220
:101C700010D02FE00022C1F2220296420AD00022A8
:101C8000C1F23102964205D00022C1F232029642E0
:101C900020D100BF8A684AB1012A14BFC0F814B02D
:101CA000C0F810B04FF0080914E000BF4FF004096D
:101CB00010E000BFCA6802F104090BE04FF0000910
:101CC00008E000BFCA6802F1080903E0CA6802F12F
:101CD0000C0900BF02462646B8F5807F24BF0432B7
:101CE000203E17680F25B54027EA050509FA06F6D4
:101CF00035431560CA79D2067FF57EAF41F21803ED
:101D0000C4F202031A68AEF57E7642F001021A6050
:101D10001A6802F001020192019A2AF0030256F8B1
:101D200002B040F60002C4F20102904208D040F630
:101D30000042C4F2010290427FF41EAF012723E764
:101D4000002721E702B0BDE8F08F0000806808405E
:101D500018BF012070470000002A08BF0904016174
:101D60007047000040F27410C2F200000068704733
:101D700040F2040040F27411C2F20000C2F200010D
:101D800000780A68104408607047000080B542F28D
:101D90000000C4F20200016841F01001016003205C
:101DA00000F08CF80F2000F005F800F027F8002074
:101DB00080BD000070B540F20406C2F2000640F299
:101DC0000C013278C2F200014FF47A730968B3FB58
:101DD000F2F20446B1FBF2F1084600F083FC0F2C4E
:101DE0004FF0010508D838B94FF0FF3021460022E6
:101DF000002500F037F87460284670BD82B041F2CB
:101E00001800C4F202000168042241F001010160DF
:101E1000016801F0010101910199416841F080518F
:101E20004160406800F08050009000980420C4F2A7
:101E30000100016862F31A61016002B0704700009E
:101E4000002848BF704700F01F01012202FA01F18B
:101E50001C2202EAD0004EF20012CEF200028150A3
:101E60007047000010B54EF60C5CCEF2000CDCF8AA
:101E70000030C3F3022E8EF00704042C28BF042484
:101E8000BEF103034FF0FF3E0EFA04F438BF002307
:101E9000A14399400EFA03F39A43114300F00F0255
:101EA00000F160430901043A03F5644362440028E9
:101EB00048BF02F10C03197010BD00004EF60C5122
:101EC000CEF200010A684FF6FF031A4060F30A22BF
:101ED00042F0806040F0FD7008607047012821D01A
:101EE00002280DD0102808D141F20401C4F20201E9
:101EF0000A6851F8040CC00134D40020704700BFB8
:101F000080B500F0DBF941F20401C4F20201096876
:101F10000222C1F3813102EB4101B0FBF1F0BDE8D7
:101F20008040704741F20400C4F20200C16940F2EF
:101F300002320A40B2F5817F04BF4FF4004070477F
:101F400001F44071B1F5407F18D0B1F5007F1CBF9E
:101F500000207047006A49F64041800701EAE070BE
:101F6000704700BFC2F3834015A3185CD2030DD4A1
:101F700040F60012C0F23D02504313E050F8040C4A
:101F80004FF22441800301EAE07070470A6810A311
:101F9000C2F340429A5C41F20023C0F27A03B3FBE1
:101FA000F2F250430968490248BF70474AF6AB2134
:101FB0004000CAF6AA21A0FB01014808704700BFF3
:101FC00002030405060708090A0B0C0D0E0F10107A
:101FD000010200002DE9F04182B00446007841F290
:101FE0001C06C007C4F202064AD030685FEAC00887
:101FF00008D4306840F080503060306800F0805085
:102000000190019847F20007C4F200073868C00544
:1020100012D4386840F480703860FFF7A3FE05469C
:102020003868C00508D4FFF79DFE401B6428F7D927
:10203000032002B0BDE8F081706810F4407012D047
:10204000616801F4407188420DD0706840F24042EE
:10205000C4F24222012320F4407113600023C00720
:102060001360716026D17068616820F44070084385
:10207000B8F1000F706003D4306820F080503060F9
:102080002068810707D556F8181CA26821F4404142
:10209000114346F8181CC00607D556F8180CE1681D
:1020A00020F48000084346F8180C002002B0BDE878
:1020B000F08100BFFFF756FE054641F2883700BFAA
:1020C00070688007CFD4FFF74DFE401BB8424FF039
:1020D0000300F5D9EAE70000002804BF012070479B
:1020E0002DE9F04381B042F20008C4F20208044630
:1020F000D8F800000D4600F0070081420CD9D8F84E
:10210000000020F007002843C8F80000D8F80000BD
:1021100000F00700A8426CD1206841F20409810751
:10212000C4F2020917D5410705D5D9F8001041F4CA
:10213000E061C9F80010010705D5D9F8001041F495
:102140006051C9F80010D9F80010A26821F0F00120
:102150001143C9F80010C00742D1D8F8000000F0C0
:10216000070085420CD2D8F8000020F00700284371
:10217000C8F80000D8F8000000F00700A84238D1E5
:102180002068410707D5D9F80010E26821F4E06122
:102190001143C9F80010000708D5D9F800002169DB
:1021A00020F4605040EAC100C9F80000D9F80020CE
:1021B00002F00C00082841F20020C0F27A004DD154
:1021C00043F60A13C2F38341C0F60003595CD203FD
:1021D00038D440F60010C0F23D0048433EE000BF56
:1021E000606859F8041C022808D0012826D1890308
:1021F00006D4012001B0BDE8F08300BF8901F8D505
:10220000D9F8001021F003010843C9F80000FFF7D6
:10221000A9FD064641F28837D9F80000616800F050
:102220000C00B0EB810F98D0FFF79CFD801BB842EB
:10223000F2D9032001B0BDE8F08300BF8907D8D5EB
:10224000DEE700BFD9F8002043F6F003C2F34042B6
:10225000C0F600039A5C4843B0FBF2F0D9F80010D6
:1022600043F6F202C1F30311C0F60002515C40F2E2
:102270000C0220FA01F140F20800C2F200000068EE
:10228000C2F200021160FFF795FD002001B0BDE829
:10229000F083000040F20C0041F20401C2F20000A1
:1022A000C4F202010068096843F60212C1F3022178
:1022B000C0F60002515CC8407047000040F20C00BC
:1022C00041F20401C2F20000C4F202010068096890
:1022D00043F60212C1F3C221C0F60002515CC840AD
:1022E00070470000002804BF012070472DE9F0412D
:1022F00082B00446007841F20006C007C4F202062C
:102300000CD0706800F00C00042840F08180306828
:10231000800303D56068002800F04681207880079C
:102320001BD5706810F00C0F09D0706800F00C001D
:10233000082840F087807068C00300F1838030680F
:10234000800703D52069012840F02E81306861693B
:1023500020F0F80040EAC10030602078000713D474
:10236000207840072CD4E569002D00F018817068B2
:1023700000F00C00082840F0A780012D40F00481F7
:10238000012002B0BDE8F081A069002800F084803F
:102390000020C4F242200121C0F88014FFF7E2FCC3
:1023A000054600BF706A800700F1B280FFF7DAFCD3
:1023B000401B0228F6D9032002B0BDE8F08100BF1F
:1023C000F0695FEAC00808D4F06940F08050F0611D
:1023D000F06900F080500090009847F20007C4F2C6
:1023E00000073868C00549D4386840F48070386008
:1023F000FFF7B8FC054600BF3868C0053ED4FFF7BC
:10240000B1FC401B6428F7D9032002B0BDE8F0817D
:10241000706800F00C00082803D17068C0033FF515
:1024200076AF61683068002900F00C81B1F5A02F0B
:1024300000F00081B1F5803F40F01A8140F4803017
:102440001CE100BF2069002840F20000C4F24220D5
:1024500000F0888001210160FFF784FC054600BF81
:10246000306880073FF572AFFFF77CFC401B022805
:10247000F6D9032002B0BDE8F08100BFE168306A00
:10248000002900F09D80052900F09280012940F08C
:10249000AF8040F00100B1E00020C4F242200021F2
:1024A000C0F88014FFF75EFC054600BF706A800725
:1024B0007FF556AFFFF756FC401B0228F6D90320E4
:1024C00002B0BDE8F08100BF0027C4F2422700201F
:1024D0003866FFF747FC022D05460DD130688001B4
:1024E00040F1DE80FFF73EFC401B02284FF0030066
:1024F000F4D902B0BDE8F081306880014FD5FFF714
:1025000031FC401B02284FF00300F5D9F1E700BF72
:1025100040F20C00C2F20000006844F6D351C1F250
:102520006201A0FB0101480A019000BF00BF0198B1
:10253000411E002801913FF413AF00BF0198411ED6
:10254000002801913FF40CAF00BF0198411E002804
:1025500001913FF405AF00BF0198411E0028019191
:10256000E4D1FDE600210160FFF7FCFB054600BF5A
:10257000306880077FF5F1AEFFF7F4FB401B0228BF
:102580004FF00300F4D9B4E77068216A00F4803298
:102590008A4209D1616A00F47010884204D1002097
:1025A00002B0BDE8F08100BF012002B0BDE8F081BB
:1025B00040F004003062306A40F001001EE000BFCD
:1025C00020F001003062306A20F004003062FFF732
:1025D000C9FB054641F28837306A800720D5FFF7EE
:1025E000C1FB401BB8424FF00300F5D981E700BFA3
:1025F00020F001003062306A20F004003062FFF702
:10260000B1FB054641F28837306A800708D4FFF7EE
:10261000A9FB401BB842F7D9032002B0BDE8F08106
:10262000B8F1000F3FF59FAEF06920F08050F061E7
:1026300099E600BF40F480203060306840F480307C
:102640001CE000BF20F480303060306820F480202F
:102650003060FFF787FB0546306880037FF55EAE8C
:10266000FFF780FB401B64284FF00300F4D940E7DC
:1026700020F480303060306820F480203060FFF734
:1026800071FB0546306880033FF548AEFFF76AFBF3
:10269000401B6428F6D9032002B0BDE8F08100BFDA
:1026A000206AB0F5803F05D17168A26821F400313D
:1026B000114371607168626A21F474111143084317
:1026C000706001203866FFF74DFB044630688001DA
:1026D0003FF565AFFFF746FB001B02284FF00300F4
:1026E000F4D906E7411E0020B0EB116F1CBF01209A
:1026F00070474EF21002CEF2000251604EF62351A6
:10270000CEF20001F0230B7007219060116070473A
:10271000002804BF0120704710B5044690F8390026
:1027200028B9002084F83800204600F061F8242001
:1027300084F839002068D4E90212C36823F40053F6
:10274000C360036923F440531A430261D4E90423AC
:102750001143C268194341F20C639A431143C160AB
:102760004169A26921F44071114343F60002C4F2A9
:1027700001029042416103D0FFF78CFD02E000BFEF
:10278000FFF79CFDD4E90023192148439900B0FBD1
:10279000F1F048F21F5CC5F2EB1CA0FB0C314FF6C8
:1027A0009C734909C0F6FF7301FB0300322303EB5E
:1027B0000010A0FB0C03F02000EA531000EB011006
:1027C000C3F34311084490601069202120F4904025
:1027D0001061506920F02A005061D06840F4005028
:1027E000D0600020E06384F8391084F83A1010BDFE
:1027F00070B586B040F60004C4F20104006804F528
:102800004051002688420596CDE90366029601D024
:1028100006B070BD41F21800C4F20200016802ADBA
:1028200041F480410160016801F480410191019906
:10283000016841F0040101600068294600F00400CD
:10284000019001984FF40070029002200390032041
:1028500005902046FFF770F94FF48060CDE902063D
:10286000204629460496FFF767F906B070BD0000C0
:102870002DE9F041044690F8390020280CD10E468D
:1028800000294FF0010018BF002A01D1BDE8F081F6
:1028900094F83800012803D10220BDE8F08100BF80
:1028A000012084F838000020E06321201D4684F8D0
:1028B00039001746FFF756FAA784E784E18C0746EC
:1028C00000295FD005F1010806E000BF16F8011BE2
:1028D0004160E18C002956D0E08C0138E08420680A
:1028E000A1680268B1F5805F4FEA02611CD100293E
:1028F0000DD4B8F1000F29D0002D6AD0FFF732FABD
:10290000C11B2068A94264D801680906F6D5318840
:102910006FF35F2141602169002914BF013602363F
:10292000E18C0029D8D12EE00029CFD4B8F1000FD6
:102930001AD0002D4DD000BFFFF714FAC11B20683C
:10294000A94246D801680906F6D5BFE7016809061D
:10295000DDD4016809065CBF01685FEA0161D6D475
:1029600001680906F2D5D2E701680906AED401680C
:1029700009065CBF01685FEA0161A7D40168090626
:10298000F2D5A3E72068016849060FD40DB3691C8E
:1029900019D10168490609D4016849065CBF01687C
:1029A0005FEA416102D401684906F2D5202084F82B
:1029B00039000020002184F83810BDE8F08100BF04
:1029C00000684006F2D4FFF7CDF9C11B2068A94288
:1029D000F6D9C16821F4D071C160416921F00101CB
:1029E0004161202084F8390084F83A000320002156
:1029F00084F83810BDE8F081FEE70000FEE7000033
:102A0000FEE700007047000070470000FFF7B0B914
:102A100041F20000C4F202000168002241F001010D
:102A200001604168CFF6FF021140416001684FF636
:102A3000FF72CFF6F66211400160016821F4802137
:102A40000160416821F4FE0141604FF41F01816083
:102A50004EF60850CEF200004FF000610160704762
:102A6000FEE7000094B0FFF791F90AAC201D242185
:102A7000FDF753FC02200A9001200E901020002543
:102A80000F9020460495CDE902551195FFF72AFCD9
:102A900020B1EFF3108072B6FEE700BF0F20CDE942
:102AA000050505A80021CDE907550995FFF714FB99
:102AB00020B1EFF3108072B6FEE700BF4FF00208BE
:102AC000002701A8CDF804800397FFF783FA28B107
:102AD000EFF3108072B600BFFEE700BF41F21800AE
:102AE000CDE90C77CDE90A77C4F20200016840F61F
:102AF000004B41F0040101600168C4F2010B01F0D8
:102B00000401059105990168ABF5806541F0080164
:102B100001600068022100F0080005900598284631
:102B20000022FFF719F95846F82100224FF0F80962
:102B3000FFF712F90AAE4FF0010A28463146CDF8E8
:102B40002880CDE90BA7CDF83480FEF7F5FF0420EF
:102B5000CDE90A07284631460C97FEF7EDFF002025
:102B6000C1F21100CDE90B0758463146CDF828A037
:102B7000FEF7E2FF58463146CDE90A870C97FEF78B
:102B8000DBFF58463146CDE90A9ACDE90C78FEF7CD
:102B9000D3FF062000210022FFF764F90620FFF78B
:102BA0004FF940F27009C2F200090BF5C0514846D6
:102BB00040F8141F4FF4602107730775C161C0E925
:102BC0000177C0F810A0FEF7E7FC28B1EFF3108002
:102BD00072B600BFFEE700BF052009F11408002708
:102BE0000C900AA94046CDE90A7AFEF731FC28B1DB
:102BF000EFF3108072B600BFFEE700BF40F2B400F2
:102C00000BF53051C2F200000C234FF4165280E84D
:102C10008600C0E90377C0E90537C761FFF778FD93
:102C200020B1EFF3108072B6FEE700BF58460821CE
:102C300000220027FFF790F8584610210022FFF7E6
:102C40008BF8584620210022FFF786F8584640218D
:102C50000022FFF781F8584680210022FFF77CF818
:102C6000A2A000F087F9A8A000F084F9ACA000F0C1
:102C700081F94BF2E21640F20004CFF6FF76C2F281
:102C8000000402E06420FEF72DFF99F800000128FF
:102C900040F0DC804046FEF745FE40466421FEF7EA
:102CA00053FD08B1002703E04046FEF771FC0746DC
:102CB0004046FEF7DFFE284602210122A9F80270F5
:102CC000FFF74AF80120FEF70DFF284602210022F7
:102CD000FFF742F84DF6F007CFF6FF7728460421BC
:102CE000FFF734F818B9002F07F10107F6D128468D
:102CF0000421FFF72BF8012810D100270120FEF74F
:102D0000F1FE28460421FFF721F80128A7F102006F
:102D100002D1B7420746F1D1404200E00020C9F895
:102D20000C00584602214446FFF710F8B9F802108B
:102D3000A1F2DC51B1F5FA6FA0F10101B1FA81F114
:102D40004FEA511189F8011024D8D9F80C1018292C
:102D500020D801281ED1D9F8040008210130C9F873
:102D60000400584601224FF0010AFEF7F5FF5846CD
:102D7000102100224FF00008FEF7EEFFB9F8021014
:102D8000D9F80430D9F80C2043F69210C0F60000B0
:102D900023E000BFD9F8080008210130C9F8080075
:102DA000584600224FF0000AFEF7D6FF5846102181
:102DB00001224FF00108FEF7CFFF99F8010062A34E
:102DC000012860A0B9F80210D9E9027208BF0346D1
:102DD00043F6DA10C0F60000009700F0CBF8584632
:102DE000202152460027FEF7B7FF584640214246B1
:102DF000FEF7B2FF584680210122FEF7ADFF6420A6
:102E0000FEF770FE4FF4FA60FEF76CFE584608219C
:102E10000022FEF7A1FF584610210022FEF79CFF7A
:102E2000584620210022FEF797FF584640210022F5
:102E3000FEF792FF584680210022FEF78DFFA04644
:102E400040F20004C2F2000489F80070D9F81000C2
:102E500001300928C9F8100012D9607821780130B2
:102E6000C2B23C2AC9F8107060700BD30131002047
:102E7000CAB26070172A88BF0021217002E000BF2B
:102E800021786078C9B2072908BF5FEA00607FF443
:102E9000F9AE374643F63C16C0F60006304600F061
:102EA00069F843F61A10C0F6000000F063F83046E7
:102EB0003E46002700F05EF8D9F8041043F65E1095
:102EC000C0F6000000F056F8D9F8081043F6781064
:102ED000C0F6000000F04EF81DA000F04BF84FF4D3
:102EE0009660C9E90177FEF7FDFDCBE63D3D3D204B
:102EF00051432053797374656D2053746172746506
:102F000064203D3D3D00000057616974696E672093
:102F1000666F72206974656D732E2E2E000000009E
:102F20002D2D2D2D2D2D2D2D2D2D2D2D2D2D2D2DD1
:102F30002D2D2D2D2D2D2D2D2D2D2D2D2D2D2D2DC1
:102F40002D0000004F4B000057524F4E470000002D
:102F50002D2D2D2D2D2D2D2D2D2D2D2D2D2D2D2DA1
:102F60002D2D2D2D2D2D2D2D2D2D2D2D2D2D2D2D91
:102F70002D0D0A0083B0B0B581B040F2F404844650
:102F800005A8C2F200040EC005AB204680216246AF
:102F90000093FDF785F92046FDF7A0F940F2B4054E
:102FA000C2F2000582B2284621466423FFF760FC86
:102FB00005A1284602226423FFF75AFC01B0BDE8B0
:102FC000B04003B0704700BF0D0A00005FEA400C3C
:102FD00008BF91F0000F4FEA8C234FEAC12243EA69
:102FE00051514FEA1C5018BF00F5F0404FEA300035
:102FF00018BF41F000415FEA6C5C00F02980BCF131
:10300000FF3F08BF40F080407047130C06BF12041A
:103010004FF0100C4FF0000C130E04BF12020CF115
:10302000080C130F04BF12010CF1040C930F04BF22
:1030300092000CF1020CD30F04BF52000CF1010CF2
:1030400011464FF00002A0F11F00A0EB0C007047EA
:1030500011F0004F08BF704731F000413FF4D5AF89
:103060000B0C06BF09044FF0100C4FF0000C0B0EB8
:1030700004BF09020CF1080C0B0F04BF09010CF18D
:10308000040C8B0F04BF89000CF1020CCB0F04BFA2
:1030900049000CF1010CCCF1200322FA03F341EAC0
:1030A000030102FA0CF2A0EB0C0000F101007047E2
:1030B00023F07F4720F07F4C80EA030000F00040BF
:1030C000ACEB070303F57C5303F1FF032DE98049C3
:1030D00009B44FEA144324EA03484FEA154B25EAA2
:1030E0000B4E0FF2042606EB13273E7803FB066710
:1030F000C7F5000707FB06F64FEAD64606F10206BB
:103100004FEA543707FB066CCCF1005C4FEA1C47D2
:103110002CEA074C0CFB06F507FB06F404EB1546FE
:103120004FEA961649085FEA320234BF00204FF09A
:1031300000404FEAD13706FB07FC4FEA1C4C0CFB62
:103140000BF7D21B03FB0CF761EB07010CFB0EF72F
:10315000B0EB074072EB17420CFB08F734BFA2EB51
:103160000742B2EB074261EB17414FEA0C444FEACA
:10317000910706FB07FC4FEA1C4C0CFB0BF7B0EB6E
:10318000C74072EB573203FB0CF734BFA2EBC742C8
:10319000B2EBC74261EB57310CFB0EF7B0EBC70047
:1031A00072EB57720CFB08F734BFA2EBC702B2EB0D
:1031B000C70261EB57714FEA816141EA92114FEA10
:1031C000826242EA90124FEA806004EBCC04039FD3
:1031D0004FEAD13706FB07FC4FEA1C4C0CFB0BF700
:1031E000D21B03FB0CF761EB07010CFB0EF7B0EBF6
:1031F000074072EB17420CFB08F734BFA2EB074203
:10320000B2EB074261EB17414FEA8C5504EB9C246B
:103210004FEA910706FB07FC4FEA1C4C0CFB0BF72F
:10322000B0EBC74072EB573203FB0CF734BFA2EB95
:10323000C742B2EBC74261EB57310CFB0EF7B0EB64
:10324000C70072EB57720CFB08F734BFA2EBC70242
:10325000B2EBC70261EB57714FEA816141EA92110B
:103260004FEA826242EA90124FEA806015EB4C25E9
:1032700044F100044FEAD13706FB07FC4FEA1C4C2F
:103280000CFB0BF7D21B03FB0CF761EB07010CFBEC
:103290000EF7B0EB074072EB17420CFB08F734BF98
:1032A000A2EB0742B2EB074261EB17414FEA8131D3
:1032B00041EA92414FEA823242EA90424FEA80303C
:1032C0004FEA0C7615EB1C1544F1000448EA034361
:1032D0004EEA0B484FF0000EB2EB080C71EB0307FF
:1032E00024BF624639464EEB0E0E4FF0000B00181D
:1032F000524149414BEB0B0BB2EB080C71EB03074E
:103300007BF1000B24BF624639464EEB0E0E4FF0A8
:10331000000B0018524149414BEB0B0BB2EB080C70
:1033200071EB03077BF1000B24BF624639464EEB7D
:103330000E0E51EA020718BF46F0010616EB0E7694
:1033400055F1000254F1000103D5BDE88901BDE843
:103350000088BDE88901BDE80048B619524141EB3B
:103360000101A3F10103704780807F7E7D7C7B7A21
:103370007978777676757473727171706F6E6E6D21
:103380006C6C6B6A6A6968686766666564646363C7
:1033900062616160605F5F5E5E5D5D5C5C5B5B5A4D
:1033A0005A595958585757565655555554545353BA
:1033B00052525251515050504F4F4F4E4E4D4D4D15
:1033C0004C4C4C4B4B4B4A4A4A4949494848484760
:1033D000474747464646454545444444444343439E
:1033E00043424242424141419C46002B30D4770047
:1033F0002BD04FEA37071CB503B44FF010004FF045
:103400001001BAF1000F06D0BCF1000FDCBF40F094
:10341000080040F008014FF000000FBCBDE810406C
:103420000BF1010BBBF1010F08BF5FEA170722BFC9
:1034300012F1010211F101014FF0004143F10003CB
:1034400000F0004043EA00007047F9D35708D0E786
:1034500046EA06464FEA164613F1400F1FDD13F108
:10346000200FDFBF16430A46002120335B42BED047
:10347000C3F1200746EA06464FEA164602FA07F766
:1034800046EA070622FA03F2C3F1200701FA07F71A
:1034900042EA070221FA03F14FF00003A7E746EAE8
:1034A000020646EA06464FEA164646EA0106BCBF51
:1034B00046EA0646360C4FF000034FF000024FF08C
:1034C000000194E72DE9804C70B49A46934691E848
:1034D000380007C831EA400C48BF34EA430C03D532
:1034E000FFF7E6FDFFF780FFF0BCBDE8008C2DE99B
:1034F000804C70B49A46934691E8380007C810F0A3
:10350000804F08BF13F0804F03D100F005F8FFF79C
:103510006BFFF0BCBDE8008C20F07F4723F07F4CB0
:1035200080EA030000F0004007EB0C03A3F57C5396
:10353000A3F1FE0392F0000F00F0B38095F0000FAE
:1035400000F077802DE901494FEA114021EA004857
:103550004FEA144624EA064700FB06FC08FB06F681
:1035600007FB08F818EB06484CEB164C00FB07F776
:1035700018EB07484CEB17404FEA124B22EA0B4E70
:103580004FEA154625EA06470BFB06FC0EFB06F63E
:1035900007FB0EFE1EEB064E4CEB164C0BFB07F723
:1035A0001EEB074E4CEB174B18EB0B0840F10000DD
:1035B00018EB0E0B58EB000840F100008F1A4FF08B
:1035C00000014FF000063CBFC943661B14BFB5EBBA
:1035D000040C00213CBFC943F61B4FEA174427EAFD
:1035E00004454FEA1C472CEA074C04FB076205FB25
:1035F00007F70CFB05F616EB074642EB174204FBF8
:103600000CFC16EB0C4642EB1C421BEB060658EB7F
:10361000020241414EEA8E0E46EA9E0601D5BDE801
:103620000189B619524141EB0101A3F10103BDE843
:1036300001894FEA144524EA05464FEA114721EA79
:10364000074C05FB07F406FB07F70CFB06F111EB33
:10365000074144EB174405FB0CFC11EB0C4144EB18
:103660001C444FEA124722EA074C05FB07F206FB0F
:1036700007F70CFB06F616EB074642EB174205FB75
:103680000CFC16EB0C4642EB1C456A1854F1000189
:1036900048BF7047B619524141EB0101A3F1010344
:1036A000704795F0000F37D04FEA114221EA0246E9
:1036B0004FEA144724EA074C02FB07F106FB07F721
:1036C0000CFB06F414EB074441EB174102FB0CFC26
:1036D00014EB0C4441EB1C414FEA154725EA074C1B
:1036E00002FB07F506FB07F70CFB06F616EB074691
:1036F00045EB174502FB0CFC16EB0C4645EB1C4258
:10370000121951F1000148BF7047B619524141EBFF
:103710000101A3F1010370474FEA144524EA05466D
:103720004FEA114721EA074C05FB07F106FB07F7B3
:103730000CFB06F212EB074241EB174105FB0CFCB8
:1037400012EB0C4251EB1C414FF0000648BF704792
:10375000921841EB0101A3F101037047490050EABF
:10376000C12018BF04204A0D18BF40F0010040F2EC
:10377000FF72B2EB515F08BF40F00200012808BFA2
:103780000520704730380A2801D2012070470020F8
:103790007047000010B500290AD00878002807D02B
:1037A00005487844FDF704FE002801D0002010BD34
:1037B0000248784410BD0000A20200009A020000F6
:1037C00010B500290AD00878002807D005487844A9
:1037D000FDF7EEFD002801D0002010BD024878441E
:1037E00010BD0000920200008A020000FDF7EAB955
:1037F000FDF71EBB00000000000000003031323336
:103800003435363738394142434445464030580014
:103810003031323334353637383961626364656646
:1038200040307800040000080000000000000002A2
:103830000001000010303132333435363738396109
:103840006263646566787000303132333435363700
:103850003839414243444546585000000240000078
:10386000000000A00000000005400000000000C8AB
:10387000000000000C4000000000409C0000000020
:10388000194000000020BCBE0000000034400000D1
:10389000BFC91B8E00000004B5400000504BCFD0C4
:1038A0006607E2CF010000006C4100003E8251AA91
:1038B000DFEEA73401000000D9420000DCB5A0E231
:1038C0003A301F97FFFFFFFFB4450000FD25A0C859
:1038D000E9A3C14FFFFFFFFFFF3F00000000008092
:1038E00000000000FF3F000000000080000000001A
:1038F00001020000000000000000010203040607AE
:103900000809000000000102030402030405060781
:1039100008090A0B0C0D0E0F101020202020444126
:10392000494C59205143205245504F5254202D208C
:1039300030373A303020414D202020003D3D3D3D84
:103940003D3D3D3D3D3D3D3D3D3D3D3D3D3D3D3DA7
:103950003D3D3D3D3D3D3D3D3D3D3D3D3D00546F8B
:1039600074616C2050617373656420284F4B29206B
:103970002020203A20256400546F74616C20466139
:10398000696C656420284572726F7229203A20257F
:1039900064004974656D207374617475733A2050C6
:1039A000415353207C205765696768743A20256429
:1039B000207C2053697A653A20256420636D207C41
:1039C00020436F6C6F723A204F4B207C20546F74F1
:1039D000616C204F4B3A202564004974656D20735B
:1039E00074617475733A204641494C207C205765B8
:1039F000696768743A202564207C2053697A653AA7
:103A000020256420636D207C20436F6C6F723A2008
:103A10002573207C20546F74616C204641494C3AD8
:103A200020256400703B000800000020100000000A
:103A300050010008803B00081000002068070000CB
:103A4000700100081C00000043000000F8FFFFFFA9
:103A50000C0000000E0000000F0000002E0000000F
:103A60001001000043000000F8FFFFFF004040404D
:103A70004040404040404141414141404040404041
:103A800040404040404040404040404040050202ED
:103A900002020202020202020202020202202020AC
:103AA0002020202020202002020202020202909008
:103AB0009090909010101010101010101010101006
:103AC000101010101010101002020202020288885A
:103AD0008888888808080808080808080808080866
:103AE000080808080808080802020202400000004E
:103AF00000000000000000000000000000000000C6
:103B000000000000000000000000000000000000B5
:103B100000000000000000000000000000000000A5
:103B20000000000000000000000000000000000095
:103B30000000000000000000000000000000000085
:103B40000000000000000000000000000000000075
:103B50000000000000000000000000000000000065
:103B60000000000000000000000000000000000055
:103B7000063A000001000000100000000024F400DC
:04000005080000ED02
:00000001FF
