:020000040800F2
:1000000078080020C9010008F5220008851E0008B4
:10001000F1220008A5070008B5280008000000002C
:100020000000000000000000000000001D25000886
:10003000A907000800000000F92200085126000866
:10004000E3010008E3010008E3010008E301000800
:10005000E3010008E3010008E3010008E3010008F0
:10006000E3010008E3010008AD070008E301000810
:10007000E3010008E3010008E3010008E3010008D0
:10008000E3010008E3010008E3010008E3010008C0
:10009000E3010008E3010008E3010008B5070008D8
:1000A000E3010008E3010008E3010008E3010008A0
:1000B000E3010008E3010008E3010008E301000890
:1000C000E3010008E3010008E3010008E301000880
:1000D000E3010008E3010008E3010008E301000870
:1000E000E3010008E3010008E301000800F002F862
:1000F00000F05BF814A696E8000CB244B344DA456D
:1001000001D100F052F8BAE80F000FA696E83000CF
:10011000A5EB040504EB0607AAEB0704A7F101070A
:100120004FEA15154FEA3414A4F10104AC4201D38F
:1001300000F03BF813F0010F18BFFB1A43F0010366
:1001400000F001F8DBE71847382B0000582B0000BF
:10015000103A24BF78C878C1FAD8520724BF30C8F3
:1001600030C144BF04680C60704700007047000055
:100170000023002400250026103A28BF78C1FBD8B0
:10018000520728BF30C148BF0B607047642900F098
:10019000A180752900F09E80732900F06C820020F8
:1001A00070471FB51FBD10B510BD00F068FA1146AD
:1001B000FFF7F7FF02F080FB00F086FA03B4FFF7C9
:1001C000F2FF03BC00F08EFA094880470948004757
:1001D000FEE7FEE7FEE7FEE7FEE7FEE7FEE7FEE7F7
:1001E000FEE7FEE704480549054A064B7047000054
:1001F00055260008ED00000878020020780800204D
:1002000078040020780400200FB41CB5084B06AA1F
:100210007B4469460090059800F003FA04460020EC
:10022000694600F011FA20461CBC5DF814FB000082
:100230003504000070B5044685690068C10601D523
:10024000302600E02026C00707D070BDD4E9012188
:1002500030469047206A401C20626D1EF6D570BD66
:1002600070B5044685690078C00707D170BDD4E930
:10027000012120209047206A401C20626D1EF6D587
:1002800070BD70B50C460546012A05D02878800659
:1002900000D5EA69002302E0012305E05B1C9342DC
:1002A00002D2E05C0028F9D1A869E618C01AA8615A
:1002B000286A184428622846FFF7BCFF04E0D5E905
:1002C000012114F8010B9047B442F8D32846FFF7F8
:1002D000C7FF70BD2DE9F04106460024106875295E
:1002E000314616A510D0AFF30080002802DA404254
:1002F00013A507E031688A0701D512A502E0490776
:1003000004D511A5012401E0AFF3008000210A22E9
:1003100006F1240709E0B0FBF2FCB0FBF2F302FBAC
:100320001C00303078541846491C0028F3D123466D
:100330002A463046BDE8F04100F015B90000000043
:100340002D0000002B000000200000002DE9F05FD0
:10035000894604464FF0000ADFF874B1FB44C0F848
:1003600020A02046E1688847002874D0252806D0C0
:10037000D4E901219047206A401C2062F1E7002661
:100380005F462046E16888472028054607DB312D77
:1003900005D2781910F8200C08B10643F1E7B00730
:1003A00001D526F00406C4F81CA00027C4F818A044
:1003B0002A2D09D0284602F001FC38B304EB870847
:1003C000303DC8F8185019E059F8041B204604EBDA
:1003D00087029161E1688847012F054618D1E069DD
:1003E000002820DA26F020061DE0D8F8180000EBDF
:1003F000800005EB40003038C8F818002046E1685E
:100400008847054602F0DAFB0028EED1012F0AD01A
:100410002E2D08D12046E16888477F1C0546022F13
:1004200046F02006C4DBA069002803DA404246F00B
:100430000106A061F00701D026F010066C2D0BD04C
:10044000682D09D04C2D39D06A2D35D0742D35D07A
:100450007A2D33D016E038E0E1682F4620468847F1
:10046000B842054609D16C2F26D04FF48060E16870
:10047000064320468847054604E06C2F1AD04FF407
:10048000807006430DB3A5F14100192802D820352C
:1004900046F400664A462946204626604E46FFF747
:1004A00075FE80B101280BD0F61D26F0070000F183
:1004B000080956E74020E4E78020D8E70020D6E787
:1004C00006F104094DE7284652E7206ABDE8F09F8F
:1004D0006A28000010B5431C02E010F8011B71B13E
:1004E0008107FAD14FF0013202C88C1A8C4314EA0A
:1004F000C211F9D0C01A0A0603D0C01E10BDC01A1E
:1005000010BD0A0401D0801E10BD0902FCD0401E9F
:1005100010BD4FF0000200B51346944696462039B0
:1005200022BFA0E80C50A0E80C50B1F12001BFF4AC
:10053000F7AF090728BFA0E80C5048BF0CC05DF812
:1005400004EB890028BF40F8042B08BF704748BF60
:1005500020F8022B11F0804F18BF00F8012B7047D4
:100560007047704770472DE9F0470D46994692460F
:10057000044600F124080168880604D5E06921F0EA
:100580001001216000E00120A84201DD471B00E0CE
:100590000027A1697A1902EB0900081AA0612078E6
:1005A000C00602D42046FFF745FE002608E0D4E945
:1005B00001211AF806009047206A401C761C206230
:1005C0004E45F4DB2078C0060AD52046FFF732FE00
:1005D00006E0D4E9012130209047206A401C2062C7
:1005E000381EA7F10107F4DC07E0D4E9012118F86F
:1005F00005009047206A401C2062281EA5F10105D5
:10060000F3DC2046FFF72CFE2078000602D50220FE
:10061000BDE8F0870120FBE701694A1C0261087808
:10062000704700B58FB0CDE9013100210591054932
:100630007944CDE9031011466846FFF787FE0FB0F5
:1006400000BD0000E5FFFFFF0A6802F8010B0A6029
:10065000704710B5436913B1AFF3008001E0FFF7B5
:1006600010FE012010BD127800F124010A70002252
:100670004A700122EDE711684FF0FF32E9E7754655
:1006800000F02CF8AE4605006946534620F00700FE
:10069000854618B020B5FFF7A5FDBDE820404FF016
:1006A00000064FF000074FF000084FF0000BAC467B
:1006B000ACE8C009ACE8C009ACE8C009ACE8C009C6
:1006C00021F007018D46704710B50446AFF3008056
:1006D0002046BDE81040FFF771BD0000004870479C
:1006E0001000002001491820ABBEFEE726000200E2
:1006F00070470000B0B582B0044600200190216828
:100700008A68D2074BD1886840F00100886040F2C7
:100710000800C2F2000000684DF68361C4F21B318C
:10072000A0FB0101880C01900198A0B1019801384B
:100730000190019878B1019801380190019850B169
:10074000019801380190019828B101980138019071
:1007500001980028EAD100F023FD21688968C907C3
:100760001CD1054603E000BF8068C00716D100F029
:1007700017FD411B20680329F6D38168C907F3D10F
:10078000A06A40F01000A062E06A40F00100E06260
:10079000002084F82400012002B0B0BD002002B087
:1007A000B0BD0000FEE7000070470000102000F020
:1007B000D7BB0000202000F0D3BB000070B581B093
:1007C0000022009290F82420012A03D10221084639
:1007D00001B070BD4A680123062A02EB820E80F840
:1007E000243007D8D0F800C06FF004030CF13406B1
:1007F0000CE000BFD0F800C00C2A87BF0CF12C061B
:100800006FF040030CF130066FF022030EEB030291
:100810001F23346803FA02F50B6824EA050503FA7E
:1008200002F22A433260092B03EB43021AD9DCF8A7
:100830000C601E3A072589689540AE43914023F02D
:1008400001023143102ACCF80C1015D142F20041BC
:10085000C4F201018C4517D0816A41F02001816208
:1008600001210AE0DCF81030072689689640B3437E
:1008700091401943CCF810100021002280F8242068
:10088000084601B070BD00BF89680902F4D4DCF8E5
:100890000810102B41F40001CCF80810ECD140F204
:1008A0000801C2F2000109684DF68362C4F21B32EE
:1008B000A1FB0212910C01EB81014900009100990A
:1008C0000029D9D000990139009100990029D3D08D
:1008D00000990139009100990029CDD00099013982
:1008E000009100990029C7D0009901390091009921
:1008F00000294FF00001E5D1BFE700000068C06C9F
:1009000070470000002804BF01207047B0B50446BE
:10091000806A28B121688868C0070CD115E000BF43
:100920000020E06284F82400204600F097F8216857
:100930008868C00709D0886820F00100886000F04E
:100940002FFC21688A68D20726D1A06AC0063AD453
:10095000A06A41F2021290430230A062E069D4E939
:10096000013240EA030C531EB3FA83F35D091346C8
:10097000B2F5807F18BF2B02207D257B01284CEA31
:1009800045002CD135B3A56A45F02005A562E56A7E
:1009900045F00105E56222E0054602E08868C007EF
:1009A000D3D000F0FDFB401B21680328F6D38868F4
:1009B000C007F3D0A06A40F01000A062E06A40F0E7
:1009C0000100E062A06AA06A40F01000A06201206D
:1009D000B0BD00BFA56903EB4533A3F5C0534D6817
:1009E000B2F5807F25F4694543EA05034B608B68C7
:1009F0004FF2FD75CFF6E17503EA050343EA000304
:100A00008B6001D0012A07D122690023CFF6F07351
:100A100003EB025201E000BF0022CB6A23F4700313
:100A20001A43CA62896840F6FE62CFF61F7211400F
:100A3000814207D10020E062A16A012262F3010134
:100A4000A162B0BDA06A40F0100020F00200A062D8
:100A5000E06A40F00100E0620120B0BD80B586B0E0
:100A6000014640F60000C4F20100096800F5E052BA
:100A700091424FF00001CDE90411CDE9021101D0FE
:100A800006B080BD41F21801C4F202010A6842F4C6
:100A900000720A600A6802F400720192019A0A6800
:100AA00042F004020A60096801F004010191019911
:100AB000012102910321039102A900F05DFA06B021
:100AC00080BD00002DE9F04182B000270D460446AC
:100AD000019700F065FB21688A68D20544D4064678
:100AE0004868C00503D4C86A10F4700F46D040F2BD
:100AF0000800C2F20000076842F292480220C1F2E8
:100B0000492800F009FC216844F624130A69B7FB60
:100B1000F0F0C2F292431A4206D1CA6844F6241396
:100B2000C0F292031A425BD00A6912EA080F07D199
:100B3000CA6842F29243C0F249031A4200F0C080F0
:100B40000A6949F24923C0F224031A424FF0FC0219
:100B500054D1CF681F4208BF5422019B02FB00F70B
:100B6000BB4250D3C3E000BFA06A40F02000A062A7
:100B700084F82470012002B0BDE8F0810868800785
:100B800000F1B580681C00F0A880FDB908688007F6
:100B900070D50868800700F1AA800868800769D5C9
:100BA0000868800700F1A3800868800762D508689C
:100BB000800700F19C80086880075BD50868800783
:100BC000E4D594E00868800700F1918000F0E8FA2D
:100BD000801B2168A842F5D908688007F2D449E053
:100BE0000A6912EA080F4FF0290207D1CB6842F2D6
:100BF0009247C0F249073B4208BF1422019B02FB07
:100C000000F7BB4273D2681C52D05DBB0198B8425A
:100C100030D30198013001900198B84267D2019811
:100C2000B84227D30198013001900198B8425ED2B2
:100C30000198B8421ED30198013001900198B84242
:100C400055D20198B84215D301980130019001980E
:100C5000B842DBD34BE000BF01980130019001980E
:100C6000B84235D200F09CFA801BA842F4D9019812
:100C7000B842F1D2A06A40F00400A062002084F8DB
:100C80002400032002B0BDE8F08100BF01980130CC
:100C900001900198B8422AD2019801300190019840
:100CA000B84224D20198013001900198B8421ED276
:100CB0000198013001900198B842E7D317E000BFD6
:100CC0005422019B02FB00F7BB429CD30FE000BF04
:100CD00021680CE00868800709D40868800706D4FA
:100CE000086880075CBF08685FEA8070F2D56FF023
:100CF00012000860A06A40F40070A062886800F4E6
:100D00006020B0F5602F01D1207B18B1002002B027
:100D1000BDE8F081A06A20F48070A062A06AC004DF
:100D2000F4D4A06A40F00100A062002002B0BDE847
:100D3000F081000010B5044690F82400012804BF9B
:100D4000022010BD012084F824002046FFF7D2FCC9
:100D500020B1002084F82400012010BD42F2044C90
:100D60002068A16AC4F2010C40F2013291430CF5F3
:100D70007F7201F580719042A16229D0A16A21F4AD
:100D80008011A1624168490504D5A16A012363F37A
:100D90000D31A162A16A0023C9044FF0000144BFD4
:100DA000E16A21F00601E1626FF0020184F824306B
:100DB0000160816801F46021B1F5602F1BD1904280
:100DC00014D0816841F4A0018160002010BD00BFF3
:100DD000DCF8001011F4702FD0D0A16A41F480111A
:100DE000A162DCF800104905CFD4D3E7DCF800108D
:100DF00011F4702FE5D0816841F4801181600020EA
:100E000010BD0000B0B5044690F82400012804BFCE
:100E10000220B0BD0121206884F824108168C90730
:100E200009D0816821F00101816000F0B9F92168E1
:100E30008968C9070ED1214651F8280F41F20112E5
:100E400020EA0202002042F001020A60002184F838
:100E50002410B0BD054602E08068C007EBD000F06A
:100E60009FF9411B20680329F6D38168C907F3D095
:100E7000A06A214640F01000A06251F82C2F0120FA
:100E8000E1E70000B0B5044600F08AF9054640F2FB
:100E90000000C2F200000078611C18BF044400BFCB
:100EA00000F07EF9401BA042FAD3B0BD10281BD041
:100EB000202818BF7047F0B581B040F27006C2F22A
:100EC0000006307840F60004C4F20104D0B10027D7
:100ED00037603771B781C6F80570C6E90477C6E98F
:100EE00006773762B7721AE040F27000C2F2000073
:100EF0000178012904D18178002904BF01214170C2
:100F0000704700BF0127002037603071B081C6F8FC
:100F10000500C6E90400C6E906003062B07240F27E
:100F2000DC00C2F200006421FFF7F3FA04F58065EB
:100F300028460121002200F02DF928460221002236
:100F400000F028F920464FF48071002200F022F9C9
:100F500020468021002200F01DF9777201B0F0BD1B
:100F600040F21441C4F201010A68024214BF086051
:100F70007047FFF79BBF00002DE9F04F82B00E686D
:100F8000002E00F0FD8041F20042C4F20102042371
:100F900040F2004E904208BF03234FF6FF7CC4F29C
:100FA000010E009300240123C1F2100C4FF0000A3F
:100FB0004FF000094BE000BF41F20002C4F2010211
:100FC000009F904208BF022704F00C030F229A40B2
:100FD0002BEA020207FA03F34FEA9A051A4346F88E
:100FE00025204E6840F20C45F202DEF8082054BF7E
:100FF00022EA080242EA0802C4F20105CEF80820FB
:101000002A68B30254BF22EA080242EA08022A60B0
:10101000B303DEF8042054BF22EA080242EA0802C1
:10102000F303CEF80420DEF800204FF0010354BF94
:1010300022EA080242EA0802CEF800200E680AF10D
:10104000010A36FA0AF204F1040400F0998003FA66
:101050000AFB16EA0B08F1D04E68664512DC122E28
:1010600056D8DFE806F0350B4D49555555555555C1
:101070005555555555555545510000BFD1F80C9063
:1010800046E000BF4FF6FF72C1F2210296420FDC2C
:101090000022C1F2110296421AD00022C1F21202BD
:1010A000964215D00022C1F22102964210D02FE0C4
:1010B0000022C1F2220296420AD00022C1F231027D
:1010C000964205D00022C1F23202964220D100BFE2
:1010D0008A684AB1012A14BFC0F814B0C0F810B031
:1010E0004FF0080914E000BF4FF0040910E000BF02
:1010F000CA6802F104090BE04FF0000908E000BFE4
:10110000CA6802F1080903E0CA6802F10C0900BFCD
:1011100002462646B8F5807F24BF0432203E176879
:101120000F25B54027EA050509FA06F6354315608F
:10113000CA79D2067FF582AF41F21803C4F20203E6
:101140001A68AEF57E7642F001021A601A6802F063
:1011500001020192019A2AF0030256F802B040F609
:101160000002C4F20102904208D040F60042C4F2EC
:10117000010290427FF420AF012725E7002723E7F3
:1011800002B0BDE8F08F00008068084018BF012061
:1011900070470000002A08BF090401617047000081
:1011A00040F27020C2F200000068704740F2000078
:1011B00040F27021C2F20000C2F2000100780A6819
:1011C000104408607047000080B542F20000C4F28D
:1011D0000200016841F010010160032000F08CF86A
:1011E0000F2000F005F800F027F8002080BD000077
:1011F00070B540F20006C2F2000640F208013278F3
:10120000C2F200014FF47A730968B3FBF2F20446AC
:10121000B1FBF2F1084600F083FC0F2C4FF0010502
:1012200008D838B94FF0FF3021460022002500F0E1
:1012300037F87460284670BD82B041F21800C4F2DD
:1012400002000168042241F001010160016801F01F
:10125000010101910199416841F08051416040686C
:1012600000F08050009000980420C4F20100016852
:1012700062F31A61016002B070470000002848BFA5
:10128000704700F01F01012202FA01F11C2202EA5C
:10129000D0004EF20012CEF20002815070470000E2
:1012A00010B54EF60C5CCEF2000CDCF80030C3F347
:1012B000022E8EF00704042C28BF0424BEF1030381
:1012C0004FF0FF3E0EFA04F438BF0023A1439940CB
:1012D0000EFA03F39A43114300F00F0200F160434A
:1012E0000901043A03F564436244002848BF02F14F
:1012F0000C03197010BD00004EF60C51CEF2000127
:101300000A684FF6FF031A4060F30A2242F0806039
:1013100040F0FD7008607047012821D002280DD0F0
:10132000102808D141F20401C4F202010A6851F800
:10133000040CC00134D40020704700BF80B500F019
:10134000DBF941F20401C4F2020109680222C1F38F
:10135000813102EB4101B0FBF1F0BDE88040704704
:1013600041F20400C4F20200C16940F202320A40B4
:10137000B2F5817F04BF4FF40040704701F4407123
:10138000B1F5407F18D0B1F5007F1CBF0020704739
:10139000006A49F64041800701EAE070704700BFEB
:1013A000C2F3834015A3185CD2030DD440F600129B
:1013B000C0F23D02504313E050F8040C4FF22441B8
:1013C000800301EAE07070470A6810A3C2F340424C
:1013D0009A5C41F20023C0F27A03B3FBF2F250436D
:1013E0000968490248BF70474AF6AB214000CAF677
:1013F000AA21A0FB01014808704700BF02030405B1
:10140000060708090A0B0C0D0E0F10100102000050
:101410002DE9F04182B00446007841F21C06C00775
:10142000C4F202064AD030685FEAC00808D43068C7
:1014300040F080503060306800F08050019001989A
:1014400047F20007C4F200073868C00512D43868B4
:1014500040F480703860FFF7A3FE05463868C00589
:1014600008D4FFF79DFE401B6428F7D9032002B083
:10147000BDE8F081706810F4407012D0616801F42A
:10148000407188420DD0706840F24042C4F242225E
:10149000012320F4407113600023C00713607160C2
:1014A00026D17068616820F440700843B8F1000FDD
:1014B000706003D4306820F080503060206881076D
:1014C00007D556F8181CA26821F44041114346F88C
:1014D000181CC00607D556F8180CE16820F48000E7
:1014E000084346F8180C002002B0BDE8F08100BFA8
:1014F000FFF756FE054641F2883700BF7068800747
:10150000CFD4FFF74DFE401BB8424FF00300F5D992
:10151000EAE70000002804BF012070472DE9F043EE
:1015200081B042F20008C4F202080446D8F8000074
:101530000D4600F0070081420CD9D8F8000020F0D9
:1015400007002843C8F80000D8F8000000F00700A2
:10155000A8426CD1206841F204098107C4F2020953
:1015600017D5410705D5D9F8001041F4E061C9F855
:101570000010010705D5D9F8001041F46051C9F8F1
:101580000010D9F80010A26821F0F0011143C9F849
:101590000010C00742D1D8F8000000F007008542D3
:1015A0000CD2D8F8000020F007002843C8F800004B
:1015B000D8F8000000F00700A84238D120684107A1
:1015C00007D5D9F80010E26821F4E0611143C9F8A9
:1015D0000010000708D5D9F80000216920F46050F8
:1015E00040EAC100C9F80000D9F8002002F00C0060
:1015F000082841F20020C0F27A004DD142F6F533BE
:10160000C2F38341C0F60003595CD20338D440F6DC
:101610000010C0F23D0048433EE000BF606859F84A
:10162000041C022808D0012826D1890306D40120F1
:1016300001B0BDE8F08300BF8901F8D5D9F80010EA
:1016400021F003010843C9F80000FFF7A9FD064691
:1016500041F28837D9F80000616800F00C00B0EB67
:10166000810F98D0FFF79CFD801BB842F2D9032070
:1016700001B0BDE8F08300BF8907D8D5DEE700BF21
:10168000D9F8002042F6F333C2F34042C0F600031B
:101690009A5C4843B0FBF2F0D9F8001042F6DB3216
:1016A000C1F30311C0F60002515C40F2080220FAB7
:1016B00001F140F20400C2F200000068C2F2000230
:1016C0001160FFF795FD002001B0BDE8F083000038
:1016D00040F2080041F20401C2F20000C4F202012B
:1016E0000068096842F6EB32C1F30221C0F600023D
:1016F000515CC8407047000040F2080041F204010C
:10170000C2F20000C4F202010068096842F6EB323E
:10171000C1F3C221C0F60002515CC840704700000E
:10172000002804BF012070472DE9F04182B0044633
:10173000007841F20006C007C4F202060CD07068BF
:1017400000F00C00042840F081803068800303D54D
:101750006068002800F04681207880071BD57068FB
:1017600010F00C0F09D0706800F00C00082840F051
:1017700087807068C00300F183803068800703D5DC
:101780002069012840F02E813068616920F0F8005E
:1017900040EAC10030602078000713D42078400769
:1017A0002CD4E569002D00F01881706800F00C0061
:1017B000082840F0A780012D40F00481012002B0EC
:1017C000BDE8F081A069002800F084800020C4F208
:1017D00042200121C0F88014FFF7E2FC054600BF5B
:1017E000706A800700F1B280FFF7DAFC401B022824
:1017F000F6D9032002B0BDE8F08100BFF0695FEACE
:10180000C00808D4F06940F08050F061F06900F041
:1018100080500090009847F20007C4F20007386833
:10182000C00549D4386840F480703860FFF7B8FCD0
:10183000054600BF3868C0053ED4FFF7B1FC401B29
:101840006428F7D9032002B0BDE8F081706800F089
:101850000C00082803D17068C0033FF576AF6168BB
:101860003068002900F00C81B1F5A02F00F0008154
:10187000B1F5803F40F01A8140F480301CE100BF98
:101880002069002840F20000C4F2422000F0888065
:1018900001210160FFF784FC054600BF3068800726
:1018A0003FF572AFFFF77CFC401B0228F6D90320FE
:1018B00002B0BDE8F08100BFE168306A002900F0A5
:1018C0009D80052900F09280012940F0AF8040F012
:1018D0000100B1E00020C4F242200021C0F88014D1
:1018E000FFF75EFC054600BF706A80077FF556AFC4
:1018F000FFF756FC401B0228F6D9032002B0BDE8D2
:10190000F08100BF0027C4F2422700203866FFF7AD
:1019100047FC022D05460DD13068800140F1DE8084
:10192000FFF73EFC401B02284FF00300F4D902B041
:10193000BDE8F081306880014FD5FFF731FC401BD6
:1019400002284FF00300F5D9F1E700BF40F208008C
:10195000C2F20000006844F6D351C1F26201A0FB5C
:101960000101480A019000BF00BF0198411E0028F4
:1019700001913FF413AF00BF0198411E002801916F
:101980003FF40CAF00BF0198411E002801913FF4C5
:1019900005AF00BF0198411E00280191E4D1FDE68A
:1019A00000210160FFF7FCFB054600BF306880079F
:1019B0007FF5F1AEFFF7F4FB401B02284FF0030068
:1019C000F4D9B4E77068216A00F480328A4209D100
:1019D000616A00F47010884204D1002002B0BDE8B2
:1019E000F08100BF012002B0BDE8F08140F00400AA
:1019F0003062306A40F001001EE000BF20F00100BC
:101A00003062306A20F004003062FFF7C9FB0546FF
:101A100041F28837306A800720D5FFF7C1FB401BB1
:101A2000B8424FF00300F5D981E700BF20F0010074
:101A30003062306A20F004003062FFF7B1FB0546E7
:101A400041F28837306A800708D4FFF7A9FB401BB2
:101A5000B842F7D9032002B0BDE8F081B8F1000F19
:101A60003FF59FAEF06920F08050F06199E600BF2D
:101A700040F480203060306840F480301CE000BFCB
:101A800020F480303060306820F480203060FFF730
:101A900087FB0546306880037FF55EAEFFF780FB6D
:101AA000401B64284FF00300F4D940E720F4803055
:101AB0003060306820F480203060FFF771FB05460D
:101AC000306880033FF548AEFFF76AFB401B64288F
:101AD000F6D9032002B0BDE8F08100BF206AB0F55E
:101AE000803F05D17168A26821F400311143716013
:101AF0007168626A21F47411114308437060012017
:101B00003866FFF74DFB0446306880013FF565AF4E
:101B1000FFF746FB001B02284FF00300F4D906E74D
:101B2000411E0020B0EB116F1CBF012070474EF228
:101B30001002CEF2000251604EF62351CEF20001A7
:101B4000F0230B700721906011607047002804BFDC
:101B50000120704710B5044690F8410028B90020D4
:101B600084F84000204600F063F8242084F8410007
:101B70002068D4E90212C36823F40053C3600369E8
:101B800023F440531A430261D4E904231143C26889
:101B9000194341F20C639A431143C1604169A26940
:101BA00021F44071114343F60002C4F20102904255
:101BB000416103D0FFF78CFD02E000BFFFF79CFD01
:101BC000D4E90023192148439900B0FBF1F048F211
:101BD0001F5CC5F2EB1CA0FB0C314FF69C7349094E
:101BE000C0F6FF7301FB0300322303EB0010A0FBE0
:101BF0000C03F02000EA531000EB0110C3F3431173
:101C0000084490601069202120F4904010615069D0
:101C100020F02A005061D06840F40050D0600020CD
:101C2000606484F8411084F84210606310BD0000C5
:101C300070B586B0006844F20041C4F200018842E9
:101C40004FF00001CDE90411CDE9021120D043F697
:101C50000001C4F20101884248D141F21800C4F2E7
:101C6000020001684FF4806641F480410160016820
:101C700001F4804101910199016841F00401016082
:101C8000006800F00400019001984FF4007017E024
:101C900041F21800C4F202004168082641F4003104
:101CA0004160416801F4003101910199016841F0FE
:101CB00004010160006800F0040001900198042014
:101CC0000290022040F6000403900320C4F20104B5
:101CD00002AD059020462946FFF74EF90020CDE9D8
:101CE0000300204629460296FFF746F906B070BD6C
:101CF0002DE9F04381B0044690F84100202809D135
:101D000000294FF0010018BF002A07D101B0BDE83B
:101D1000F08300BF022001B0BDE8F08300206064C2
:101D200021201D460E4684F841001746FFF738FA79
:101D3000A784E784A1688146B1F5805F02D120695C
:101D400000285DD037460020E28C2168002A5DD053
:101D50006A1C24D0002D4AD0804600BF08680006C7
:101D600008D4FFF71DFAA0EB0900A8427AD8216831
:101D7000C868F3E717B117F8010B04E038F8020B55
:101D800000276FF35F204860E08C0138E084E08C2E
:101D90000028E3D13AE000BF0A68120609D40A68B5
:101DA000120606D40A6812065CBF0A685FEA02627D
:101DB000F2D51FB117F8012B05E000BF30F8022B58
:101DC00000276FF35F224A60E28C013AE284E28CE2
:101DD000002AE4D11AE000BF30F8022B00276FF38D
:101DE0005F224A60E28C013AE284E28C72B10A68B6
:101DF000120635D5002FEFD017F8012BF1E700BF01
:101E000000273046E28C2168002AA1D108684006EC
:101E10001ED42DB3681C14D1086840062AD4086863
:101E2000400627D40868400624D4086840064FF0CE
:101E30000000F1D50DE000BF2068C16800684006D1
:101E400018D4FFF7ADF9A0EB0900A842F4D909E0D6
:101E50000020202184F8411001B0BDE8F08300BFCC
:101E6000FFF79EF90320202184F8411001B0BDE85E
:101E7000F08300BF0020202184F8411001B0BDE8AC
:101E8000F0830000FEE7000010B52820FEF7FAFFFF
:101E900040F60044C4F2010420464FF400610022E1
:101EA000FFF778F920464FF480510022FFF772F9CE
:101EB00020464FF400510122FFF76CF920464FF401
:101EC00080410122FFF766F920464FF400410022CD
:101ED000FFF760F920464FF480610022FFF75AF9BE
:101EE00020464FF480510122FFF754F90120FEF7FC
:101EF000C9FF20464FF480510022FFF74BF9012023
:101F0000FEF7C0FF0520FEF7BDFF20464FF400514D
:101F10000122FFF73FF920464FF480410122FFF7ED
:101F200039F920464FF400410022FFF733F92046EB
:101F30004FF480610022FFF72DF920464FF48051C5
:101F40000122FFF727F90120FEF79CFF20464FF4FE
:101F500080510022FFF71EF90120FEF793FF0120B8
:101F6000FEF790FF20464FF400510122FFF712F9CF
:101F700020464FF480410122FFF70CF920464FF430
:101F800000410022FFF706F920464FF4806100224D
:101F9000FFF700F920464FF480510122FFF7FAF8CD
:101FA0000120FEF76FFF20464FF480510022FFF71B
:101FB000F1F80120FEF766FF0120FEF763FF2046DF
:101FC0004FF400510022FFF7E5F820464FF480411E
:101FD0000122FFF7DFF820464FF400410022FFF70F
:101FE000D9F820464FF480610022FFF7D3F820464D
:101FF0004FF480510122FFF7CDF80120FEF742FF98
:1020000020464FF480510022FFF7C4F80120FEF76C
:1020100039FF282000F098F80C2000F095F80620F1
:1020200000F092F8012000F08FF80220BDE8104087
:10203000FEF728BF10B54CF280026FF07F030C460C
:10204000C100CDF29442042838BF22FA01F3D8B27D
:1020500000F07AF82078002808BF202000F0DEF891
:102060006078002808BF202000F0D8F8A078002869
:1020700008BF202000F0D2F8E078002808BF202018
:1020800000F0CCF82079002808BF202000F0C6F826
:102090006079002808BF202000F0C0F8A07900284F
:1020A00008BF202000F0BAF8E079002808BF2020FF
:1020B00000F0B4F8207A002808BF202000F0AEF825
:1020C000607A002808BF202000F0A8F8A07A002835
:1020D00008BF202000F0A2F8E07A002808BF2020E6
:1020E00000F09CF8207B002808BF202000F096F824
:1020F000607B002808BF202000F090F8A07B00281B
:1021000008BF202000F08AF8E07B002808BF2020CC
:1021100000F084F8207C002808BF202000F07EF822
:10212000607C002808BF202000F078F8A07C002800
:1021300008BF202000F072F8E07C002808BF2020B3
:10214000BDE8104000F06AB8B0B540F60044C4F2F3
:102150000104054620464FF400610022FFF71AF8FB
:10216000C5F3001220464FF40051FFF713F8C5F3F2
:10217000401220464FF48041FFF70CF8C5F380125F
:1021800020464FF40041FFF705F8EA0920464FF4D6
:102190008061FEF7FFFF20464FF480510122FEF7D9
:1021A000F9FF0120FEF76EFE20464FF48051002219
:1021B000FEF7F0FF0120FEF765FE05F00102204664
:1021C0004FF40051FEF7E6FFC5F3400220464FF4FE
:1021D0008041FEF7DFFFC5F3800220464FF4004147
:1021E000FEF7D8FFC5F3C00220464FF48061FEF72A
:1021F000D1FF20464FF480510122FEF7CBFF012092
:10220000FEF740FE20464FF480510022FEF7C2FF49
:102210000120BDE8B040FEF735BE0000B0B540F685
:102220000044C4F20104054620464FF40061012237
:10223000FEF7B0FFC5F3001220464FF40051FEF741
:10224000A9FFC5F3401220464FF48041FEF7A2FFDC
:10225000C5F3801220464FF40041FEF79BFFEA09C8
:1022600020464FF48061FEF795FF20464FF48051E1
:102270000122FEF78FFF0120FEF704FE20464FF4F7
:1022800080510022FEF786FF0120FEF7FBFD05F0DE
:10229000010220464FF40051FEF77CFFC5F34002D7
:1022A00020464FF48041FEF775FFC5F380022046BB
:1022B0004FF40041FEF76EFFC5F3C00220464FF415
:1022C0008061FEF767FF20464FF480510122FEF740
:1022D00061FF0120FEF7D6FD20464FF48051002219
:1022E000FEF758FF0120BDE8B040FEF7CBBD00006F
:1022F000FEE70000FEE70000704700002DE9F04F08
:1023000081B040F2700BC2F2000B4FF480700BF101
:102310003C0540F60007ABF801002846C4F201076F
:10232000FEF708FD0220FEF7ADFD28461421FEF75A
:10233000C9FB2846FEF7E2FAABF80C002846FEF788
:1023400061FD38460221FEF71FFFBBF80C108BF829
:102350000500643940F6553200230138914238BFF8
:102360000123B0FA80F0DBF81010400910EA0308EE
:1023700001F10100CBF810004FF001008BF80300D1
:102380008BF8048020D0DBF8140007F5806501305D
:10239000CBF81400284601210122FEF7FBFE284657
:1023A00002210022FEF7F6FE38464FF4807100222B
:1023B000FEF7F0FE384680210022FEF7EBFE42F6E3
:1023C0005F49C0F6000927E0DBF8180007F58065D3
:1023D0000130CBF81800284601210022FEF7DAFE72
:1023E000284602210122FEF7D5FE38464FF48071BF
:1023F0000122FEF7CFFE384680210022FEF7CAFEFA
:1024000040F20110ABF80600FEF7CAFE42F664493E
:10241000C0F60009CBF81C00FEF7C2FE44F6D3510B
:10242000C1F26201A0FB011247F6B141C9F221518C
:10243000A0FB01134BF27321C4F2E751A0FB010191
:10244000900944F24542890BC0F24442A1FB027458
:10245000A0FB02275A0D40F6AB2353431B0C03EBA2
:102460004303A2EBC302C4EB04139BF80A40A1EBA5
:102470008301C7EB071340F2DC0704EB8405C2F2CB
:102480000007A0EB83007E193071601C4FF0010A39
:10249000F170C1B240F2D0149BF8053007F805A0E6
:1024A00086F80180B270132988BF0020BBF80C2089
:1024B000C2F200048BF80A0011A12046CDF800906A
:1024C000FDF7A2FE2046FEF705F882B240F2881022
:1024D000C2F200002146C823FFF70AFC00F020F8F2
:1024E0008BF808A0FEF75CFECBF8200002208BF8EA
:1024F000090000208BF8020001B0BDE8F08F00BF9A
:102500004144433D257520434F4C4F523D25752096
:102510005354415455533D25730D0A007047000034
:102520002DE9F04F83B040F27004C2F2000404F1D0
:10253000100740F2D0198CCFC2F2000935A14846ED
:102540000097FDF761FE40F28815C2F2000582B2E5
:1025500028464946C823FFF7CBFB44F24C1043F210
:102560003201C5F25340C0F63A51C9E900010A20D0
:10257000A9F80800284649460922C823FFF7B8FBF6
:10258000A07A40F2DC0742F6644800264CF6CD4BB8
:10259000C2F20007C0F600080FF2980A02E000BF7E
:1025A000142E33D031188AB202FB0BF2120D02EB5B
:1025B0008202A1EB820189B201EB81017A5C0136D2
:1025C000012AEDD1781841788278C478057942F6ED
:1025D0005F404346C0F60000012908BF0346CDE92D
:1025E00000244846514632460295FDF70DFE82B260
:1025F00040F28810C2F200004946C823FFF778FB7A
:1026000040F27000C2F20000807AC9E703B0BDE872
:10261000F08F00BF544F54414C3D256C752C5041F8
:1026200053533D256C752C52454A4543543D256C0A
:10263000750D0A002530326429202573202530329B
:10264000643A253032643A253032640D0A000000C5
:10265000FEF7ACBD7047000070B582B0FEF7A0FD7C
:1026600044F6D351C1F26201A0FB011247F6B14119
:10267000C9F22151A0FB01134BF27321C4F2E751BF
:10268000A0FB010144F245409209890BC0F244408D
:10269000A1FB0065A2FB0004580D40F6AB234343A9
:1026A0001B0C03EB430340F27006A0EBC300C5EB29
:1026B0000513C2F20006A1EB8303717AC4EB041583
:1026C0000229A2EB85054DD001291BD0002940F03D
:1026D000A58042F62F41C0F600010020FFF7AAFCBA
:1026E00042F60541C0F600010120FFF7A3FC65A1F9
:1026F0000220FFF79FFC69A1032002B0BDE87040F3
:10270000FFF798BC06F1240442F6444182B2C0F6B9
:10271000000120460095FDF777FD00202146FFF7D8
:1027200089FC326942F61A41C0F600012046FDF7E5
:102730006BFD01202146FFF77DFCD6E9052342F61B
:102740006B41C0F600012046FDF75EFD02202146E8
:10275000FFF770FC45A1032002B0BDE87040FFF711
:1027600069BC00BF06F1240442F6444182B2C0F6BF
:10277000000120460095FDF747FD00202146FFF7A8
:1027800059FC326942F61A41C0F600012046FDF7B5
:102790003BFD01202146FFF74DFCD6E9052342F61B
:1027A0006B41C0F600012046FDF72EFD02202146B8
:1027B000FFF740FCFEF7F4FC316A401AB0F5FA6FFF
:1027C00010D340F600444FF48070C4F2010430810D
:1027D000204601210022FEF7DDFC204602210022D6
:1027E000FEF7D8FC3179F07814A301290DA208BFB7
:1027F000134618A101284FF0030008BF1946FFF740
:1028000019FCFEF7CDFC316A401AB0F5FA6F07D318
:102810004FF48070308102B070BD00BF0020707234
:1028200002B070BD4C4153543A20504153532020C4
:102830002020202020202020000000004C41535464
:102840003A2052454A454354202020202020202071
:10285000000000004E4F2050524F4455435420205A
:102860002020202020202020000000005741495433
:10287000494E472050524F44554354202020202099
:1028800000000000504153533A302052454A45431E
:10289000543A302020202020000000005359535487
:1028A000454D204F4646202020202020202020205B
:1028B00000000000FEE7000094B0FEF785FC0AACC3
:1028C000201D2421FDF725FE02200A9001200E90F4
:1028D000102000250F9020460495CDE90255119552
:1028E000FEF71EFF20B1EFF3108072B6FEE700BFC7
:1028F0000F20CDE9050505A80021CDE9075509956B
:10290000FEF708FE20B1EFF3108072B6FEE700BFBD
:102910004FF0020A002701A8CDF804A00397FEF7A4
:1029200077FD28B1EFF3108072B600BFFEE700BF5D
:1029300041F21800CDE90C77CDE90A77C4F2020024
:10294000016840F6000441F0040101600168C4F22E
:10295000010401F00401059105990168002241F08C
:102960000801016000684FF4C07100F00800059094
:1029700005982046FEF70EFC04F5806840464FF6A9
:10298000034100224FF6034BFEF704FC0AAE20463B
:102990003146CDE90AA70C97FEF7EEFA1020002584
:1029A0000A90C1F2110520463146CDE90B57FEF7DA
:1029B000E3FA20200A9005F580100B904FF00109F2
:1029C00020463146CDF83090FEF7D6FA4FF4C0706D
:1029D000CDE90A0920463146CDE90C7AFEF7CCFA5A
:1029E00040463146CDE90AB9CDE90C7AFEF7C4FA82
:1029F0000A2000210022FEF753FC0A20FEF73EFCCD
:102A0000172000210022FEF74BFC1720FEF736FCB2
:102A100040F27006C2F2000604F5E051304640F87C
:102A20003C1F4FF4602107730775C161C0E901774E
:102A3000C0F81090FDF766FF20B1EFF3108072B67A
:102A4000FEE700BF052000250C9006F13C000AA916
:102A5000CDE90A59FDF7B2FE20B1EFF3108072B64E
:102A6000FEE700BF40F2401004F54051C2F2000002
:102A70004FF4165A4FF00C09C0E9001AC0E902558C
:102A8000C0E90459C0E90655FFF760F820B1EFF33B
:102A9000108072B6FEE700BF40F28810A4F54441F2
:102AA000C2F200000027C0E9001AC0E90277C0E9BD
:102AB0000479C0E90677FFF749F828B1EFF31080F1
:102AC00072B600BFFEE700BFFFF7DEF940F2DC00A0
:102AD000C2F200006421C6F80170B781C6F8057023
:102AE000C6E90477C6E906773762B772FDF711FDCC
:102AF000404601210022FEF74DFB40460221002204
:102B00000225FEF747FB20464FF480710022FEF7B6
:102B100041FB204680210022FEF73CFB7772FFF745
:102B20009BFD04E0FFF798FD6420FEF7ABF93078D9
:102B300070B17078012803D1B07808B9FFF7DEFBD7
:102B4000307A38B9707A022804D0012001E000BF41
:102B500000207072B0790128E4D1F079022819D0F0
:102B60000128DFD1FEF71CFBF169401AB0F5FA7FAE
:102B7000D8D320464FF480710022FEF70BFB20468D
:102B800080210122FEF706FBF571FEF709FBF061DB
:102B9000C8E700BFFEF704FBF169401AB0F5487FB3
:102BA000C0D320464FF480710022FEF7F3FA20468E
:102BB00080210022FEF7EEFAF780B3E730380A28CA
:102BC00001D2012070470020704704000008000077
:102BD00000000000000200010000100000000000E2
:102BE00000000001020304060708090000000001BC
:102BF000020304010202030405060708090A0B0C7C
:102C00000D0E0F1010544F54414C3A20302020200C
:102C100020202020202020202000544F54414C3AD6
:102C200020256C75202020202020202020200054EA
:102C3000494D452030303A30303A30302020202085
:102C40002020200054494D4520253032643A25305B
:102C500032643A2530326420202020202020005089
:102C60004153530052454A45435400504153533A4F
:102C7000256C752052454A4543543A256C75000031
:102C8000A02C0008000000201000000050010008E7
:102C9000B02C000810000020680800007001000837
:102CA000010000001000000000127A000000000087
:04000005080000ED02
:00000001FF
